{
	"data": {
		"bytecode": {
			"linkReferences": {},
			"object": "6080604052600f805461ff0019166101001790553480156200002057600080fd5b5060405162003aa138038062003aa1833981016040819052620000439162000450565b600080546001600160a01b0319166001600160a01b0383169081179091556040805162ee2cb160e41b81529051630ee2cb10916004808201926020929091908290030181865afa1580156200009c573d6000803e3d6000fd5b505050506040513d601f19601f82011682018060405250810190620000c2919062000450565b600180546001600160a01b0319166001600160a01b0392831617905560005460408051630e56001560e21b81529051919092169163395800549160048083019260209291908290030181865afa15801562000121573d6000803e3d6000fd5b505050506040513d601f19601f8201168201806040525081019062000147919062000450565b600280546001600160a01b0319166001600160a01b039283161790556000546040805163819e213d60e01b81529051919092169163819e213d9160048083019260209291908290030181865afa158015620001a6573d6000803e3d6000fd5b505050506040513d601f19601f82011682018060405250810190620001cc919062000477565b60055560005460408051635605c66d60e01b815290516001600160a01b0390921691635605c66d916004808201926020929091908290030181865afa1580156200021a573d6000803e3d6000fd5b505050506040513d601f19601f8201168201806040525081019062000240919062000477565b6006556000546040805163502ef5ff60e01b815290516001600160a01b039092169163502ef5ff916004808201926020929091908290030181865afa1580156200028e573d6000803e3d6000fd5b505050506040513d601f19601f82011682018060405250810190620002b4919062000477565b600755600054604080516310741f6360e21b815290516001600160a01b03909216916341d07d8c916004808201926020929091908290030181865afa15801562000302573d6000803e3d6000fd5b505050506040513d601f19601f8201168201806040525081019062000328919062000477565b60085560005460408051630b0dd23560e11b815290516001600160a01b039092169163161ba46a916004808201926020929091908290030181865afa15801562000376573d6000803e3d6000fd5b505050506040513d601f19601f820116820180604052508101906200039c919062000477565b60095560005460408051630ccaf6d760e21b815290516001600160a01b039092169163332bdb5c916004808201926020929091908290030181865afa158015620003ea573d6000803e3d6000fd5b505050506040513d601f19601f8201168201806040525081019062000410919062000450565b600380546001600160a01b0319166001600160a01b03929092169190911790555062000491565b6001600160a01b03811681146200044d57600080fd5b50565b6000602082840312156200046357600080fd5b8151620004708162000437565b9392505050565b6000602082840312156200048a57600080fd5b5051919050565b61360080620004a16000396000f3fe6080604052600436106101b75760003560e01c80637516daa8116100ec578063959ec2a31161008a578063cd6e939b11610064578063cd6e939b146104cd578063d0e30db0146104f7578063d1914988146104ff578063fa8dc8c91461051557600080fd5b8063959ec2a314610476578063c71daccb14610496578063cd323f37146104b857600080fd5b80637fee0760116100c65780637fee07601461040057806381276f3914610420578063819e213d1461044057806393694f671461045657600080fd5b80637516daa8146103c35780637754114c146103d85780637d17c2cc146103e057600080fd5b806341d07d8c116101595780636244df83116101335780636244df83146103435780636821c00a1461036357806371d2ee6c146103835780637466cd9e146103a357600080fd5b806341d07d8c14610301578063502ef5ff146103175780635605c66d1461032d57600080fd5b8063328beb0f11610195578063328beb0f146102275780633cc5fae3146102565780633f6fa655146102765780634051ddac1461029057600080fd5b8063017f19e1146101bc57806302d05d3f146101c6578063161ba46a14610203575b600080fd5b6101c461052b565b005b3480156101d257600080fd5b506001546101e6906001600160a01b031681565b6040516001600160a01b0390911681526020015b60405180910390f35b34801561020f57600080fd5b5061021960095481565b6040519081526020016101fa565b34801561023357600080fd5b50600f5461024690610100900460ff1681565b60405190151581526020016101fa565b34801561026257600080fd5b506101c4610271366004613115565b6108a2565b34801561028257600080fd5b50600f546102469060ff1681565b34801561029c57600080fd5b50600554600654600154600254600754600854600954600f546040805198895260208901979097526001600160a01b0395861696880196909652939092166060860152608085015260a084015260c083015260ff16151560e0820152610100016101fa565b34801561030d57600080fd5b5061021960085481565b34801561032357600080fd5b5061021960075481565b34801561033957600080fd5b5061021960065481565b34801561034f57600080fd5b506101c461035e366004613115565b61098c565b34801561036f57600080fd5b506101c461037e366004613115565b610daa565b34801561038f57600080fd5b506101c461039e366004613115565b611060565b3480156103af57600080fd5b506101c46103be366004613115565b611376565b3480156103cf57600080fd5b506101c4611461565b6101c46116ba565b3480156103ec57600080fd5b506101c46103fb36600461312e565b611a03565b34801561040c57600080fd5b506101c461041b36600461312e565b611ca5565b34801561042c57600080fd5b506101c461043b366004613115565b611f27565b34801561044c57600080fd5b5061021960055481565b34801561046257600080fd5b506002546101e6906001600160a01b031681565b34801561048257600080fd5b506101c4610491366004613115565b61235c565b3480156104a257600080fd5b5033600090815260046020526040902054610219565b3480156104c457600080fd5b506101c4612638565b3480156104d957600080fd5b506104e26127f7565b604080519283526020830191909152016101fa565b6101c4612829565b34801561050b57600080fd5b5061021960175481565b34801561052157600080fd5b5061021960195481565b6002546001600160a01b0316331461055e5760405162461bcd60e51b815260040161055590613157565b60405180910390fd5b6011546010541461056e57600080fd5b601b600160115461057f91906131bf565b8154811061058f5761058f6131d8565b600091825260209091206002600390920201015460ff16151560011480156105f05750601c60016010546105c391906131bf565b815481106105d3576105d36131d8565b600091825260209091206002600390920201015460ff1615156001145b6105f957600080fd5b600f5460ff161561060957600080fd5b600f5460ff61010090910416151560011461062357600080fd5b601c600160105461063491906131bf565b81548110610644576106446131d8565b6000918252602090912060039091020160020154610100900460ff1615156001036107db576014546001546001600160a01b031660009081526004602052604090205410156106e05760405162461bcd60e51b815260206004820152602260248201527f63726561746f7220646f6573206e6f74206861766520656e6f7567682066756e604482015261647360f01b6064820152608401610555565b6001601b60016011546106f391906131bf565b81548110610703576107036131d8565b6000918252602080832060026003909302019190910180549315156101000261ff0019909416939093179092556014546001546001600160a01b03168252600490925260408120805490919061075a9084906131bf565b90915550506014546002546001600160a01b03166000908152600460205260408120805490919061078c9084906131ee565b9091555050600f805460ff1916600190811790915560025460145460405160008051602061356b833981519152936107d1936001600160a01b03169290918290613201565b60405180910390a1565b601c60016010546107ec91906131bf565b815481106107fc576107fc6131d8565b6000918252602082206002600390920201015460ff61010090910416151590036108a0576001601b600160115461083391906131bf565b81548110610843576108436131d8565b6000918252602082206002600390920201810180549315156101000261ff0019909416939093179092559054600f5460405160008051602061356b833981519152936107d1936001600160a01b0316929091829160ff1690613201565b565b6001546001600160a01b031633146108cc5760405162461bcd60e51b815260040161055590613229565b600f5460ff16156108dc57600080fd5b60006012541180156108f057506000601354115b6108f957600080fd5b60165460ff161561090957600080fd5b6001546001600160a01b031660009081526004602052604090205481111561093057600080fd5b60178190556016805460ff1916600190811790915580546040517fd017961242243731f971165fc8b11c9fd116c66e304166ae93fa6c45ab88cf8a92610981926001600160a01b031691859061327a565b60405180910390a150565b6001546001600160a01b031633146109b65760405162461bcd60e51b815260040161055590613229565b600f5460ff6101009091041615156001146109d057600080fd5b600060c8600754836109e2919061329b565b6109ec91906132b2565b905060055460105410610a115760405162461bcd60e51b8152600401610555906132d4565b610a1b81836131ee565b6001546001600160a01b03166000908152600460205260409020541015610a545760405162461bcd60e51b815260040161055590613318565b60008211610a6157600080fd5b60108054906000610a718361336a565b91905055506011546010541480610a9757506011546001601054610a9591906131bf565b145b610ab35760405162461bcd60e51b815260040161055590613383565b6040805160808101825283815260105460208201526001918101829052600060608201526005549091108015610aeb57506010546001145b15610bb957601c805460018181018355600092909252825160039091027f0e4562a10381dec21b205ed72637e6b1b523bdd0e4d4d50af5cd23dd4500a21181019190915560208301517f0e4562a10381dec21b205ed72637e6b1b523bdd0e4d4d50af5cd23dd4500a21282015560408301517f0e4562a10381dec21b205ed72637e6b1b523bdd0e4d4d50af5cd23dd4500a2139091018054606085015115156101000261ff00199315159390931661ffff1990911617919091179055600a805460ff19169091179055610c87565b82600b6000828254610bcb91906131ee565b9091555050601c8054600181018255600091909152815160039091027f0e4562a10381dec21b205ed72637e6b1b523bdd0e4d4d50af5cd23dd4500a21181019190915560208201517f0e4562a10381dec21b205ed72637e6b1b523bdd0e4d4d50af5cd23dd4500a21282015560408201517f0e4562a10381dec21b205ed72637e6b1b523bdd0e4d4d50af5cd23dd4500a2139091018054606084015115156101000261ff00199315159390931661ffff19909116179190911790555b600554601054148015610c9d5750600554601154145b15610ce557610cb0600b54600c5461284f565b604051600181527fc1e80c6033b9a1cdb8b51042a43af8aa76b052e2338cb9cd55b96fbd34dab7ee9060200160405180910390a15b601154601054148015610d315750601b6001601154610d0491906131bf565b81548110610d1457610d146131d8565b600091825260209091206002600390920201015460ff1615156001145b15610d7957610d3e6128bf565b600180546010546040516000805160206135ab83398151915293610d6c936001600160a01b031692916133fb565b60405180910390a1505050565b6001546010546040516000805160206135ab83398151915292610d6c926001600160a01b03909116916000906133fb565b6001546001600160a01b03163314610dd45760405162461bcd60e51b815260040161055590613229565b600f5460ff1615610de457600080fd5b60065460125410610e075760405162461bcd60e51b81526004016105559061341e565b600060c860085483610e19919061329b565b610e2391906132b2565b90506000610e3182846131ee565b33600090815260046020526040902054909150811115610e635760405162461bcd60e51b815260040161055590613318565b6000600d5411610e855760405162461bcd60e51b815260040161055590613462565b60128054906000610e958361336a565b91905055506013546012541480610ebb57506013546001601254610eb991906131bf565b145b610ed75760405162461bcd60e51b815260040161055590613383565b6040805160608101825284815260128054602083019081526001938301848152601e8054958601815560005283517f50bb669a95c7b50b7e8a6f09454034b2b14cf2b85c730dca9a539ca82cb6e35060039096029586015590517f50bb669a95c7b50b7e8a6f09454034b2b14cf2b85c730dca9a539ca82cb6e351850155517f50bb669a95c7b50b7e8a6f09454034b2b14cf2b85c730dca9a539ca82cb6e352909301805460ff19169315159390931790925560135491549091148015610fd75750601d6001601354610faa91906131bf565b81548110610fba57610fba6131d8565b600091825260209091206002600390920201015460ff1615156001145b1561102057610fe582612af1565b6001805460125460405160008051602061354b83398151915293611013936001600160a01b031692916133fb565b60405180910390a161105a565b60015460125460405160008051602061354b83398151915292611051926001600160a01b03909116916000906133fb565b60405180910390a15b50505050565b6001546001600160a01b031633148015611081575060165460ff1615156001145b8015611090575060185460ff16155b1561119457600e546110a290826131ee565b6001546001600160a01b031660009081526004602052604090205410156110db5760405162461bcd60e51b8152600401610555906134a8565b600e546110e890826131ee565b6001546001600160a01b0316600090815260046020526040812080549091906111129084906131bf565b9091555050600e546003546001600160a01b0316600090815260046020526040812080549091906111449084906131ee565b90915550506001546040516001600160a01b039091169082156108fc029083906000818181858888f19350505050158015611183573d6000803e3d6000fd5b506018805460ff1916600117905550565b6002546001600160a01b0316331480156111bb575060185460ff6101009091041615156001145b80156111ca5750601a5460ff16155b156112ce57600e546111dc90826131ee565b6002546001600160a01b031660009081526004602052604090205410156112155760405162461bcd60e51b8152600401610555906134a8565b600e5461122290826131ee565b6002546001600160a01b03166000908152600460205260408120805490919061124c9084906131bf565b9091555050600e546003546001600160a01b03166000908152600460205260408120805490919061127e9084906131ee565b90915550506002546040516001600160a01b039091169082156108fc029083906000818181858888f193505050501580156112bd573d6000803e3d6000fd5b50601a805460ff1916600117905550565b336000908152600460205260409020548111156113205760405162461bcd60e51b815260206004820152601060248201526f6e6f7420656e6f7567682066756e647360801b6044820152606401610555565b336000908152600460205260408120805483929061133f9084906131bf565b9091555050604051339082156108fc029083906000818181858888f19350505050158015611371573d6000803e3d6000fd5b505b50565b6002546001600160a01b031633146113a05760405162461bcd60e51b815260040161055590613157565b600f5460ff16156113b057600080fd5b60006012541180156113c457506000601354115b6113cd57600080fd5b601854610100900460ff16156113e257600080fd5b600e546001546001600160a01b0316600090815260046020526040902054101561140b57600080fd5b60198190556018805461ff0019166101001790556002546040517fd017961242243731f971165fc8b11c9fd116c66e304166ae93fa6c45ab88cf8a91610981916001600160a01b0390911690600190859061327a565b6001546001600160a01b031633148015611482575060165460ff1615156001145b8015611491575060185460ff16155b1561157b57600e546001546001600160a01b031660009081526004602052604081205490916114bf916131bf565b9050600e54816114cf91906131ee565b6001546001600160a01b0316600090815260046020526040812080549091906114f99084906131bf565b9091555050600e546003546001600160a01b03166000908152600460205260408120805490919061152b9084906131ee565b90915550506001546040516001600160a01b039091169082156108fc029083906000818181858888f1935050505015801561156a573d6000803e3d6000fd5b50506018805460ff19166001179055565b6002546001600160a01b0316331480156115a2575060185460ff6101009091041615156001145b80156115b15750601a5460ff16155b1561169b57600e546002546001600160a01b031660009081526004602052604081205490916115df916131bf565b9050600e54816115ef91906131ee565b6002546001600160a01b0316600090815260046020526040812080549091906116199084906131bf565b9091555050600e546003546001600160a01b03166000908152600460205260408120805490919061164b9084906131ee565b90915550506002546040516001600160a01b039091169082156108fc029083906000818181858888f1935050505015801561168a573d6000803e3d6000fd5b5050601a805460ff19166001179055565b33600090815260046020526040812080549182919061133f83806131bf565b6001546001600160a01b031633146116e45760405162461bcd60e51b815260040161055590613229565b601154601054146116f457600080fd5b601b600160115461170591906131bf565b81548110611715576117156131d8565b600091825260209091206002600390920201015460ff16151560011480156117765750601c600160105461174991906131bf565b81548110611759576117596131d8565b600091825260209091206002600390920201015460ff1615156001145b61177f57600080fd5b600f5460ff161561178f57600080fd5b600f5460ff6101009091041615156001146117a957600080fd5b601b60016011546117ba91906131bf565b815481106117ca576117ca6131d8565b6000918252602090912060039091020160020154610100900460ff16151560010361193e576014546001546001600160a01b0316600090815260046020526040902054101561184e5760405162461bcd60e51b815260206004820152601060248201526f6e6f7420656e6f7567682066756e647360801b6044820152606401610555565b6001601c600160105461186191906131bf565b81548110611871576118716131d8565b6000918252602080832060026003909302019190910180549315156101000261ff0019909416939093179092556014546001546001600160a01b0316825260049092526040812080549091906118c89084906131bf565b90915550506014546002546001600160a01b0316600090815260046020526040812080549091906118fa9084906131ee565b9091555050600f805460ff19166001908117909155805460145460405160008051602061356b833981519152936107d1936001600160a01b03169290918290613201565b601b600160115461194f91906131bf565b8154811061195f5761195f6131d8565b6000918252602082206002600390920201015460ff61010090910416151590036108a0576001601c600160105461199691906131bf565b815481106119a6576119a66131d8565b60009182526020822060026003909202010180549215156101000261ff001990931692909217909155600154600f5460405160008051602061356b833981519152936107d1936001600160a01b0316929091829160ff1690613201565b6002546001600160a01b03163314611a2d5760405162461bcd60e51b815260040161055590613157565b600f5460ff1615611a3d57600080fd5b6000601254118015611a5157506000601354115b611a5a57600080fd5b60165460ff161515600114611a6e57600080fd5b801515600103611bd1576017546001546001600160a01b03166000908152600460205260409020541015611b235760405162461bcd60e51b815260206004820152605060248201527f54686520636f6e74726163742063726561746f72206861732072656d6f76656460448201527f206869732066756e647320616e642074686973206f66666572206973206e6f2060648201526f1b1bdb99d95c88185d985a5b1858995b60821b608482015260a401610555565b6017546001546001600160a01b031660009081526004602052604081208054909190611b509084906131bf565b90915550506017546002546001600160a01b031660009081526004602052604081208054909190611b829084906131ee565b9091555050600f8054600160ff199182168117909255601880549091168217905560025460175460405160008051602061358b83398151915293610981936001600160a01b031692909161327a565b80151560000361137357600e546001546001600160a01b03166000908152600460205260409020541015611c0457600080fd5b600e546001546001600160a01b031660009081526004602052604081208054909190611c319084906131bf565b9091555050600e546003546001600160a01b031660009081526004602052604081208054909190611c639084906131ee565b90915550506018805460ff1916600117905560025460405160008051602061358b83398151915291610981916001600160a01b0390911690600090819061327a565b6001546001600160a01b03163314611ccf5760405162461bcd60e51b815260040161055590613229565b600f5460ff1615611cdf57600080fd5b6000601254118015611cf357506000601354115b611cfc57600080fd5b60185460ff610100909104161515600114611d1657600080fd5b801515600103611e52576019546001546001600160a01b03166000908152600460205260409020541015611da55760405162461bcd60e51b815260206004820152603060248201527f796f7520646f6e74206861766520656e6f7567682066756e647320746f20707260448201526f37b1b2b9b9903a3434b99037b33332b960811b6064820152608401610555565b6019546001546001600160a01b031660009081526004602052604081208054909190611dd29084906131bf565b90915550506019546002546001600160a01b031660009081526004602052604081208054909190611e049084906131ee565b9091555050600f8054600160ff199182168117909255601a805490911682179055805460195460405160008051602061358b83398151915293610981936001600160a01b031692909161327a565b80151560000361137357600e546002546001600160a01b03166000908152600460205260409020541015611e8557600080fd5b600e546002546001600160a01b031660009081526004602052604081208054909190611eb29084906131bf565b9091555050600e546003546001600160a01b031660009081526004602052604081208054909190611ee49084906131ee565b9091555050601a805460ff191660019081179091555460405160008051602061358b83398151915291610981916001600160a01b0390911690600090819061327a565b6002546001600160a01b03163314611f515760405162461bcd60e51b815260040161055590613157565b600f5460ff610100909104161515600114611f6b57600080fd5b60008111611f7857600080fd5b60055460115410611f9b5760405162461bcd60e51b8152600401610555906132d4565b60118054906000611fab8361336a565b91905055506010546011541480611fd157506010546001601154611fcf91906131bf565b145b6120565760405162461bcd60e51b815260206004820152604a60248201527f796f75206d757374207761697420756e74696c207468652063726561746f722060448201527f7075747320696e207468656972206f6666657220746f20696e69746174652061606482015269103732bb9037b33332b960b11b608482015260a401610555565b604080516080810182528281526011546020820152600191810182905260006060820152600554909110801561208e57506011546001145b1561215c57601b805460018181018355600092909252825160039091027f3ad8aa4f87544323a9d1e5dd902f40c356527a7955687113db5f9a85ad579dc181019190915560208301517f3ad8aa4f87544323a9d1e5dd902f40c356527a7955687113db5f9a85ad579dc282015560408301517f3ad8aa4f87544323a9d1e5dd902f40c356527a7955687113db5f9a85ad579dc39091018054606085015115156101000261ff00199315159390931661ffff1990911617919091179055600a805460ff1916909117905561222a565b81600c600082825461216e91906131ee565b9091555050601b8054600181018255600091909152815160039091027f3ad8aa4f87544323a9d1e5dd902f40c356527a7955687113db5f9a85ad579dc181019190915560208201517f3ad8aa4f87544323a9d1e5dd902f40c356527a7955687113db5f9a85ad579dc282015560408201517f3ad8aa4f87544323a9d1e5dd902f40c356527a7955687113db5f9a85ad579dc39091018054606084015115156101000261ff00199315159390931661ffff19909116179190911790555b6005546010541480156122405750600554601154145b1561228857612253600b54600c5461284f565b604051600181527fc1e80c6033b9a1cdb8b51042a43af8aa76b052e2338cb9cd55b96fbd34dab7ee9060200160405180910390a15b6011546010541480156122d45750601c60016010546122a791906131bf565b815481106122b7576122b76131d8565b600091825260209091206002600390920201015460ff1615156001145b1561231f576122e16128bf565b6002546011546040516000805160206135ab83398151915292612312926001600160a01b03909116916001906133fb565b60405180910390a1611371565b6002546011546040516000805160206135ab83398151915292612350926001600160a01b03909116916000906133fb565b60405180910390a15050565b6002546001600160a01b031633146123865760405162461bcd60e51b815260040161055590613157565b600f5460ff161561239657600080fd5b60065460135411156123a757600080fd5b600e5433600090815260046020526040902054101561242e5760405162461bcd60e51b815260206004820152603b60248201527f796f75206d757374206465706f736974207468652070656e616c747920616d6f60448201527f756e7420746f2070726573656e742061206669726d206f6666657200000000006064820152608401610555565b6000600d54116124505760405162461bcd60e51b815260040161055590613462565b60065460135411156124745760405162461bcd60e51b81526004016105559061341e565b601380549060006124848361336a565b919050555060125460135414806124aa575060125460016013546124a891906131bf565b145b6124c65760405162461bcd60e51b815260040161055590613383565b6040805160608101825282815260138054602083019081526001938301848152601d8054958601815560005283517f6d4407e7be21f808e6509aa9fa9143369579dd7d760fe20a2c09680fc146134f60039096029586015590517f6d4407e7be21f808e6509aa9fa9143369579dd7d760fe20a2c09680fc1461350850155517f6d4407e7be21f808e6509aa9fa9143369579dd7d760fe20a2c09680fc1461351909301805460ff191693151593909317909255601254915490911480156125c65750601d600160125461259991906131bf565b815481106125a9576125a96131d8565b600091825260209091206002600390920201015460ff1615156001145b15612607576125d6600e54612af1565b60025460135460405160008051602061354b83398151915292612312926001600160a01b03909116916001906133fb565b60025460135460405160008051602061354b83398151915292612350926001600160a01b03909116916000906133fb565b6011546010541461264857600080fd5b601b600160115461265991906131bf565b81548110612669576126696131d8565b600091825260209091206002600390920201015460ff16151560011480156126ca5750601c600160105461269d91906131bf565b815481106126ad576126ad6131d8565b600091825260209091206002600390920201015460ff1615156001145b6126d357600080fd5b600f5460ff16156126e357600080fd5b6001546001600160a01b031633148061270657506002546001600160a01b031633145b61275e5760405162461bcd60e51b815260206004820152602360248201527f796f7520617265206e6f74207468652063726561746f72206f72206f70706f6e604482015262195b9d60ea1b6064820152608401610555565b600554601054036127b557600f805461ff001916908190556040805133815261010090920460ff16151560208301527f8981db450960c259ddc1fcf29707fb8154817dff48a6f761a30fdd79cb92977491016107d1565b600f546040805133815261010090920460ff16151560208301527f8981db450960c259ddc1fcf29707fb8154817dff48a6f761a30fdd79cb92977491016107d1565b6000806000600d541180156128145750600f54610100900460ff16155b61281d57600080fd5b5050600d54600e549091565b33600090815260046020526040812080543492906128489084906131ee565b9091555050565b600a805460ff19166001179055600160115461286b91906131bf565b600160105461287a91906131bf565b61288491906131ee565b61288e82846131ee565b61289891906132b2565b600d8190556009546064916128ad919061329b565b6128b791906132b2565b600e55611371565b6000601c60016010546128d291906131bf565b815481106128e2576128e26131d8565b90600052602060002090600302016000015490506000601b600160115461290991906131bf565b81548110612919576129196131d8565b600091825260208220600390910201549150828211612957578261293d83826131bf565b61294890606461329b565b61295291906132b2565b612977565b8161296284826131bf565b61296d90606461329b565b61297791906132b2565b905060008383116129915761298c83856131bf565b61299b565b61299b84846131bf565b905060006129aa6002836132b2565b905060075483111580156129bd57508484115b15612a1b576129cc81866131ee565b601455600f54604080516001815261010090920460ff16151560208301527fc4061a08319ff98acfeac7ff6f40488fb0743beba7cb4746c9522ae46be44b5191015b60405180910390a1612aea565b6007548311158015612a2c57508385115b15612a3b576129cc81856131ee565b600554601054148015612a515750600554601154145b15612aa357600f805461ff00191690819055604080516000815261010090920460ff16151560208301527fc4061a08319ff98acfeac7ff6f40488fb0743beba7cb4746c9522ae46be44b519101612a0e565b600f54604080516000815261010090920460ff16151560208301527fc4061a08319ff98acfeac7ff6f40488fb0743beba7cb4746c9522ae46be44b51910160405180910390a15b5050505050565b600e546002546001600160a01b03166000908152600460205260409020541015612b975760405162461bcd60e51b815260206004820152604b60248201527f20546865206f70706f6e656e74206d7573742072656465706f7369742074686560448201527f2070656e616c747920616d6f756e7420666f722061206669726d206f6666657260648201526a20746f2070726f6365737360a81b608482015260a401610555565b6001546001600160a01b0316600090815260046020526040902054811115612c3e5760405162461bcd60e51b815260206004820152604e60248201527f5468652063726561746f7220646f6573206e6f74206861766520656e6f75676860448201527f2066756e6473206e2074686520636f6e747261637420666f7220746865206f6660648201526d66657220746f2070726f6365737360901b608482015260a401610555565b6000601e6001601254612c5191906131bf565b81548110612c6157612c616131d8565b90600052602060002090600302016000015490506000601d6001601354612c8891906131bf565b81548110612c9857612c986131d8565b600091825260208220600390910201549150828211612cd65782612cbc83826131bf565b612cc790606461329b565b612cd191906132b2565b612cf6565b81612ce184826131bf565b612cec90606461329b565b612cf691906132b2565b90506000838311612d1057612d0b83856131bf565b612d1a565b612d1a84846131bf565b90506000612d296002836132b2565b90506008548311158015612d3c57508484115b15612e1157612d4b81866131ee565b60158190556001546001600160a01b031660009081526004602052604081208054909190612d7a9084906131bf565b90915550506015546002546001600160a01b031660009081526004602052604081208054909190612dac9084906131ee565b9091555050600f805460ff191660019081179091556015546040517f39e40560384534993c2281dc4d9876fbee20bcbb306d5c352fe514a11ed0068c92612e0492909189918991899189918991908790600090613505565b60405180910390a1612e93565b6008548311158015612e2257508385115b15612e3157612d4b81856131ee565b600854831115612e9357612e43612e9b565b600f546040517f39e40560384534993c2281dc4d9876fbee20bcbb306d5c352fe514a11ed0068c91612e8a9160009182918291829182918291829160ff1690600190613505565b60405180910390a15b505050505050565b6000601e6001601254612eae91906131bf565b81548110612ebe57612ebe6131d8565b90600052602060002090600302016000015490506000601d6001601354612ee591906131bf565b81548110612ef557612ef56131d8565b90600052602060002090600302016000015490506000600d548311612f275782600d54612f2291906131bf565b612f34565b600d54612f3490846131bf565b90506000600d548311612f545782600d54612f4f91906131bf565b612f61565b600d54612f6190846131bf565b90508082111561302057600e546001546001600160a01b031660009081526004602052604081208054909190612f989084906131bf565b9091555050600e546002546001600160a01b031660009081526004602052604081208054909190612fca9084906131ee565b9091555050600154600254600e54604080516001600160a01b039485168152939092166020840152908201527f483dcc5f25e12d404bc8b4c072b870001c543d3daec5c241cd3acee232195fca90606001611013565b818111156130dd57600e546002546001600160a01b0316600090815260046020526040812080549091906130559084906131bf565b9091555050600e546001546001600160a01b0316600090815260046020526040812080549091906130879084906131ee565b9091555050600254600154600e54604080516001600160a01b039485168152939092166020840152908201527f483dcc5f25e12d404bc8b4c072b870001c543d3daec5c241cd3acee232195fca90606001611013565b80820361105a57604051600181527f98fdd9eeb8c3cbdc66a415629f1510a33c2536b8353b50354fa399cbc9fb5d4290602001611051565b60006020828403121561312757600080fd5b5035919050565b60006020828403121561314057600080fd5b8135801515811461315057600080fd5b9392505050565b60208082526032908201527f4f6e6c792074686520636f6e7472616374206f70706f6e656e742063616e206360408201527130b636103a3434b990333ab731ba34b7b71760711b606082015260800190565b634e487b7160e01b600052601160045260246000fd5b818103818111156131d2576131d26131a9565b92915050565b634e487b7160e01b600052603260045260246000fd5b808201808211156131d2576131d26131a9565b6001600160a01b03949094168452911515602084015260408301521515606082015260800190565b60208082526031908201527f4f6e6c792074686520636f6e74726163742063726561746f722063616e2063616040820152703636103a3434b990333ab731ba34b7b71760791b606082015260800190565b6001600160a01b039390931683529015156020830152604082015260600190565b80820281158282048414176131d2576131d26131a9565b6000826132cf57634e487b7160e01b600052601260045260246000fd5b500490565b60208082526024908201527f7265616368656420636170206f6e20616d6f756e74206f6620736f6674206f666040820152636665727360e01b606082015260800190565b60208082526032908201527f796f7520646f206e6f74206861766520656e6f7567682066756e647320746f2060408201527136b0b5b29039bab1b41030b71037b33332b960711b606082015260800190565b60006001820161337c5761337c6131a9565b5060010190565b60208082526052908201527f796f75206d757374207761697420756e74696c20746865206f70706f6e656e7460408201527f207075747320696e207468656972206f6666657220746f20696e69746174652060608201527130b71030b23234ba37b730b61037b33332b960711b608082015260a00190565b6001600160a01b0393909316835260208301919091521515604082015260600190565b60208082526024908201527f7265616368656420636170206f6e20616d6f756e74206f66206669726d206f666040820152636665727360e01b606082015260800190565b60208082526026908201527f546865206d656469756d204e756d62657220686173206e6f74206265656e2073604082015265195d081e595d60d21b606082015260800190565b6020808252603e908201527f796f7520646f6e74206861766520656e6f75676820746f20706179207468652060408201527f70656e616c747920616e642072656d6f7665207468617420616d6f756e740000606082015260800190565b9815158952602089019790975260408801959095526060870193909352608086019190915260a085015260c0840152151560e08301521515610100820152610120019056fef9fb9a700f03ea52a997d8c4bcbf294fa6ae49c94181b559b1c14326093daccb8feca716e5fea360264e5a7ebbcfcb8e1c9d84cda200174d4d35bd097df46278890481cd9db95d3733900dad3f3203ffe7f4d58ab29091cc1a5bb52c2affbcaf011a479e5c2928166a4647520babf75193c4e51630fb980fad7d4a30e0cc1670a2646970667358221220f3df8dfd00b7b3d10d8819db011aadd347d3fb938bae6e273790fdadea9c9a4c64736f6c63430008110033",
			"opcodes": "PUSH1 0x80 PUSH1 0x40 MSTORE PUSH1 0xF DUP1 SLOAD PUSH2 0xFF00 NOT AND PUSH2 0x100 OR SWAP1 SSTORE CALLVALUE DUP1 ISZERO PUSH3 0x20 JUMPI PUSH1 0x0 DUP1 REVERT JUMPDEST POP PUSH1 0x40 MLOAD PUSH3 0x3AA1 CODESIZE SUB DUP1 PUSH3 0x3AA1 DUP4 CODECOPY DUP2 ADD PUSH1 0x40 DUP2 SWAP1 MSTORE PUSH3 0x43 SWAP2 PUSH3 0x450 JUMP JUMPDEST PUSH1 0x0 DUP1 SLOAD PUSH1 0x1 PUSH1 0x1 PUSH1 0xA0 SHL SUB NOT AND PUSH1 0x1 PUSH1 0x1 PUSH1 0xA0 SHL SUB DUP4 AND SWAP1 DUP2 OR SWAP1 SWAP2 SSTORE PUSH1 0x40 DUP1 MLOAD PUSH3 0xEE2CB1 PUSH1 0xE4 SHL DUP2 MSTORE SWAP1 MLOAD PUSH4 0xEE2CB10 SWAP2 PUSH1 0x4 DUP1 DUP3 ADD SWAP3 PUSH1 0x20 SWAP3 SWAP1 SWAP2 SWAP1 DUP3 SWAP1 SUB ADD DUP2 DUP7 GAS STATICCALL ISZERO DUP1 ISZERO PUSH3 0x9C JUMPI RETURNDATASIZE PUSH1 0x0 DUP1 RETURNDATACOPY RETURNDATASIZE PUSH1 0x0 REVERT JUMPDEST POP POP POP POP PUSH1 0x40 MLOAD RETURNDATASIZE PUSH1 0x1F NOT PUSH1 0x1F DUP3 ADD AND DUP3 ADD DUP1 PUSH1 0x40 MSTORE POP DUP2 ADD SWAP1 PUSH3 0xC2 SWAP2 SWAP1 PUSH3 0x450 JUMP JUMPDEST PUSH1 0x1 DUP1 SLOAD PUSH1 0x1 PUSH1 0x1 PUSH1 0xA0 SHL SUB NOT AND PUSH1 0x1 PUSH1 0x1 PUSH1 0xA0 SHL SUB SWAP3 DUP4 AND OR SWAP1 SSTORE PUSH1 0x0 SLOAD PUSH1 0x40 DUP1 MLOAD PUSH4 0xE560015 PUSH1 0xE2 SHL DUP2 MSTORE SWAP1 MLOAD SWAP2 SWAP1 SWAP3 AND SWAP2 PUSH4 0x39580054 SWAP2 PUSH1 0x4 DUP1 DUP4 ADD SWAP3 PUSH1 0x20 SWAP3 SWAP2 SWAP1 DUP3 SWAP1 SUB ADD DUP2 DUP7 GAS STATICCALL ISZERO DUP1 ISZERO PUSH3 0x121 JUMPI RETURNDATASIZE PUSH1 0x0 DUP1 RETURNDATACOPY RETURNDATASIZE PUSH1 0x0 REVERT JUMPDEST POP POP POP POP PUSH1 0x40 MLOAD RETURNDATASIZE PUSH1 0x1F NOT PUSH1 0x1F DUP3 ADD AND DUP3 ADD DUP1 PUSH1 0x40 MSTORE POP DUP2 ADD SWAP1 PUSH3 0x147 SWAP2 SWAP1 PUSH3 0x450 JUMP JUMPDEST PUSH1 0x2 DUP1 SLOAD PUSH1 0x1 PUSH1 0x1 PUSH1 0xA0 SHL SUB NOT AND PUSH1 0x1 PUSH1 0x1 PUSH1 0xA0 SHL SUB SWAP3 DUP4 AND OR SWAP1 SSTORE PUSH1 0x0 SLOAD PUSH1 0x40 DUP1 MLOAD PUSH4 0x819E213D PUSH1 0xE0 SHL DUP2 MSTORE SWAP1 MLOAD SWAP2 SWAP1 SWAP3 AND SWAP2 PUSH4 0x819E213D SWAP2 PUSH1 0x4 DUP1 DUP4 ADD SWAP3 PUSH1 0x20 SWAP3 SWAP2 SWAP1 DUP3 SWAP1 SUB ADD DUP2 DUP7 GAS STATICCALL ISZERO DUP1 ISZERO PUSH3 0x1A6 JUMPI RETURNDATASIZE PUSH1 0x0 DUP1 RETURNDATACOPY RETURNDATASIZE PUSH1 0x0 REVERT JUMPDEST POP POP POP POP PUSH1 0x40 MLOAD RETURNDATASIZE PUSH1 0x1F NOT PUSH1 0x1F DUP3 ADD AND DUP3 ADD DUP1 PUSH1 0x40 MSTORE POP DUP2 ADD SWAP1 PUSH3 0x1CC SWAP2 SWAP1 PUSH3 0x477 JUMP JUMPDEST PUSH1 0x5 SSTORE PUSH1 0x0 SLOAD PUSH1 0x40 DUP1 MLOAD PUSH4 0x5605C66D PUSH1 0xE0 SHL DUP2 MSTORE SWAP1 MLOAD PUSH1 0x1 PUSH1 0x1 PUSH1 0xA0 SHL SUB SWAP1 SWAP3 AND SWAP2 PUSH4 0x5605C66D SWAP2 PUSH1 0x4 DUP1 DUP3 ADD SWAP3 PUSH1 0x20 SWAP3 SWAP1 SWAP2 SWAP1 DUP3 SWAP1 SUB ADD DUP2 DUP7 GAS STATICCALL ISZERO DUP1 ISZERO PUSH3 0x21A JUMPI RETURNDATASIZE PUSH1 0x0 DUP1 RETURNDATACOPY RETURNDATASIZE PUSH1 0x0 REVERT JUMPDEST POP POP POP POP PUSH1 0x40 MLOAD RETURNDATASIZE PUSH1 0x1F NOT PUSH1 0x1F DUP3 ADD AND DUP3 ADD DUP1 PUSH1 0x40 MSTORE POP DUP2 ADD SWAP1 PUSH3 0x240 SWAP2 SWAP1 PUSH3 0x477 JUMP JUMPDEST PUSH1 0x6 SSTORE PUSH1 0x0 SLOAD PUSH1 0x40 DUP1 MLOAD PUSH4 0x502EF5FF PUSH1 0xE0 SHL DUP2 MSTORE SWAP1 MLOAD PUSH1 0x1 PUSH1 0x1 PUSH1 0xA0 SHL SUB SWAP1 SWAP3 AND SWAP2 PUSH4 0x502EF5FF SWAP2 PUSH1 0x4 DUP1 DUP3 ADD SWAP3 PUSH1 0x20 SWAP3 SWAP1 SWAP2 SWAP1 DUP3 SWAP1 SUB ADD DUP2 DUP7 GAS STATICCALL ISZERO DUP1 ISZERO PUSH3 0x28E JUMPI RETURNDATASIZE PUSH1 0x0 DUP1 RETURNDATACOPY RETURNDATASIZE PUSH1 0x0 REVERT JUMPDEST POP POP POP POP PUSH1 0x40 MLOAD RETURNDATASIZE PUSH1 0x1F NOT PUSH1 0x1F DUP3 ADD AND DUP3 ADD DUP1 PUSH1 0x40 MSTORE POP DUP2 ADD SWAP1 PUSH3 0x2B4 SWAP2 SWAP1 PUSH3 0x477 JUMP JUMPDEST PUSH1 0x7 SSTORE PUSH1 0x0 SLOAD PUSH1 0x40 DUP1 MLOAD PUSH4 0x10741F63 PUSH1 0xE2 SHL DUP2 MSTORE SWAP1 MLOAD PUSH1 0x1 PUSH1 0x1 PUSH1 0xA0 SHL SUB SWAP1 SWAP3 AND SWAP2 PUSH4 0x41D07D8C SWAP2 PUSH1 0x4 DUP1 DUP3 ADD SWAP3 PUSH1 0x20 SWAP3 SWAP1 SWAP2 SWAP1 DUP3 SWAP1 SUB ADD DUP2 DUP7 GAS STATICCALL ISZERO DUP1 ISZERO PUSH3 0x302 JUMPI RETURNDATASIZE PUSH1 0x0 DUP1 RETURNDATACOPY RETURNDATASIZE PUSH1 0x0 REVERT JUMPDEST POP POP POP POP PUSH1 0x40 MLOAD RETURNDATASIZE PUSH1 0x1F NOT PUSH1 0x1F DUP3 ADD AND DUP3 ADD DUP1 PUSH1 0x40 MSTORE POP DUP2 ADD SWAP1 PUSH3 0x328 SWAP2 SWAP1 PUSH3 0x477 JUMP JUMPDEST PUSH1 0x8 SSTORE PUSH1 0x0 SLOAD PUSH1 0x40 DUP1 MLOAD PUSH4 0xB0DD235 PUSH1 0xE1 SHL DUP2 MSTORE SWAP1 MLOAD PUSH1 0x1 PUSH1 0x1 PUSH1 0xA0 SHL SUB SWAP1 SWAP3 AND SWAP2 PUSH4 0x161BA46A SWAP2 PUSH1 0x4 DUP1 DUP3 ADD SWAP3 PUSH1 0x20 SWAP3 SWAP1 SWAP2 SWAP1 DUP3 SWAP1 SUB ADD DUP2 DUP7 GAS STATICCALL ISZERO DUP1 ISZERO PUSH3 0x376 JUMPI RETURNDATASIZE PUSH1 0x0 DUP1 RETURNDATACOPY RETURNDATASIZE PUSH1 0x0 REVERT JUMPDEST POP POP POP POP PUSH1 0x40 MLOAD RETURNDATASIZE PUSH1 0x1F NOT PUSH1 0x1F DUP3 ADD AND DUP3 ADD DUP1 PUSH1 0x40 MSTORE POP DUP2 ADD SWAP1 PUSH3 0x39C SWAP2 SWAP1 PUSH3 0x477 JUMP JUMPDEST PUSH1 0x9 SSTORE PUSH1 0x0 SLOAD PUSH1 0x40 DUP1 MLOAD PUSH4 0xCCAF6D7 PUSH1 0xE2 SHL DUP2 MSTORE SWAP1 MLOAD PUSH1 0x1 PUSH1 0x1 PUSH1 0xA0 SHL SUB SWAP1 SWAP3 AND SWAP2 PUSH4 0x332BDB5C SWAP2 PUSH1 0x4 DUP1 DUP3 ADD SWAP3 PUSH1 0x20 SWAP3 SWAP1 SWAP2 SWAP1 DUP3 SWAP1 SUB ADD DUP2 DUP7 GAS STATICCALL ISZERO DUP1 ISZERO PUSH3 0x3EA JUMPI RETURNDATASIZE PUSH1 0x0 DUP1 RETURNDATACOPY RETURNDATASIZE PUSH1 0x0 REVERT JUMPDEST POP POP POP POP PUSH1 0x40 MLOAD RETURNDATASIZE PUSH1 0x1F NOT PUSH1 0x1F DUP3 ADD AND DUP3 ADD DUP1 PUSH1 0x40 MSTORE POP DUP2 ADD SWAP1 PUSH3 0x410 SWAP2 SWAP1 PUSH3 0x450 JUMP JUMPDEST PUSH1 0x3 DUP1 SLOAD PUSH1 0x1 PUSH1 0x1 PUSH1 0xA0 SHL SUB NOT AND PUSH1 0x1 PUSH1 0x1 PUSH1 0xA0 SHL SUB SWAP3 SWAP1 SWAP3 AND SWAP2 SWAP1 SWAP2 OR SWAP1 SSTORE POP PUSH3 0x491 JUMP JUMPDEST PUSH1 0x1 PUSH1 0x1 PUSH1 0xA0 SHL SUB DUP2 AND DUP2 EQ PUSH3 0x44D JUMPI PUSH1 0x0 DUP1 REVERT JUMPDEST POP JUMP JUMPDEST PUSH1 0x0 PUSH1 0x20 DUP3 DUP5 SUB SLT ISZERO PUSH3 0x463 JUMPI PUSH1 0x0 DUP1 REVERT JUMPDEST DUP2 MLOAD PUSH3 0x470 DUP2 PUSH3 0x437 JUMP JUMPDEST SWAP4 SWAP3 POP POP POP JUMP JUMPDEST PUSH1 0x0 PUSH1 0x20 DUP3 DUP5 SUB SLT ISZERO PUSH3 0x48A JUMPI PUSH1 0x0 DUP1 REVERT JUMPDEST POP MLOAD SWAP2 SWAP1 POP JUMP JUMPDEST PUSH2 0x3600 DUP1 PUSH3 0x4A1 PUSH1 0x0 CODECOPY PUSH1 0x0 RETURN INVALID PUSH1 0x80 PUSH1 0x40 MSTORE PUSH1 0x4 CALLDATASIZE LT PUSH2 0x1B7 JUMPI PUSH1 0x0 CALLDATALOAD PUSH1 0xE0 SHR DUP1 PUSH4 0x7516DAA8 GT PUSH2 0xEC JUMPI DUP1 PUSH4 0x959EC2A3 GT PUSH2 0x8A JUMPI DUP1 PUSH4 0xCD6E939B GT PUSH2 0x64 JUMPI DUP1 PUSH4 0xCD6E939B EQ PUSH2 0x4CD JUMPI DUP1 PUSH4 0xD0E30DB0 EQ PUSH2 0x4F7 JUMPI DUP1 PUSH4 0xD1914988 EQ PUSH2 0x4FF JUMPI DUP1 PUSH4 0xFA8DC8C9 EQ PUSH2 0x515 JUMPI PUSH1 0x0 DUP1 REVERT JUMPDEST DUP1 PUSH4 0x959EC2A3 EQ PUSH2 0x476 JUMPI DUP1 PUSH4 0xC71DACCB EQ PUSH2 0x496 JUMPI DUP1 PUSH4 0xCD323F37 EQ PUSH2 0x4B8 JUMPI PUSH1 0x0 DUP1 REVERT JUMPDEST DUP1 PUSH4 0x7FEE0760 GT PUSH2 0xC6 JUMPI DUP1 PUSH4 0x7FEE0760 EQ PUSH2 0x400 JUMPI DUP1 PUSH4 0x81276F39 EQ PUSH2 0x420 JUMPI DUP1 PUSH4 0x819E213D EQ PUSH2 0x440 JUMPI DUP1 PUSH4 0x93694F67 EQ PUSH2 0x456 JUMPI PUSH1 0x0 DUP1 REVERT JUMPDEST DUP1 PUSH4 0x7516DAA8 EQ PUSH2 0x3C3 JUMPI DUP1 PUSH4 0x7754114C EQ PUSH2 0x3D8 JUMPI DUP1 PUSH4 0x7D17C2CC EQ PUSH2 0x3E0 JUMPI PUSH1 0x0 DUP1 REVERT JUMPDEST DUP1 PUSH4 0x41D07D8C GT PUSH2 0x159 JUMPI DUP1 PUSH4 0x6244DF83 GT PUSH2 0x133 JUMPI DUP1 PUSH4 0x6244DF83 EQ PUSH2 0x343 JUMPI DUP1 PUSH4 0x6821C00A EQ PUSH2 0x363 JUMPI DUP1 PUSH4 0x71D2EE6C EQ PUSH2 0x383 JUMPI DUP1 PUSH4 0x7466CD9E EQ PUSH2 0x3A3 JUMPI PUSH1 0x0 DUP1 REVERT JUMPDEST DUP1 PUSH4 0x41D07D8C EQ PUSH2 0x301 JUMPI DUP1 PUSH4 0x502EF5FF EQ PUSH2 0x317 JUMPI DUP1 PUSH4 0x5605C66D EQ PUSH2 0x32D JUMPI PUSH1 0x0 DUP1 REVERT JUMPDEST DUP1 PUSH4 0x328BEB0F GT PUSH2 0x195 JUMPI DUP1 PUSH4 0x328BEB0F EQ PUSH2 0x227 JUMPI DUP1 PUSH4 0x3CC5FAE3 EQ PUSH2 0x256 JUMPI DUP1 PUSH4 0x3F6FA655 EQ PUSH2 0x276 JUMPI DUP1 PUSH4 0x4051DDAC EQ PUSH2 0x290 JUMPI PUSH1 0x0 DUP1 REVERT JUMPDEST DUP1 PUSH4 0x17F19E1 EQ PUSH2 0x1BC JUMPI DUP1 PUSH4 0x2D05D3F EQ PUSH2 0x1C6 JUMPI DUP1 PUSH4 0x161BA46A EQ PUSH2 0x203 JUMPI JUMPDEST PUSH1 0x0 DUP1 REVERT JUMPDEST PUSH2 0x1C4 PUSH2 0x52B JUMP JUMPDEST STOP JUMPDEST CALLVALUE DUP1 ISZERO PUSH2 0x1D2 JUMPI PUSH1 0x0 DUP1 REVERT JUMPDEST POP PUSH1 0x1 SLOAD PUSH2 0x1E6 SWAP1 PUSH1 0x1 PUSH1 0x1 PUSH1 0xA0 SHL SUB AND DUP2 JUMP JUMPDEST PUSH1 0x40 MLOAD PUSH1 0x1 PUSH1 0x1 PUSH1 0xA0 SHL SUB SWAP1 SWAP2 AND DUP2 MSTORE PUSH1 0x20 ADD JUMPDEST PUSH1 0x40 MLOAD DUP1 SWAP2 SUB SWAP1 RETURN JUMPDEST CALLVALUE DUP1 ISZERO PUSH2 0x20F JUMPI PUSH1 0x0 DUP1 REVERT JUMPDEST POP PUSH2 0x219 PUSH1 0x9 SLOAD DUP2 JUMP JUMPDEST PUSH1 0x40 MLOAD SWAP1 DUP2 MSTORE PUSH1 0x20 ADD PUSH2 0x1FA JUMP JUMPDEST CALLVALUE DUP1 ISZERO PUSH2 0x233 JUMPI PUSH1 0x0 DUP1 REVERT JUMPDEST POP PUSH1 0xF SLOAD PUSH2 0x246 SWAP1 PUSH2 0x100 SWAP1 DIV PUSH1 0xFF AND DUP2 JUMP JUMPDEST PUSH1 0x40 MLOAD SWAP1 ISZERO ISZERO DUP2 MSTORE PUSH1 0x20 ADD PUSH2 0x1FA JUMP JUMPDEST CALLVALUE DUP1 ISZERO PUSH2 0x262 JUMPI PUSH1 0x0 DUP1 REVERT JUMPDEST POP PUSH2 0x1C4 PUSH2 0x271 CALLDATASIZE PUSH1 0x4 PUSH2 0x3115 JUMP JUMPDEST PUSH2 0x8A2 JUMP JUMPDEST CALLVALUE DUP1 ISZERO PUSH2 0x282 JUMPI PUSH1 0x0 DUP1 REVERT JUMPDEST POP PUSH1 0xF SLOAD PUSH2 0x246 SWAP1 PUSH1 0xFF AND DUP2 JUMP JUMPDEST CALLVALUE DUP1 ISZERO PUSH2 0x29C JUMPI PUSH1 0x0 DUP1 REVERT JUMPDEST POP PUSH1 0x5 SLOAD PUSH1 0x6 SLOAD PUSH1 0x1 SLOAD PUSH1 0x2 SLOAD PUSH1 0x7 SLOAD PUSH1 0x8 SLOAD PUSH1 0x9 SLOAD PUSH1 0xF SLOAD PUSH1 0x40 DUP1 MLOAD SWAP9 DUP10 MSTORE PUSH1 0x20 DUP10 ADD SWAP8 SWAP1 SWAP8 MSTORE PUSH1 0x1 PUSH1 0x1 PUSH1 0xA0 SHL SUB SWAP6 DUP7 AND SWAP7 DUP9 ADD SWAP7 SWAP1 SWAP7 MSTORE SWAP4 SWAP1 SWAP3 AND PUSH1 0x60 DUP7 ADD MSTORE PUSH1 0x80 DUP6 ADD MSTORE PUSH1 0xA0 DUP5 ADD MSTORE PUSH1 0xC0 DUP4 ADD MSTORE PUSH1 0xFF AND ISZERO ISZERO PUSH1 0xE0 DUP3 ADD MSTORE PUSH2 0x100 ADD PUSH2 0x1FA JUMP JUMPDEST CALLVALUE DUP1 ISZERO PUSH2 0x30D JUMPI PUSH1 0x0 DUP1 REVERT JUMPDEST POP PUSH2 0x219 PUSH1 0x8 SLOAD DUP2 JUMP JUMPDEST CALLVALUE DUP1 ISZERO PUSH2 0x323 JUMPI PUSH1 0x0 DUP1 REVERT JUMPDEST POP PUSH2 0x219 PUSH1 0x7 SLOAD DUP2 JUMP JUMPDEST CALLVALUE DUP1 ISZERO PUSH2 0x339 JUMPI PUSH1 0x0 DUP1 REVERT JUMPDEST POP PUSH2 0x219 PUSH1 0x6 SLOAD DUP2 JUMP JUMPDEST CALLVALUE DUP1 ISZERO PUSH2 0x34F JUMPI PUSH1 0x0 DUP1 REVERT JUMPDEST POP PUSH2 0x1C4 PUSH2 0x35E CALLDATASIZE PUSH1 0x4 PUSH2 0x3115 JUMP JUMPDEST PUSH2 0x98C JUMP JUMPDEST CALLVALUE DUP1 ISZERO PUSH2 0x36F JUMPI PUSH1 0x0 DUP1 REVERT JUMPDEST POP PUSH2 0x1C4 PUSH2 0x37E CALLDATASIZE PUSH1 0x4 PUSH2 0x3115 JUMP JUMPDEST PUSH2 0xDAA JUMP JUMPDEST CALLVALUE DUP1 ISZERO PUSH2 0x38F JUMPI PUSH1 0x0 DUP1 REVERT JUMPDEST POP PUSH2 0x1C4 PUSH2 0x39E CALLDATASIZE PUSH1 0x4 PUSH2 0x3115 JUMP JUMPDEST PUSH2 0x1060 JUMP JUMPDEST CALLVALUE DUP1 ISZERO PUSH2 0x3AF JUMPI PUSH1 0x0 DUP1 REVERT JUMPDEST POP PUSH2 0x1C4 PUSH2 0x3BE CALLDATASIZE PUSH1 0x4 PUSH2 0x3115 JUMP JUMPDEST PUSH2 0x1376 JUMP JUMPDEST CALLVALUE DUP1 ISZERO PUSH2 0x3CF JUMPI PUSH1 0x0 DUP1 REVERT JUMPDEST POP PUSH2 0x1C4 PUSH2 0x1461 JUMP JUMPDEST PUSH2 0x1C4 PUSH2 0x16BA JUMP JUMPDEST CALLVALUE DUP1 ISZERO PUSH2 0x3EC JUMPI PUSH1 0x0 DUP1 REVERT JUMPDEST POP PUSH2 0x1C4 PUSH2 0x3FB CALLDATASIZE PUSH1 0x4 PUSH2 0x312E JUMP JUMPDEST PUSH2 0x1A03 JUMP JUMPDEST CALLVALUE DUP1 ISZERO PUSH2 0x40C JUMPI PUSH1 0x0 DUP1 REVERT JUMPDEST POP PUSH2 0x1C4 PUSH2 0x41B CALLDATASIZE PUSH1 0x4 PUSH2 0x312E JUMP JUMPDEST PUSH2 0x1CA5 JUMP JUMPDEST CALLVALUE DUP1 ISZERO PUSH2 0x42C JUMPI PUSH1 0x0 DUP1 REVERT JUMPDEST POP PUSH2 0x1C4 PUSH2 0x43B CALLDATASIZE PUSH1 0x4 PUSH2 0x3115 JUMP JUMPDEST PUSH2 0x1F27 JUMP JUMPDEST CALLVALUE DUP1 ISZERO PUSH2 0x44C JUMPI PUSH1 0x0 DUP1 REVERT JUMPDEST POP PUSH2 0x219 PUSH1 0x5 SLOAD DUP2 JUMP JUMPDEST CALLVALUE DUP1 ISZERO PUSH2 0x462 JUMPI PUSH1 0x0 DUP1 REVERT JUMPDEST POP PUSH1 0x2 SLOAD PUSH2 0x1E6 SWAP1 PUSH1 0x1 PUSH1 0x1 PUSH1 0xA0 SHL SUB AND DUP2 JUMP JUMPDEST CALLVALUE DUP1 ISZERO PUSH2 0x482 JUMPI PUSH1 0x0 DUP1 REVERT JUMPDEST POP PUSH2 0x1C4 PUSH2 0x491 CALLDATASIZE PUSH1 0x4 PUSH2 0x3115 JUMP JUMPDEST PUSH2 0x235C JUMP JUMPDEST CALLVALUE DUP1 ISZERO PUSH2 0x4A2 JUMPI PUSH1 0x0 DUP1 REVERT JUMPDEST POP CALLER PUSH1 0x0 SWAP1 DUP2 MSTORE PUSH1 0x4 PUSH1 0x20 MSTORE PUSH1 0x40 SWAP1 KECCAK256 SLOAD PUSH2 0x219 JUMP JUMPDEST CALLVALUE DUP1 ISZERO PUSH2 0x4C4 JUMPI PUSH1 0x0 DUP1 REVERT JUMPDEST POP PUSH2 0x1C4 PUSH2 0x2638 JUMP JUMPDEST CALLVALUE DUP1 ISZERO PUSH2 0x4D9 JUMPI PUSH1 0x0 DUP1 REVERT JUMPDEST POP PUSH2 0x4E2 PUSH2 0x27F7 JUMP JUMPDEST PUSH1 0x40 DUP1 MLOAD SWAP3 DUP4 MSTORE PUSH1 0x20 DUP4 ADD SWAP2 SWAP1 SWAP2 MSTORE ADD PUSH2 0x1FA JUMP JUMPDEST PUSH2 0x1C4 PUSH2 0x2829 JUMP JUMPDEST CALLVALUE DUP1 ISZERO PUSH2 0x50B JUMPI PUSH1 0x0 DUP1 REVERT JUMPDEST POP PUSH2 0x219 PUSH1 0x17 SLOAD DUP2 JUMP JUMPDEST CALLVALUE DUP1 ISZERO PUSH2 0x521 JUMPI PUSH1 0x0 DUP1 REVERT JUMPDEST POP PUSH2 0x219 PUSH1 0x19 SLOAD DUP2 JUMP JUMPDEST PUSH1 0x2 SLOAD PUSH1 0x1 PUSH1 0x1 PUSH1 0xA0 SHL SUB AND CALLER EQ PUSH2 0x55E JUMPI PUSH1 0x40 MLOAD PUSH3 0x461BCD PUSH1 0xE5 SHL DUP2 MSTORE PUSH1 0x4 ADD PUSH2 0x555 SWAP1 PUSH2 0x3157 JUMP JUMPDEST PUSH1 0x40 MLOAD DUP1 SWAP2 SUB SWAP1 REVERT JUMPDEST PUSH1 0x11 SLOAD PUSH1 0x10 SLOAD EQ PUSH2 0x56E JUMPI PUSH1 0x0 DUP1 REVERT JUMPDEST PUSH1 0x1B PUSH1 0x1 PUSH1 0x11 SLOAD PUSH2 0x57F SWAP2 SWAP1 PUSH2 0x31BF JUMP JUMPDEST DUP2 SLOAD DUP2 LT PUSH2 0x58F JUMPI PUSH2 0x58F PUSH2 0x31D8 JUMP JUMPDEST PUSH1 0x0 SWAP2 DUP3 MSTORE PUSH1 0x20 SWAP1 SWAP2 KECCAK256 PUSH1 0x2 PUSH1 0x3 SWAP1 SWAP3 MUL ADD ADD SLOAD PUSH1 0xFF AND ISZERO ISZERO PUSH1 0x1 EQ DUP1 ISZERO PUSH2 0x5F0 JUMPI POP PUSH1 0x1C PUSH1 0x1 PUSH1 0x10 SLOAD PUSH2 0x5C3 SWAP2 SWAP1 PUSH2 0x31BF JUMP JUMPDEST DUP2 SLOAD DUP2 LT PUSH2 0x5D3 JUMPI PUSH2 0x5D3 PUSH2 0x31D8 JUMP JUMPDEST PUSH1 0x0 SWAP2 DUP3 MSTORE PUSH1 0x20 SWAP1 SWAP2 KECCAK256 PUSH1 0x2 PUSH1 0x3 SWAP1 SWAP3 MUL ADD ADD SLOAD PUSH1 0xFF AND ISZERO ISZERO PUSH1 0x1 EQ JUMPDEST PUSH2 0x5F9 JUMPI PUSH1 0x0 DUP1 REVERT JUMPDEST PUSH1 0xF SLOAD PUSH1 0xFF AND ISZERO PUSH2 0x609 JUMPI PUSH1 0x0 DUP1 REVERT JUMPDEST PUSH1 0xF SLOAD PUSH1 0xFF PUSH2 0x100 SWAP1 SWAP2 DIV AND ISZERO ISZERO PUSH1 0x1 EQ PUSH2 0x623 JUMPI PUSH1 0x0 DUP1 REVERT JUMPDEST PUSH1 0x1C PUSH1 0x1 PUSH1 0x10 SLOAD PUSH2 0x634 SWAP2 SWAP1 PUSH2 0x31BF JUMP JUMPDEST DUP2 SLOAD DUP2 LT PUSH2 0x644 JUMPI PUSH2 0x644 PUSH2 0x31D8 JUMP JUMPDEST PUSH1 0x0 SWAP2 DUP3 MSTORE PUSH1 0x20 SWAP1 SWAP2 KECCAK256 PUSH1 0x3 SWAP1 SWAP2 MUL ADD PUSH1 0x2 ADD SLOAD PUSH2 0x100 SWAP1 DIV PUSH1 0xFF AND ISZERO ISZERO PUSH1 0x1 SUB PUSH2 0x7DB JUMPI PUSH1 0x14 SLOAD PUSH1 0x1 SLOAD PUSH1 0x1 PUSH1 0x1 PUSH1 0xA0 SHL SUB AND PUSH1 0x0 SWAP1 DUP2 MSTORE PUSH1 0x4 PUSH1 0x20 MSTORE PUSH1 0x40 SWAP1 KECCAK256 SLOAD LT ISZERO PUSH2 0x6E0 JUMPI PUSH1 0x40 MLOAD PUSH3 0x461BCD PUSH1 0xE5 SHL DUP2 MSTORE PUSH1 0x20 PUSH1 0x4 DUP3 ADD MSTORE PUSH1 0x22 PUSH1 0x24 DUP3 ADD MSTORE PUSH32 0x63726561746F7220646F6573206E6F74206861766520656E6F7567682066756E PUSH1 0x44 DUP3 ADD MSTORE PUSH2 0x6473 PUSH1 0xF0 SHL PUSH1 0x64 DUP3 ADD MSTORE PUSH1 0x84 ADD PUSH2 0x555 JUMP JUMPDEST PUSH1 0x1 PUSH1 0x1B PUSH1 0x1 PUSH1 0x11 SLOAD PUSH2 0x6F3 SWAP2 SWAP1 PUSH2 0x31BF JUMP JUMPDEST DUP2 SLOAD DUP2 LT PUSH2 0x703 JUMPI PUSH2 0x703 PUSH2 0x31D8 JUMP JUMPDEST PUSH1 0x0 SWAP2 DUP3 MSTORE PUSH1 0x20 DUP1 DUP4 KECCAK256 PUSH1 0x2 PUSH1 0x3 SWAP1 SWAP4 MUL ADD SWAP2 SWAP1 SWAP2 ADD DUP1 SLOAD SWAP4 ISZERO ISZERO PUSH2 0x100 MUL PUSH2 0xFF00 NOT SWAP1 SWAP5 AND SWAP4 SWAP1 SWAP4 OR SWAP1 SWAP3 SSTORE PUSH1 0x14 SLOAD PUSH1 0x1 SLOAD PUSH1 0x1 PUSH1 0x1 PUSH1 0xA0 SHL SUB AND DUP3 MSTORE PUSH1 0x4 SWAP1 SWAP3 MSTORE PUSH1 0x40 DUP2 KECCAK256 DUP1 SLOAD SWAP1 SWAP2 SWAP1 PUSH2 0x75A SWAP1 DUP5 SWAP1 PUSH2 0x31BF JUMP JUMPDEST SWAP1 SWAP2 SSTORE POP POP PUSH1 0x14 SLOAD PUSH1 0x2 SLOAD PUSH1 0x1 PUSH1 0x1 PUSH1 0xA0 SHL SUB AND PUSH1 0x0 SWAP1 DUP2 MSTORE PUSH1 0x4 PUSH1 0x20 MSTORE PUSH1 0x40 DUP2 KECCAK256 DUP1 SLOAD SWAP1 SWAP2 SWAP1 PUSH2 0x78C SWAP1 DUP5 SWAP1 PUSH2 0x31EE JUMP JUMPDEST SWAP1 SWAP2 SSTORE POP POP PUSH1 0xF DUP1 SLOAD PUSH1 0xFF NOT AND PUSH1 0x1 SWAP1 DUP2 OR SWAP1 SWAP2 SSTORE PUSH1 0x2 SLOAD PUSH1 0x14 SLOAD PUSH1 0x40 MLOAD PUSH1 0x0 DUP1 MLOAD PUSH1 0x20 PUSH2 0x356B DUP4 CODECOPY DUP2 MLOAD SWAP2 MSTORE SWAP4 PUSH2 0x7D1 SWAP4 PUSH1 0x1 PUSH1 0x1 PUSH1 0xA0 SHL SUB AND SWAP3 SWAP1 SWAP2 DUP3 SWAP1 PUSH2 0x3201 JUMP JUMPDEST PUSH1 0x40 MLOAD DUP1 SWAP2 SUB SWAP1 LOG1 JUMP JUMPDEST PUSH1 0x1C PUSH1 0x1 PUSH1 0x10 SLOAD PUSH2 0x7EC SWAP2 SWAP1 PUSH2 0x31BF JUMP JUMPDEST DUP2 SLOAD DUP2 LT PUSH2 0x7FC JUMPI PUSH2 0x7FC PUSH2 0x31D8 JUMP JUMPDEST PUSH1 0x0 SWAP2 DUP3 MSTORE PUSH1 0x20 DUP3 KECCAK256 PUSH1 0x2 PUSH1 0x3 SWAP1 SWAP3 MUL ADD ADD SLOAD PUSH1 0xFF PUSH2 0x100 SWAP1 SWAP2 DIV AND ISZERO ISZERO SWAP1 SUB PUSH2 0x8A0 JUMPI PUSH1 0x1 PUSH1 0x1B PUSH1 0x1 PUSH1 0x11 SLOAD PUSH2 0x833 SWAP2 SWAP1 PUSH2 0x31BF JUMP JUMPDEST DUP2 SLOAD DUP2 LT PUSH2 0x843 JUMPI PUSH2 0x843 PUSH2 0x31D8 JUMP JUMPDEST PUSH1 0x0 SWAP2 DUP3 MSTORE PUSH1 0x20 DUP3 KECCAK256 PUSH1 0x2 PUSH1 0x3 SWAP1 SWAP3 MUL ADD DUP2 ADD DUP1 SLOAD SWAP4 ISZERO ISZERO PUSH2 0x100 MUL PUSH2 0xFF00 NOT SWAP1 SWAP5 AND SWAP4 SWAP1 SWAP4 OR SWAP1 SWAP3 SSTORE SWAP1 SLOAD PUSH1 0xF SLOAD PUSH1 0x40 MLOAD PUSH1 0x0 DUP1 MLOAD PUSH1 0x20 PUSH2 0x356B DUP4 CODECOPY DUP2 MLOAD SWAP2 MSTORE SWAP4 PUSH2 0x7D1 SWAP4 PUSH1 0x1 PUSH1 0x1 PUSH1 0xA0 SHL SUB AND SWAP3 SWAP1 SWAP2 DUP3 SWAP2 PUSH1 0xFF AND SWAP1 PUSH2 0x3201 JUMP JUMPDEST JUMP JUMPDEST PUSH1 0x1 SLOAD PUSH1 0x1 PUSH1 0x1 PUSH1 0xA0 SHL SUB AND CALLER EQ PUSH2 0x8CC JUMPI PUSH1 0x40 MLOAD PUSH3 0x461BCD PUSH1 0xE5 SHL DUP2 MSTORE PUSH1 0x4 ADD PUSH2 0x555 SWAP1 PUSH2 0x3229 JUMP JUMPDEST PUSH1 0xF SLOAD PUSH1 0xFF AND ISZERO PUSH2 0x8DC JUMPI PUSH1 0x0 DUP1 REVERT JUMPDEST PUSH1 0x0 PUSH1 0x12 SLOAD GT DUP1 ISZERO PUSH2 0x8F0 JUMPI POP PUSH1 0x0 PUSH1 0x13 SLOAD GT JUMPDEST PUSH2 0x8F9 JUMPI PUSH1 0x0 DUP1 REVERT JUMPDEST PUSH1 0x16 SLOAD PUSH1 0xFF AND ISZERO PUSH2 0x909 JUMPI PUSH1 0x0 DUP1 REVERT JUMPDEST PUSH1 0x1 SLOAD PUSH1 0x1 PUSH1 0x1 PUSH1 0xA0 SHL SUB AND PUSH1 0x0 SWAP1 DUP2 MSTORE PUSH1 0x4 PUSH1 0x20 MSTORE PUSH1 0x40 SWAP1 KECCAK256 SLOAD DUP2 GT ISZERO PUSH2 0x930 JUMPI PUSH1 0x0 DUP1 REVERT JUMPDEST PUSH1 0x17 DUP2 SWAP1 SSTORE PUSH1 0x16 DUP1 SLOAD PUSH1 0xFF NOT AND PUSH1 0x1 SWAP1 DUP2 OR SWAP1 SWAP2 SSTORE DUP1 SLOAD PUSH1 0x40 MLOAD PUSH32 0xD017961242243731F971165FC8B11C9FD116C66E304166AE93FA6C45AB88CF8A SWAP3 PUSH2 0x981 SWAP3 PUSH1 0x1 PUSH1 0x1 PUSH1 0xA0 SHL SUB AND SWAP2 DUP6 SWAP1 PUSH2 0x327A JUMP JUMPDEST PUSH1 0x40 MLOAD DUP1 SWAP2 SUB SWAP1 LOG1 POP JUMP JUMPDEST PUSH1 0x1 SLOAD PUSH1 0x1 PUSH1 0x1 PUSH1 0xA0 SHL SUB AND CALLER EQ PUSH2 0x9B6 JUMPI PUSH1 0x40 MLOAD PUSH3 0x461BCD PUSH1 0xE5 SHL DUP2 MSTORE PUSH1 0x4 ADD PUSH2 0x555 SWAP1 PUSH2 0x3229 JUMP JUMPDEST PUSH1 0xF SLOAD PUSH1 0xFF PUSH2 0x100 SWAP1 SWAP2 DIV AND ISZERO ISZERO PUSH1 0x1 EQ PUSH2 0x9D0 JUMPI PUSH1 0x0 DUP1 REVERT JUMPDEST PUSH1 0x0 PUSH1 0xC8 PUSH1 0x7 SLOAD DUP4 PUSH2 0x9E2 SWAP2 SWAP1 PUSH2 0x329B JUMP JUMPDEST PUSH2 0x9EC SWAP2 SWAP1 PUSH2 0x32B2 JUMP JUMPDEST SWAP1 POP PUSH1 0x5 SLOAD PUSH1 0x10 SLOAD LT PUSH2 0xA11 JUMPI PUSH1 0x40 MLOAD PUSH3 0x461BCD PUSH1 0xE5 SHL DUP2 MSTORE PUSH1 0x4 ADD PUSH2 0x555 SWAP1 PUSH2 0x32D4 JUMP JUMPDEST PUSH2 0xA1B DUP2 DUP4 PUSH2 0x31EE JUMP JUMPDEST PUSH1 0x1 SLOAD PUSH1 0x1 PUSH1 0x1 PUSH1 0xA0 SHL SUB AND PUSH1 0x0 SWAP1 DUP2 MSTORE PUSH1 0x4 PUSH1 0x20 MSTORE PUSH1 0x40 SWAP1 KECCAK256 SLOAD LT ISZERO PUSH2 0xA54 JUMPI PUSH1 0x40 MLOAD PUSH3 0x461BCD PUSH1 0xE5 SHL DUP2 MSTORE PUSH1 0x4 ADD PUSH2 0x555 SWAP1 PUSH2 0x3318 JUMP JUMPDEST PUSH1 0x0 DUP3 GT PUSH2 0xA61 JUMPI PUSH1 0x0 DUP1 REVERT JUMPDEST PUSH1 0x10 DUP1 SLOAD SWAP1 PUSH1 0x0 PUSH2 0xA71 DUP4 PUSH2 0x336A JUMP JUMPDEST SWAP2 SWAP1 POP SSTORE POP PUSH1 0x11 SLOAD PUSH1 0x10 SLOAD EQ DUP1 PUSH2 0xA97 JUMPI POP PUSH1 0x11 SLOAD PUSH1 0x1 PUSH1 0x10 SLOAD PUSH2 0xA95 SWAP2 SWAP1 PUSH2 0x31BF JUMP JUMPDEST EQ JUMPDEST PUSH2 0xAB3 JUMPI PUSH1 0x40 MLOAD PUSH3 0x461BCD PUSH1 0xE5 SHL DUP2 MSTORE PUSH1 0x4 ADD PUSH2 0x555 SWAP1 PUSH2 0x3383 JUMP JUMPDEST PUSH1 0x40 DUP1 MLOAD PUSH1 0x80 DUP2 ADD DUP3 MSTORE DUP4 DUP2 MSTORE PUSH1 0x10 SLOAD PUSH1 0x20 DUP3 ADD MSTORE PUSH1 0x1 SWAP2 DUP2 ADD DUP3 SWAP1 MSTORE PUSH1 0x0 PUSH1 0x60 DUP3 ADD MSTORE PUSH1 0x5 SLOAD SWAP1 SWAP2 LT DUP1 ISZERO PUSH2 0xAEB JUMPI POP PUSH1 0x10 SLOAD PUSH1 0x1 EQ JUMPDEST ISZERO PUSH2 0xBB9 JUMPI PUSH1 0x1C DUP1 SLOAD PUSH1 0x1 DUP2 DUP2 ADD DUP4 SSTORE PUSH1 0x0 SWAP3 SWAP1 SWAP3 MSTORE DUP3 MLOAD PUSH1 0x3 SWAP1 SWAP2 MUL PUSH32 0xE4562A10381DEC21B205ED72637E6B1B523BDD0E4D4D50AF5CD23DD4500A211 DUP2 ADD SWAP2 SWAP1 SWAP2 SSTORE PUSH1 0x20 DUP4 ADD MLOAD PUSH32 0xE4562A10381DEC21B205ED72637E6B1B523BDD0E4D4D50AF5CD23DD4500A212 DUP3 ADD SSTORE PUSH1 0x40 DUP4 ADD MLOAD PUSH32 0xE4562A10381DEC21B205ED72637E6B1B523BDD0E4D4D50AF5CD23DD4500A213 SWAP1 SWAP2 ADD DUP1 SLOAD PUSH1 0x60 DUP6 ADD MLOAD ISZERO ISZERO PUSH2 0x100 MUL PUSH2 0xFF00 NOT SWAP4 ISZERO ISZERO SWAP4 SWAP1 SWAP4 AND PUSH2 0xFFFF NOT SWAP1 SWAP2 AND OR SWAP2 SWAP1 SWAP2 OR SWAP1 SSTORE PUSH1 0xA DUP1 SLOAD PUSH1 0xFF NOT AND SWAP1 SWAP2 OR SWAP1 SSTORE PUSH2 0xC87 JUMP JUMPDEST DUP3 PUSH1 0xB PUSH1 0x0 DUP3 DUP3 SLOAD PUSH2 0xBCB SWAP2 SWAP1 PUSH2 0x31EE JUMP JUMPDEST SWAP1 SWAP2 SSTORE POP POP PUSH1 0x1C DUP1 SLOAD PUSH1 0x1 DUP2 ADD DUP3 SSTORE PUSH1 0x0 SWAP2 SWAP1 SWAP2 MSTORE DUP2 MLOAD PUSH1 0x3 SWAP1 SWAP2 MUL PUSH32 0xE4562A10381DEC21B205ED72637E6B1B523BDD0E4D4D50AF5CD23DD4500A211 DUP2 ADD SWAP2 SWAP1 SWAP2 SSTORE PUSH1 0x20 DUP3 ADD MLOAD PUSH32 0xE4562A10381DEC21B205ED72637E6B1B523BDD0E4D4D50AF5CD23DD4500A212 DUP3 ADD SSTORE PUSH1 0x40 DUP3 ADD MLOAD PUSH32 0xE4562A10381DEC21B205ED72637E6B1B523BDD0E4D4D50AF5CD23DD4500A213 SWAP1 SWAP2 ADD DUP1 SLOAD PUSH1 0x60 DUP5 ADD MLOAD ISZERO ISZERO PUSH2 0x100 MUL PUSH2 0xFF00 NOT SWAP4 ISZERO ISZERO SWAP4 SWAP1 SWAP4 AND PUSH2 0xFFFF NOT SWAP1 SWAP2 AND OR SWAP2 SWAP1 SWAP2 OR SWAP1 SSTORE JUMPDEST PUSH1 0x5 SLOAD PUSH1 0x10 SLOAD EQ DUP1 ISZERO PUSH2 0xC9D JUMPI POP PUSH1 0x5 SLOAD PUSH1 0x11 SLOAD EQ JUMPDEST ISZERO PUSH2 0xCE5 JUMPI PUSH2 0xCB0 PUSH1 0xB SLOAD PUSH1 0xC SLOAD PUSH2 0x284F JUMP JUMPDEST PUSH1 0x40 MLOAD PUSH1 0x1 DUP2 MSTORE PUSH32 0xC1E80C6033B9A1CDB8B51042A43AF8AA76B052E2338CB9CD55B96FBD34DAB7EE SWAP1 PUSH1 0x20 ADD PUSH1 0x40 MLOAD DUP1 SWAP2 SUB SWAP1 LOG1 JUMPDEST PUSH1 0x11 SLOAD PUSH1 0x10 SLOAD EQ DUP1 ISZERO PUSH2 0xD31 JUMPI POP PUSH1 0x1B PUSH1 0x1 PUSH1 0x11 SLOAD PUSH2 0xD04 SWAP2 SWAP1 PUSH2 0x31BF JUMP JUMPDEST DUP2 SLOAD DUP2 LT PUSH2 0xD14 JUMPI PUSH2 0xD14 PUSH2 0x31D8 JUMP JUMPDEST PUSH1 0x0 SWAP2 DUP3 MSTORE PUSH1 0x20 SWAP1 SWAP2 KECCAK256 PUSH1 0x2 PUSH1 0x3 SWAP1 SWAP3 MUL ADD ADD SLOAD PUSH1 0xFF AND ISZERO ISZERO PUSH1 0x1 EQ JUMPDEST ISZERO PUSH2 0xD79 JUMPI PUSH2 0xD3E PUSH2 0x28BF JUMP JUMPDEST PUSH1 0x1 DUP1 SLOAD PUSH1 0x10 SLOAD PUSH1 0x40 MLOAD PUSH1 0x0 DUP1 MLOAD PUSH1 0x20 PUSH2 0x35AB DUP4 CODECOPY DUP2 MLOAD SWAP2 MSTORE SWAP4 PUSH2 0xD6C SWAP4 PUSH1 0x1 PUSH1 0x1 PUSH1 0xA0 SHL SUB AND SWAP3 SWAP2 PUSH2 0x33FB JUMP JUMPDEST PUSH1 0x40 MLOAD DUP1 SWAP2 SUB SWAP1 LOG1 POP POP POP JUMP JUMPDEST PUSH1 0x1 SLOAD PUSH1 0x10 SLOAD PUSH1 0x40 MLOAD PUSH1 0x0 DUP1 MLOAD PUSH1 0x20 PUSH2 0x35AB DUP4 CODECOPY DUP2 MLOAD SWAP2 MSTORE SWAP3 PUSH2 0xD6C SWAP3 PUSH1 0x1 PUSH1 0x1 PUSH1 0xA0 SHL SUB SWAP1 SWAP2 AND SWAP2 PUSH1 0x0 SWAP1 PUSH2 0x33FB JUMP JUMPDEST PUSH1 0x1 SLOAD PUSH1 0x1 PUSH1 0x1 PUSH1 0xA0 SHL SUB AND CALLER EQ PUSH2 0xDD4 JUMPI PUSH1 0x40 MLOAD PUSH3 0x461BCD PUSH1 0xE5 SHL DUP2 MSTORE PUSH1 0x4 ADD PUSH2 0x555 SWAP1 PUSH2 0x3229 JUMP JUMPDEST PUSH1 0xF SLOAD PUSH1 0xFF AND ISZERO PUSH2 0xDE4 JUMPI PUSH1 0x0 DUP1 REVERT JUMPDEST PUSH1 0x6 SLOAD PUSH1 0x12 SLOAD LT PUSH2 0xE07 JUMPI PUSH1 0x40 MLOAD PUSH3 0x461BCD PUSH1 0xE5 SHL DUP2 MSTORE PUSH1 0x4 ADD PUSH2 0x555 SWAP1 PUSH2 0x341E JUMP JUMPDEST PUSH1 0x0 PUSH1 0xC8 PUSH1 0x8 SLOAD DUP4 PUSH2 0xE19 SWAP2 SWAP1 PUSH2 0x329B JUMP JUMPDEST PUSH2 0xE23 SWAP2 SWAP1 PUSH2 0x32B2 JUMP JUMPDEST SWAP1 POP PUSH1 0x0 PUSH2 0xE31 DUP3 DUP5 PUSH2 0x31EE JUMP JUMPDEST CALLER PUSH1 0x0 SWAP1 DUP2 MSTORE PUSH1 0x4 PUSH1 0x20 MSTORE PUSH1 0x40 SWAP1 KECCAK256 SLOAD SWAP1 SWAP2 POP DUP2 GT ISZERO PUSH2 0xE63 JUMPI PUSH1 0x40 MLOAD PUSH3 0x461BCD PUSH1 0xE5 SHL DUP2 MSTORE PUSH1 0x4 ADD PUSH2 0x555 SWAP1 PUSH2 0x3318 JUMP JUMPDEST PUSH1 0x0 PUSH1 0xD SLOAD GT PUSH2 0xE85 JUMPI PUSH1 0x40 MLOAD PUSH3 0x461BCD PUSH1 0xE5 SHL DUP2 MSTORE PUSH1 0x4 ADD PUSH2 0x555 SWAP1 PUSH2 0x3462 JUMP JUMPDEST PUSH1 0x12 DUP1 SLOAD SWAP1 PUSH1 0x0 PUSH2 0xE95 DUP4 PUSH2 0x336A JUMP JUMPDEST SWAP2 SWAP1 POP SSTORE POP PUSH1 0x13 SLOAD PUSH1 0x12 SLOAD EQ DUP1 PUSH2 0xEBB JUMPI POP PUSH1 0x13 SLOAD PUSH1 0x1 PUSH1 0x12 SLOAD PUSH2 0xEB9 SWAP2 SWAP1 PUSH2 0x31BF JUMP JUMPDEST EQ JUMPDEST PUSH2 0xED7 JUMPI PUSH1 0x40 MLOAD PUSH3 0x461BCD PUSH1 0xE5 SHL DUP2 MSTORE PUSH1 0x4 ADD PUSH2 0x555 SWAP1 PUSH2 0x3383 JUMP JUMPDEST PUSH1 0x40 DUP1 MLOAD PUSH1 0x60 DUP2 ADD DUP3 MSTORE DUP5 DUP2 MSTORE PUSH1 0x12 DUP1 SLOAD PUSH1 0x20 DUP4 ADD SWAP1 DUP2 MSTORE PUSH1 0x1 SWAP4 DUP4 ADD DUP5 DUP2 MSTORE PUSH1 0x1E DUP1 SLOAD SWAP6 DUP7 ADD DUP2 SSTORE PUSH1 0x0 MSTORE DUP4 MLOAD PUSH32 0x50BB669A95C7B50B7E8A6F09454034B2B14CF2B85C730DCA9A539CA82CB6E350 PUSH1 0x3 SWAP1 SWAP7 MUL SWAP6 DUP7 ADD SSTORE SWAP1 MLOAD PUSH32 0x50BB669A95C7B50B7E8A6F09454034B2B14CF2B85C730DCA9A539CA82CB6E351 DUP6 ADD SSTORE MLOAD PUSH32 0x50BB669A95C7B50B7E8A6F09454034B2B14CF2B85C730DCA9A539CA82CB6E352 SWAP1 SWAP4 ADD DUP1 SLOAD PUSH1 0xFF NOT AND SWAP4 ISZERO ISZERO SWAP4 SWAP1 SWAP4 OR SWAP1 SWAP3 SSTORE PUSH1 0x13 SLOAD SWAP2 SLOAD SWAP1 SWAP2 EQ DUP1 ISZERO PUSH2 0xFD7 JUMPI POP PUSH1 0x1D PUSH1 0x1 PUSH1 0x13 SLOAD PUSH2 0xFAA SWAP2 SWAP1 PUSH2 0x31BF JUMP JUMPDEST DUP2 SLOAD DUP2 LT PUSH2 0xFBA JUMPI PUSH2 0xFBA PUSH2 0x31D8 JUMP JUMPDEST PUSH1 0x0 SWAP2 DUP3 MSTORE PUSH1 0x20 SWAP1 SWAP2 KECCAK256 PUSH1 0x2 PUSH1 0x3 SWAP1 SWAP3 MUL ADD ADD SLOAD PUSH1 0xFF AND ISZERO ISZERO PUSH1 0x1 EQ JUMPDEST ISZERO PUSH2 0x1020 JUMPI PUSH2 0xFE5 DUP3 PUSH2 0x2AF1 JUMP JUMPDEST PUSH1 0x1 DUP1 SLOAD PUSH1 0x12 SLOAD PUSH1 0x40 MLOAD PUSH1 0x0 DUP1 MLOAD PUSH1 0x20 PUSH2 0x354B DUP4 CODECOPY DUP2 MLOAD SWAP2 MSTORE SWAP4 PUSH2 0x1013 SWAP4 PUSH1 0x1 PUSH1 0x1 PUSH1 0xA0 SHL SUB AND SWAP3 SWAP2 PUSH2 0x33FB JUMP JUMPDEST PUSH1 0x40 MLOAD DUP1 SWAP2 SUB SWAP1 LOG1 PUSH2 0x105A JUMP JUMPDEST PUSH1 0x1 SLOAD PUSH1 0x12 SLOAD PUSH1 0x40 MLOAD PUSH1 0x0 DUP1 MLOAD PUSH1 0x20 PUSH2 0x354B DUP4 CODECOPY DUP2 MLOAD SWAP2 MSTORE SWAP3 PUSH2 0x1051 SWAP3 PUSH1 0x1 PUSH1 0x1 PUSH1 0xA0 SHL SUB SWAP1 SWAP2 AND SWAP2 PUSH1 0x0 SWAP1 PUSH2 0x33FB JUMP JUMPDEST PUSH1 0x40 MLOAD DUP1 SWAP2 SUB SWAP1 LOG1 JUMPDEST POP POP POP POP JUMP JUMPDEST PUSH1 0x1 SLOAD PUSH1 0x1 PUSH1 0x1 PUSH1 0xA0 SHL SUB AND CALLER EQ DUP1 ISZERO PUSH2 0x1081 JUMPI POP PUSH1 0x16 SLOAD PUSH1 0xFF AND ISZERO ISZERO PUSH1 0x1 EQ JUMPDEST DUP1 ISZERO PUSH2 0x1090 JUMPI POP PUSH1 0x18 SLOAD PUSH1 0xFF AND ISZERO JUMPDEST ISZERO PUSH2 0x1194 JUMPI PUSH1 0xE SLOAD PUSH2 0x10A2 SWAP1 DUP3 PUSH2 0x31EE JUMP JUMPDEST PUSH1 0x1 SLOAD PUSH1 0x1 PUSH1 0x1 PUSH1 0xA0 SHL SUB AND PUSH1 0x0 SWAP1 DUP2 MSTORE PUSH1 0x4 PUSH1 0x20 MSTORE PUSH1 0x40 SWAP1 KECCAK256 SLOAD LT ISZERO PUSH2 0x10DB JUMPI PUSH1 0x40 MLOAD PUSH3 0x461BCD PUSH1 0xE5 SHL DUP2 MSTORE PUSH1 0x4 ADD PUSH2 0x555 SWAP1 PUSH2 0x34A8 JUMP JUMPDEST PUSH1 0xE SLOAD PUSH2 0x10E8 SWAP1 DUP3 PUSH2 0x31EE JUMP JUMPDEST PUSH1 0x1 SLOAD PUSH1 0x1 PUSH1 0x1 PUSH1 0xA0 SHL SUB AND PUSH1 0x0 SWAP1 DUP2 MSTORE PUSH1 0x4 PUSH1 0x20 MSTORE PUSH1 0x40 DUP2 KECCAK256 DUP1 SLOAD SWAP1 SWAP2 SWAP1 PUSH2 0x1112 SWAP1 DUP5 SWAP1 PUSH2 0x31BF JUMP JUMPDEST SWAP1 SWAP2 SSTORE POP POP PUSH1 0xE SLOAD PUSH1 0x3 SLOAD PUSH1 0x1 PUSH1 0x1 PUSH1 0xA0 SHL SUB AND PUSH1 0x0 SWAP1 DUP2 MSTORE PUSH1 0x4 PUSH1 0x20 MSTORE PUSH1 0x40 DUP2 KECCAK256 DUP1 SLOAD SWAP1 SWAP2 SWAP1 PUSH2 0x1144 SWAP1 DUP5 SWAP1 PUSH2 0x31EE JUMP JUMPDEST SWAP1 SWAP2 SSTORE POP POP PUSH1 0x1 SLOAD PUSH1 0x40 MLOAD PUSH1 0x1 PUSH1 0x1 PUSH1 0xA0 SHL SUB SWAP1 SWAP2 AND SWAP1 DUP3 ISZERO PUSH2 0x8FC MUL SWAP1 DUP4 SWAP1 PUSH1 0x0 DUP2 DUP2 DUP2 DUP6 DUP9 DUP9 CALL SWAP4 POP POP POP POP ISZERO DUP1 ISZERO PUSH2 0x1183 JUMPI RETURNDATASIZE PUSH1 0x0 DUP1 RETURNDATACOPY RETURNDATASIZE PUSH1 0x0 REVERT JUMPDEST POP PUSH1 0x18 DUP1 SLOAD PUSH1 0xFF NOT AND PUSH1 0x1 OR SWAP1 SSTORE POP JUMP JUMPDEST PUSH1 0x2 SLOAD PUSH1 0x1 PUSH1 0x1 PUSH1 0xA0 SHL SUB AND CALLER EQ DUP1 ISZERO PUSH2 0x11BB JUMPI POP PUSH1 0x18 SLOAD PUSH1 0xFF PUSH2 0x100 SWAP1 SWAP2 DIV AND ISZERO ISZERO PUSH1 0x1 EQ JUMPDEST DUP1 ISZERO PUSH2 0x11CA JUMPI POP PUSH1 0x1A SLOAD PUSH1 0xFF AND ISZERO JUMPDEST ISZERO PUSH2 0x12CE JUMPI PUSH1 0xE SLOAD PUSH2 0x11DC SWAP1 DUP3 PUSH2 0x31EE JUMP JUMPDEST PUSH1 0x2 SLOAD PUSH1 0x1 PUSH1 0x1 PUSH1 0xA0 SHL SUB AND PUSH1 0x0 SWAP1 DUP2 MSTORE PUSH1 0x4 PUSH1 0x20 MSTORE PUSH1 0x40 SWAP1 KECCAK256 SLOAD LT ISZERO PUSH2 0x1215 JUMPI PUSH1 0x40 MLOAD PUSH3 0x461BCD PUSH1 0xE5 SHL DUP2 MSTORE PUSH1 0x4 ADD PUSH2 0x555 SWAP1 PUSH2 0x34A8 JUMP JUMPDEST PUSH1 0xE SLOAD PUSH2 0x1222 SWAP1 DUP3 PUSH2 0x31EE JUMP JUMPDEST PUSH1 0x2 SLOAD PUSH1 0x1 PUSH1 0x1 PUSH1 0xA0 SHL SUB AND PUSH1 0x0 SWAP1 DUP2 MSTORE PUSH1 0x4 PUSH1 0x20 MSTORE PUSH1 0x40 DUP2 KECCAK256 DUP1 SLOAD SWAP1 SWAP2 SWAP1 PUSH2 0x124C SWAP1 DUP5 SWAP1 PUSH2 0x31BF JUMP JUMPDEST SWAP1 SWAP2 SSTORE POP POP PUSH1 0xE SLOAD PUSH1 0x3 SLOAD PUSH1 0x1 PUSH1 0x1 PUSH1 0xA0 SHL SUB AND PUSH1 0x0 SWAP1 DUP2 MSTORE PUSH1 0x4 PUSH1 0x20 MSTORE PUSH1 0x40 DUP2 KECCAK256 DUP1 SLOAD SWAP1 SWAP2 SWAP1 PUSH2 0x127E SWAP1 DUP5 SWAP1 PUSH2 0x31EE JUMP JUMPDEST SWAP1 SWAP2 SSTORE POP POP PUSH1 0x2 SLOAD PUSH1 0x40 MLOAD PUSH1 0x1 PUSH1 0x1 PUSH1 0xA0 SHL SUB SWAP1 SWAP2 AND SWAP1 DUP3 ISZERO PUSH2 0x8FC MUL SWAP1 DUP4 SWAP1 PUSH1 0x0 DUP2 DUP2 DUP2 DUP6 DUP9 DUP9 CALL SWAP4 POP POP POP POP ISZERO DUP1 ISZERO PUSH2 0x12BD JUMPI RETURNDATASIZE PUSH1 0x0 DUP1 RETURNDATACOPY RETURNDATASIZE PUSH1 0x0 REVERT JUMPDEST POP PUSH1 0x1A DUP1 SLOAD PUSH1 0xFF NOT AND PUSH1 0x1 OR SWAP1 SSTORE POP JUMP JUMPDEST CALLER PUSH1 0x0 SWAP1 DUP2 MSTORE PUSH1 0x4 PUSH1 0x20 MSTORE PUSH1 0x40 SWAP1 KECCAK256 SLOAD DUP2 GT ISZERO PUSH2 0x1320 JUMPI PUSH1 0x40 MLOAD PUSH3 0x461BCD PUSH1 0xE5 SHL DUP2 MSTORE PUSH1 0x20 PUSH1 0x4 DUP3 ADD MSTORE PUSH1 0x10 PUSH1 0x24 DUP3 ADD MSTORE PUSH16 0x6E6F7420656E6F7567682066756E6473 PUSH1 0x80 SHL PUSH1 0x44 DUP3 ADD MSTORE PUSH1 0x64 ADD PUSH2 0x555 JUMP JUMPDEST CALLER PUSH1 0x0 SWAP1 DUP2 MSTORE PUSH1 0x4 PUSH1 0x20 MSTORE PUSH1 0x40 DUP2 KECCAK256 DUP1 SLOAD DUP4 SWAP3 SWAP1 PUSH2 0x133F SWAP1 DUP5 SWAP1 PUSH2 0x31BF JUMP JUMPDEST SWAP1 SWAP2 SSTORE POP POP PUSH1 0x40 MLOAD CALLER SWAP1 DUP3 ISZERO PUSH2 0x8FC MUL SWAP1 DUP4 SWAP1 PUSH1 0x0 DUP2 DUP2 DUP2 DUP6 DUP9 DUP9 CALL SWAP4 POP POP POP POP ISZERO DUP1 ISZERO PUSH2 0x1371 JUMPI RETURNDATASIZE PUSH1 0x0 DUP1 RETURNDATACOPY RETURNDATASIZE PUSH1 0x0 REVERT JUMPDEST POP JUMPDEST POP JUMP JUMPDEST PUSH1 0x2 SLOAD PUSH1 0x1 PUSH1 0x1 PUSH1 0xA0 SHL SUB AND CALLER EQ PUSH2 0x13A0 JUMPI PUSH1 0x40 MLOAD PUSH3 0x461BCD PUSH1 0xE5 SHL DUP2 MSTORE PUSH1 0x4 ADD PUSH2 0x555 SWAP1 PUSH2 0x3157 JUMP JUMPDEST PUSH1 0xF SLOAD PUSH1 0xFF AND ISZERO PUSH2 0x13B0 JUMPI PUSH1 0x0 DUP1 REVERT JUMPDEST PUSH1 0x0 PUSH1 0x12 SLOAD GT DUP1 ISZERO PUSH2 0x13C4 JUMPI POP PUSH1 0x0 PUSH1 0x13 SLOAD GT JUMPDEST PUSH2 0x13CD JUMPI PUSH1 0x0 DUP1 REVERT JUMPDEST PUSH1 0x18 SLOAD PUSH2 0x100 SWAP1 DIV PUSH1 0xFF AND ISZERO PUSH2 0x13E2 JUMPI PUSH1 0x0 DUP1 REVERT JUMPDEST PUSH1 0xE SLOAD PUSH1 0x1 SLOAD PUSH1 0x1 PUSH1 0x1 PUSH1 0xA0 SHL SUB AND PUSH1 0x0 SWAP1 DUP2 MSTORE PUSH1 0x4 PUSH1 0x20 MSTORE PUSH1 0x40 SWAP1 KECCAK256 SLOAD LT ISZERO PUSH2 0x140B JUMPI PUSH1 0x0 DUP1 REVERT JUMPDEST PUSH1 0x19 DUP2 SWAP1 SSTORE PUSH1 0x18 DUP1 SLOAD PUSH2 0xFF00 NOT AND PUSH2 0x100 OR SWAP1 SSTORE PUSH1 0x2 SLOAD PUSH1 0x40 MLOAD PUSH32 0xD017961242243731F971165FC8B11C9FD116C66E304166AE93FA6C45AB88CF8A SWAP2 PUSH2 0x981 SWAP2 PUSH1 0x1 PUSH1 0x1 PUSH1 0xA0 SHL SUB SWAP1 SWAP2 AND SWAP1 PUSH1 0x1 SWAP1 DUP6 SWAP1 PUSH2 0x327A JUMP JUMPDEST PUSH1 0x1 SLOAD PUSH1 0x1 PUSH1 0x1 PUSH1 0xA0 SHL SUB AND CALLER EQ DUP1 ISZERO PUSH2 0x1482 JUMPI POP PUSH1 0x16 SLOAD PUSH1 0xFF AND ISZERO ISZERO PUSH1 0x1 EQ JUMPDEST DUP1 ISZERO PUSH2 0x1491 JUMPI POP PUSH1 0x18 SLOAD PUSH1 0xFF AND ISZERO JUMPDEST ISZERO PUSH2 0x157B JUMPI PUSH1 0xE SLOAD PUSH1 0x1 SLOAD PUSH1 0x1 PUSH1 0x1 PUSH1 0xA0 SHL SUB AND PUSH1 0x0 SWAP1 DUP2 MSTORE PUSH1 0x4 PUSH1 0x20 MSTORE PUSH1 0x40 DUP2 KECCAK256 SLOAD SWAP1 SWAP2 PUSH2 0x14BF SWAP2 PUSH2 0x31BF JUMP JUMPDEST SWAP1 POP PUSH1 0xE SLOAD DUP2 PUSH2 0x14CF SWAP2 SWAP1 PUSH2 0x31EE JUMP JUMPDEST PUSH1 0x1 SLOAD PUSH1 0x1 PUSH1 0x1 PUSH1 0xA0 SHL SUB AND PUSH1 0x0 SWAP1 DUP2 MSTORE PUSH1 0x4 PUSH1 0x20 MSTORE PUSH1 0x40 DUP2 KECCAK256 DUP1 SLOAD SWAP1 SWAP2 SWAP1 PUSH2 0x14F9 SWAP1 DUP5 SWAP1 PUSH2 0x31BF JUMP JUMPDEST SWAP1 SWAP2 SSTORE POP POP PUSH1 0xE SLOAD PUSH1 0x3 SLOAD PUSH1 0x1 PUSH1 0x1 PUSH1 0xA0 SHL SUB AND PUSH1 0x0 SWAP1 DUP2 MSTORE PUSH1 0x4 PUSH1 0x20 MSTORE PUSH1 0x40 DUP2 KECCAK256 DUP1 SLOAD SWAP1 SWAP2 SWAP1 PUSH2 0x152B SWAP1 DUP5 SWAP1 PUSH2 0x31EE JUMP JUMPDEST SWAP1 SWAP2 SSTORE POP POP PUSH1 0x1 SLOAD PUSH1 0x40 MLOAD PUSH1 0x1 PUSH1 0x1 PUSH1 0xA0 SHL SUB SWAP1 SWAP2 AND SWAP1 DUP3 ISZERO PUSH2 0x8FC MUL SWAP1 DUP4 SWAP1 PUSH1 0x0 DUP2 DUP2 DUP2 DUP6 DUP9 DUP9 CALL SWAP4 POP POP POP POP ISZERO DUP1 ISZERO PUSH2 0x156A JUMPI RETURNDATASIZE PUSH1 0x0 DUP1 RETURNDATACOPY RETURNDATASIZE PUSH1 0x0 REVERT JUMPDEST POP POP PUSH1 0x18 DUP1 SLOAD PUSH1 0xFF NOT AND PUSH1 0x1 OR SWAP1 SSTORE JUMP JUMPDEST PUSH1 0x2 SLOAD PUSH1 0x1 PUSH1 0x1 PUSH1 0xA0 SHL SUB AND CALLER EQ DUP1 ISZERO PUSH2 0x15A2 JUMPI POP PUSH1 0x18 SLOAD PUSH1 0xFF PUSH2 0x100 SWAP1 SWAP2 DIV AND ISZERO ISZERO PUSH1 0x1 EQ JUMPDEST DUP1 ISZERO PUSH2 0x15B1 JUMPI POP PUSH1 0x1A SLOAD PUSH1 0xFF AND ISZERO JUMPDEST ISZERO PUSH2 0x169B JUMPI PUSH1 0xE SLOAD PUSH1 0x2 SLOAD PUSH1 0x1 PUSH1 0x1 PUSH1 0xA0 SHL SUB AND PUSH1 0x0 SWAP1 DUP2 MSTORE PUSH1 0x4 PUSH1 0x20 MSTORE PUSH1 0x40 DUP2 KECCAK256 SLOAD SWAP1 SWAP2 PUSH2 0x15DF SWAP2 PUSH2 0x31BF JUMP JUMPDEST SWAP1 POP PUSH1 0xE SLOAD DUP2 PUSH2 0x15EF SWAP2 SWAP1 PUSH2 0x31EE JUMP JUMPDEST PUSH1 0x2 SLOAD PUSH1 0x1 PUSH1 0x1 PUSH1 0xA0 SHL SUB AND PUSH1 0x0 SWAP1 DUP2 MSTORE PUSH1 0x4 PUSH1 0x20 MSTORE PUSH1 0x40 DUP2 KECCAK256 DUP1 SLOAD SWAP1 SWAP2 SWAP1 PUSH2 0x1619 SWAP1 DUP5 SWAP1 PUSH2 0x31BF JUMP JUMPDEST SWAP1 SWAP2 SSTORE POP POP PUSH1 0xE SLOAD PUSH1 0x3 SLOAD PUSH1 0x1 PUSH1 0x1 PUSH1 0xA0 SHL SUB AND PUSH1 0x0 SWAP1 DUP2 MSTORE PUSH1 0x4 PUSH1 0x20 MSTORE PUSH1 0x40 DUP2 KECCAK256 DUP1 SLOAD SWAP1 SWAP2 SWAP1 PUSH2 0x164B SWAP1 DUP5 SWAP1 PUSH2 0x31EE JUMP JUMPDEST SWAP1 SWAP2 SSTORE POP POP PUSH1 0x2 SLOAD PUSH1 0x40 MLOAD PUSH1 0x1 PUSH1 0x1 PUSH1 0xA0 SHL SUB SWAP1 SWAP2 AND SWAP1 DUP3 ISZERO PUSH2 0x8FC MUL SWAP1 DUP4 SWAP1 PUSH1 0x0 DUP2 DUP2 DUP2 DUP6 DUP9 DUP9 CALL SWAP4 POP POP POP POP ISZERO DUP1 ISZERO PUSH2 0x168A JUMPI RETURNDATASIZE PUSH1 0x0 DUP1 RETURNDATACOPY RETURNDATASIZE PUSH1 0x0 REVERT JUMPDEST POP POP PUSH1 0x1A DUP1 SLOAD PUSH1 0xFF NOT AND PUSH1 0x1 OR SWAP1 SSTORE JUMP JUMPDEST CALLER PUSH1 0x0 SWAP1 DUP2 MSTORE PUSH1 0x4 PUSH1 0x20 MSTORE PUSH1 0x40 DUP2 KECCAK256 DUP1 SLOAD SWAP2 DUP3 SWAP2 SWAP1 PUSH2 0x133F DUP4 DUP1 PUSH2 0x31BF JUMP JUMPDEST PUSH1 0x1 SLOAD PUSH1 0x1 PUSH1 0x1 PUSH1 0xA0 SHL SUB AND CALLER EQ PUSH2 0x16E4 JUMPI PUSH1 0x40 MLOAD PUSH3 0x461BCD PUSH1 0xE5 SHL DUP2 MSTORE PUSH1 0x4 ADD PUSH2 0x555 SWAP1 PUSH2 0x3229 JUMP JUMPDEST PUSH1 0x11 SLOAD PUSH1 0x10 SLOAD EQ PUSH2 0x16F4 JUMPI PUSH1 0x0 DUP1 REVERT JUMPDEST PUSH1 0x1B PUSH1 0x1 PUSH1 0x11 SLOAD PUSH2 0x1705 SWAP2 SWAP1 PUSH2 0x31BF JUMP JUMPDEST DUP2 SLOAD DUP2 LT PUSH2 0x1715 JUMPI PUSH2 0x1715 PUSH2 0x31D8 JUMP JUMPDEST PUSH1 0x0 SWAP2 DUP3 MSTORE PUSH1 0x20 SWAP1 SWAP2 KECCAK256 PUSH1 0x2 PUSH1 0x3 SWAP1 SWAP3 MUL ADD ADD SLOAD PUSH1 0xFF AND ISZERO ISZERO PUSH1 0x1 EQ DUP1 ISZERO PUSH2 0x1776 JUMPI POP PUSH1 0x1C PUSH1 0x1 PUSH1 0x10 SLOAD PUSH2 0x1749 SWAP2 SWAP1 PUSH2 0x31BF JUMP JUMPDEST DUP2 SLOAD DUP2 LT PUSH2 0x1759 JUMPI PUSH2 0x1759 PUSH2 0x31D8 JUMP JUMPDEST PUSH1 0x0 SWAP2 DUP3 MSTORE PUSH1 0x20 SWAP1 SWAP2 KECCAK256 PUSH1 0x2 PUSH1 0x3 SWAP1 SWAP3 MUL ADD ADD SLOAD PUSH1 0xFF AND ISZERO ISZERO PUSH1 0x1 EQ JUMPDEST PUSH2 0x177F JUMPI PUSH1 0x0 DUP1 REVERT JUMPDEST PUSH1 0xF SLOAD PUSH1 0xFF AND ISZERO PUSH2 0x178F JUMPI PUSH1 0x0 DUP1 REVERT JUMPDEST PUSH1 0xF SLOAD PUSH1 0xFF PUSH2 0x100 SWAP1 SWAP2 DIV AND ISZERO ISZERO PUSH1 0x1 EQ PUSH2 0x17A9 JUMPI PUSH1 0x0 DUP1 REVERT JUMPDEST PUSH1 0x1B PUSH1 0x1 PUSH1 0x11 SLOAD PUSH2 0x17BA SWAP2 SWAP1 PUSH2 0x31BF JUMP JUMPDEST DUP2 SLOAD DUP2 LT PUSH2 0x17CA JUMPI PUSH2 0x17CA PUSH2 0x31D8 JUMP JUMPDEST PUSH1 0x0 SWAP2 DUP3 MSTORE PUSH1 0x20 SWAP1 SWAP2 KECCAK256 PUSH1 0x3 SWAP1 SWAP2 MUL ADD PUSH1 0x2 ADD SLOAD PUSH2 0x100 SWAP1 DIV PUSH1 0xFF AND ISZERO ISZERO PUSH1 0x1 SUB PUSH2 0x193E JUMPI PUSH1 0x14 SLOAD PUSH1 0x1 SLOAD PUSH1 0x1 PUSH1 0x1 PUSH1 0xA0 SHL SUB AND PUSH1 0x0 SWAP1 DUP2 MSTORE PUSH1 0x4 PUSH1 0x20 MSTORE PUSH1 0x40 SWAP1 KECCAK256 SLOAD LT ISZERO PUSH2 0x184E JUMPI PUSH1 0x40 MLOAD PUSH3 0x461BCD PUSH1 0xE5 SHL DUP2 MSTORE PUSH1 0x20 PUSH1 0x4 DUP3 ADD MSTORE PUSH1 0x10 PUSH1 0x24 DUP3 ADD MSTORE PUSH16 0x6E6F7420656E6F7567682066756E6473 PUSH1 0x80 SHL PUSH1 0x44 DUP3 ADD MSTORE PUSH1 0x64 ADD PUSH2 0x555 JUMP JUMPDEST PUSH1 0x1 PUSH1 0x1C PUSH1 0x1 PUSH1 0x10 SLOAD PUSH2 0x1861 SWAP2 SWAP1 PUSH2 0x31BF JUMP JUMPDEST DUP2 SLOAD DUP2 LT PUSH2 0x1871 JUMPI PUSH2 0x1871 PUSH2 0x31D8 JUMP JUMPDEST PUSH1 0x0 SWAP2 DUP3 MSTORE PUSH1 0x20 DUP1 DUP4 KECCAK256 PUSH1 0x2 PUSH1 0x3 SWAP1 SWAP4 MUL ADD SWAP2 SWAP1 SWAP2 ADD DUP1 SLOAD SWAP4 ISZERO ISZERO PUSH2 0x100 MUL PUSH2 0xFF00 NOT SWAP1 SWAP5 AND SWAP4 SWAP1 SWAP4 OR SWAP1 SWAP3 SSTORE PUSH1 0x14 SLOAD PUSH1 0x1 SLOAD PUSH1 0x1 PUSH1 0x1 PUSH1 0xA0 SHL SUB AND DUP3 MSTORE PUSH1 0x4 SWAP1 SWAP3 MSTORE PUSH1 0x40 DUP2 KECCAK256 DUP1 SLOAD SWAP1 SWAP2 SWAP1 PUSH2 0x18C8 SWAP1 DUP5 SWAP1 PUSH2 0x31BF JUMP JUMPDEST SWAP1 SWAP2 SSTORE POP POP PUSH1 0x14 SLOAD PUSH1 0x2 SLOAD PUSH1 0x1 PUSH1 0x1 PUSH1 0xA0 SHL SUB AND PUSH1 0x0 SWAP1 DUP2 MSTORE PUSH1 0x4 PUSH1 0x20 MSTORE PUSH1 0x40 DUP2 KECCAK256 DUP1 SLOAD SWAP1 SWAP2 SWAP1 PUSH2 0x18FA SWAP1 DUP5 SWAP1 PUSH2 0x31EE JUMP JUMPDEST SWAP1 SWAP2 SSTORE POP POP PUSH1 0xF DUP1 SLOAD PUSH1 0xFF NOT AND PUSH1 0x1 SWAP1 DUP2 OR SWAP1 SWAP2 SSTORE DUP1 SLOAD PUSH1 0x14 SLOAD PUSH1 0x40 MLOAD PUSH1 0x0 DUP1 MLOAD PUSH1 0x20 PUSH2 0x356B DUP4 CODECOPY DUP2 MLOAD SWAP2 MSTORE SWAP4 PUSH2 0x7D1 SWAP4 PUSH1 0x1 PUSH1 0x1 PUSH1 0xA0 SHL SUB AND SWAP3 SWAP1 SWAP2 DUP3 SWAP1 PUSH2 0x3201 JUMP JUMPDEST PUSH1 0x1B PUSH1 0x1 PUSH1 0x11 SLOAD PUSH2 0x194F SWAP2 SWAP1 PUSH2 0x31BF JUMP JUMPDEST DUP2 SLOAD DUP2 LT PUSH2 0x195F JUMPI PUSH2 0x195F PUSH2 0x31D8 JUMP JUMPDEST PUSH1 0x0 SWAP2 DUP3 MSTORE PUSH1 0x20 DUP3 KECCAK256 PUSH1 0x2 PUSH1 0x3 SWAP1 SWAP3 MUL ADD ADD SLOAD PUSH1 0xFF PUSH2 0x100 SWAP1 SWAP2 DIV AND ISZERO ISZERO SWAP1 SUB PUSH2 0x8A0 JUMPI PUSH1 0x1 PUSH1 0x1C PUSH1 0x1 PUSH1 0x10 SLOAD PUSH2 0x1996 SWAP2 SWAP1 PUSH2 0x31BF JUMP JUMPDEST DUP2 SLOAD DUP2 LT PUSH2 0x19A6 JUMPI PUSH2 0x19A6 PUSH2 0x31D8 JUMP JUMPDEST PUSH1 0x0 SWAP2 DUP3 MSTORE PUSH1 0x20 DUP3 KECCAK256 PUSH1 0x2 PUSH1 0x3 SWAP1 SWAP3 MUL ADD ADD DUP1 SLOAD SWAP3 ISZERO ISZERO PUSH2 0x100 MUL PUSH2 0xFF00 NOT SWAP1 SWAP4 AND SWAP3 SWAP1 SWAP3 OR SWAP1 SWAP2 SSTORE PUSH1 0x1 SLOAD PUSH1 0xF SLOAD PUSH1 0x40 MLOAD PUSH1 0x0 DUP1 MLOAD PUSH1 0x20 PUSH2 0x356B DUP4 CODECOPY DUP2 MLOAD SWAP2 MSTORE SWAP4 PUSH2 0x7D1 SWAP4 PUSH1 0x1 PUSH1 0x1 PUSH1 0xA0 SHL SUB AND SWAP3 SWAP1 SWAP2 DUP3 SWAP2 PUSH1 0xFF AND SWAP1 PUSH2 0x3201 JUMP JUMPDEST PUSH1 0x2 SLOAD PUSH1 0x1 PUSH1 0x1 PUSH1 0xA0 SHL SUB AND CALLER EQ PUSH2 0x1A2D JUMPI PUSH1 0x40 MLOAD PUSH3 0x461BCD PUSH1 0xE5 SHL DUP2 MSTORE PUSH1 0x4 ADD PUSH2 0x555 SWAP1 PUSH2 0x3157 JUMP JUMPDEST PUSH1 0xF SLOAD PUSH1 0xFF AND ISZERO PUSH2 0x1A3D JUMPI PUSH1 0x0 DUP1 REVERT JUMPDEST PUSH1 0x0 PUSH1 0x12 SLOAD GT DUP1 ISZERO PUSH2 0x1A51 JUMPI POP PUSH1 0x0 PUSH1 0x13 SLOAD GT JUMPDEST PUSH2 0x1A5A JUMPI PUSH1 0x0 DUP1 REVERT JUMPDEST PUSH1 0x16 SLOAD PUSH1 0xFF AND ISZERO ISZERO PUSH1 0x1 EQ PUSH2 0x1A6E JUMPI PUSH1 0x0 DUP1 REVERT JUMPDEST DUP1 ISZERO ISZERO PUSH1 0x1 SUB PUSH2 0x1BD1 JUMPI PUSH1 0x17 SLOAD PUSH1 0x1 SLOAD PUSH1 0x1 PUSH1 0x1 PUSH1 0xA0 SHL SUB AND PUSH1 0x0 SWAP1 DUP2 MSTORE PUSH1 0x4 PUSH1 0x20 MSTORE PUSH1 0x40 SWAP1 KECCAK256 SLOAD LT ISZERO PUSH2 0x1B23 JUMPI PUSH1 0x40 MLOAD PUSH3 0x461BCD PUSH1 0xE5 SHL DUP2 MSTORE PUSH1 0x20 PUSH1 0x4 DUP3 ADD MSTORE PUSH1 0x50 PUSH1 0x24 DUP3 ADD MSTORE PUSH32 0x54686520636F6E74726163742063726561746F72206861732072656D6F766564 PUSH1 0x44 DUP3 ADD MSTORE PUSH32 0x206869732066756E647320616E642074686973206F66666572206973206E6F20 PUSH1 0x64 DUP3 ADD MSTORE PUSH16 0x1B1BDB99D95C88185D985A5B1858995B PUSH1 0x82 SHL PUSH1 0x84 DUP3 ADD MSTORE PUSH1 0xA4 ADD PUSH2 0x555 JUMP JUMPDEST PUSH1 0x17 SLOAD PUSH1 0x1 SLOAD PUSH1 0x1 PUSH1 0x1 PUSH1 0xA0 SHL SUB AND PUSH1 0x0 SWAP1 DUP2 MSTORE PUSH1 0x4 PUSH1 0x20 MSTORE PUSH1 0x40 DUP2 KECCAK256 DUP1 SLOAD SWAP1 SWAP2 SWAP1 PUSH2 0x1B50 SWAP1 DUP5 SWAP1 PUSH2 0x31BF JUMP JUMPDEST SWAP1 SWAP2 SSTORE POP POP PUSH1 0x17 SLOAD PUSH1 0x2 SLOAD PUSH1 0x1 PUSH1 0x1 PUSH1 0xA0 SHL SUB AND PUSH1 0x0 SWAP1 DUP2 MSTORE PUSH1 0x4 PUSH1 0x20 MSTORE PUSH1 0x40 DUP2 KECCAK256 DUP1 SLOAD SWAP1 SWAP2 SWAP1 PUSH2 0x1B82 SWAP1 DUP5 SWAP1 PUSH2 0x31EE JUMP JUMPDEST SWAP1 SWAP2 SSTORE POP POP PUSH1 0xF DUP1 SLOAD PUSH1 0x1 PUSH1 0xFF NOT SWAP2 DUP3 AND DUP2 OR SWAP1 SWAP3 SSTORE PUSH1 0x18 DUP1 SLOAD SWAP1 SWAP2 AND DUP3 OR SWAP1 SSTORE PUSH1 0x2 SLOAD PUSH1 0x17 SLOAD PUSH1 0x40 MLOAD PUSH1 0x0 DUP1 MLOAD PUSH1 0x20 PUSH2 0x358B DUP4 CODECOPY DUP2 MLOAD SWAP2 MSTORE SWAP4 PUSH2 0x981 SWAP4 PUSH1 0x1 PUSH1 0x1 PUSH1 0xA0 SHL SUB AND SWAP3 SWAP1 SWAP2 PUSH2 0x327A JUMP JUMPDEST DUP1 ISZERO ISZERO PUSH1 0x0 SUB PUSH2 0x1373 JUMPI PUSH1 0xE SLOAD PUSH1 0x1 SLOAD PUSH1 0x1 PUSH1 0x1 PUSH1 0xA0 SHL SUB AND PUSH1 0x0 SWAP1 DUP2 MSTORE PUSH1 0x4 PUSH1 0x20 MSTORE PUSH1 0x40 SWAP1 KECCAK256 SLOAD LT ISZERO PUSH2 0x1C04 JUMPI PUSH1 0x0 DUP1 REVERT JUMPDEST PUSH1 0xE SLOAD PUSH1 0x1 SLOAD PUSH1 0x1 PUSH1 0x1 PUSH1 0xA0 SHL SUB AND PUSH1 0x0 SWAP1 DUP2 MSTORE PUSH1 0x4 PUSH1 0x20 MSTORE PUSH1 0x40 DUP2 KECCAK256 DUP1 SLOAD SWAP1 SWAP2 SWAP1 PUSH2 0x1C31 SWAP1 DUP5 SWAP1 PUSH2 0x31BF JUMP JUMPDEST SWAP1 SWAP2 SSTORE POP POP PUSH1 0xE SLOAD PUSH1 0x3 SLOAD PUSH1 0x1 PUSH1 0x1 PUSH1 0xA0 SHL SUB AND PUSH1 0x0 SWAP1 DUP2 MSTORE PUSH1 0x4 PUSH1 0x20 MSTORE PUSH1 0x40 DUP2 KECCAK256 DUP1 SLOAD SWAP1 SWAP2 SWAP1 PUSH2 0x1C63 SWAP1 DUP5 SWAP1 PUSH2 0x31EE JUMP JUMPDEST SWAP1 SWAP2 SSTORE POP POP PUSH1 0x18 DUP1 SLOAD PUSH1 0xFF NOT AND PUSH1 0x1 OR SWAP1 SSTORE PUSH1 0x2 SLOAD PUSH1 0x40 MLOAD PUSH1 0x0 DUP1 MLOAD PUSH1 0x20 PUSH2 0x358B DUP4 CODECOPY DUP2 MLOAD SWAP2 MSTORE SWAP2 PUSH2 0x981 SWAP2 PUSH1 0x1 PUSH1 0x1 PUSH1 0xA0 SHL SUB SWAP1 SWAP2 AND SWAP1 PUSH1 0x0 SWAP1 DUP2 SWAP1 PUSH2 0x327A JUMP JUMPDEST PUSH1 0x1 SLOAD PUSH1 0x1 PUSH1 0x1 PUSH1 0xA0 SHL SUB AND CALLER EQ PUSH2 0x1CCF JUMPI PUSH1 0x40 MLOAD PUSH3 0x461BCD PUSH1 0xE5 SHL DUP2 MSTORE PUSH1 0x4 ADD PUSH2 0x555 SWAP1 PUSH2 0x3229 JUMP JUMPDEST PUSH1 0xF SLOAD PUSH1 0xFF AND ISZERO PUSH2 0x1CDF JUMPI PUSH1 0x0 DUP1 REVERT JUMPDEST PUSH1 0x0 PUSH1 0x12 SLOAD GT DUP1 ISZERO PUSH2 0x1CF3 JUMPI POP PUSH1 0x0 PUSH1 0x13 SLOAD GT JUMPDEST PUSH2 0x1CFC JUMPI PUSH1 0x0 DUP1 REVERT JUMPDEST PUSH1 0x18 SLOAD PUSH1 0xFF PUSH2 0x100 SWAP1 SWAP2 DIV AND ISZERO ISZERO PUSH1 0x1 EQ PUSH2 0x1D16 JUMPI PUSH1 0x0 DUP1 REVERT JUMPDEST DUP1 ISZERO ISZERO PUSH1 0x1 SUB PUSH2 0x1E52 JUMPI PUSH1 0x19 SLOAD PUSH1 0x1 SLOAD PUSH1 0x1 PUSH1 0x1 PUSH1 0xA0 SHL SUB AND PUSH1 0x0 SWAP1 DUP2 MSTORE PUSH1 0x4 PUSH1 0x20 MSTORE PUSH1 0x40 SWAP1 KECCAK256 SLOAD LT ISZERO PUSH2 0x1DA5 JUMPI PUSH1 0x40 MLOAD PUSH3 0x461BCD PUSH1 0xE5 SHL DUP2 MSTORE PUSH1 0x20 PUSH1 0x4 DUP3 ADD MSTORE PUSH1 0x30 PUSH1 0x24 DUP3 ADD MSTORE PUSH32 0x796F7520646F6E74206861766520656E6F7567682066756E647320746F207072 PUSH1 0x44 DUP3 ADD MSTORE PUSH16 0x37B1B2B9B9903A3434B99037B33332B9 PUSH1 0x81 SHL PUSH1 0x64 DUP3 ADD MSTORE PUSH1 0x84 ADD PUSH2 0x555 JUMP JUMPDEST PUSH1 0x19 SLOAD PUSH1 0x1 SLOAD PUSH1 0x1 PUSH1 0x1 PUSH1 0xA0 SHL SUB AND PUSH1 0x0 SWAP1 DUP2 MSTORE PUSH1 0x4 PUSH1 0x20 MSTORE PUSH1 0x40 DUP2 KECCAK256 DUP1 SLOAD SWAP1 SWAP2 SWAP1 PUSH2 0x1DD2 SWAP1 DUP5 SWAP1 PUSH2 0x31BF JUMP JUMPDEST SWAP1 SWAP2 SSTORE POP POP PUSH1 0x19 SLOAD PUSH1 0x2 SLOAD PUSH1 0x1 PUSH1 0x1 PUSH1 0xA0 SHL SUB AND PUSH1 0x0 SWAP1 DUP2 MSTORE PUSH1 0x4 PUSH1 0x20 MSTORE PUSH1 0x40 DUP2 KECCAK256 DUP1 SLOAD SWAP1 SWAP2 SWAP1 PUSH2 0x1E04 SWAP1 DUP5 SWAP1 PUSH2 0x31EE JUMP JUMPDEST SWAP1 SWAP2 SSTORE POP POP PUSH1 0xF DUP1 SLOAD PUSH1 0x1 PUSH1 0xFF NOT SWAP2 DUP3 AND DUP2 OR SWAP1 SWAP3 SSTORE PUSH1 0x1A DUP1 SLOAD SWAP1 SWAP2 AND DUP3 OR SWAP1 SSTORE DUP1 SLOAD PUSH1 0x19 SLOAD PUSH1 0x40 MLOAD PUSH1 0x0 DUP1 MLOAD PUSH1 0x20 PUSH2 0x358B DUP4 CODECOPY DUP2 MLOAD SWAP2 MSTORE SWAP4 PUSH2 0x981 SWAP4 PUSH1 0x1 PUSH1 0x1 PUSH1 0xA0 SHL SUB AND SWAP3 SWAP1 SWAP2 PUSH2 0x327A JUMP JUMPDEST DUP1 ISZERO ISZERO PUSH1 0x0 SUB PUSH2 0x1373 JUMPI PUSH1 0xE SLOAD PUSH1 0x2 SLOAD PUSH1 0x1 PUSH1 0x1 PUSH1 0xA0 SHL SUB AND PUSH1 0x0 SWAP1 DUP2 MSTORE PUSH1 0x4 PUSH1 0x20 MSTORE PUSH1 0x40 SWAP1 KECCAK256 SLOAD LT ISZERO PUSH2 0x1E85 JUMPI PUSH1 0x0 DUP1 REVERT JUMPDEST PUSH1 0xE SLOAD PUSH1 0x2 SLOAD PUSH1 0x1 PUSH1 0x1 PUSH1 0xA0 SHL SUB AND PUSH1 0x0 SWAP1 DUP2 MSTORE PUSH1 0x4 PUSH1 0x20 MSTORE PUSH1 0x40 DUP2 KECCAK256 DUP1 SLOAD SWAP1 SWAP2 SWAP1 PUSH2 0x1EB2 SWAP1 DUP5 SWAP1 PUSH2 0x31BF JUMP JUMPDEST SWAP1 SWAP2 SSTORE POP POP PUSH1 0xE SLOAD PUSH1 0x3 SLOAD PUSH1 0x1 PUSH1 0x1 PUSH1 0xA0 SHL SUB AND PUSH1 0x0 SWAP1 DUP2 MSTORE PUSH1 0x4 PUSH1 0x20 MSTORE PUSH1 0x40 DUP2 KECCAK256 DUP1 SLOAD SWAP1 SWAP2 SWAP1 PUSH2 0x1EE4 SWAP1 DUP5 SWAP1 PUSH2 0x31EE JUMP JUMPDEST SWAP1 SWAP2 SSTORE POP POP PUSH1 0x1A DUP1 SLOAD PUSH1 0xFF NOT AND PUSH1 0x1 SWAP1 DUP2 OR SWAP1 SWAP2 SSTORE SLOAD PUSH1 0x40 MLOAD PUSH1 0x0 DUP1 MLOAD PUSH1 0x20 PUSH2 0x358B DUP4 CODECOPY DUP2 MLOAD SWAP2 MSTORE SWAP2 PUSH2 0x981 SWAP2 PUSH1 0x1 PUSH1 0x1 PUSH1 0xA0 SHL SUB SWAP1 SWAP2 AND SWAP1 PUSH1 0x0 SWAP1 DUP2 SWAP1 PUSH2 0x327A JUMP JUMPDEST PUSH1 0x2 SLOAD PUSH1 0x1 PUSH1 0x1 PUSH1 0xA0 SHL SUB AND CALLER EQ PUSH2 0x1F51 JUMPI PUSH1 0x40 MLOAD PUSH3 0x461BCD PUSH1 0xE5 SHL DUP2 MSTORE PUSH1 0x4 ADD PUSH2 0x555 SWAP1 PUSH2 0x3157 JUMP JUMPDEST PUSH1 0xF SLOAD PUSH1 0xFF PUSH2 0x100 SWAP1 SWAP2 DIV AND ISZERO ISZERO PUSH1 0x1 EQ PUSH2 0x1F6B JUMPI PUSH1 0x0 DUP1 REVERT JUMPDEST PUSH1 0x0 DUP2 GT PUSH2 0x1F78 JUMPI PUSH1 0x0 DUP1 REVERT JUMPDEST PUSH1 0x5 SLOAD PUSH1 0x11 SLOAD LT PUSH2 0x1F9B JUMPI PUSH1 0x40 MLOAD PUSH3 0x461BCD PUSH1 0xE5 SHL DUP2 MSTORE PUSH1 0x4 ADD PUSH2 0x555 SWAP1 PUSH2 0x32D4 JUMP JUMPDEST PUSH1 0x11 DUP1 SLOAD SWAP1 PUSH1 0x0 PUSH2 0x1FAB DUP4 PUSH2 0x336A JUMP JUMPDEST SWAP2 SWAP1 POP SSTORE POP PUSH1 0x10 SLOAD PUSH1 0x11 SLOAD EQ DUP1 PUSH2 0x1FD1 JUMPI POP PUSH1 0x10 SLOAD PUSH1 0x1 PUSH1 0x11 SLOAD PUSH2 0x1FCF SWAP2 SWAP1 PUSH2 0x31BF JUMP JUMPDEST EQ JUMPDEST PUSH2 0x2056 JUMPI PUSH1 0x40 MLOAD PUSH3 0x461BCD PUSH1 0xE5 SHL DUP2 MSTORE PUSH1 0x20 PUSH1 0x4 DUP3 ADD MSTORE PUSH1 0x4A PUSH1 0x24 DUP3 ADD MSTORE PUSH32 0x796F75206D757374207761697420756E74696C207468652063726561746F7220 PUSH1 0x44 DUP3 ADD MSTORE PUSH32 0x7075747320696E207468656972206F6666657220746F20696E69746174652061 PUSH1 0x64 DUP3 ADD MSTORE PUSH10 0x103732BB9037B33332B9 PUSH1 0xB1 SHL PUSH1 0x84 DUP3 ADD MSTORE PUSH1 0xA4 ADD PUSH2 0x555 JUMP JUMPDEST PUSH1 0x40 DUP1 MLOAD PUSH1 0x80 DUP2 ADD DUP3 MSTORE DUP3 DUP2 MSTORE PUSH1 0x11 SLOAD PUSH1 0x20 DUP3 ADD MSTORE PUSH1 0x1 SWAP2 DUP2 ADD DUP3 SWAP1 MSTORE PUSH1 0x0 PUSH1 0x60 DUP3 ADD MSTORE PUSH1 0x5 SLOAD SWAP1 SWAP2 LT DUP1 ISZERO PUSH2 0x208E JUMPI POP PUSH1 0x11 SLOAD PUSH1 0x1 EQ JUMPDEST ISZERO PUSH2 0x215C JUMPI PUSH1 0x1B DUP1 SLOAD PUSH1 0x1 DUP2 DUP2 ADD DUP4 SSTORE PUSH1 0x0 SWAP3 SWAP1 SWAP3 MSTORE DUP3 MLOAD PUSH1 0x3 SWAP1 SWAP2 MUL PUSH32 0x3AD8AA4F87544323A9D1E5DD902F40C356527A7955687113DB5F9A85AD579DC1 DUP2 ADD SWAP2 SWAP1 SWAP2 SSTORE PUSH1 0x20 DUP4 ADD MLOAD PUSH32 0x3AD8AA4F87544323A9D1E5DD902F40C356527A7955687113DB5F9A85AD579DC2 DUP3 ADD SSTORE PUSH1 0x40 DUP4 ADD MLOAD PUSH32 0x3AD8AA4F87544323A9D1E5DD902F40C356527A7955687113DB5F9A85AD579DC3 SWAP1 SWAP2 ADD DUP1 SLOAD PUSH1 0x60 DUP6 ADD MLOAD ISZERO ISZERO PUSH2 0x100 MUL PUSH2 0xFF00 NOT SWAP4 ISZERO ISZERO SWAP4 SWAP1 SWAP4 AND PUSH2 0xFFFF NOT SWAP1 SWAP2 AND OR SWAP2 SWAP1 SWAP2 OR SWAP1 SSTORE PUSH1 0xA DUP1 SLOAD PUSH1 0xFF NOT AND SWAP1 SWAP2 OR SWAP1 SSTORE PUSH2 0x222A JUMP JUMPDEST DUP2 PUSH1 0xC PUSH1 0x0 DUP3 DUP3 SLOAD PUSH2 0x216E SWAP2 SWAP1 PUSH2 0x31EE JUMP JUMPDEST SWAP1 SWAP2 SSTORE POP POP PUSH1 0x1B DUP1 SLOAD PUSH1 0x1 DUP2 ADD DUP3 SSTORE PUSH1 0x0 SWAP2 SWAP1 SWAP2 MSTORE DUP2 MLOAD PUSH1 0x3 SWAP1 SWAP2 MUL PUSH32 0x3AD8AA4F87544323A9D1E5DD902F40C356527A7955687113DB5F9A85AD579DC1 DUP2 ADD SWAP2 SWAP1 SWAP2 SSTORE PUSH1 0x20 DUP3 ADD MLOAD PUSH32 0x3AD8AA4F87544323A9D1E5DD902F40C356527A7955687113DB5F9A85AD579DC2 DUP3 ADD SSTORE PUSH1 0x40 DUP3 ADD MLOAD PUSH32 0x3AD8AA4F87544323A9D1E5DD902F40C356527A7955687113DB5F9A85AD579DC3 SWAP1 SWAP2 ADD DUP1 SLOAD PUSH1 0x60 DUP5 ADD MLOAD ISZERO ISZERO PUSH2 0x100 MUL PUSH2 0xFF00 NOT SWAP4 ISZERO ISZERO SWAP4 SWAP1 SWAP4 AND PUSH2 0xFFFF NOT SWAP1 SWAP2 AND OR SWAP2 SWAP1 SWAP2 OR SWAP1 SSTORE JUMPDEST PUSH1 0x5 SLOAD PUSH1 0x10 SLOAD EQ DUP1 ISZERO PUSH2 0x2240 JUMPI POP PUSH1 0x5 SLOAD PUSH1 0x11 SLOAD EQ JUMPDEST ISZERO PUSH2 0x2288 JUMPI PUSH2 0x2253 PUSH1 0xB SLOAD PUSH1 0xC SLOAD PUSH2 0x284F JUMP JUMPDEST PUSH1 0x40 MLOAD PUSH1 0x1 DUP2 MSTORE PUSH32 0xC1E80C6033B9A1CDB8B51042A43AF8AA76B052E2338CB9CD55B96FBD34DAB7EE SWAP1 PUSH1 0x20 ADD PUSH1 0x40 MLOAD DUP1 SWAP2 SUB SWAP1 LOG1 JUMPDEST PUSH1 0x11 SLOAD PUSH1 0x10 SLOAD EQ DUP1 ISZERO PUSH2 0x22D4 JUMPI POP PUSH1 0x1C PUSH1 0x1 PUSH1 0x10 SLOAD PUSH2 0x22A7 SWAP2 SWAP1 PUSH2 0x31BF JUMP JUMPDEST DUP2 SLOAD DUP2 LT PUSH2 0x22B7 JUMPI PUSH2 0x22B7 PUSH2 0x31D8 JUMP JUMPDEST PUSH1 0x0 SWAP2 DUP3 MSTORE PUSH1 0x20 SWAP1 SWAP2 KECCAK256 PUSH1 0x2 PUSH1 0x3 SWAP1 SWAP3 MUL ADD ADD SLOAD PUSH1 0xFF AND ISZERO ISZERO PUSH1 0x1 EQ JUMPDEST ISZERO PUSH2 0x231F JUMPI PUSH2 0x22E1 PUSH2 0x28BF JUMP JUMPDEST PUSH1 0x2 SLOAD PUSH1 0x11 SLOAD PUSH1 0x40 MLOAD PUSH1 0x0 DUP1 MLOAD PUSH1 0x20 PUSH2 0x35AB DUP4 CODECOPY DUP2 MLOAD SWAP2 MSTORE SWAP3 PUSH2 0x2312 SWAP3 PUSH1 0x1 PUSH1 0x1 PUSH1 0xA0 SHL SUB SWAP1 SWAP2 AND SWAP2 PUSH1 0x1 SWAP1 PUSH2 0x33FB JUMP JUMPDEST PUSH1 0x40 MLOAD DUP1 SWAP2 SUB SWAP1 LOG1 PUSH2 0x1371 JUMP JUMPDEST PUSH1 0x2 SLOAD PUSH1 0x11 SLOAD PUSH1 0x40 MLOAD PUSH1 0x0 DUP1 MLOAD PUSH1 0x20 PUSH2 0x35AB DUP4 CODECOPY DUP2 MLOAD SWAP2 MSTORE SWAP3 PUSH2 0x2350 SWAP3 PUSH1 0x1 PUSH1 0x1 PUSH1 0xA0 SHL SUB SWAP1 SWAP2 AND SWAP2 PUSH1 0x0 SWAP1 PUSH2 0x33FB JUMP JUMPDEST PUSH1 0x40 MLOAD DUP1 SWAP2 SUB SWAP1 LOG1 POP POP JUMP JUMPDEST PUSH1 0x2 SLOAD PUSH1 0x1 PUSH1 0x1 PUSH1 0xA0 SHL SUB AND CALLER EQ PUSH2 0x2386 JUMPI PUSH1 0x40 MLOAD PUSH3 0x461BCD PUSH1 0xE5 SHL DUP2 MSTORE PUSH1 0x4 ADD PUSH2 0x555 SWAP1 PUSH2 0x3157 JUMP JUMPDEST PUSH1 0xF SLOAD PUSH1 0xFF AND ISZERO PUSH2 0x2396 JUMPI PUSH1 0x0 DUP1 REVERT JUMPDEST PUSH1 0x6 SLOAD PUSH1 0x13 SLOAD GT ISZERO PUSH2 0x23A7 JUMPI PUSH1 0x0 DUP1 REVERT JUMPDEST PUSH1 0xE SLOAD CALLER PUSH1 0x0 SWAP1 DUP2 MSTORE PUSH1 0x4 PUSH1 0x20 MSTORE PUSH1 0x40 SWAP1 KECCAK256 SLOAD LT ISZERO PUSH2 0x242E JUMPI PUSH1 0x40 MLOAD PUSH3 0x461BCD PUSH1 0xE5 SHL DUP2 MSTORE PUSH1 0x20 PUSH1 0x4 DUP3 ADD MSTORE PUSH1 0x3B PUSH1 0x24 DUP3 ADD MSTORE PUSH32 0x796F75206D757374206465706F736974207468652070656E616C747920616D6F PUSH1 0x44 DUP3 ADD MSTORE PUSH32 0x756E7420746F2070726573656E742061206669726D206F666665720000000000 PUSH1 0x64 DUP3 ADD MSTORE PUSH1 0x84 ADD PUSH2 0x555 JUMP JUMPDEST PUSH1 0x0 PUSH1 0xD SLOAD GT PUSH2 0x2450 JUMPI PUSH1 0x40 MLOAD PUSH3 0x461BCD PUSH1 0xE5 SHL DUP2 MSTORE PUSH1 0x4 ADD PUSH2 0x555 SWAP1 PUSH2 0x3462 JUMP JUMPDEST PUSH1 0x6 SLOAD PUSH1 0x13 SLOAD GT ISZERO PUSH2 0x2474 JUMPI PUSH1 0x40 MLOAD PUSH3 0x461BCD PUSH1 0xE5 SHL DUP2 MSTORE PUSH1 0x4 ADD PUSH2 0x555 SWAP1 PUSH2 0x341E JUMP JUMPDEST PUSH1 0x13 DUP1 SLOAD SWAP1 PUSH1 0x0 PUSH2 0x2484 DUP4 PUSH2 0x336A JUMP JUMPDEST SWAP2 SWAP1 POP SSTORE POP PUSH1 0x12 SLOAD PUSH1 0x13 SLOAD EQ DUP1 PUSH2 0x24AA JUMPI POP PUSH1 0x12 SLOAD PUSH1 0x1 PUSH1 0x13 SLOAD PUSH2 0x24A8 SWAP2 SWAP1 PUSH2 0x31BF JUMP JUMPDEST EQ JUMPDEST PUSH2 0x24C6 JUMPI PUSH1 0x40 MLOAD PUSH3 0x461BCD PUSH1 0xE5 SHL DUP2 MSTORE PUSH1 0x4 ADD PUSH2 0x555 SWAP1 PUSH2 0x3383 JUMP JUMPDEST PUSH1 0x40 DUP1 MLOAD PUSH1 0x60 DUP2 ADD DUP3 MSTORE DUP3 DUP2 MSTORE PUSH1 0x13 DUP1 SLOAD PUSH1 0x20 DUP4 ADD SWAP1 DUP2 MSTORE PUSH1 0x1 SWAP4 DUP4 ADD DUP5 DUP2 MSTORE PUSH1 0x1D DUP1 SLOAD SWAP6 DUP7 ADD DUP2 SSTORE PUSH1 0x0 MSTORE DUP4 MLOAD PUSH32 0x6D4407E7BE21F808E6509AA9FA9143369579DD7D760FE20A2C09680FC146134F PUSH1 0x3 SWAP1 SWAP7 MUL SWAP6 DUP7 ADD SSTORE SWAP1 MLOAD PUSH32 0x6D4407E7BE21F808E6509AA9FA9143369579DD7D760FE20A2C09680FC1461350 DUP6 ADD SSTORE MLOAD PUSH32 0x6D4407E7BE21F808E6509AA9FA9143369579DD7D760FE20A2C09680FC1461351 SWAP1 SWAP4 ADD DUP1 SLOAD PUSH1 0xFF NOT AND SWAP4 ISZERO ISZERO SWAP4 SWAP1 SWAP4 OR SWAP1 SWAP3 SSTORE PUSH1 0x12 SLOAD SWAP2 SLOAD SWAP1 SWAP2 EQ DUP1 ISZERO PUSH2 0x25C6 JUMPI POP PUSH1 0x1D PUSH1 0x1 PUSH1 0x12 SLOAD PUSH2 0x2599 SWAP2 SWAP1 PUSH2 0x31BF JUMP JUMPDEST DUP2 SLOAD DUP2 LT PUSH2 0x25A9 JUMPI PUSH2 0x25A9 PUSH2 0x31D8 JUMP JUMPDEST PUSH1 0x0 SWAP2 DUP3 MSTORE PUSH1 0x20 SWAP1 SWAP2 KECCAK256 PUSH1 0x2 PUSH1 0x3 SWAP1 SWAP3 MUL ADD ADD SLOAD PUSH1 0xFF AND ISZERO ISZERO PUSH1 0x1 EQ JUMPDEST ISZERO PUSH2 0x2607 JUMPI PUSH2 0x25D6 PUSH1 0xE SLOAD PUSH2 0x2AF1 JUMP JUMPDEST PUSH1 0x2 SLOAD PUSH1 0x13 SLOAD PUSH1 0x40 MLOAD PUSH1 0x0 DUP1 MLOAD PUSH1 0x20 PUSH2 0x354B DUP4 CODECOPY DUP2 MLOAD SWAP2 MSTORE SWAP3 PUSH2 0x2312 SWAP3 PUSH1 0x1 PUSH1 0x1 PUSH1 0xA0 SHL SUB SWAP1 SWAP2 AND SWAP2 PUSH1 0x1 SWAP1 PUSH2 0x33FB JUMP JUMPDEST PUSH1 0x2 SLOAD PUSH1 0x13 SLOAD PUSH1 0x40 MLOAD PUSH1 0x0 DUP1 MLOAD PUSH1 0x20 PUSH2 0x354B DUP4 CODECOPY DUP2 MLOAD SWAP2 MSTORE SWAP3 PUSH2 0x2350 SWAP3 PUSH1 0x1 PUSH1 0x1 PUSH1 0xA0 SHL SUB SWAP1 SWAP2 AND SWAP2 PUSH1 0x0 SWAP1 PUSH2 0x33FB JUMP JUMPDEST PUSH1 0x11 SLOAD PUSH1 0x10 SLOAD EQ PUSH2 0x2648 JUMPI PUSH1 0x0 DUP1 REVERT JUMPDEST PUSH1 0x1B PUSH1 0x1 PUSH1 0x11 SLOAD PUSH2 0x2659 SWAP2 SWAP1 PUSH2 0x31BF JUMP JUMPDEST DUP2 SLOAD DUP2 LT PUSH2 0x2669 JUMPI PUSH2 0x2669 PUSH2 0x31D8 JUMP JUMPDEST PUSH1 0x0 SWAP2 DUP3 MSTORE PUSH1 0x20 SWAP1 SWAP2 KECCAK256 PUSH1 0x2 PUSH1 0x3 SWAP1 SWAP3 MUL ADD ADD SLOAD PUSH1 0xFF AND ISZERO ISZERO PUSH1 0x1 EQ DUP1 ISZERO PUSH2 0x26CA JUMPI POP PUSH1 0x1C PUSH1 0x1 PUSH1 0x10 SLOAD PUSH2 0x269D SWAP2 SWAP1 PUSH2 0x31BF JUMP JUMPDEST DUP2 SLOAD DUP2 LT PUSH2 0x26AD JUMPI PUSH2 0x26AD PUSH2 0x31D8 JUMP JUMPDEST PUSH1 0x0 SWAP2 DUP3 MSTORE PUSH1 0x20 SWAP1 SWAP2 KECCAK256 PUSH1 0x2 PUSH1 0x3 SWAP1 SWAP3 MUL ADD ADD SLOAD PUSH1 0xFF AND ISZERO ISZERO PUSH1 0x1 EQ JUMPDEST PUSH2 0x26D3 JUMPI PUSH1 0x0 DUP1 REVERT JUMPDEST PUSH1 0xF SLOAD PUSH1 0xFF AND ISZERO PUSH2 0x26E3 JUMPI PUSH1 0x0 DUP1 REVERT JUMPDEST PUSH1 0x1 SLOAD PUSH1 0x1 PUSH1 0x1 PUSH1 0xA0 SHL SUB AND CALLER EQ DUP1 PUSH2 0x2706 JUMPI POP PUSH1 0x2 SLOAD PUSH1 0x1 PUSH1 0x1 PUSH1 0xA0 SHL SUB AND CALLER EQ JUMPDEST PUSH2 0x275E JUMPI PUSH1 0x40 MLOAD PUSH3 0x461BCD PUSH1 0xE5 SHL DUP2 MSTORE PUSH1 0x20 PUSH1 0x4 DUP3 ADD MSTORE PUSH1 0x23 PUSH1 0x24 DUP3 ADD MSTORE PUSH32 0x796F7520617265206E6F74207468652063726561746F72206F72206F70706F6E PUSH1 0x44 DUP3 ADD MSTORE PUSH3 0x195B9D PUSH1 0xEA SHL PUSH1 0x64 DUP3 ADD MSTORE PUSH1 0x84 ADD PUSH2 0x555 JUMP JUMPDEST PUSH1 0x5 SLOAD PUSH1 0x10 SLOAD SUB PUSH2 0x27B5 JUMPI PUSH1 0xF DUP1 SLOAD PUSH2 0xFF00 NOT AND SWAP1 DUP2 SWAP1 SSTORE PUSH1 0x40 DUP1 MLOAD CALLER DUP2 MSTORE PUSH2 0x100 SWAP1 SWAP3 DIV PUSH1 0xFF AND ISZERO ISZERO PUSH1 0x20 DUP4 ADD MSTORE PUSH32 0x8981DB450960C259DDC1FCF29707FB8154817DFF48A6F761A30FDD79CB929774 SWAP2 ADD PUSH2 0x7D1 JUMP JUMPDEST PUSH1 0xF SLOAD PUSH1 0x40 DUP1 MLOAD CALLER DUP2 MSTORE PUSH2 0x100 SWAP1 SWAP3 DIV PUSH1 0xFF AND ISZERO ISZERO PUSH1 0x20 DUP4 ADD MSTORE PUSH32 0x8981DB450960C259DDC1FCF29707FB8154817DFF48A6F761A30FDD79CB929774 SWAP2 ADD PUSH2 0x7D1 JUMP JUMPDEST PUSH1 0x0 DUP1 PUSH1 0x0 PUSH1 0xD SLOAD GT DUP1 ISZERO PUSH2 0x2814 JUMPI POP PUSH1 0xF SLOAD PUSH2 0x100 SWAP1 DIV PUSH1 0xFF AND ISZERO JUMPDEST PUSH2 0x281D JUMPI PUSH1 0x0 DUP1 REVERT JUMPDEST POP POP PUSH1 0xD SLOAD PUSH1 0xE SLOAD SWAP1 SWAP2 JUMP JUMPDEST CALLER PUSH1 0x0 SWAP1 DUP2 MSTORE PUSH1 0x4 PUSH1 0x20 MSTORE PUSH1 0x40 DUP2 KECCAK256 DUP1 SLOAD CALLVALUE SWAP3 SWAP1 PUSH2 0x2848 SWAP1 DUP5 SWAP1 PUSH2 0x31EE JUMP JUMPDEST SWAP1 SWAP2 SSTORE POP POP JUMP JUMPDEST PUSH1 0xA DUP1 SLOAD PUSH1 0xFF NOT AND PUSH1 0x1 OR SWAP1 SSTORE PUSH1 0x1 PUSH1 0x11 SLOAD PUSH2 0x286B SWAP2 SWAP1 PUSH2 0x31BF JUMP JUMPDEST PUSH1 0x1 PUSH1 0x10 SLOAD PUSH2 0x287A SWAP2 SWAP1 PUSH2 0x31BF JUMP JUMPDEST PUSH2 0x2884 SWAP2 SWAP1 PUSH2 0x31EE JUMP JUMPDEST PUSH2 0x288E DUP3 DUP5 PUSH2 0x31EE JUMP JUMPDEST PUSH2 0x2898 SWAP2 SWAP1 PUSH2 0x32B2 JUMP JUMPDEST PUSH1 0xD DUP2 SWAP1 SSTORE PUSH1 0x9 SLOAD PUSH1 0x64 SWAP2 PUSH2 0x28AD SWAP2 SWAP1 PUSH2 0x329B JUMP JUMPDEST PUSH2 0x28B7 SWAP2 SWAP1 PUSH2 0x32B2 JUMP JUMPDEST PUSH1 0xE SSTORE PUSH2 0x1371 JUMP JUMPDEST PUSH1 0x0 PUSH1 0x1C PUSH1 0x1 PUSH1 0x10 SLOAD PUSH2 0x28D2 SWAP2 SWAP1 PUSH2 0x31BF JUMP JUMPDEST DUP2 SLOAD DUP2 LT PUSH2 0x28E2 JUMPI PUSH2 0x28E2 PUSH2 0x31D8 JUMP JUMPDEST SWAP1 PUSH1 0x0 MSTORE PUSH1 0x20 PUSH1 0x0 KECCAK256 SWAP1 PUSH1 0x3 MUL ADD PUSH1 0x0 ADD SLOAD SWAP1 POP PUSH1 0x0 PUSH1 0x1B PUSH1 0x1 PUSH1 0x11 SLOAD PUSH2 0x2909 SWAP2 SWAP1 PUSH2 0x31BF JUMP JUMPDEST DUP2 SLOAD DUP2 LT PUSH2 0x2919 JUMPI PUSH2 0x2919 PUSH2 0x31D8 JUMP JUMPDEST PUSH1 0x0 SWAP2 DUP3 MSTORE PUSH1 0x20 DUP3 KECCAK256 PUSH1 0x3 SWAP1 SWAP2 MUL ADD SLOAD SWAP2 POP DUP3 DUP3 GT PUSH2 0x2957 JUMPI DUP3 PUSH2 0x293D DUP4 DUP3 PUSH2 0x31BF JUMP JUMPDEST PUSH2 0x2948 SWAP1 PUSH1 0x64 PUSH2 0x329B JUMP JUMPDEST PUSH2 0x2952 SWAP2 SWAP1 PUSH2 0x32B2 JUMP JUMPDEST PUSH2 0x2977 JUMP JUMPDEST DUP2 PUSH2 0x2962 DUP5 DUP3 PUSH2 0x31BF JUMP JUMPDEST PUSH2 0x296D SWAP1 PUSH1 0x64 PUSH2 0x329B JUMP JUMPDEST PUSH2 0x2977 SWAP2 SWAP1 PUSH2 0x32B2 JUMP JUMPDEST SWAP1 POP PUSH1 0x0 DUP4 DUP4 GT PUSH2 0x2991 JUMPI PUSH2 0x298C DUP4 DUP6 PUSH2 0x31BF JUMP JUMPDEST PUSH2 0x299B JUMP JUMPDEST PUSH2 0x299B DUP5 DUP5 PUSH2 0x31BF JUMP JUMPDEST SWAP1 POP PUSH1 0x0 PUSH2 0x29AA PUSH1 0x2 DUP4 PUSH2 0x32B2 JUMP JUMPDEST SWAP1 POP PUSH1 0x7 SLOAD DUP4 GT ISZERO DUP1 ISZERO PUSH2 0x29BD JUMPI POP DUP5 DUP5 GT JUMPDEST ISZERO PUSH2 0x2A1B JUMPI PUSH2 0x29CC DUP2 DUP7 PUSH2 0x31EE JUMP JUMPDEST PUSH1 0x14 SSTORE PUSH1 0xF SLOAD PUSH1 0x40 DUP1 MLOAD PUSH1 0x1 DUP2 MSTORE PUSH2 0x100 SWAP1 SWAP3 DIV PUSH1 0xFF AND ISZERO ISZERO PUSH1 0x20 DUP4 ADD MSTORE PUSH32 0xC4061A08319FF98ACFEAC7FF6F40488FB0743BEBA7CB4746C9522AE46BE44B51 SWAP2 ADD JUMPDEST PUSH1 0x40 MLOAD DUP1 SWAP2 SUB SWAP1 LOG1 PUSH2 0x2AEA JUMP JUMPDEST PUSH1 0x7 SLOAD DUP4 GT ISZERO DUP1 ISZERO PUSH2 0x2A2C JUMPI POP DUP4 DUP6 GT JUMPDEST ISZERO PUSH2 0x2A3B JUMPI PUSH2 0x29CC DUP2 DUP6 PUSH2 0x31EE JUMP JUMPDEST PUSH1 0x5 SLOAD PUSH1 0x10 SLOAD EQ DUP1 ISZERO PUSH2 0x2A51 JUMPI POP PUSH1 0x5 SLOAD PUSH1 0x11 SLOAD EQ JUMPDEST ISZERO PUSH2 0x2AA3 JUMPI PUSH1 0xF DUP1 SLOAD PUSH2 0xFF00 NOT AND SWAP1 DUP2 SWAP1 SSTORE PUSH1 0x40 DUP1 MLOAD PUSH1 0x0 DUP2 MSTORE PUSH2 0x100 SWAP1 SWAP3 DIV PUSH1 0xFF AND ISZERO ISZERO PUSH1 0x20 DUP4 ADD MSTORE PUSH32 0xC4061A08319FF98ACFEAC7FF6F40488FB0743BEBA7CB4746C9522AE46BE44B51 SWAP2 ADD PUSH2 0x2A0E JUMP JUMPDEST PUSH1 0xF SLOAD PUSH1 0x40 DUP1 MLOAD PUSH1 0x0 DUP2 MSTORE PUSH2 0x100 SWAP1 SWAP3 DIV PUSH1 0xFF AND ISZERO ISZERO PUSH1 0x20 DUP4 ADD MSTORE PUSH32 0xC4061A08319FF98ACFEAC7FF6F40488FB0743BEBA7CB4746C9522AE46BE44B51 SWAP2 ADD PUSH1 0x40 MLOAD DUP1 SWAP2 SUB SWAP1 LOG1 JUMPDEST POP POP POP POP POP JUMP JUMPDEST PUSH1 0xE SLOAD PUSH1 0x2 SLOAD PUSH1 0x1 PUSH1 0x1 PUSH1 0xA0 SHL SUB AND PUSH1 0x0 SWAP1 DUP2 MSTORE PUSH1 0x4 PUSH1 0x20 MSTORE PUSH1 0x40 SWAP1 KECCAK256 SLOAD LT ISZERO PUSH2 0x2B97 JUMPI PUSH1 0x40 MLOAD PUSH3 0x461BCD PUSH1 0xE5 SHL DUP2 MSTORE PUSH1 0x20 PUSH1 0x4 DUP3 ADD MSTORE PUSH1 0x4B PUSH1 0x24 DUP3 ADD MSTORE PUSH32 0x20546865206F70706F6E656E74206D7573742072656465706F73697420746865 PUSH1 0x44 DUP3 ADD MSTORE PUSH32 0x2070656E616C747920616D6F756E7420666F722061206669726D206F66666572 PUSH1 0x64 DUP3 ADD MSTORE PUSH11 0x20746F2070726F63657373 PUSH1 0xA8 SHL PUSH1 0x84 DUP3 ADD MSTORE PUSH1 0xA4 ADD PUSH2 0x555 JUMP JUMPDEST PUSH1 0x1 SLOAD PUSH1 0x1 PUSH1 0x1 PUSH1 0xA0 SHL SUB AND PUSH1 0x0 SWAP1 DUP2 MSTORE PUSH1 0x4 PUSH1 0x20 MSTORE PUSH1 0x40 SWAP1 KECCAK256 SLOAD DUP2 GT ISZERO PUSH2 0x2C3E JUMPI PUSH1 0x40 MLOAD PUSH3 0x461BCD PUSH1 0xE5 SHL DUP2 MSTORE PUSH1 0x20 PUSH1 0x4 DUP3 ADD MSTORE PUSH1 0x4E PUSH1 0x24 DUP3 ADD MSTORE PUSH32 0x5468652063726561746F7220646F6573206E6F74206861766520656E6F756768 PUSH1 0x44 DUP3 ADD MSTORE PUSH32 0x2066756E6473206E2074686520636F6E747261637420666F7220746865206F66 PUSH1 0x64 DUP3 ADD MSTORE PUSH14 0x66657220746F2070726F63657373 PUSH1 0x90 SHL PUSH1 0x84 DUP3 ADD MSTORE PUSH1 0xA4 ADD PUSH2 0x555 JUMP JUMPDEST PUSH1 0x0 PUSH1 0x1E PUSH1 0x1 PUSH1 0x12 SLOAD PUSH2 0x2C51 SWAP2 SWAP1 PUSH2 0x31BF JUMP JUMPDEST DUP2 SLOAD DUP2 LT PUSH2 0x2C61 JUMPI PUSH2 0x2C61 PUSH2 0x31D8 JUMP JUMPDEST SWAP1 PUSH1 0x0 MSTORE PUSH1 0x20 PUSH1 0x0 KECCAK256 SWAP1 PUSH1 0x3 MUL ADD PUSH1 0x0 ADD SLOAD SWAP1 POP PUSH1 0x0 PUSH1 0x1D PUSH1 0x1 PUSH1 0x13 SLOAD PUSH2 0x2C88 SWAP2 SWAP1 PUSH2 0x31BF JUMP JUMPDEST DUP2 SLOAD DUP2 LT PUSH2 0x2C98 JUMPI PUSH2 0x2C98 PUSH2 0x31D8 JUMP JUMPDEST PUSH1 0x0 SWAP2 DUP3 MSTORE PUSH1 0x20 DUP3 KECCAK256 PUSH1 0x3 SWAP1 SWAP2 MUL ADD SLOAD SWAP2 POP DUP3 DUP3 GT PUSH2 0x2CD6 JUMPI DUP3 PUSH2 0x2CBC DUP4 DUP3 PUSH2 0x31BF JUMP JUMPDEST PUSH2 0x2CC7 SWAP1 PUSH1 0x64 PUSH2 0x329B JUMP JUMPDEST PUSH2 0x2CD1 SWAP2 SWAP1 PUSH2 0x32B2 JUMP JUMPDEST PUSH2 0x2CF6 JUMP JUMPDEST DUP2 PUSH2 0x2CE1 DUP5 DUP3 PUSH2 0x31BF JUMP JUMPDEST PUSH2 0x2CEC SWAP1 PUSH1 0x64 PUSH2 0x329B JUMP JUMPDEST PUSH2 0x2CF6 SWAP2 SWAP1 PUSH2 0x32B2 JUMP JUMPDEST SWAP1 POP PUSH1 0x0 DUP4 DUP4 GT PUSH2 0x2D10 JUMPI PUSH2 0x2D0B DUP4 DUP6 PUSH2 0x31BF JUMP JUMPDEST PUSH2 0x2D1A JUMP JUMPDEST PUSH2 0x2D1A DUP5 DUP5 PUSH2 0x31BF JUMP JUMPDEST SWAP1 POP PUSH1 0x0 PUSH2 0x2D29 PUSH1 0x2 DUP4 PUSH2 0x32B2 JUMP JUMPDEST SWAP1 POP PUSH1 0x8 SLOAD DUP4 GT ISZERO DUP1 ISZERO PUSH2 0x2D3C JUMPI POP DUP5 DUP5 GT JUMPDEST ISZERO PUSH2 0x2E11 JUMPI PUSH2 0x2D4B DUP2 DUP7 PUSH2 0x31EE JUMP JUMPDEST PUSH1 0x15 DUP2 SWAP1 SSTORE PUSH1 0x1 SLOAD PUSH1 0x1 PUSH1 0x1 PUSH1 0xA0 SHL SUB AND PUSH1 0x0 SWAP1 DUP2 MSTORE PUSH1 0x4 PUSH1 0x20 MSTORE PUSH1 0x40 DUP2 KECCAK256 DUP1 SLOAD SWAP1 SWAP2 SWAP1 PUSH2 0x2D7A SWAP1 DUP5 SWAP1 PUSH2 0x31BF JUMP JUMPDEST SWAP1 SWAP2 SSTORE POP POP PUSH1 0x15 SLOAD PUSH1 0x2 SLOAD PUSH1 0x1 PUSH1 0x1 PUSH1 0xA0 SHL SUB AND PUSH1 0x0 SWAP1 DUP2 MSTORE PUSH1 0x4 PUSH1 0x20 MSTORE PUSH1 0x40 DUP2 KECCAK256 DUP1 SLOAD SWAP1 SWAP2 SWAP1 PUSH2 0x2DAC SWAP1 DUP5 SWAP1 PUSH2 0x31EE JUMP JUMPDEST SWAP1 SWAP2 SSTORE POP POP PUSH1 0xF DUP1 SLOAD PUSH1 0xFF NOT AND PUSH1 0x1 SWAP1 DUP2 OR SWAP1 SWAP2 SSTORE PUSH1 0x15 SLOAD PUSH1 0x40 MLOAD PUSH32 0x39E40560384534993C2281DC4D9876FBEE20BCBB306D5C352FE514A11ED0068C SWAP3 PUSH2 0x2E04 SWAP3 SWAP1 SWAP2 DUP10 SWAP2 DUP10 SWAP2 DUP10 SWAP2 DUP10 SWAP2 DUP10 SWAP2 SWAP1 DUP8 SWAP1 PUSH1 0x0 SWAP1 PUSH2 0x3505 JUMP JUMPDEST PUSH1 0x40 MLOAD DUP1 SWAP2 SUB SWAP1 LOG1 PUSH2 0x2E93 JUMP JUMPDEST PUSH1 0x8 SLOAD DUP4 GT ISZERO DUP1 ISZERO PUSH2 0x2E22 JUMPI POP DUP4 DUP6 GT JUMPDEST ISZERO PUSH2 0x2E31 JUMPI PUSH2 0x2D4B DUP2 DUP6 PUSH2 0x31EE JUMP JUMPDEST PUSH1 0x8 SLOAD DUP4 GT ISZERO PUSH2 0x2E93 JUMPI PUSH2 0x2E43 PUSH2 0x2E9B JUMP JUMPDEST PUSH1 0xF SLOAD PUSH1 0x40 MLOAD PUSH32 0x39E40560384534993C2281DC4D9876FBEE20BCBB306D5C352FE514A11ED0068C SWAP2 PUSH2 0x2E8A SWAP2 PUSH1 0x0 SWAP2 DUP3 SWAP2 DUP3 SWAP2 DUP3 SWAP2 DUP3 SWAP2 DUP3 SWAP2 DUP3 SWAP2 PUSH1 0xFF AND SWAP1 PUSH1 0x1 SWAP1 PUSH2 0x3505 JUMP JUMPDEST PUSH1 0x40 MLOAD DUP1 SWAP2 SUB SWAP1 LOG1 JUMPDEST POP POP POP POP POP POP JUMP JUMPDEST PUSH1 0x0 PUSH1 0x1E PUSH1 0x1 PUSH1 0x12 SLOAD PUSH2 0x2EAE SWAP2 SWAP1 PUSH2 0x31BF JUMP JUMPDEST DUP2 SLOAD DUP2 LT PUSH2 0x2EBE JUMPI PUSH2 0x2EBE PUSH2 0x31D8 JUMP JUMPDEST SWAP1 PUSH1 0x0 MSTORE PUSH1 0x20 PUSH1 0x0 KECCAK256 SWAP1 PUSH1 0x3 MUL ADD PUSH1 0x0 ADD SLOAD SWAP1 POP PUSH1 0x0 PUSH1 0x1D PUSH1 0x1 PUSH1 0x13 SLOAD PUSH2 0x2EE5 SWAP2 SWAP1 PUSH2 0x31BF JUMP JUMPDEST DUP2 SLOAD DUP2 LT PUSH2 0x2EF5 JUMPI PUSH2 0x2EF5 PUSH2 0x31D8 JUMP JUMPDEST SWAP1 PUSH1 0x0 MSTORE PUSH1 0x20 PUSH1 0x0 KECCAK256 SWAP1 PUSH1 0x3 MUL ADD PUSH1 0x0 ADD SLOAD SWAP1 POP PUSH1 0x0 PUSH1 0xD SLOAD DUP4 GT PUSH2 0x2F27 JUMPI DUP3 PUSH1 0xD SLOAD PUSH2 0x2F22 SWAP2 SWAP1 PUSH2 0x31BF JUMP JUMPDEST PUSH2 0x2F34 JUMP JUMPDEST PUSH1 0xD SLOAD PUSH2 0x2F34 SWAP1 DUP5 PUSH2 0x31BF JUMP JUMPDEST SWAP1 POP PUSH1 0x0 PUSH1 0xD SLOAD DUP4 GT PUSH2 0x2F54 JUMPI DUP3 PUSH1 0xD SLOAD PUSH2 0x2F4F SWAP2 SWAP1 PUSH2 0x31BF JUMP JUMPDEST PUSH2 0x2F61 JUMP JUMPDEST PUSH1 0xD SLOAD PUSH2 0x2F61 SWAP1 DUP5 PUSH2 0x31BF JUMP JUMPDEST SWAP1 POP DUP1 DUP3 GT ISZERO PUSH2 0x3020 JUMPI PUSH1 0xE SLOAD PUSH1 0x1 SLOAD PUSH1 0x1 PUSH1 0x1 PUSH1 0xA0 SHL SUB AND PUSH1 0x0 SWAP1 DUP2 MSTORE PUSH1 0x4 PUSH1 0x20 MSTORE PUSH1 0x40 DUP2 KECCAK256 DUP1 SLOAD SWAP1 SWAP2 SWAP1 PUSH2 0x2F98 SWAP1 DUP5 SWAP1 PUSH2 0x31BF JUMP JUMPDEST SWAP1 SWAP2 SSTORE POP POP PUSH1 0xE SLOAD PUSH1 0x2 SLOAD PUSH1 0x1 PUSH1 0x1 PUSH1 0xA0 SHL SUB AND PUSH1 0x0 SWAP1 DUP2 MSTORE PUSH1 0x4 PUSH1 0x20 MSTORE PUSH1 0x40 DUP2 KECCAK256 DUP1 SLOAD SWAP1 SWAP2 SWAP1 PUSH2 0x2FCA SWAP1 DUP5 SWAP1 PUSH2 0x31EE JUMP JUMPDEST SWAP1 SWAP2 SSTORE POP POP PUSH1 0x1 SLOAD PUSH1 0x2 SLOAD PUSH1 0xE SLOAD PUSH1 0x40 DUP1 MLOAD PUSH1 0x1 PUSH1 0x1 PUSH1 0xA0 SHL SUB SWAP5 DUP6 AND DUP2 MSTORE SWAP4 SWAP1 SWAP3 AND PUSH1 0x20 DUP5 ADD MSTORE SWAP1 DUP3 ADD MSTORE PUSH32 0x483DCC5F25E12D404BC8B4C072B870001C543D3DAEC5C241CD3ACEE232195FCA SWAP1 PUSH1 0x60 ADD PUSH2 0x1013 JUMP JUMPDEST DUP2 DUP2 GT ISZERO PUSH2 0x30DD JUMPI PUSH1 0xE SLOAD PUSH1 0x2 SLOAD PUSH1 0x1 PUSH1 0x1 PUSH1 0xA0 SHL SUB AND PUSH1 0x0 SWAP1 DUP2 MSTORE PUSH1 0x4 PUSH1 0x20 MSTORE PUSH1 0x40 DUP2 KECCAK256 DUP1 SLOAD SWAP1 SWAP2 SWAP1 PUSH2 0x3055 SWAP1 DUP5 SWAP1 PUSH2 0x31BF JUMP JUMPDEST SWAP1 SWAP2 SSTORE POP POP PUSH1 0xE SLOAD PUSH1 0x1 SLOAD PUSH1 0x1 PUSH1 0x1 PUSH1 0xA0 SHL SUB AND PUSH1 0x0 SWAP1 DUP2 MSTORE PUSH1 0x4 PUSH1 0x20 MSTORE PUSH1 0x40 DUP2 KECCAK256 DUP1 SLOAD SWAP1 SWAP2 SWAP1 PUSH2 0x3087 SWAP1 DUP5 SWAP1 PUSH2 0x31EE JUMP JUMPDEST SWAP1 SWAP2 SSTORE POP POP PUSH1 0x2 SLOAD PUSH1 0x1 SLOAD PUSH1 0xE SLOAD PUSH1 0x40 DUP1 MLOAD PUSH1 0x1 PUSH1 0x1 PUSH1 0xA0 SHL SUB SWAP5 DUP6 AND DUP2 MSTORE SWAP4 SWAP1 SWAP3 AND PUSH1 0x20 DUP5 ADD MSTORE SWAP1 DUP3 ADD MSTORE PUSH32 0x483DCC5F25E12D404BC8B4C072B870001C543D3DAEC5C241CD3ACEE232195FCA SWAP1 PUSH1 0x60 ADD PUSH2 0x1013 JUMP JUMPDEST DUP1 DUP3 SUB PUSH2 0x105A JUMPI PUSH1 0x40 MLOAD PUSH1 0x1 DUP2 MSTORE PUSH32 0x98FDD9EEB8C3CBDC66A415629F1510A33C2536B8353B50354FA399CBC9FB5D42 SWAP1 PUSH1 0x20 ADD PUSH2 0x1051 JUMP JUMPDEST PUSH1 0x0 PUSH1 0x20 DUP3 DUP5 SUB SLT ISZERO PUSH2 0x3127 JUMPI PUSH1 0x0 DUP1 REVERT JUMPDEST POP CALLDATALOAD SWAP2 SWAP1 POP JUMP JUMPDEST PUSH1 0x0 PUSH1 0x20 DUP3 DUP5 SUB SLT ISZERO PUSH2 0x3140 JUMPI PUSH1 0x0 DUP1 REVERT JUMPDEST DUP2 CALLDATALOAD DUP1 ISZERO ISZERO DUP2 EQ PUSH2 0x3150 JUMPI PUSH1 0x0 DUP1 REVERT JUMPDEST SWAP4 SWAP3 POP POP POP JUMP JUMPDEST PUSH1 0x20 DUP1 DUP3 MSTORE PUSH1 0x32 SWAP1 DUP3 ADD MSTORE PUSH32 0x4F6E6C792074686520636F6E7472616374206F70706F6E656E742063616E2063 PUSH1 0x40 DUP3 ADD MSTORE PUSH18 0x30B636103A3434B990333AB731BA34B7B717 PUSH1 0x71 SHL PUSH1 0x60 DUP3 ADD MSTORE PUSH1 0x80 ADD SWAP1 JUMP JUMPDEST PUSH4 0x4E487B71 PUSH1 0xE0 SHL PUSH1 0x0 MSTORE PUSH1 0x11 PUSH1 0x4 MSTORE PUSH1 0x24 PUSH1 0x0 REVERT JUMPDEST DUP2 DUP2 SUB DUP2 DUP2 GT ISZERO PUSH2 0x31D2 JUMPI PUSH2 0x31D2 PUSH2 0x31A9 JUMP JUMPDEST SWAP3 SWAP2 POP POP JUMP JUMPDEST PUSH4 0x4E487B71 PUSH1 0xE0 SHL PUSH1 0x0 MSTORE PUSH1 0x32 PUSH1 0x4 MSTORE PUSH1 0x24 PUSH1 0x0 REVERT JUMPDEST DUP1 DUP3 ADD DUP1 DUP3 GT ISZERO PUSH2 0x31D2 JUMPI PUSH2 0x31D2 PUSH2 0x31A9 JUMP JUMPDEST PUSH1 0x1 PUSH1 0x1 PUSH1 0xA0 SHL SUB SWAP5 SWAP1 SWAP5 AND DUP5 MSTORE SWAP2 ISZERO ISZERO PUSH1 0x20 DUP5 ADD MSTORE PUSH1 0x40 DUP4 ADD MSTORE ISZERO ISZERO PUSH1 0x60 DUP3 ADD MSTORE PUSH1 0x80 ADD SWAP1 JUMP JUMPDEST PUSH1 0x20 DUP1 DUP3 MSTORE PUSH1 0x31 SWAP1 DUP3 ADD MSTORE PUSH32 0x4F6E6C792074686520636F6E74726163742063726561746F722063616E206361 PUSH1 0x40 DUP3 ADD MSTORE PUSH17 0x3636103A3434B990333AB731BA34B7B717 PUSH1 0x79 SHL PUSH1 0x60 DUP3 ADD MSTORE PUSH1 0x80 ADD SWAP1 JUMP JUMPDEST PUSH1 0x1 PUSH1 0x1 PUSH1 0xA0 SHL SUB SWAP4 SWAP1 SWAP4 AND DUP4 MSTORE SWAP1 ISZERO ISZERO PUSH1 0x20 DUP4 ADD MSTORE PUSH1 0x40 DUP3 ADD MSTORE PUSH1 0x60 ADD SWAP1 JUMP JUMPDEST DUP1 DUP3 MUL DUP2 ISZERO DUP3 DUP3 DIV DUP5 EQ OR PUSH2 0x31D2 JUMPI PUSH2 0x31D2 PUSH2 0x31A9 JUMP JUMPDEST PUSH1 0x0 DUP3 PUSH2 0x32CF JUMPI PUSH4 0x4E487B71 PUSH1 0xE0 SHL PUSH1 0x0 MSTORE PUSH1 0x12 PUSH1 0x4 MSTORE PUSH1 0x24 PUSH1 0x0 REVERT JUMPDEST POP DIV SWAP1 JUMP JUMPDEST PUSH1 0x20 DUP1 DUP3 MSTORE PUSH1 0x24 SWAP1 DUP3 ADD MSTORE PUSH32 0x7265616368656420636170206F6E20616D6F756E74206F6620736F6674206F66 PUSH1 0x40 DUP3 ADD MSTORE PUSH4 0x66657273 PUSH1 0xE0 SHL PUSH1 0x60 DUP3 ADD MSTORE PUSH1 0x80 ADD SWAP1 JUMP JUMPDEST PUSH1 0x20 DUP1 DUP3 MSTORE PUSH1 0x32 SWAP1 DUP3 ADD MSTORE PUSH32 0x796F7520646F206E6F74206861766520656E6F7567682066756E647320746F20 PUSH1 0x40 DUP3 ADD MSTORE PUSH18 0x36B0B5B29039BAB1B41030B71037B33332B9 PUSH1 0x71 SHL PUSH1 0x60 DUP3 ADD MSTORE PUSH1 0x80 ADD SWAP1 JUMP JUMPDEST PUSH1 0x0 PUSH1 0x1 DUP3 ADD PUSH2 0x337C JUMPI PUSH2 0x337C PUSH2 0x31A9 JUMP JUMPDEST POP PUSH1 0x1 ADD SWAP1 JUMP JUMPDEST PUSH1 0x20 DUP1 DUP3 MSTORE PUSH1 0x52 SWAP1 DUP3 ADD MSTORE PUSH32 0x796F75206D757374207761697420756E74696C20746865206F70706F6E656E74 PUSH1 0x40 DUP3 ADD MSTORE PUSH32 0x207075747320696E207468656972206F6666657220746F20696E697461746520 PUSH1 0x60 DUP3 ADD MSTORE PUSH18 0x30B71030B23234BA37B730B61037B33332B9 PUSH1 0x71 SHL PUSH1 0x80 DUP3 ADD MSTORE PUSH1 0xA0 ADD SWAP1 JUMP JUMPDEST PUSH1 0x1 PUSH1 0x1 PUSH1 0xA0 SHL SUB SWAP4 SWAP1 SWAP4 AND DUP4 MSTORE PUSH1 0x20 DUP4 ADD SWAP2 SWAP1 SWAP2 MSTORE ISZERO ISZERO PUSH1 0x40 DUP3 ADD MSTORE PUSH1 0x60 ADD SWAP1 JUMP JUMPDEST PUSH1 0x20 DUP1 DUP3 MSTORE PUSH1 0x24 SWAP1 DUP3 ADD MSTORE PUSH32 0x7265616368656420636170206F6E20616D6F756E74206F66206669726D206F66 PUSH1 0x40 DUP3 ADD MSTORE PUSH4 0x66657273 PUSH1 0xE0 SHL PUSH1 0x60 DUP3 ADD MSTORE PUSH1 0x80 ADD SWAP1 JUMP JUMPDEST PUSH1 0x20 DUP1 DUP3 MSTORE PUSH1 0x26 SWAP1 DUP3 ADD MSTORE PUSH32 0x546865206D656469756D204E756D62657220686173206E6F74206265656E2073 PUSH1 0x40 DUP3 ADD MSTORE PUSH6 0x195D081E595D PUSH1 0xD2 SHL PUSH1 0x60 DUP3 ADD MSTORE PUSH1 0x80 ADD SWAP1 JUMP JUMPDEST PUSH1 0x20 DUP1 DUP3 MSTORE PUSH1 0x3E SWAP1 DUP3 ADD MSTORE PUSH32 0x796F7520646F6E74206861766520656E6F75676820746F207061792074686520 PUSH1 0x40 DUP3 ADD MSTORE PUSH32 0x70656E616C747920616E642072656D6F7665207468617420616D6F756E740000 PUSH1 0x60 DUP3 ADD MSTORE PUSH1 0x80 ADD SWAP1 JUMP JUMPDEST SWAP9 ISZERO ISZERO DUP10 MSTORE PUSH1 0x20 DUP10 ADD SWAP8 SWAP1 SWAP8 MSTORE PUSH1 0x40 DUP9 ADD SWAP6 SWAP1 SWAP6 MSTORE PUSH1 0x60 DUP8 ADD SWAP4 SWAP1 SWAP4 MSTORE PUSH1 0x80 DUP7 ADD SWAP2 SWAP1 SWAP2 MSTORE PUSH1 0xA0 DUP6 ADD MSTORE PUSH1 0xC0 DUP5 ADD MSTORE ISZERO ISZERO PUSH1 0xE0 DUP4 ADD MSTORE ISZERO ISZERO PUSH2 0x100 DUP3 ADD MSTORE PUSH2 0x120 ADD SWAP1 JUMP INVALID 0xF9 0xFB SWAP11 PUSH17 0xF03EA52A997D8C4BCBF294FA6AE49C941 DUP2 0xB5 MSIZE 0xB1 0xC1 NUMBER 0x26 MULMOD RETURNDATASIZE 0xAC 0xCB DUP16 0xEC 0xA7 AND 0xE5 INVALID LOG3 PUSH1 0x26 0x4E GAS PUSH31 0xBBCFCB8E1C9D84CDA200174D4D35BD097DF46278890481CD9DB95D3733900D 0xAD EXTCODEHASH ORIGIN SUB SELFDESTRUCT 0xE7 DELEGATECALL 0xD5 DUP11 0xB2 SWAP1 SWAP2 0xCC BYTE JUMPDEST 0xB5 0x2C 0x2A SELFDESTRUCT 0xBC 0xAF ADD BYTE SELFBALANCE SWAP15 0x5C 0x29 0x28 AND PUSH11 0x4647520BABF75193C4E516 ADDRESS 0xFB SWAP9 0xF 0xAD PUSH30 0x4A30E0CC1670A2646970667358221220F3DF8DFD00B7B3D10D8819DB011A 0xAD 0xD3 SELFBALANCE 0xD3 0xFB SWAP4 DUP12 0xAE PUSH15 0x273790FDADEA9C9A4C64736F6C6343 STOP ADDMOD GT STOP CALLER "
		},
		"gasEstimates": {
			"creation": {
				"codeDepositCost": "2764800",
				"executionCost": "infinite",
				"totalCost": "infinite"
			},
			"external": {
				"checkBalance()": "2427",
				"creator()": "2395",
				"creatorAcceptSoftOffer()": "infinite",
				"creatorTakeItOrLeaveIt(uint256)": "65384",
				"creatorTakeOrLeaveResponse(bool)": "infinite",
				"declineSoftOffer()": "infinite",
				"deposit()": "24556",
				"finalTakeItOrLeaveItAmount()": "2383",
				"finalTakeOrLeaveRequestAmount()": "2405",
				"firmRange()": "2341",
				"fullWithdrawl()": "infinite",
				"getSummary()": "17287",
				"initiateFirmGiverOffer(uint256)": "infinite",
				"initiateFirmReceiverOffer(uint256)": "infinite",
				"initiateSoftGiverOffer(uint256)": "infinite",
				"initiateSoftReceiverOffer(uint256)": "infinite",
				"opponent()": "2437",
				"opponentAcceptSoftOffer()": "infinite",
				"partialWithdraw(uint256)": "infinite",
				"penaltyPercent()": "2386",
				"receiverTakeItOrLeaveItResponse(bool)": "infinite",
				"receiverTakeOrLeave(uint256)": "67541",
				"resolved()": "2400",
				"revealMediumNumberAndPenalty()": "8759",
				"softRange()": "2363",
				"softRoundActive()": "2367",
				"totalFirmOffersCap()": "2385",
				"totalSoftOffersCap()": "2384"
			},
			"internal": {
				"determineMediumNumberAndPenalty(uint256,uint256)": "infinite",
				"processFirmOffer(uint256)": "infinite",
				"processFirmPenalties()": "infinite",
				"processSoftOffer()": "infinite"
			}
		},
		"methodIdentifiers": {
			"checkBalance()": "c71daccb",
			"creator()": "02d05d3f",
			"creatorAcceptSoftOffer()": "7754114c",
			"creatorTakeItOrLeaveIt(uint256)": "3cc5fae3",
			"creatorTakeOrLeaveResponse(bool)": "7fee0760",
			"declineSoftOffer()": "cd323f37",
			"deposit()": "d0e30db0",
			"finalTakeItOrLeaveItAmount()": "d1914988",
			"finalTakeOrLeaveRequestAmount()": "fa8dc8c9",
			"firmRange()": "41d07d8c",
			"fullWithdrawl()": "7516daa8",
			"getSummary()": "4051ddac",
			"initiateFirmGiverOffer(uint256)": "6821c00a",
			"initiateFirmReceiverOffer(uint256)": "959ec2a3",
			"initiateSoftGiverOffer(uint256)": "6244df83",
			"initiateSoftReceiverOffer(uint256)": "81276f39",
			"opponent()": "93694f67",
			"opponentAcceptSoftOffer()": "017f19e1",
			"partialWithdraw(uint256)": "71d2ee6c",
			"penaltyPercent()": "161ba46a",
			"receiverTakeItOrLeaveItResponse(bool)": "7d17c2cc",
			"receiverTakeOrLeave(uint256)": "7466cd9e",
			"resolved()": "3f6fa655",
			"revealMediumNumberAndPenalty()": "cd6e939b",
			"softRange()": "502ef5ff",
			"softRoundActive()": "328beb0f",
			"totalFirmOffersCap()": "5605c66d",
			"totalSoftOffersCap()": "819e213d"
		}
	},
	"abi": [
		{
			"inputs": [
				{
					"internalType": "address",
					"name": "_summTermsAddress",
					"type": "address"
				}
			],
			"stateMutability": "nonpayable",
			"type": "constructor"
		},
		{
			"anonymous": false,
			"inputs": [
				{
					"indexed": false,
					"internalType": "bool",
					"name": "_tie",
					"type": "bool"
				}
			],
			"name": "AmountDistanceTie",
			"type": "event"
		},
		{
			"anonymous": false,
			"inputs": [
				{
					"indexed": false,
					"internalType": "address",
					"name": "_who",
					"type": "address"
				},
				{
					"indexed": false,
					"internalType": "uint256",
					"name": "_number",
					"type": "uint256"
				},
				{
					"indexed": false,
					"internalType": "bool",
					"name": "_bothGivenAndProcessed",
					"type": "bool"
				}
			],
			"name": "FirmOfferGiven",
			"type": "event"
		},
		{
			"anonymous": false,
			"inputs": [
				{
					"indexed": false,
					"internalType": "bool",
					"name": "_withinRange",
					"type": "bool"
				},
				{
					"indexed": false,
					"internalType": "uint256",
					"name": "_giverOffer",
					"type": "uint256"
				},
				{
					"indexed": false,
					"internalType": "uint256",
					"name": "_receiverOffer",
					"type": "uint256"
				},
				{
					"indexed": false,
					"internalType": "uint256",
					"name": "_percentageDiff",
					"type": "uint256"
				},
				{
					"indexed": false,
					"internalType": "uint256",
					"name": "amountDiff",
					"type": "uint256"
				},
				{
					"indexed": false,
					"internalType": "uint256",
					"name": "_compromiseAmount",
					"type": "uint256"
				},
				{
					"indexed": false,
					"internalType": "uint256",
					"name": "_finalFirmAmount",
					"type": "uint256"
				},
				{
					"indexed": false,
					"internalType": "bool",
					"name": "_resolved",
					"type": "bool"
				},
				{
					"indexed": false,
					"internalType": "bool",
					"name": "_penalties",
					"type": "bool"
				}
			],
			"name": "FirmOfferStatus",
			"type": "event"
		},
		{
			"anonymous": false,
			"inputs": [
				{
					"indexed": false,
					"internalType": "bool",
					"name": "_readyToAccept",
					"type": "bool"
				},
				{
					"indexed": false,
					"internalType": "bool",
					"name": "_softRoundActive",
					"type": "bool"
				}
			],
			"name": "InRange",
			"type": "event"
		},
		{
			"anonymous": false,
			"inputs": [
				{
					"indexed": false,
					"internalType": "bool",
					"name": "_set",
					"type": "bool"
				}
			],
			"name": "MediumNumberAndPenaltyVariablesSet",
			"type": "event"
		},
		{
			"anonymous": false,
			"inputs": [
				{
					"indexed": false,
					"internalType": "address",
					"name": "_who",
					"type": "address"
				},
				{
					"indexed": false,
					"internalType": "bool",
					"name": "_bothPartiesAccept",
					"type": "bool"
				},
				{
					"indexed": false,
					"internalType": "uint256",
					"name": "_finalCompromisedAmount",
					"type": "uint256"
				},
				{
					"indexed": false,
					"internalType": "bool",
					"name": "_resolved",
					"type": "bool"
				}
			],
			"name": "OfferAccepted",
			"type": "event"
		},
		{
			"anonymous": false,
			"inputs": [
				{
					"indexed": false,
					"internalType": "address",
					"name": "_who",
					"type": "address"
				},
				{
					"indexed": false,
					"internalType": "bool",
					"name": "_softOfferRoundsActive",
					"type": "bool"
				}
			],
			"name": "OfferDeclined",
			"type": "event"
		},
		{
			"anonymous": false,
			"inputs": [
				{
					"indexed": false,
					"internalType": "address",
					"name": "_whoPaid",
					"type": "address"
				},
				{
					"indexed": false,
					"internalType": "address",
					"name": "_whoReceived",
					"type": "address"
				},
				{
					"indexed": false,
					"internalType": "uint256",
					"name": "_penaltyAmount",
					"type": "uint256"
				}
			],
			"name": "PenaltyGiven",
			"type": "event"
		},
		{
			"anonymous": false,
			"inputs": [
				{
					"indexed": false,
					"internalType": "address",
					"name": "_who",
					"type": "address"
				},
				{
					"indexed": false,
					"internalType": "uint256",
					"name": "_number",
					"type": "uint256"
				},
				{
					"indexed": false,
					"internalType": "bool",
					"name": "_bothGivenAndProcessed",
					"type": "bool"
				}
			],
			"name": "SoftOfferGiven",
			"type": "event"
		},
		{
			"anonymous": false,
			"inputs": [
				{
					"indexed": false,
					"internalType": "address",
					"name": "_who",
					"type": "address"
				},
				{
					"indexed": false,
					"internalType": "bool",
					"name": "_given",
					"type": "bool"
				},
				{
					"indexed": false,
					"internalType": "uint256",
					"name": "_amount",
					"type": "uint256"
				}
			],
			"name": "TakeItOrLeaveItOfferGiven",
			"type": "event"
		},
		{
			"anonymous": false,
			"inputs": [
				{
					"indexed": false,
					"internalType": "address",
					"name": "_whoResponded",
					"type": "address"
				},
				{
					"indexed": false,
					"internalType": "bool",
					"name": "_accepted",
					"type": "bool"
				},
				{
					"indexed": false,
					"internalType": "uint256",
					"name": "_amount",
					"type": "uint256"
				}
			],
			"name": "TakeItOrLeaveItResponse",
			"type": "event"
		},
		{
			"inputs": [],
			"name": "checkBalance",
			"outputs": [
				{
					"internalType": "uint256",
					"name": "",
					"type": "uint256"
				}
			],
			"stateMutability": "view",
			"type": "function"
		},
		{
			"inputs": [],
			"name": "creator",
			"outputs": [
				{
					"internalType": "address payable",
					"name": "",
					"type": "address"
				}
			],
			"stateMutability": "view",
			"type": "function"
		},
		{
			"inputs": [],
			"name": "creatorAcceptSoftOffer",
			"outputs": [],
			"stateMutability": "payable",
			"type": "function"
		},
		{
			"inputs": [
				{
					"internalType": "uint256",
					"name": "_amount",
					"type": "uint256"
				}
			],
			"name": "creatorTakeItOrLeaveIt",
			"outputs": [],
			"stateMutability": "nonpayable",
			"type": "function"
		},
		{
			"inputs": [
				{
					"internalType": "bool",
					"name": "_accept",
					"type": "bool"
				}
			],
			"name": "creatorTakeOrLeaveResponse",
			"outputs": [],
			"stateMutability": "nonpayable",
			"type": "function"
		},
		{
			"inputs": [],
			"name": "declineSoftOffer",
			"outputs": [],
			"stateMutability": "nonpayable",
			"type": "function"
		},
		{
			"inputs": [],
			"name": "deposit",
			"outputs": [],
			"stateMutability": "payable",
			"type": "function"
		},
		{
			"inputs": [],
			"name": "finalTakeItOrLeaveItAmount",
			"outputs": [
				{
					"internalType": "uint256",
					"name": "",
					"type": "uint256"
				}
			],
			"stateMutability": "view",
			"type": "function"
		},
		{
			"inputs": [],
			"name": "finalTakeOrLeaveRequestAmount",
			"outputs": [
				{
					"internalType": "uint256",
					"name": "",
					"type": "uint256"
				}
			],
			"stateMutability": "view",
			"type": "function"
		},
		{
			"inputs": [],
			"name": "firmRange",
			"outputs": [
				{
					"internalType": "uint256",
					"name": "",
					"type": "uint256"
				}
			],
			"stateMutability": "view",
			"type": "function"
		},
		{
			"inputs": [],
			"name": "fullWithdrawl",
			"outputs": [],
			"stateMutability": "nonpayable",
			"type": "function"
		},
		{
			"inputs": [],
			"name": "getSummary",
			"outputs": [
				{
					"internalType": "uint256",
					"name": "",
					"type": "uint256"
				},
				{
					"internalType": "uint256",
					"name": "",
					"type": "uint256"
				},
				{
					"internalType": "address",
					"name": "",
					"type": "address"
				},
				{
					"internalType": "address",
					"name": "",
					"type": "address"
				},
				{
					"internalType": "uint256",
					"name": "",
					"type": "uint256"
				},
				{
					"internalType": "uint256",
					"name": "",
					"type": "uint256"
				},
				{
					"internalType": "uint256",
					"name": "",
					"type": "uint256"
				},
				{
					"internalType": "bool",
					"name": "",
					"type": "bool"
				}
			],
			"stateMutability": "view",
			"type": "function"
		},
		{
			"inputs": [
				{
					"internalType": "uint256",
					"name": "_amount",
					"type": "uint256"
				}
			],
			"name": "initiateFirmGiverOffer",
			"outputs": [],
			"stateMutability": "nonpayable",
			"type": "function"
		},
		{
			"inputs": [
				{
					"internalType": "uint256",
					"name": "_amount",
					"type": "uint256"
				}
			],
			"name": "initiateFirmReceiverOffer",
			"outputs": [],
			"stateMutability": "nonpayable",
			"type": "function"
		},
		{
			"inputs": [
				{
					"internalType": "uint256",
					"name": "_amount",
					"type": "uint256"
				}
			],
			"name": "initiateSoftGiverOffer",
			"outputs": [],
			"stateMutability": "nonpayable",
			"type": "function"
		},
		{
			"inputs": [
				{
					"internalType": "uint256",
					"name": "_amount",
					"type": "uint256"
				}
			],
			"name": "initiateSoftReceiverOffer",
			"outputs": [],
			"stateMutability": "nonpayable",
			"type": "function"
		},
		{
			"inputs": [],
			"name": "opponent",
			"outputs": [
				{
					"internalType": "address payable",
					"name": "",
					"type": "address"
				}
			],
			"stateMutability": "view",
			"type": "function"
		},
		{
			"inputs": [],
			"name": "opponentAcceptSoftOffer",
			"outputs": [],
			"stateMutability": "payable",
			"type": "function"
		},
		{
			"inputs": [
				{
					"internalType": "uint256",
					"name": "_amount",
					"type": "uint256"
				}
			],
			"name": "partialWithdraw",
			"outputs": [],
			"stateMutability": "nonpayable",
			"type": "function"
		},
		{
			"inputs": [],
			"name": "penaltyPercent",
			"outputs": [
				{
					"internalType": "uint256",
					"name": "",
					"type": "uint256"
				}
			],
			"stateMutability": "view",
			"type": "function"
		},
		{
			"inputs": [
				{
					"internalType": "bool",
					"name": "_accept",
					"type": "bool"
				}
			],
			"name": "receiverTakeItOrLeaveItResponse",
			"outputs": [],
			"stateMutability": "nonpayable",
			"type": "function"
		},
		{
			"inputs": [
				{
					"internalType": "uint256",
					"name": "_amount",
					"type": "uint256"
				}
			],
			"name": "receiverTakeOrLeave",
			"outputs": [],
			"stateMutability": "nonpayable",
			"type": "function"
		},
		{
			"inputs": [],
			"name": "resolved",
			"outputs": [
				{
					"internalType": "bool",
					"name": "",
					"type": "bool"
				}
			],
			"stateMutability": "view",
			"type": "function"
		},
		{
			"inputs": [],
			"name": "revealMediumNumberAndPenalty",
			"outputs": [
				{
					"internalType": "uint256",
					"name": "",
					"type": "uint256"
				},
				{
					"internalType": "uint256",
					"name": "",
					"type": "uint256"
				}
			],
			"stateMutability": "view",
			"type": "function"
		},
		{
			"inputs": [],
			"name": "softRange",
			"outputs": [
				{
					"internalType": "uint256",
					"name": "",
					"type": "uint256"
				}
			],
			"stateMutability": "view",
			"type": "function"
		},
		{
			"inputs": [],
			"name": "softRoundActive",
			"outputs": [
				{
					"internalType": "bool",
					"name": "",
					"type": "bool"
				}
			],
			"stateMutability": "view",
			"type": "function"
		},
		{
			"inputs": [],
			"name": "totalFirmOffersCap",
			"outputs": [
				{
					"internalType": "uint256",
					"name": "",
					"type": "uint256"
				}
			],
			"stateMutability": "view",
			"type": "function"
		},
		{
			"inputs": [],
			"name": "totalSoftOffersCap",
			"outputs": [
				{
					"internalType": "uint256",
					"name": "",
					"type": "uint256"
				}
			],
			"stateMutability": "view",
			"type": "function"
		}
	]
}