{
	"data": {
		"bytecode": {
			"linkReferences": {},
			"object": "608060405234801561001057600080fd5b50604051610ce4380380610ce483398101604081905261002f916100ad565b6100383361005d565b600280546001600160a01b0319166001600160a01b03929092169190911790556100dd565b600080546001600160a01b038381166001600160a01b0319831681178455604051919092169283917f8be0079c531659141344cd1fd0a4f28419497f9722a3daafe3b4186f6b6457e09190a35050565b6000602082840312156100bf57600080fd5b81516001600160a01b03811681146100d657600080fd5b9392505050565b610bf8806100ec6000396000f3fe608060405234801561001057600080fd5b506004361061007d5760003560e01c8063748b47651161005b578063748b4765146100d157806380f77662146100e45780638da5cb5b146100f7578063f2fde38b1461010857600080fd5b8063163c993e1461008257806329baa46c146100b2578063715018a6146100c7575b600080fd5b610095610090366004610425565b61011b565b6040516001600160a01b0390911681526020015b60405180910390f35b6100ba610145565b6040516100a9919061043e565b6100cf6101a7565b005b6100cf6100df3660046104a0565b6101bb565b6100cf6100f23660046104ec565b6102c6565b6000546001600160a01b0316610095565b6100cf6101163660046104ec565b6102f0565b6001818154811061012b57600080fd5b6000918252602090912001546001600160a01b0316905081565b6060600180548060200260200160405190810160405280929190818152602001828054801561019d57602002820191906000526020600020905b81546001600160a01b0316815260019091019060200180831161017f575b5050505050905090565b6101af61036e565b6101b960006103c8565b565b600033878787878787600260009054906101000a90046001600160a01b03166040516101e690610418565b6001600160a01b039889168152968816602088015260408701959095526060860193909352608085019190915260a084015260c083015290911660e082015261010001604051809103906000f080158015610245573d6000803e3d6000fd5b5060018054808201825560009182527fb10e2d527612073b26eecdfd717e6a320cf44b4afac2b0732d9fcbe2b7fa0cf60180546001600160a01b0319166001600160a01b038416908117909155604051929350917fff78e5ec56505c32bf36ac3500fa0f09b8a0df59f21df7e77715f4a14caa67889190a250505050505050565b6102ce61036e565b600280546001600160a01b0319166001600160a01b0392909216919091179055565b6102f861036e565b6001600160a01b0381166103625760405162461bcd60e51b815260206004820152602660248201527f4f776e61626c653a206e6577206f776e657220697320746865207a65726f206160448201526564647265737360d01b60648201526084015b60405180910390fd5b61036b816103c8565b50565b6000546001600160a01b031633146101b95760405162461bcd60e51b815260206004820181905260248201527f4f776e61626c653a2063616c6c6572206973206e6f7420746865206f776e65726044820152606401610359565b600080546001600160a01b038381166001600160a01b0319831681178455604051919092169283917f8be0079c531659141344cd1fd0a4f28419497f9722a3daafe3b4186f6b6457e09190a35050565b6106b28061051183390190565b60006020828403121561043757600080fd5b5035919050565b6020808252825182820181905260009190848201906040850190845b8181101561047f5783516001600160a01b03168352928401929184019160010161045a565b50909695505050505050565b6001600160a01b038116811461036b57600080fd5b60008060008060008060c087890312156104b957600080fd5b86356104c48161048b565b9860208801359850604088013597606081013597506080810135965060a00135945092505050565b6000602082840312156104fe57600080fd5b81356105098161048b565b939250505056fe60e060405261030260055534801561001657600080fd5b506040516106b23803806106b283398101604081905261003591610290565b600a861080156100455750600086115b6100bc5760405162461bcd60e51b815260206004820152603460248201527f616d6f756e74206f6620736f6674206f66666572732063616e6e6f742065786360448201527f656564203130206f722062652062656c6f77203000000000000000000000000060648201526084015b60405180910390fd5b600a851061011b5760405162461bcd60e51b815260206004820152602660248201527f616d6f756e74206f66206669726d206f66666572732063616e6e6f742065786360448201526506565642031360d41b60648201526084016100b3565b876001600160a01b0316876001600160a01b0316036101a25760405162461bcd60e51b815260206004820152603a60248201527f4f70706f6e656e7420616464726573732063616e6e6f7420626520746865207360448201527f616d65206173207468652063726561746f72206164647265737300000000000060648201526084016100b3565b6000841180156101b25750602884105b6101bb57600080fd5b6000831180156101cb5750602883105b6101d457600080fd5b6000821180156101e45750601482105b6102425760405162461bcd60e51b815260206004820152602960248201527f70656e616c74792070657263656e74206d75737420626520696e2072616e6765604482015268206f6620302d31392560b81b60648201526084016100b3565b6001600160a01b0397881660805295871660a0526000949094556001929092556002556003556004551660c052610304565b80516001600160a01b038116811461028b57600080fd5b919050565b600080600080600080600080610100898b0312156102ad57600080fd5b6102b689610274565b97506102c460208a01610274565b965060408901519550606089015194506080890151935060a0890151925060c089015191506102f560e08a01610274565b90509295985092959890939650565b60805160a05160c051610379610339600039600061010401526000818161012a01526101920152600060c101526103796000f3fe608060405234801561001057600080fd5b506004361061009e5760003560e01c806341d07d8c1161006657806341d07d8c1461014e578063502ef5ff146101575780635605c66d146101605780635ddee3af14610169578063819e213d1461017e57600080fd5b80630ca99cb0146100a35780630ee2cb10146100bf578063161ba46a146100f9578063332bdb5c146101025780633958005414610128575b600080fd5b6100ac60055481565b6040519081526020015b60405180910390f35b7f00000000000000000000000000000000000000000000000000000000000000005b6040516001600160a01b0390911681526020016100b6565b6100ac60045481565b7f00000000000000000000000000000000000000000000000000000000000000006100e1565b7f00000000000000000000000000000000000000000000000000000000000000006100e1565b6100ac60035481565b6100ac60025481565b6100ac60015481565b61017c6101773660046102ab565b610187565b005b6100ac60005481565b336001600160a01b037f0000000000000000000000000000000000000000000000000000000000000000161461021e5760405162461bcd60e51b815260206004820152603260248201527f4f6e6c792074686520636f6e7472616374206f70706f6e656e742063616e206360448201527130b636103a3434b990333ab731ba34b7b71760711b606482015260840160405180910390fd5b801515600103610249576102496040518060600160405280602181526020016103236021913961024c565b50565b6102498160405160240161026091906102d4565b60408051601f198184030181529190526020810180516001600160e01b031663104c13eb60e21b17905280516a636f6e736f6c652e6c6f67602083016000808483855afa5050505050565b6000602082840312156102bd57600080fd5b813580151581146102cd57600080fd5b9392505050565b600060208083528351808285015260005b81811015610301578581018301518582016040015282016102e5565b506000604082860101526040601f19601f830116850101925050509291505056fe6c657473206d616b652061206e65772073756d6d206e65676f74696174696f6e21a26469706673582212206ca482effb8e96e9481cbe8387c326af525658ee25609c21bb8d4c8334b5724264736f6c63430008110033a26469706673582212201de07dc44b1847208f544077c21205c7181c7d76a4041420521ad68779216b2964736f6c63430008110033",
			"opcodes": "PUSH1 0x80 PUSH1 0x40 MSTORE CALLVALUE DUP1 ISZERO PUSH2 0x10 JUMPI PUSH1 0x0 DUP1 REVERT JUMPDEST POP PUSH1 0x40 MLOAD PUSH2 0xCE4 CODESIZE SUB DUP1 PUSH2 0xCE4 DUP4 CODECOPY DUP2 ADD PUSH1 0x40 DUP2 SWAP1 MSTORE PUSH2 0x2F SWAP2 PUSH2 0xAD JUMP JUMPDEST PUSH2 0x38 CALLER PUSH2 0x5D JUMP JUMPDEST PUSH1 0x2 DUP1 SLOAD PUSH1 0x1 PUSH1 0x1 PUSH1 0xA0 SHL SUB NOT AND PUSH1 0x1 PUSH1 0x1 PUSH1 0xA0 SHL SUB SWAP3 SWAP1 SWAP3 AND SWAP2 SWAP1 SWAP2 OR SWAP1 SSTORE PUSH2 0xDD JUMP JUMPDEST PUSH1 0x0 DUP1 SLOAD PUSH1 0x1 PUSH1 0x1 PUSH1 0xA0 SHL SUB DUP4 DUP2 AND PUSH1 0x1 PUSH1 0x1 PUSH1 0xA0 SHL SUB NOT DUP4 AND DUP2 OR DUP5 SSTORE PUSH1 0x40 MLOAD SWAP2 SWAP1 SWAP3 AND SWAP3 DUP4 SWAP2 PUSH32 0x8BE0079C531659141344CD1FD0A4F28419497F9722A3DAAFE3B4186F6B6457E0 SWAP2 SWAP1 LOG3 POP POP JUMP JUMPDEST PUSH1 0x0 PUSH1 0x20 DUP3 DUP5 SUB SLT ISZERO PUSH2 0xBF JUMPI PUSH1 0x0 DUP1 REVERT JUMPDEST DUP2 MLOAD PUSH1 0x1 PUSH1 0x1 PUSH1 0xA0 SHL SUB DUP2 AND DUP2 EQ PUSH2 0xD6 JUMPI PUSH1 0x0 DUP1 REVERT JUMPDEST SWAP4 SWAP3 POP POP POP JUMP JUMPDEST PUSH2 0xBF8 DUP1 PUSH2 0xEC PUSH1 0x0 CODECOPY PUSH1 0x0 RETURN INVALID PUSH1 0x80 PUSH1 0x40 MSTORE CALLVALUE DUP1 ISZERO PUSH2 0x10 JUMPI PUSH1 0x0 DUP1 REVERT JUMPDEST POP PUSH1 0x4 CALLDATASIZE LT PUSH2 0x7D JUMPI PUSH1 0x0 CALLDATALOAD PUSH1 0xE0 SHR DUP1 PUSH4 0x748B4765 GT PUSH2 0x5B JUMPI DUP1 PUSH4 0x748B4765 EQ PUSH2 0xD1 JUMPI DUP1 PUSH4 0x80F77662 EQ PUSH2 0xE4 JUMPI DUP1 PUSH4 0x8DA5CB5B EQ PUSH2 0xF7 JUMPI DUP1 PUSH4 0xF2FDE38B EQ PUSH2 0x108 JUMPI PUSH1 0x0 DUP1 REVERT JUMPDEST DUP1 PUSH4 0x163C993E EQ PUSH2 0x82 JUMPI DUP1 PUSH4 0x29BAA46C EQ PUSH2 0xB2 JUMPI DUP1 PUSH4 0x715018A6 EQ PUSH2 0xC7 JUMPI JUMPDEST PUSH1 0x0 DUP1 REVERT JUMPDEST PUSH2 0x95 PUSH2 0x90 CALLDATASIZE PUSH1 0x4 PUSH2 0x425 JUMP JUMPDEST PUSH2 0x11B JUMP JUMPDEST PUSH1 0x40 MLOAD PUSH1 0x1 PUSH1 0x1 PUSH1 0xA0 SHL SUB SWAP1 SWAP2 AND DUP2 MSTORE PUSH1 0x20 ADD JUMPDEST PUSH1 0x40 MLOAD DUP1 SWAP2 SUB SWAP1 RETURN JUMPDEST PUSH2 0xBA PUSH2 0x145 JUMP JUMPDEST PUSH1 0x40 MLOAD PUSH2 0xA9 SWAP2 SWAP1 PUSH2 0x43E JUMP JUMPDEST PUSH2 0xCF PUSH2 0x1A7 JUMP JUMPDEST STOP JUMPDEST PUSH2 0xCF PUSH2 0xDF CALLDATASIZE PUSH1 0x4 PUSH2 0x4A0 JUMP JUMPDEST PUSH2 0x1BB JUMP JUMPDEST PUSH2 0xCF PUSH2 0xF2 CALLDATASIZE PUSH1 0x4 PUSH2 0x4EC JUMP JUMPDEST PUSH2 0x2C6 JUMP JUMPDEST PUSH1 0x0 SLOAD PUSH1 0x1 PUSH1 0x1 PUSH1 0xA0 SHL SUB AND PUSH2 0x95 JUMP JUMPDEST PUSH2 0xCF PUSH2 0x116 CALLDATASIZE PUSH1 0x4 PUSH2 0x4EC JUMP JUMPDEST PUSH2 0x2F0 JUMP JUMPDEST PUSH1 0x1 DUP2 DUP2 SLOAD DUP2 LT PUSH2 0x12B JUMPI PUSH1 0x0 DUP1 REVERT JUMPDEST PUSH1 0x0 SWAP2 DUP3 MSTORE PUSH1 0x20 SWAP1 SWAP2 KECCAK256 ADD SLOAD PUSH1 0x1 PUSH1 0x1 PUSH1 0xA0 SHL SUB AND SWAP1 POP DUP2 JUMP JUMPDEST PUSH1 0x60 PUSH1 0x1 DUP1 SLOAD DUP1 PUSH1 0x20 MUL PUSH1 0x20 ADD PUSH1 0x40 MLOAD SWAP1 DUP2 ADD PUSH1 0x40 MSTORE DUP1 SWAP3 SWAP2 SWAP1 DUP2 DUP2 MSTORE PUSH1 0x20 ADD DUP3 DUP1 SLOAD DUP1 ISZERO PUSH2 0x19D JUMPI PUSH1 0x20 MUL DUP3 ADD SWAP2 SWAP1 PUSH1 0x0 MSTORE PUSH1 0x20 PUSH1 0x0 KECCAK256 SWAP1 JUMPDEST DUP2 SLOAD PUSH1 0x1 PUSH1 0x1 PUSH1 0xA0 SHL SUB AND DUP2 MSTORE PUSH1 0x1 SWAP1 SWAP2 ADD SWAP1 PUSH1 0x20 ADD DUP1 DUP4 GT PUSH2 0x17F JUMPI JUMPDEST POP POP POP POP POP SWAP1 POP SWAP1 JUMP JUMPDEST PUSH2 0x1AF PUSH2 0x36E JUMP JUMPDEST PUSH2 0x1B9 PUSH1 0x0 PUSH2 0x3C8 JUMP JUMPDEST JUMP JUMPDEST PUSH1 0x0 CALLER DUP8 DUP8 DUP8 DUP8 DUP8 DUP8 PUSH1 0x2 PUSH1 0x0 SWAP1 SLOAD SWAP1 PUSH2 0x100 EXP SWAP1 DIV PUSH1 0x1 PUSH1 0x1 PUSH1 0xA0 SHL SUB AND PUSH1 0x40 MLOAD PUSH2 0x1E6 SWAP1 PUSH2 0x418 JUMP JUMPDEST PUSH1 0x1 PUSH1 0x1 PUSH1 0xA0 SHL SUB SWAP9 DUP10 AND DUP2 MSTORE SWAP7 DUP9 AND PUSH1 0x20 DUP9 ADD MSTORE PUSH1 0x40 DUP8 ADD SWAP6 SWAP1 SWAP6 MSTORE PUSH1 0x60 DUP7 ADD SWAP4 SWAP1 SWAP4 MSTORE PUSH1 0x80 DUP6 ADD SWAP2 SWAP1 SWAP2 MSTORE PUSH1 0xA0 DUP5 ADD MSTORE PUSH1 0xC0 DUP4 ADD MSTORE SWAP1 SWAP2 AND PUSH1 0xE0 DUP3 ADD MSTORE PUSH2 0x100 ADD PUSH1 0x40 MLOAD DUP1 SWAP2 SUB SWAP1 PUSH1 0x0 CREATE DUP1 ISZERO DUP1 ISZERO PUSH2 0x245 JUMPI RETURNDATASIZE PUSH1 0x0 DUP1 RETURNDATACOPY RETURNDATASIZE PUSH1 0x0 REVERT JUMPDEST POP PUSH1 0x1 DUP1 SLOAD DUP1 DUP3 ADD DUP3 SSTORE PUSH1 0x0 SWAP2 DUP3 MSTORE PUSH32 0xB10E2D527612073B26EECDFD717E6A320CF44B4AFAC2B0732D9FCBE2B7FA0CF6 ADD DUP1 SLOAD PUSH1 0x1 PUSH1 0x1 PUSH1 0xA0 SHL SUB NOT AND PUSH1 0x1 PUSH1 0x1 PUSH1 0xA0 SHL SUB DUP5 AND SWAP1 DUP2 OR SWAP1 SWAP2 SSTORE PUSH1 0x40 MLOAD SWAP3 SWAP4 POP SWAP2 PUSH32 0xFF78E5EC56505C32BF36AC3500FA0F09B8A0DF59F21DF7E77715F4A14CAA6788 SWAP2 SWAP1 LOG2 POP POP POP POP POP POP POP JUMP JUMPDEST PUSH2 0x2CE PUSH2 0x36E JUMP JUMPDEST PUSH1 0x2 DUP1 SLOAD PUSH1 0x1 PUSH1 0x1 PUSH1 0xA0 SHL SUB NOT AND PUSH1 0x1 PUSH1 0x1 PUSH1 0xA0 SHL SUB SWAP3 SWAP1 SWAP3 AND SWAP2 SWAP1 SWAP2 OR SWAP1 SSTORE JUMP JUMPDEST PUSH2 0x2F8 PUSH2 0x36E JUMP JUMPDEST PUSH1 0x1 PUSH1 0x1 PUSH1 0xA0 SHL SUB DUP2 AND PUSH2 0x362 JUMPI PUSH1 0x40 MLOAD PUSH3 0x461BCD PUSH1 0xE5 SHL DUP2 MSTORE PUSH1 0x20 PUSH1 0x4 DUP3 ADD MSTORE PUSH1 0x26 PUSH1 0x24 DUP3 ADD MSTORE PUSH32 0x4F776E61626C653A206E6577206F776E657220697320746865207A65726F2061 PUSH1 0x44 DUP3 ADD MSTORE PUSH6 0x646472657373 PUSH1 0xD0 SHL PUSH1 0x64 DUP3 ADD MSTORE PUSH1 0x84 ADD JUMPDEST PUSH1 0x40 MLOAD DUP1 SWAP2 SUB SWAP1 REVERT JUMPDEST PUSH2 0x36B DUP2 PUSH2 0x3C8 JUMP JUMPDEST POP JUMP JUMPDEST PUSH1 0x0 SLOAD PUSH1 0x1 PUSH1 0x1 PUSH1 0xA0 SHL SUB AND CALLER EQ PUSH2 0x1B9 JUMPI PUSH1 0x40 MLOAD PUSH3 0x461BCD PUSH1 0xE5 SHL DUP2 MSTORE PUSH1 0x20 PUSH1 0x4 DUP3 ADD DUP2 SWAP1 MSTORE PUSH1 0x24 DUP3 ADD MSTORE PUSH32 0x4F776E61626C653A2063616C6C6572206973206E6F7420746865206F776E6572 PUSH1 0x44 DUP3 ADD MSTORE PUSH1 0x64 ADD PUSH2 0x359 JUMP JUMPDEST PUSH1 0x0 DUP1 SLOAD PUSH1 0x1 PUSH1 0x1 PUSH1 0xA0 SHL SUB DUP4 DUP2 AND PUSH1 0x1 PUSH1 0x1 PUSH1 0xA0 SHL SUB NOT DUP4 AND DUP2 OR DUP5 SSTORE PUSH1 0x40 MLOAD SWAP2 SWAP1 SWAP3 AND SWAP3 DUP4 SWAP2 PUSH32 0x8BE0079C531659141344CD1FD0A4F28419497F9722A3DAAFE3B4186F6B6457E0 SWAP2 SWAP1 LOG3 POP POP JUMP JUMPDEST PUSH2 0x6B2 DUP1 PUSH2 0x511 DUP4 CODECOPY ADD SWAP1 JUMP JUMPDEST PUSH1 0x0 PUSH1 0x20 DUP3 DUP5 SUB SLT ISZERO PUSH2 0x437 JUMPI PUSH1 0x0 DUP1 REVERT JUMPDEST POP CALLDATALOAD SWAP2 SWAP1 POP JUMP JUMPDEST PUSH1 0x20 DUP1 DUP3 MSTORE DUP3 MLOAD DUP3 DUP3 ADD DUP2 SWAP1 MSTORE PUSH1 0x0 SWAP2 SWAP1 DUP5 DUP3 ADD SWAP1 PUSH1 0x40 DUP6 ADD SWAP1 DUP5 JUMPDEST DUP2 DUP2 LT ISZERO PUSH2 0x47F JUMPI DUP4 MLOAD PUSH1 0x1 PUSH1 0x1 PUSH1 0xA0 SHL SUB AND DUP4 MSTORE SWAP3 DUP5 ADD SWAP3 SWAP2 DUP5 ADD SWAP2 PUSH1 0x1 ADD PUSH2 0x45A JUMP JUMPDEST POP SWAP1 SWAP7 SWAP6 POP POP POP POP POP POP JUMP JUMPDEST PUSH1 0x1 PUSH1 0x1 PUSH1 0xA0 SHL SUB DUP2 AND DUP2 EQ PUSH2 0x36B JUMPI PUSH1 0x0 DUP1 REVERT JUMPDEST PUSH1 0x0 DUP1 PUSH1 0x0 DUP1 PUSH1 0x0 DUP1 PUSH1 0xC0 DUP8 DUP10 SUB SLT ISZERO PUSH2 0x4B9 JUMPI PUSH1 0x0 DUP1 REVERT JUMPDEST DUP7 CALLDATALOAD PUSH2 0x4C4 DUP2 PUSH2 0x48B JUMP JUMPDEST SWAP9 PUSH1 0x20 DUP9 ADD CALLDATALOAD SWAP9 POP PUSH1 0x40 DUP9 ADD CALLDATALOAD SWAP8 PUSH1 0x60 DUP2 ADD CALLDATALOAD SWAP8 POP PUSH1 0x80 DUP2 ADD CALLDATALOAD SWAP7 POP PUSH1 0xA0 ADD CALLDATALOAD SWAP5 POP SWAP3 POP POP POP JUMP JUMPDEST PUSH1 0x0 PUSH1 0x20 DUP3 DUP5 SUB SLT ISZERO PUSH2 0x4FE JUMPI PUSH1 0x0 DUP1 REVERT JUMPDEST DUP2 CALLDATALOAD PUSH2 0x509 DUP2 PUSH2 0x48B JUMP JUMPDEST SWAP4 SWAP3 POP POP POP JUMP INVALID PUSH1 0xE0 PUSH1 0x40 MSTORE PUSH2 0x302 PUSH1 0x5 SSTORE CALLVALUE DUP1 ISZERO PUSH2 0x16 JUMPI PUSH1 0x0 DUP1 REVERT JUMPDEST POP PUSH1 0x40 MLOAD PUSH2 0x6B2 CODESIZE SUB DUP1 PUSH2 0x6B2 DUP4 CODECOPY DUP2 ADD PUSH1 0x40 DUP2 SWAP1 MSTORE PUSH2 0x35 SWAP2 PUSH2 0x290 JUMP JUMPDEST PUSH1 0xA DUP7 LT DUP1 ISZERO PUSH2 0x45 JUMPI POP PUSH1 0x0 DUP7 GT JUMPDEST PUSH2 0xBC JUMPI PUSH1 0x40 MLOAD PUSH3 0x461BCD PUSH1 0xE5 SHL DUP2 MSTORE PUSH1 0x20 PUSH1 0x4 DUP3 ADD MSTORE PUSH1 0x34 PUSH1 0x24 DUP3 ADD MSTORE PUSH32 0x616D6F756E74206F6620736F6674206F66666572732063616E6E6F7420657863 PUSH1 0x44 DUP3 ADD MSTORE PUSH32 0x656564203130206F722062652062656C6F772030000000000000000000000000 PUSH1 0x64 DUP3 ADD MSTORE PUSH1 0x84 ADD JUMPDEST PUSH1 0x40 MLOAD DUP1 SWAP2 SUB SWAP1 REVERT JUMPDEST PUSH1 0xA DUP6 LT PUSH2 0x11B JUMPI PUSH1 0x40 MLOAD PUSH3 0x461BCD PUSH1 0xE5 SHL DUP2 MSTORE PUSH1 0x20 PUSH1 0x4 DUP3 ADD MSTORE PUSH1 0x26 PUSH1 0x24 DUP3 ADD MSTORE PUSH32 0x616D6F756E74206F66206669726D206F66666572732063616E6E6F7420657863 PUSH1 0x44 DUP3 ADD MSTORE PUSH6 0x65656420313 PUSH1 0xD4 SHL PUSH1 0x64 DUP3 ADD MSTORE PUSH1 0x84 ADD PUSH2 0xB3 JUMP JUMPDEST DUP8 PUSH1 0x1 PUSH1 0x1 PUSH1 0xA0 SHL SUB AND DUP8 PUSH1 0x1 PUSH1 0x1 PUSH1 0xA0 SHL SUB AND SUB PUSH2 0x1A2 JUMPI PUSH1 0x40 MLOAD PUSH3 0x461BCD PUSH1 0xE5 SHL DUP2 MSTORE PUSH1 0x20 PUSH1 0x4 DUP3 ADD MSTORE PUSH1 0x3A PUSH1 0x24 DUP3 ADD MSTORE PUSH32 0x4F70706F6E656E7420616464726573732063616E6E6F74206265207468652073 PUSH1 0x44 DUP3 ADD MSTORE PUSH32 0x616D65206173207468652063726561746F722061646472657373000000000000 PUSH1 0x64 DUP3 ADD MSTORE PUSH1 0x84 ADD PUSH2 0xB3 JUMP JUMPDEST PUSH1 0x0 DUP5 GT DUP1 ISZERO PUSH2 0x1B2 JUMPI POP PUSH1 0x28 DUP5 LT JUMPDEST PUSH2 0x1BB JUMPI PUSH1 0x0 DUP1 REVERT JUMPDEST PUSH1 0x0 DUP4 GT DUP1 ISZERO PUSH2 0x1CB JUMPI POP PUSH1 0x28 DUP4 LT JUMPDEST PUSH2 0x1D4 JUMPI PUSH1 0x0 DUP1 REVERT JUMPDEST PUSH1 0x0 DUP3 GT DUP1 ISZERO PUSH2 0x1E4 JUMPI POP PUSH1 0x14 DUP3 LT JUMPDEST PUSH2 0x242 JUMPI PUSH1 0x40 MLOAD PUSH3 0x461BCD PUSH1 0xE5 SHL DUP2 MSTORE PUSH1 0x20 PUSH1 0x4 DUP3 ADD MSTORE PUSH1 0x29 PUSH1 0x24 DUP3 ADD MSTORE PUSH32 0x70656E616C74792070657263656E74206D75737420626520696E2072616E6765 PUSH1 0x44 DUP3 ADD MSTORE PUSH9 0x206F6620302D313925 PUSH1 0xB8 SHL PUSH1 0x64 DUP3 ADD MSTORE PUSH1 0x84 ADD PUSH2 0xB3 JUMP JUMPDEST PUSH1 0x1 PUSH1 0x1 PUSH1 0xA0 SHL SUB SWAP8 DUP9 AND PUSH1 0x80 MSTORE SWAP6 DUP8 AND PUSH1 0xA0 MSTORE PUSH1 0x0 SWAP5 SWAP1 SWAP5 SSTORE PUSH1 0x1 SWAP3 SWAP1 SWAP3 SSTORE PUSH1 0x2 SSTORE PUSH1 0x3 SSTORE PUSH1 0x4 SSTORE AND PUSH1 0xC0 MSTORE PUSH2 0x304 JUMP JUMPDEST DUP1 MLOAD PUSH1 0x1 PUSH1 0x1 PUSH1 0xA0 SHL SUB DUP2 AND DUP2 EQ PUSH2 0x28B JUMPI PUSH1 0x0 DUP1 REVERT JUMPDEST SWAP2 SWAP1 POP JUMP JUMPDEST PUSH1 0x0 DUP1 PUSH1 0x0 DUP1 PUSH1 0x0 DUP1 PUSH1 0x0 DUP1 PUSH2 0x100 DUP10 DUP12 SUB SLT ISZERO PUSH2 0x2AD JUMPI PUSH1 0x0 DUP1 REVERT JUMPDEST PUSH2 0x2B6 DUP10 PUSH2 0x274 JUMP JUMPDEST SWAP8 POP PUSH2 0x2C4 PUSH1 0x20 DUP11 ADD PUSH2 0x274 JUMP JUMPDEST SWAP7 POP PUSH1 0x40 DUP10 ADD MLOAD SWAP6 POP PUSH1 0x60 DUP10 ADD MLOAD SWAP5 POP PUSH1 0x80 DUP10 ADD MLOAD SWAP4 POP PUSH1 0xA0 DUP10 ADD MLOAD SWAP3 POP PUSH1 0xC0 DUP10 ADD MLOAD SWAP2 POP PUSH2 0x2F5 PUSH1 0xE0 DUP11 ADD PUSH2 0x274 JUMP JUMPDEST SWAP1 POP SWAP3 SWAP6 SWAP9 POP SWAP3 SWAP6 SWAP9 SWAP1 SWAP4 SWAP7 POP JUMP JUMPDEST PUSH1 0x80 MLOAD PUSH1 0xA0 MLOAD PUSH1 0xC0 MLOAD PUSH2 0x379 PUSH2 0x339 PUSH1 0x0 CODECOPY PUSH1 0x0 PUSH2 0x104 ADD MSTORE PUSH1 0x0 DUP2 DUP2 PUSH2 0x12A ADD MSTORE PUSH2 0x192 ADD MSTORE PUSH1 0x0 PUSH1 0xC1 ADD MSTORE PUSH2 0x379 PUSH1 0x0 RETURN INVALID PUSH1 0x80 PUSH1 0x40 MSTORE CALLVALUE DUP1 ISZERO PUSH2 0x10 JUMPI PUSH1 0x0 DUP1 REVERT JUMPDEST POP PUSH1 0x4 CALLDATASIZE LT PUSH2 0x9E JUMPI PUSH1 0x0 CALLDATALOAD PUSH1 0xE0 SHR DUP1 PUSH4 0x41D07D8C GT PUSH2 0x66 JUMPI DUP1 PUSH4 0x41D07D8C EQ PUSH2 0x14E JUMPI DUP1 PUSH4 0x502EF5FF EQ PUSH2 0x157 JUMPI DUP1 PUSH4 0x5605C66D EQ PUSH2 0x160 JUMPI DUP1 PUSH4 0x5DDEE3AF EQ PUSH2 0x169 JUMPI DUP1 PUSH4 0x819E213D EQ PUSH2 0x17E JUMPI PUSH1 0x0 DUP1 REVERT JUMPDEST DUP1 PUSH4 0xCA99CB0 EQ PUSH2 0xA3 JUMPI DUP1 PUSH4 0xEE2CB10 EQ PUSH2 0xBF JUMPI DUP1 PUSH4 0x161BA46A EQ PUSH2 0xF9 JUMPI DUP1 PUSH4 0x332BDB5C EQ PUSH2 0x102 JUMPI DUP1 PUSH4 0x39580054 EQ PUSH2 0x128 JUMPI JUMPDEST PUSH1 0x0 DUP1 REVERT JUMPDEST PUSH2 0xAC PUSH1 0x5 SLOAD DUP2 JUMP JUMPDEST PUSH1 0x40 MLOAD SWAP1 DUP2 MSTORE PUSH1 0x20 ADD JUMPDEST PUSH1 0x40 MLOAD DUP1 SWAP2 SUB SWAP1 RETURN JUMPDEST PUSH32 0x0 JUMPDEST PUSH1 0x40 MLOAD PUSH1 0x1 PUSH1 0x1 PUSH1 0xA0 SHL SUB SWAP1 SWAP2 AND DUP2 MSTORE PUSH1 0x20 ADD PUSH2 0xB6 JUMP JUMPDEST PUSH2 0xAC PUSH1 0x4 SLOAD DUP2 JUMP JUMPDEST PUSH32 0x0 PUSH2 0xE1 JUMP JUMPDEST PUSH32 0x0 PUSH2 0xE1 JUMP JUMPDEST PUSH2 0xAC PUSH1 0x3 SLOAD DUP2 JUMP JUMPDEST PUSH2 0xAC PUSH1 0x2 SLOAD DUP2 JUMP JUMPDEST PUSH2 0xAC PUSH1 0x1 SLOAD DUP2 JUMP JUMPDEST PUSH2 0x17C PUSH2 0x177 CALLDATASIZE PUSH1 0x4 PUSH2 0x2AB JUMP JUMPDEST PUSH2 0x187 JUMP JUMPDEST STOP JUMPDEST PUSH2 0xAC PUSH1 0x0 SLOAD DUP2 JUMP JUMPDEST CALLER PUSH1 0x1 PUSH1 0x1 PUSH1 0xA0 SHL SUB PUSH32 0x0 AND EQ PUSH2 0x21E JUMPI PUSH1 0x40 MLOAD PUSH3 0x461BCD PUSH1 0xE5 SHL DUP2 MSTORE PUSH1 0x20 PUSH1 0x4 DUP3 ADD MSTORE PUSH1 0x32 PUSH1 0x24 DUP3 ADD MSTORE PUSH32 0x4F6E6C792074686520636F6E7472616374206F70706F6E656E742063616E2063 PUSH1 0x44 DUP3 ADD MSTORE PUSH18 0x30B636103A3434B990333AB731BA34B7B717 PUSH1 0x71 SHL PUSH1 0x64 DUP3 ADD MSTORE PUSH1 0x84 ADD PUSH1 0x40 MLOAD DUP1 SWAP2 SUB SWAP1 REVERT JUMPDEST DUP1 ISZERO ISZERO PUSH1 0x1 SUB PUSH2 0x249 JUMPI PUSH2 0x249 PUSH1 0x40 MLOAD DUP1 PUSH1 0x60 ADD PUSH1 0x40 MSTORE DUP1 PUSH1 0x21 DUP2 MSTORE PUSH1 0x20 ADD PUSH2 0x323 PUSH1 0x21 SWAP2 CODECOPY PUSH2 0x24C JUMP JUMPDEST POP JUMP JUMPDEST PUSH2 0x249 DUP2 PUSH1 0x40 MLOAD PUSH1 0x24 ADD PUSH2 0x260 SWAP2 SWAP1 PUSH2 0x2D4 JUMP JUMPDEST PUSH1 0x40 DUP1 MLOAD PUSH1 0x1F NOT DUP2 DUP5 SUB ADD DUP2 MSTORE SWAP2 SWAP1 MSTORE PUSH1 0x20 DUP2 ADD DUP1 MLOAD PUSH1 0x1 PUSH1 0x1 PUSH1 0xE0 SHL SUB AND PUSH4 0x104C13EB PUSH1 0xE2 SHL OR SWAP1 MSTORE DUP1 MLOAD PUSH11 0x636F6E736F6C652E6C6F67 PUSH1 0x20 DUP4 ADD PUSH1 0x0 DUP1 DUP5 DUP4 DUP6 GAS STATICCALL POP POP POP POP POP JUMP JUMPDEST PUSH1 0x0 PUSH1 0x20 DUP3 DUP5 SUB SLT ISZERO PUSH2 0x2BD JUMPI PUSH1 0x0 DUP1 REVERT JUMPDEST DUP2 CALLDATALOAD DUP1 ISZERO ISZERO DUP2 EQ PUSH2 0x2CD JUMPI PUSH1 0x0 DUP1 REVERT JUMPDEST SWAP4 SWAP3 POP POP POP JUMP JUMPDEST PUSH1 0x0 PUSH1 0x20 DUP1 DUP4 MSTORE DUP4 MLOAD DUP1 DUP3 DUP6 ADD MSTORE PUSH1 0x0 JUMPDEST DUP2 DUP2 LT ISZERO PUSH2 0x301 JUMPI DUP6 DUP2 ADD DUP4 ADD MLOAD DUP6 DUP3 ADD PUSH1 0x40 ADD MSTORE DUP3 ADD PUSH2 0x2E5 JUMP JUMPDEST POP PUSH1 0x0 PUSH1 0x40 DUP3 DUP7 ADD ADD MSTORE PUSH1 0x40 PUSH1 0x1F NOT PUSH1 0x1F DUP4 ADD AND DUP6 ADD ADD SWAP3 POP POP POP SWAP3 SWAP2 POP POP JUMP INVALID PUSH13 0x657473206D616B652061206E65 PUSH24 0x2073756D6D206E65676F74696174696F6E21A26469706673 PC 0x22 SLT KECCAK256 PUSH13 0xA482EFFB8E96E9481CBE8387C3 0x26 0xAF MSTORE JUMP PC 0xEE 0x25 PUSH1 0x9C 0x21 0xBB DUP14 0x4C DUP4 CALLVALUE 0xB5 PUSH19 0x4264736F6C63430008110033A2646970667358 0x22 SLT KECCAK256 SAR 0xE0 PUSH30 0xC44B1847208F544077C21205C7181C7D76A4041420521AD68779216B2964 PUSH20 0x6F6C634300081100330000000000000000000000 "
		},
		"gasEstimates": {
			"creation": {
				"codeDepositCost": "612800",
				"executionCost": "infinite",
				"totalCost": "infinite"
			},
			"external": {
				"changeSummFoundation(address)": "26751",
				"createSumm(address,uint256,uint256,uint256,uint256,uint256)": "infinite",
				"deployedSumms(uint256)": "4604",
				"getDeployedSumms()": "infinite",
				"owner()": "2364",
				"renounceOwnership()": "infinite",
				"transferOwnership(address)": "infinite"
			}
		},
		"methodIdentifiers": {
			"changeSummFoundation(address)": "80f77662",
			"createSumm(address,uint256,uint256,uint256,uint256,uint256)": "748b4765",
			"deployedSumms(uint256)": "163c993e",
			"getDeployedSumms()": "29baa46c",
			"owner()": "8da5cb5b",
			"renounceOwnership()": "715018a6",
			"transferOwnership(address)": "f2fde38b"
		}
	},
	"abi": [
		{
			"inputs": [
				{
					"internalType": "address payable",
					"name": "_summFoundation",
					"type": "address"
				}
			],
			"stateMutability": "nonpayable",
			"type": "constructor"
		},
		{
			"anonymous": false,
			"inputs": [
				{
					"indexed": true,
					"internalType": "address",
					"name": "_contractAddress",
					"type": "address"
				}
			],
			"name": "NewSumm",
			"type": "event"
		},
		{
			"anonymous": false,
			"inputs": [
				{
					"indexed": true,
					"internalType": "address",
					"name": "previousOwner",
					"type": "address"
				},
				{
					"indexed": true,
					"internalType": "address",
					"name": "newOwner",
					"type": "address"
				}
			],
			"name": "OwnershipTransferred",
			"type": "event"
		},
		{
			"inputs": [
				{
					"internalType": "address payable",
					"name": "_updatedSummFoundation",
					"type": "address"
				}
			],
			"name": "changeSummFoundation",
			"outputs": [],
			"stateMutability": "nonpayable",
			"type": "function"
		},
		{
			"inputs": [
				{
					"internalType": "address payable",
					"name": "_opponent",
					"type": "address"
				},
				{
					"internalType": "uint256",
					"name": "_softOffers",
					"type": "uint256"
				},
				{
					"internalType": "uint256",
					"name": "_firmOffers",
					"type": "uint256"
				},
				{
					"internalType": "uint256",
					"name": "_softRange",
					"type": "uint256"
				},
				{
					"internalType": "uint256",
					"name": "_firmRange",
					"type": "uint256"
				},
				{
					"internalType": "uint256",
					"name": "_penaltyPercent",
					"type": "uint256"
				}
			],
			"name": "createSumm",
			"outputs": [],
			"stateMutability": "nonpayable",
			"type": "function"
		},
		{
			"inputs": [
				{
					"internalType": "uint256",
					"name": "",
					"type": "uint256"
				}
			],
			"name": "deployedSumms",
			"outputs": [
				{
					"internalType": "address",
					"name": "",
					"type": "address"
				}
			],
			"stateMutability": "view",
			"type": "function"
		},
		{
			"inputs": [],
			"name": "getDeployedSumms",
			"outputs": [
				{
					"internalType": "address[]",
					"name": "",
					"type": "address[]"
				}
			],
			"stateMutability": "view",
			"type": "function"
		},
		{
			"inputs": [],
			"name": "owner",
			"outputs": [
				{
					"internalType": "address",
					"name": "",
					"type": "address"
				}
			],
			"stateMutability": "view",
			"type": "function"
		},
		{
			"inputs": [],
			"name": "renounceOwnership",
			"outputs": [],
			"stateMutability": "nonpayable",
			"type": "function"
		},
		{
			"inputs": [
				{
					"internalType": "address",
					"name": "newOwner",
					"type": "address"
				}
			],
			"name": "transferOwnership",
			"outputs": [],
			"stateMutability": "nonpayable",
			"type": "function"
		}
	]
}