{
	"data": {
		"bytecode": {
			"linkReferences": {},
			"object": "60806040526001600f60016101000a81548160ff0219169083151502179055503480156200002c57600080fd5b50604051620068e7380380620068e7833981810160405281019062000052919062000671565b806000806101000a81548173ffffffffffffffffffffffffffffffffffffffff021916908373ffffffffffffffffffffffffffffffffffffffff16021790555060008054906101000a900473ffffffffffffffffffffffffffffffffffffffff1673ffffffffffffffffffffffffffffffffffffffff16630ee2cb106040518163ffffffff1660e01b8152600401602060405180830381865afa158015620000fe573d6000803e3d6000fd5b505050506040513d601f19601f82011682018060405250810190620001249190620006e8565b600160006101000a81548173ffffffffffffffffffffffffffffffffffffffff021916908373ffffffffffffffffffffffffffffffffffffffff16021790555060008054906101000a900473ffffffffffffffffffffffffffffffffffffffff1673ffffffffffffffffffffffffffffffffffffffff1663395800546040518163ffffffff1660e01b8152600401602060405180830381865afa158015620001d0573d6000803e3d6000fd5b505050506040513d601f19601f82011682018060405250810190620001f69190620006e8565b600260006101000a81548173ffffffffffffffffffffffffffffffffffffffff021916908373ffffffffffffffffffffffffffffffffffffffff16021790555060008054906101000a900473ffffffffffffffffffffffffffffffffffffffff1673ffffffffffffffffffffffffffffffffffffffff1663819e213d6040518163ffffffff1660e01b8152600401602060405180830381865afa158015620002a2573d6000803e3d6000fd5b505050506040513d601f19601f82011682018060405250810190620002c8919062000755565b60058190555060008054906101000a900473ffffffffffffffffffffffffffffffffffffffff1673ffffffffffffffffffffffffffffffffffffffff16635605c66d6040518163ffffffff1660e01b8152600401602060405180830381865afa1580156200033a573d6000803e3d6000fd5b505050506040513d601f19601f8201168201806040525081019062000360919062000755565b60068190555060008054906101000a900473ffffffffffffffffffffffffffffffffffffffff1673ffffffffffffffffffffffffffffffffffffffff1663502ef5ff6040518163ffffffff1660e01b8152600401602060405180830381865afa158015620003d2573d6000803e3d6000fd5b505050506040513d601f19601f82011682018060405250810190620003f8919062000755565b60078190555060008054906101000a900473ffffffffffffffffffffffffffffffffffffffff1673ffffffffffffffffffffffffffffffffffffffff166341d07d8c6040518163ffffffff1660e01b8152600401602060405180830381865afa1580156200046a573d6000803e3d6000fd5b505050506040513d601f19601f8201168201806040525081019062000490919062000755565b60088190555060008054906101000a900473ffffffffffffffffffffffffffffffffffffffff1673ffffffffffffffffffffffffffffffffffffffff1663161ba46a6040518163ffffffff1660e01b8152600401602060405180830381865afa15801562000502573d6000803e3d6000fd5b505050506040513d601f19601f8201168201806040525081019062000528919062000755565b60098190555060008054906101000a900473ffffffffffffffffffffffffffffffffffffffff1673ffffffffffffffffffffffffffffffffffffffff1663332bdb5c6040518163ffffffff1660e01b8152600401602060405180830381865afa1580156200059a573d6000803e3d6000fd5b505050506040513d601f19601f82011682018060405250810190620005c09190620006e8565b600360006101000a81548173ffffffffffffffffffffffffffffffffffffffff021916908373ffffffffffffffffffffffffffffffffffffffff1602179055505062000787565b600080fd5b600073ffffffffffffffffffffffffffffffffffffffff82169050919050565b600062000639826200060c565b9050919050565b6200064b816200062c565b81146200065757600080fd5b50565b6000815190506200066b8162000640565b92915050565b6000602082840312156200068a576200068962000607565b5b60006200069a848285016200065a565b91505092915050565b6000620006b0826200060c565b9050919050565b620006c281620006a3565b8114620006ce57600080fd5b50565b600081519050620006e281620006b7565b92915050565b60006020828403121562000701576200070062000607565b5b60006200071184828501620006d1565b91505092915050565b6000819050919050565b6200072f816200071a565b81146200073b57600080fd5b50565b6000815190506200074f8162000724565b92915050565b6000602082840312156200076e576200076d62000607565b5b60006200077e848285016200073e565b91505092915050565b61615080620007976000396000f3fe6080604052600436106101b75760003560e01c80637516daa8116100ec578063959ec2a31161008a578063cd6e939b11610064578063cd6e939b1461054f578063d0e30db01461057b578063d191498814610585578063fa8dc8c9146105b0576101b7565b8063959ec2a3146104e4578063c71daccb1461050d578063cd323f3714610538576101b7565b80637fee0760116100c65780637fee07601461043c57806381276f3914610465578063819e213d1461048e57806393694f67146104b9576101b7565b80637516daa8146103f25780637754114c146104095780637d17c2cc14610413576101b7565b806341d07d8c116101595780636244df83116101335780636244df831461034e5780636821c00a1461037757806371d2ee6c146103a05780637466cd9e146103c9576101b7565b806341d07d8c146102cd578063502ef5ff146102f85780635605c66d14610323576101b7565b8063328beb0f11610195578063328beb0f1461021c5780633cc5fae3146102475780633f6fa655146102705780634051ddac1461029b576101b7565b8063017f19e1146101bc57806302d05d3f146101c6578063161ba46a146101f1575b600080fd5b6101c46105db565b005b3480156101d257600080fd5b506101db610b2a565b6040516101e89190614f9f565b60405180910390f35b3480156101fd57600080fd5b50610206610b50565b6040516102139190614fd3565b60405180910390f35b34801561022857600080fd5b50610231610b56565b60405161023e9190615009565b60405180910390f35b34801561025357600080fd5b5061026e60048036038101906102699190615055565b610b69565b005b34801561027c57600080fd5b50610285610d47565b6040516102929190615009565b60405180910390f35b3480156102a757600080fd5b506102b0610d5a565b6040516102c49897969594939291906150a3565b60405180910390f35b3480156102d957600080fd5b506102e2610de5565b6040516102ef9190614fd3565b60405180910390f35b34801561030457600080fd5b5061030d610deb565b60405161031a9190614fd3565b60405180910390f35b34801561032f57600080fd5b50610338610df1565b6040516103459190614fd3565b60405180910390f35b34801561035a57600080fd5b5061037560048036038101906103709190615055565b610df7565b005b34801561038357600080fd5b5061039e60048036038101906103999190615055565b611354565b005b3480156103ac57600080fd5b506103c760048036038101906103c29190615055565b61176e565b005b3480156103d557600080fd5b506103f060048036038101906103eb9190615055565b611e2c565b005b3480156103fe57600080fd5b5061040761200c565b005b610411612612565b005b34801561041f57600080fd5b5061043a6004803603810190610435919061514d565b612b61565b005b34801561044857600080fd5b50610463600480360381019061045e919061514d565b61307d565b005b34801561047157600080fd5b5061048c60048036038101906104879190615055565b613599565b005b34801561049a57600080fd5b506104a3613a28565b6040516104b09190614fd3565b60405180910390f35b3480156104c557600080fd5b506104ce613a2e565b6040516104db9190614f9f565b60405180910390f35b3480156104f057600080fd5b5061050b60048036038101906105069190615055565b613a54565b005b34801561051957600080fd5b50610522613e54565b60405161052f9190614fd3565b60405180910390f35b34801561054457600080fd5b5061054d613e9b565b005b34801561055b57600080fd5b50610564614112565b60405161057292919061517a565b60405180910390f35b610583614151565b005b34801561059157600080fd5b5061059a6141a9565b6040516105a79190614fd3565b60405180910390f35b3480156105bc57600080fd5b506105c56141af565b6040516105d29190614fd3565b60405180910390f35b600260009054906101000a900473ffffffffffffffffffffffffffffffffffffffff1673ffffffffffffffffffffffffffffffffffffffff163373ffffffffffffffffffffffffffffffffffffffff161461066b576040517f08c379a000000000000000000000000000000000000000000000000000000000815260040161066290615226565b60405180910390fd5b6011546010541461067b57600080fd5b60011515601b60016011546106909190615275565b815481106106a1576106a06152a9565b5b906000526020600020906003020160020160009054906101000a900460ff161515148015610713575060011515601c60016010546106df9190615275565b815481106106f0576106ef6152a9565b5b906000526020600020906003020160020160009054906101000a900460ff161515145b61071c57600080fd5b60001515600f60009054906101000a900460ff1615151461073c57600080fd5b60011515600f60019054906101000a900460ff1615151461075c57600080fd5b60011515601c60016010546107719190615275565b81548110610782576107816152a9565b5b906000526020600020906003020160020160019054906101000a900460ff16151503610a1f5760145460046000600160009054906101000a900473ffffffffffffffffffffffffffffffffffffffff1673ffffffffffffffffffffffffffffffffffffffff1673ffffffffffffffffffffffffffffffffffffffff16815260200190815260200160002054101561084e576040517f08c379a00000000000000000000000000000000000000000000000000000000081526004016108459061534a565b60405180910390fd5b6001601b60016011546108619190615275565b81548110610872576108716152a9565b5b906000526020600020906003020160020160016101000a81548160ff02191690831515021790555060145460046000600160009054906101000a900473ffffffffffffffffffffffffffffffffffffffff1673ffffffffffffffffffffffffffffffffffffffff1673ffffffffffffffffffffffffffffffffffffffff168152602001908152602001600020600082825461090d9190615275565b9250508190555060145460046000600260009054906101000a900473ffffffffffffffffffffffffffffffffffffffff1673ffffffffffffffffffffffffffffffffffffffff1673ffffffffffffffffffffffffffffffffffffffff1681526020019081526020016000206000828254610987919061536a565b925050819055506001600f60006101000a81548160ff0219169083151502179055507f8feca716e5fea360264e5a7ebbcfcb8e1c9d84cda200174d4d35bd097df46278600260009054906101000a900473ffffffffffffffffffffffffffffffffffffffff166001601454600f60009054906101000a900460ff16604051610a1294939291906153fd565b60405180910390a1610b28565b60001515601c6001601054610a349190615275565b81548110610a4557610a446152a9565b5b906000526020600020906003020160020160019054906101000a900460ff16151503610b27576001601b6001601154610a7e9190615275565b81548110610a8f57610a8e6152a9565b5b906000526020600020906003020160020160016101000a81548160ff0219169083151502179055507f8feca716e5fea360264e5a7ebbcfcb8e1c9d84cda200174d4d35bd097df46278600260009054906101000a900473ffffffffffffffffffffffffffffffffffffffff16600080600f60009054906101000a900460ff16604051610b1e949392919061547d565b60405180910390a15b5b565b600160009054906101000a900473ffffffffffffffffffffffffffffffffffffffff1681565b60095481565b600f60019054906101000a900460ff1681565b600160009054906101000a900473ffffffffffffffffffffffffffffffffffffffff1673ffffffffffffffffffffffffffffffffffffffff163373ffffffffffffffffffffffffffffffffffffffff1614610bf9576040517f08c379a0000000000000000000000000000000000000000000000000000000008152600401610bf090615534565b60405180910390fd5b60001515600f60009054906101000a900460ff16151514610c1957600080fd5b6000601254118015610c2d57506000601354115b610c3657600080fd5b60001515601660009054906101000a900460ff16151514610c5657600080fd5b8060046000600160009054906101000a900473ffffffffffffffffffffffffffffffffffffffff1673ffffffffffffffffffffffffffffffffffffffff1673ffffffffffffffffffffffffffffffffffffffff168152602001908152602001600020541015610cc457600080fd5b806017819055506001601660006101000a81548160ff0219169083151502179055507fd017961242243731f971165fc8b11c9fd116c66e304166ae93fa6c45ab88cf8a600160009054906101000a900473ffffffffffffffffffffffffffffffffffffffff16600183604051610d3c93929190615554565b60405180910390a150565b600f60009054906101000a900460ff1681565b600080600080600080600080600554600654600160009054906101000a900473ffffffffffffffffffffffffffffffffffffffff16600260009054906101000a900473ffffffffffffffffffffffffffffffffffffffff16600754600854600954600f60009054906101000a900460ff16975097509750975097509750975097509091929394959697565b60085481565b60075481565b60065481565b600160009054906101000a900473ffffffffffffffffffffffffffffffffffffffff1673ffffffffffffffffffffffffffffffffffffffff163373ffffffffffffffffffffffffffffffffffffffff1614610e87576040517f08c379a0000000000000000000000000000000000000000000000000000000008152600401610e7e90615534565b60405180910390fd5b60011515600f60019054906101000a900460ff16151514610ea757600080fd5b600060c860075483610eb9919061558b565b610ec391906155fc565b905060055460105410610f0b576040517f08c379a0000000000000000000000000000000000000000000000000000000008152600401610f029061569f565b60405180910390fd5b8082610f17919061536a565b60046000600160009054906101000a900473ffffffffffffffffffffffffffffffffffffffff1673ffffffffffffffffffffffffffffffffffffffff1673ffffffffffffffffffffffffffffffffffffffff168152602001908152602001600020541015610fba576040517f08c379a0000000000000000000000000000000000000000000000000000000008152600401610fb190615731565b60405180910390fd5b60008211610fc757600080fd5b60106000815480929190610fda90615751565b9190505550601154601054148061100057506011546001601054610ffe9190615275565b145b61103f576040517f08c379a000000000000000000000000000000000000000000000000000000000815260040161103690615831565b60405180910390fd5b600060405180608001604052808481526020016010548152602001600115158152602001600015158152509050600160055411801561108057506001601054145b1561112757601c819080600181540180825580915050600190039060005260206000209060030201600090919091909150600082015181600001556020820151816001015560408201518160020160006101000a81548160ff02191690831515021790555060608201518160020160016101000a81548160ff02191690831515021790555050506001600a60006101000a81548160ff0219169083151502179055506111c3565b82600b6000828254611139919061536a565b92505081905550601c819080600181540180825580915050600190039060005260206000209060030201600090919091909150600082015181600001556020820151816001015560408201518160020160006101000a81548160ff02191690831515021790555060608201518160020160016101000a81548160ff02191690831515021790555050505b6005546010541480156111d95750600554601154145b15611225576111ec600b54600c546141b5565b7fc1e80c6033b9a1cdb8b51042a43af8aa76b052e2338cb9cd55b96fbd34dab7ee600160405161121c9190615009565b60405180910390a15b60115460105414801561127c575060011515601b60016011546112489190615275565b81548110611259576112586152a9565b5b906000526020600020906003020160020160009054906101000a900460ff161515145b156112ee57611289614291565b7f011a479e5c2928166a4647520babf75193c4e51630fb980fad7d4a30e0cc1670600160009054906101000a900473ffffffffffffffffffffffffffffffffffffffff1660105460016040516112e193929190615851565b60405180910390a161134f565b7f011a479e5c2928166a4647520babf75193c4e51630fb980fad7d4a30e0cc1670600160009054906101000a900473ffffffffffffffffffffffffffffffffffffffff16601054600060405161134693929190615851565b60405180910390a15b505050565b600160009054906101000a900473ffffffffffffffffffffffffffffffffffffffff1673ffffffffffffffffffffffffffffffffffffffff163373ffffffffffffffffffffffffffffffffffffffff16146113e4576040517f08c379a00000000000000000000000000000000000000000000000000000000081526004016113db90615534565b60405180910390fd5b60001515600f60009054906101000a900460ff1615151461140457600080fd5b6006546012541061144a576040517f08c379a0000000000000000000000000000000000000000000000000000000008152600401611441906158fa565b60405180910390fd5b600060c86008548361145c919061558b565b61146691906155fc565b905060008183611476919061536a565b905080600460003373ffffffffffffffffffffffffffffffffffffffff1673ffffffffffffffffffffffffffffffffffffffff1681526020019081526020016000205410156114fa576040517f08c379a00000000000000000000000000000000000000000000000000000000081526004016114f190615731565b60405180910390fd5b6000600d541161153f576040517f08c379a00000000000000000000000000000000000000000000000000000000081526004016115369061598c565b60405180910390fd5b6012600081548092919061155290615751565b91905055506013546012541480611578575060135460016012546115769190615275565b145b6115b7576040517f08c379a00000000000000000000000000000000000000000000000000000000081526004016115ae90615831565b60405180910390fd5b600060405180606001604052808581526020016012548152602001600115158152509050601e819080600181540180825580915050600190039060005260206000209060030201600090919091909150600082015181600001556020820151816001015560408201518160020160006101000a81548160ff0219169083151502179055505050601354601254148015611694575060011515601d60016013546116609190615275565b81548110611671576116706152a9565b5b906000526020600020906003020160020160009054906101000a900460ff161515145b15611707576116a282614555565b7ff9fb9a700f03ea52a997d8c4bcbf294fa6ae49c94181b559b1c14326093daccb600160009054906101000a900473ffffffffffffffffffffffffffffffffffffffff1660125460016040516116fa93929190615851565b60405180910390a1611768565b7ff9fb9a700f03ea52a997d8c4bcbf294fa6ae49c94181b559b1c14326093daccb600160009054906101000a900473ffffffffffffffffffffffffffffffffffffffff16601254600060405161175f93929190615851565b60405180910390a15b50505050565b600160009054906101000a900473ffffffffffffffffffffffffffffffffffffffff1673ffffffffffffffffffffffffffffffffffffffff163373ffffffffffffffffffffffffffffffffffffffff161480156117de575060011515601660009054906101000a900460ff161515145b80156117fd575060001515601860009054906101000a900460ff161515145b15611a3b57600e5481611810919061536a565b60046000600160009054906101000a900473ffffffffffffffffffffffffffffffffffffffff1673ffffffffffffffffffffffffffffffffffffffff1673ffffffffffffffffffffffffffffffffffffffff1681526020019081526020016000205410156118b3576040517f08c379a00000000000000000000000000000000000000000000000000000000081526004016118aa90615a1e565b60405180910390fd5b600e54816118c1919061536a565b60046000600160009054906101000a900473ffffffffffffffffffffffffffffffffffffffff1673ffffffffffffffffffffffffffffffffffffffff1673ffffffffffffffffffffffffffffffffffffffff16815260200190815260200160002060008282546119319190615275565b92505081905550600e5460046000600360009054906101000a900473ffffffffffffffffffffffffffffffffffffffff1673ffffffffffffffffffffffffffffffffffffffff1673ffffffffffffffffffffffffffffffffffffffff16815260200190815260200160002060008282546119ab919061536a565b92505081905550600160009054906101000a900473ffffffffffffffffffffffffffffffffffffffff1673ffffffffffffffffffffffffffffffffffffffff166108fc829081150290604051600060405180830381858888f19350505050158015611a1a573d6000803e3d6000fd5b506001601860006101000a81548160ff021916908315150217905550611e29565b600260009054906101000a900473ffffffffffffffffffffffffffffffffffffffff1673ffffffffffffffffffffffffffffffffffffffff163373ffffffffffffffffffffffffffffffffffffffff16148015611aab575060011515601860019054906101000a900460ff161515145b8015611aca575060001515601a60009054906101000a900460ff161515145b15611d0857600e5481611add919061536a565b60046000600260009054906101000a900473ffffffffffffffffffffffffffffffffffffffff1673ffffffffffffffffffffffffffffffffffffffff1673ffffffffffffffffffffffffffffffffffffffff168152602001908152602001600020541015611b80576040517f08c379a0000000000000000000000000000000000000000000000000000000008152600401611b7790615a1e565b60405180910390fd5b600e5481611b8e919061536a565b60046000600260009054906101000a900473ffffffffffffffffffffffffffffffffffffffff1673ffffffffffffffffffffffffffffffffffffffff1673ffffffffffffffffffffffffffffffffffffffff1681526020019081526020016000206000828254611bfe9190615275565b92505081905550600e5460046000600360009054906101000a900473ffffffffffffffffffffffffffffffffffffffff1673ffffffffffffffffffffffffffffffffffffffff1673ffffffffffffffffffffffffffffffffffffffff1681526020019081526020016000206000828254611c78919061536a565b92505081905550600260009054906101000a900473ffffffffffffffffffffffffffffffffffffffff1673ffffffffffffffffffffffffffffffffffffffff166108fc829081150290604051600060405180830381858888f19350505050158015611ce7573d6000803e3d6000fd5b506001601a60006101000a81548160ff021916908315150217905550611e28565b600460003373ffffffffffffffffffffffffffffffffffffffff1673ffffffffffffffffffffffffffffffffffffffff16815260200190815260200160002054811115611d8a576040517f08c379a0000000000000000000000000000000000000000000000000000000008152600401611d8190615a8a565b60405180910390fd5b80600460003373ffffffffffffffffffffffffffffffffffffffff1673ffffffffffffffffffffffffffffffffffffffff1681526020019081526020016000206000828254611dd99190615275565b925050819055503373ffffffffffffffffffffffffffffffffffffffff166108fc829081150290604051600060405180830381858888f19350505050158015611e26573d6000803e3d6000fd5b505b5b50565b600260009054906101000a900473ffffffffffffffffffffffffffffffffffffffff1673ffffffffffffffffffffffffffffffffffffffff163373ffffffffffffffffffffffffffffffffffffffff1614611ebc576040517f08c379a0000000000000000000000000000000000000000000000000000000008152600401611eb390615226565b60405180910390fd5b60001515600f60009054906101000a900460ff16151514611edc57600080fd5b6000601254118015611ef057506000601354115b611ef957600080fd5b60001515601860019054906101000a900460ff16151514611f1957600080fd5b600e5460046000600160009054906101000a900473ffffffffffffffffffffffffffffffffffffffff1673ffffffffffffffffffffffffffffffffffffffff1673ffffffffffffffffffffffffffffffffffffffff168152602001908152602001600020541015611f8957600080fd5b806019819055506001601860016101000a81548160ff0219169083151502179055507fd017961242243731f971165fc8b11c9fd116c66e304166ae93fa6c45ab88cf8a600260009054906101000a900473ffffffffffffffffffffffffffffffffffffffff1660018360405161200193929190615554565b60405180910390a150565b600160009054906101000a900473ffffffffffffffffffffffffffffffffffffffff1673ffffffffffffffffffffffffffffffffffffffff163373ffffffffffffffffffffffffffffffffffffffff1614801561207c575060011515601660009054906101000a900460ff161515145b801561209b575060001515601860009054906101000a900460ff161515145b1561229c576000600e5460046000600160009054906101000a900473ffffffffffffffffffffffffffffffffffffffff1673ffffffffffffffffffffffffffffffffffffffff1673ffffffffffffffffffffffffffffffffffffffff168152602001908152602001600020546121119190615275565b9050600e5481612121919061536a565b60046000600160009054906101000a900473ffffffffffffffffffffffffffffffffffffffff1673ffffffffffffffffffffffffffffffffffffffff1673ffffffffffffffffffffffffffffffffffffffff16815260200190815260200160002060008282546121919190615275565b92505081905550600e5460046000600360009054906101000a900473ffffffffffffffffffffffffffffffffffffffff1673ffffffffffffffffffffffffffffffffffffffff1673ffffffffffffffffffffffffffffffffffffffff168152602001908152602001600020600082825461220b919061536a565b92505081905550600160009054906101000a900473ffffffffffffffffffffffffffffffffffffffff1673ffffffffffffffffffffffffffffffffffffffff166108fc829081150290604051600060405180830381858888f1935050505015801561227a573d6000803e3d6000fd5b506001601860006101000a81548160ff02191690831515021790555050612610565b600260009054906101000a900473ffffffffffffffffffffffffffffffffffffffff1673ffffffffffffffffffffffffffffffffffffffff163373ffffffffffffffffffffffffffffffffffffffff1614801561230c575060011515601860019054906101000a900460ff161515145b801561232b575060001515601a60009054906101000a900460ff161515145b1561252c576000600e5460046000600260009054906101000a900473ffffffffffffffffffffffffffffffffffffffff1673ffffffffffffffffffffffffffffffffffffffff1673ffffffffffffffffffffffffffffffffffffffff168152602001908152602001600020546123a19190615275565b9050600e54816123b1919061536a565b60046000600260009054906101000a900473ffffffffffffffffffffffffffffffffffffffff1673ffffffffffffffffffffffffffffffffffffffff1673ffffffffffffffffffffffffffffffffffffffff16815260200190815260200160002060008282546124219190615275565b92505081905550600e5460046000600360009054906101000a900473ffffffffffffffffffffffffffffffffffffffff1673ffffffffffffffffffffffffffffffffffffffff1673ffffffffffffffffffffffffffffffffffffffff168152602001908152602001600020600082825461249b919061536a565b92505081905550600260009054906101000a900473ffffffffffffffffffffffffffffffffffffffff1673ffffffffffffffffffffffffffffffffffffffff166108fc829081150290604051600060405180830381858888f1935050505015801561250a573d6000803e3d6000fd5b506001601a60006101000a81548160ff0219169083151502179055505061260f565b6000600460003373ffffffffffffffffffffffffffffffffffffffff1673ffffffffffffffffffffffffffffffffffffffff16815260200190815260200160002054905080600460003373ffffffffffffffffffffffffffffffffffffffff1673ffffffffffffffffffffffffffffffffffffffff16815260200190815260200160002060008282546125bf9190615275565b925050819055503373ffffffffffffffffffffffffffffffffffffffff166108fc829081150290604051600060405180830381858888f1935050505015801561260c573d6000803e3d6000fd5b50505b5b565b600160009054906101000a900473ffffffffffffffffffffffffffffffffffffffff1673ffffffffffffffffffffffffffffffffffffffff163373ffffffffffffffffffffffffffffffffffffffff16146126a2576040517f08c379a000000000000000000000000000000000000000000000000000000000815260040161269990615534565b60405180910390fd5b601154601054146126b257600080fd5b60011515601b60016011546126c79190615275565b815481106126d8576126d76152a9565b5b906000526020600020906003020160020160009054906101000a900460ff16151514801561274a575060011515601c60016010546127169190615275565b81548110612727576127266152a9565b5b906000526020600020906003020160020160009054906101000a900460ff161515145b61275357600080fd5b60001515600f60009054906101000a900460ff1615151461277357600080fd5b60011515600f60019054906101000a900460ff1615151461279357600080fd5b60011515601b60016011546127a89190615275565b815481106127b9576127b86152a9565b5b906000526020600020906003020160020160019054906101000a900460ff16151503612a565760145460046000600160009054906101000a900473ffffffffffffffffffffffffffffffffffffffff1673ffffffffffffffffffffffffffffffffffffffff1673ffffffffffffffffffffffffffffffffffffffff168152602001908152602001600020541015612885576040517f08c379a000000000000000000000000000000000000000000000000000000000815260040161287c90615a8a565b60405180910390fd5b6001601c60016010546128989190615275565b815481106128a9576128a86152a9565b5b906000526020600020906003020160020160016101000a81548160ff02191690831515021790555060145460046000600160009054906101000a900473ffffffffffffffffffffffffffffffffffffffff1673ffffffffffffffffffffffffffffffffffffffff1673ffffffffffffffffffffffffffffffffffffffff16815260200190815260200160002060008282546129449190615275565b9250508190555060145460046000600260009054906101000a900473ffffffffffffffffffffffffffffffffffffffff1673ffffffffffffffffffffffffffffffffffffffff1673ffffffffffffffffffffffffffffffffffffffff16815260200190815260200160002060008282546129be919061536a565b925050819055506001600f60006101000a81548160ff0219169083151502179055507f8feca716e5fea360264e5a7ebbcfcb8e1c9d84cda200174d4d35bd097df46278600160009054906101000a900473ffffffffffffffffffffffffffffffffffffffff166001601454600f60009054906101000a900460ff16604051612a4994939291906153fd565b60405180910390a1612b5f565b60001515601b6001601154612a6b9190615275565b81548110612a7c57612a7b6152a9565b5b906000526020600020906003020160020160019054906101000a900460ff16151503612b5e576001601c6001601054612ab59190615275565b81548110612ac657612ac56152a9565b5b906000526020600020906003020160020160016101000a81548160ff0219169083151502179055507f8feca716e5fea360264e5a7ebbcfcb8e1c9d84cda200174d4d35bd097df46278600160009054906101000a900473ffffffffffffffffffffffffffffffffffffffff16600080600f60009054906101000a900460ff16604051612b55949392919061547d565b60405180910390a15b5b565b600260009054906101000a900473ffffffffffffffffffffffffffffffffffffffff1673ffffffffffffffffffffffffffffffffffffffff163373ffffffffffffffffffffffffffffffffffffffff1614612bf1576040517f08c379a0000000000000000000000000000000000000000000000000000000008152600401612be890615226565b60405180910390fd5b60001515600f60009054906101000a900460ff16151514612c1157600080fd5b6000601254118015612c2557506000601354115b612c2e57600080fd5b60011515601660009054906101000a900460ff16151514612c4e57600080fd5b6001151581151503612e8f5760175460046000600160009054906101000a900473ffffffffffffffffffffffffffffffffffffffff1673ffffffffffffffffffffffffffffffffffffffff1673ffffffffffffffffffffffffffffffffffffffff168152602001908152602001600020541015612d00576040517f08c379a0000000000000000000000000000000000000000000000000000000008152600401612cf790615b42565b60405180910390fd5b60175460046000600160009054906101000a900473ffffffffffffffffffffffffffffffffffffffff1673ffffffffffffffffffffffffffffffffffffffff1673ffffffffffffffffffffffffffffffffffffffff1681526020019081526020016000206000828254612d739190615275565b9250508190555060175460046000600260009054906101000a900473ffffffffffffffffffffffffffffffffffffffff1673ffffffffffffffffffffffffffffffffffffffff1673ffffffffffffffffffffffffffffffffffffffff1681526020019081526020016000206000828254612ded919061536a565b925050819055506001600f60006101000a81548160ff0219169083151502179055506001601860006101000a81548160ff0219169083151502179055507f890481cd9db95d3733900dad3f3203ffe7f4d58ab29091cc1a5bb52c2affbcaf600260009054906101000a900473ffffffffffffffffffffffffffffffffffffffff166001601754604051612e8293929190615554565b60405180910390a161307a565b600015158115150361307957600e5460046000600160009054906101000a900473ffffffffffffffffffffffffffffffffffffffff1673ffffffffffffffffffffffffffffffffffffffff1673ffffffffffffffffffffffffffffffffffffffff168152602001908152602001600020541015612f0b57600080fd5b600e5460046000600160009054906101000a900473ffffffffffffffffffffffffffffffffffffffff1673ffffffffffffffffffffffffffffffffffffffff1673ffffffffffffffffffffffffffffffffffffffff1681526020019081526020016000206000828254612f7e9190615275565b92505081905550600e5460046000600360009054906101000a900473ffffffffffffffffffffffffffffffffffffffff1673ffffffffffffffffffffffffffffffffffffffff1673ffffffffffffffffffffffffffffffffffffffff1681526020019081526020016000206000828254612ff8919061536a565b925050819055506001601860006101000a81548160ff0219169083151502179055507f890481cd9db95d3733900dad3f3203ffe7f4d58ab29091cc1a5bb52c2affbcaf600260009054906101000a900473ffffffffffffffffffffffffffffffffffffffff1660008060405161307093929190615b62565b60405180910390a15b5b50565b600160009054906101000a900473ffffffffffffffffffffffffffffffffffffffff1673ffffffffffffffffffffffffffffffffffffffff163373ffffffffffffffffffffffffffffffffffffffff161461310d576040517f08c379a000000000000000000000000000000000000000000000000000000000815260040161310490615534565b60405180910390fd5b60001515600f60009054906101000a900460ff1615151461312d57600080fd5b600060125411801561314157506000601354115b61314a57600080fd5b60011515601860019054906101000a900460ff1615151461316a57600080fd5b60011515811515036133ab5760195460046000600160009054906101000a900473ffffffffffffffffffffffffffffffffffffffff1673ffffffffffffffffffffffffffffffffffffffff1673ffffffffffffffffffffffffffffffffffffffff16815260200190815260200160002054101561321c576040517f08c379a000000000000000000000000000000000000000000000000000000000815260040161321390615c0b565b60405180910390fd5b60195460046000600160009054906101000a900473ffffffffffffffffffffffffffffffffffffffff1673ffffffffffffffffffffffffffffffffffffffff1673ffffffffffffffffffffffffffffffffffffffff168152602001908152602001600020600082825461328f9190615275565b9250508190555060195460046000600260009054906101000a900473ffffffffffffffffffffffffffffffffffffffff1673ffffffffffffffffffffffffffffffffffffffff1673ffffffffffffffffffffffffffffffffffffffff1681526020019081526020016000206000828254613309919061536a565b925050819055506001600f60006101000a81548160ff0219169083151502179055506001601a60006101000a81548160ff0219169083151502179055507f890481cd9db95d3733900dad3f3203ffe7f4d58ab29091cc1a5bb52c2affbcaf600160009054906101000a900473ffffffffffffffffffffffffffffffffffffffff16600160195460405161339e93929190615554565b60405180910390a1613596565b600015158115150361359557600e5460046000600260009054906101000a900473ffffffffffffffffffffffffffffffffffffffff1673ffffffffffffffffffffffffffffffffffffffff1673ffffffffffffffffffffffffffffffffffffffff16815260200190815260200160002054101561342757600080fd5b600e5460046000600260009054906101000a900473ffffffffffffffffffffffffffffffffffffffff1673ffffffffffffffffffffffffffffffffffffffff1673ffffffffffffffffffffffffffffffffffffffff168152602001908152602001600020600082825461349a9190615275565b92505081905550600e5460046000600360009054906101000a900473ffffffffffffffffffffffffffffffffffffffff1673ffffffffffffffffffffffffffffffffffffffff1673ffffffffffffffffffffffffffffffffffffffff1681526020019081526020016000206000828254613514919061536a565b925050819055506001601a60006101000a81548160ff0219169083151502179055507f890481cd9db95d3733900dad3f3203ffe7f4d58ab29091cc1a5bb52c2affbcaf600160009054906101000a900473ffffffffffffffffffffffffffffffffffffffff1660008060405161358c93929190615b62565b60405180910390a15b5b50565b600260009054906101000a900473ffffffffffffffffffffffffffffffffffffffff1673ffffffffffffffffffffffffffffffffffffffff163373ffffffffffffffffffffffffffffffffffffffff1614613629576040517f08c379a000000000000000000000000000000000000000000000000000000000815260040161362090615226565b60405180910390fd5b60011515600f60019054906101000a900460ff1615151461364957600080fd5b6000811161365657600080fd5b6005546011541061369c576040517f08c379a00000000000000000000000000000000000000000000000000000000081526004016136939061569f565b60405180910390fd5b601160008154809291906136af90615751565b919050555060105460115414806136d5575060105460016011546136d39190615275565b145b613714576040517f08c379a000000000000000000000000000000000000000000000000000000000815260040161370b90615cc3565b60405180910390fd5b600060405180608001604052808381526020016011548152602001600115158152602001600015158152509050600160055411801561375557506001601154145b156137fc57601b819080600181540180825580915050600190039060005260206000209060030201600090919091909150600082015181600001556020820151816001015560408201518160020160006101000a81548160ff02191690831515021790555060608201518160020160016101000a81548160ff02191690831515021790555050506001600a60006101000a81548160ff021916908315150217905550613898565b81600c600082825461380e919061536a565b92505081905550601b819080600181540180825580915050600190039060005260206000209060030201600090919091909150600082015181600001556020820151816001015560408201518160020160006101000a81548160ff02191690831515021790555060608201518160020160016101000a81548160ff02191690831515021790555050505b6005546010541480156138ae5750600554601154145b156138fa576138c1600b54600c546141b5565b7fc1e80c6033b9a1cdb8b51042a43af8aa76b052e2338cb9cd55b96fbd34dab7ee60016040516138f19190615009565b60405180910390a15b601154601054148015613951575060011515601c600160105461391d9190615275565b8154811061392e5761392d6152a9565b5b906000526020600020906003020160020160009054906101000a900460ff161515145b156139c35761395e614291565b7f011a479e5c2928166a4647520babf75193c4e51630fb980fad7d4a30e0cc1670600260009054906101000a900473ffffffffffffffffffffffffffffffffffffffff1660115460016040516139b693929190615851565b60405180910390a1613a24565b7f011a479e5c2928166a4647520babf75193c4e51630fb980fad7d4a30e0cc1670600260009054906101000a900473ffffffffffffffffffffffffffffffffffffffff166011546000604051613a1b93929190615851565b60405180910390a15b5050565b60055481565b600260009054906101000a900473ffffffffffffffffffffffffffffffffffffffff1681565b600260009054906101000a900473ffffffffffffffffffffffffffffffffffffffff1673ffffffffffffffffffffffffffffffffffffffff163373ffffffffffffffffffffffffffffffffffffffff1614613ae4576040517f08c379a0000000000000000000000000000000000000000000000000000000008152600401613adb90615226565b60405180910390fd5b60001515600f60009054906101000a900460ff16151514613b0457600080fd5b6006546013541115613b1557600080fd5b600e54600460003373ffffffffffffffffffffffffffffffffffffffff1673ffffffffffffffffffffffffffffffffffffffff168152602001908152602001600020541015613b99576040517f08c379a0000000000000000000000000000000000000000000000000000000008152600401613b9090615d55565b60405180910390fd5b6000600d5411613bde576040517f08c379a0000000000000000000000000000000000000000000000000000000008152600401613bd59061598c565b60405180910390fd5b6006546013541115613c25576040517f08c379a0000000000000000000000000000000000000000000000000000000008152600401613c1c906158fa565b60405180910390fd5b60136000815480929190613c3890615751565b91905055506012546013541480613c5e57506012546001601354613c5c9190615275565b145b613c9d576040517f08c379a0000000000000000000000000000000000000000000000000000000008152600401613c9490615831565b60405180910390fd5b600060405180606001604052808381526020016013548152602001600115158152509050601d819080600181540180825580915050600190039060005260206000209060030201600090919091909150600082015181600001556020820151816001015560408201518160020160006101000a81548160ff0219169083151502179055505050601254601354148015613d7a575060011515601d6001601254613d469190615275565b81548110613d5757613d566152a9565b5b906000526020600020906003020160020160009054906101000a900460ff161515145b15613def57613d8a600e54614555565b7ff9fb9a700f03ea52a997d8c4bcbf294fa6ae49c94181b559b1c14326093daccb600260009054906101000a900473ffffffffffffffffffffffffffffffffffffffff166013546001604051613de293929190615851565b60405180910390a1613e50565b7ff9fb9a700f03ea52a997d8c4bcbf294fa6ae49c94181b559b1c14326093daccb600260009054906101000a900473ffffffffffffffffffffffffffffffffffffffff166013546000604051613e4793929190615851565b60405180910390a15b5050565b6000600460003373ffffffffffffffffffffffffffffffffffffffff1673ffffffffffffffffffffffffffffffffffffffff16815260200190815260200160002054905090565b60115460105414613eab57600080fd5b60011515601b6001601154613ec09190615275565b81548110613ed157613ed06152a9565b5b906000526020600020906003020160020160009054906101000a900460ff161515148015613f43575060011515601c6001601054613f0f9190615275565b81548110613f2057613f1f6152a9565b5b906000526020600020906003020160020160009054906101000a900460ff161515145b613f4c57600080fd5b60001515600f60009054906101000a900460ff16151514613f6c57600080fd5b600160009054906101000a900473ffffffffffffffffffffffffffffffffffffffff1673ffffffffffffffffffffffffffffffffffffffff163373ffffffffffffffffffffffffffffffffffffffff1614806140155750600260009054906101000a900473ffffffffffffffffffffffffffffffffffffffff1673ffffffffffffffffffffffffffffffffffffffff163373ffffffffffffffffffffffffffffffffffffffff16145b614054576040517f08c379a000000000000000000000000000000000000000000000000000000000815260040161404b90615de7565b60405180910390fd5b600554601054036140c7576000600f60016101000a81548160ff0219169083151502179055507f8981db450960c259ddc1fcf29707fb8154817dff48a6f761a30fdd79cb92977433600f60019054906101000a900460ff166040516140ba929190615e07565b60405180910390a1614110565b7f8981db450960c259ddc1fcf29707fb8154817dff48a6f761a30fdd79cb92977433600f60019054906101000a900460ff16604051614107929190615e07565b60405180910390a15b565b6000806000600d5411801561413a575060001515600f60019054906101000a900460ff161515145b61414357600080fd5b600d54600e54915091509091565b34600460003373ffffffffffffffffffffffffffffffffffffffff1673ffffffffffffffffffffffffffffffffffffffff16815260200190815260200160002060008282546141a0919061536a565b92505081905550565b60175481565b60195481565b6001600a60006101000a81548160ff02191690831515021790551561423f5760016011546141e39190615275565b60016010546141f29190615275565b6141fc919061536a565b8183614208919061536a565b61421291906155fc565b600d819055506064600954600d5461422a919061558b565b61423491906155fc565b600e8190555061428d565b600260105461424e919061558b565b818361425a919061536a565b61426491906155fc565b600d819055506064600954600d5461427c919061558b565b61428691906155fc565b600e819055505b5050565b6000601c60016010546142a49190615275565b815481106142b5576142b46152a9565b5b90600052602060002090600302016000015490506000601b60016011546142dc9190615275565b815481106142ed576142ec6152a9565b5b906000526020600020906003020160000154905060008282116143325782606483856143199190615275565b614323919061558b565b61432d91906155fc565b614356565b81606484846143419190615275565b61434b919061558b565b61435591906155fc565b5b9050600083831161437257828461436d9190615275565b61437f565b838361437e9190615275565b5b9050600060028261439091906155fc565b905060075483111580156143a357508484115b156144085780856143b4919061536a565b6014819055507fc4061a08319ff98acfeac7ff6f40488fb0743beba7cb4746c9522ae46be44b516001600f60019054906101000a900460ff166040516143fb929190615e30565b60405180910390a161454e565b600754831115801561441957508385115b1561447e57808461442a919061536a565b6014819055507fc4061a08319ff98acfeac7ff6f40488fb0743beba7cb4746c9522ae46be44b516001600f60019054906101000a900460ff16604051614471929190615e30565b60405180910390a161454d565b6005546010541480156144945750600554601154145b15614502576000600f60016101000a81548160ff0219169083151502179055507fc4061a08319ff98acfeac7ff6f40488fb0743beba7cb4746c9522ae46be44b516000600f60019054906101000a900460ff166040516144f5929190615e30565b60405180910390a161454c565b7fc4061a08319ff98acfeac7ff6f40488fb0743beba7cb4746c9522ae46be44b516000600f60019054906101000a900460ff16604051614543929190615e30565b60405180910390a15b5b5b5050505050565b600e5460046000600260009054906101000a900473ffffffffffffffffffffffffffffffffffffffff1673ffffffffffffffffffffffffffffffffffffffff1673ffffffffffffffffffffffffffffffffffffffff1681526020019081526020016000205410156145fb576040517f08c379a00000000000000000000000000000000000000000000000000000000081526004016145f290615ef1565b60405180910390fd5b8060046000600160009054906101000a900473ffffffffffffffffffffffffffffffffffffffff1673ffffffffffffffffffffffffffffffffffffffff1673ffffffffffffffffffffffffffffffffffffffff16815260200190815260200160002054101561469f576040517f08c379a000000000000000000000000000000000000000000000000000000000815260040161469690615fa9565b60405180910390fd5b6000601e60016012546146b29190615275565b815481106146c3576146c26152a9565b5b90600052602060002090600302016000015490506000601d60016013546146ea9190615275565b815481106146fb576146fa6152a9565b5b906000526020600020906003020160000154905060008282116147405782606483856147279190615275565b614731919061558b565b61473b91906155fc565b614764565b816064848461474f9190615275565b614759919061558b565b61476391906155fc565b5b9050600083831161478057828461477b9190615275565b61478d565b838361478c9190615275565b5b9050600060028261479e91906155fc565b905060085483111580156147b157508484115b156149365780856147c2919061536a565b60158190555060155460046000600160009054906101000a900473ffffffffffffffffffffffffffffffffffffffff1673ffffffffffffffffffffffffffffffffffffffff1673ffffffffffffffffffffffffffffffffffffffff168152602001908152602001600020600082825461483b9190615275565b9250508190555060155460046000600260009054906101000a900473ffffffffffffffffffffffffffffffffffffffff1673ffffffffffffffffffffffffffffffffffffffff1673ffffffffffffffffffffffffffffffffffffffff16815260200190815260200160002060008282546148b5919061536a565b925050819055506001600f60006101000a81548160ff0219169083151502179055507f39e40560384534993c2281dc4d9876fbee20bcbb306d5c352fe514a11ed0068c60018686868686601554600f60009054906101000a900460ff16600060405161492999989796959493929190615fc9565b60405180910390a1614b3c565b600854831115801561494757508385115b15614acc578084614958919061536a565b60158190555060155460046000600160009054906101000a900473ffffffffffffffffffffffffffffffffffffffff1673ffffffffffffffffffffffffffffffffffffffff1673ffffffffffffffffffffffffffffffffffffffff16815260200190815260200160002060008282546149d19190615275565b9250508190555060155460046000600260009054906101000a900473ffffffffffffffffffffffffffffffffffffffff1673ffffffffffffffffffffffffffffffffffffffff1673ffffffffffffffffffffffffffffffffffffffff1681526020019081526020016000206000828254614a4b919061536a565b925050819055506001600f60006101000a81548160ff0219169083151502179055507f39e40560384534993c2281dc4d9876fbee20bcbb306d5c352fe514a11ed0068c60018686868686601554600f60009054906101000a900460ff166000604051614abf99989796959493929190615fc9565b60405180910390a1614b3b565b600854831115614b3a57614ade614b44565b7f39e40560384534993c2281dc4d9876fbee20bcbb306d5c352fe514a11ed0068c6000806000806000806000600f60009054906101000a900460ff166001604051614b3199989796959493929190616056565b60405180910390a15b5b5b505050505050565b6000601e6001601254614b579190615275565b81548110614b6857614b676152a9565b5b90600052602060002090600302016000015490506000601d6001601354614b8f9190615275565b81548110614ba057614b9f6152a9565b5b90600052602060002090600302016000015490506000600d548311614bd25782600d54614bcd9190615275565b614be1565b600d5483614be09190615275565b5b90506000600d548311614c015782600d54614bfc9190615275565b614c10565b600d5483614c0f9190615275565b5b905080821115614d9457600e5460046000600160009054906101000a900473ffffffffffffffffffffffffffffffffffffffff1673ffffffffffffffffffffffffffffffffffffffff1673ffffffffffffffffffffffffffffffffffffffff1681526020019081526020016000206000828254614c8d9190615275565b92505081905550600e5460046000600260009054906101000a900473ffffffffffffffffffffffffffffffffffffffff1673ffffffffffffffffffffffffffffffffffffffff1673ffffffffffffffffffffffffffffffffffffffff1681526020019081526020016000206000828254614d07919061536a565b925050819055507f483dcc5f25e12d404bc8b4c072b870001c543d3daec5c241cd3acee232195fca600160009054906101000a900473ffffffffffffffffffffffffffffffffffffffff16600260009054906101000a900473ffffffffffffffffffffffffffffffffffffffff16600e54604051614d87939291906160e3565b60405180910390a1614f58565b81811115614f1657600e5460046000600260009054906101000a900473ffffffffffffffffffffffffffffffffffffffff1673ffffffffffffffffffffffffffffffffffffffff1673ffffffffffffffffffffffffffffffffffffffff1681526020019081526020016000206000828254614e0f9190615275565b92505081905550600e5460046000600160009054906101000a900473ffffffffffffffffffffffffffffffffffffffff1673ffffffffffffffffffffffffffffffffffffffff1673ffffffffffffffffffffffffffffffffffffffff1681526020019081526020016000206000828254614e89919061536a565b925050819055507f483dcc5f25e12d404bc8b4c072b870001c543d3daec5c241cd3acee232195fca600260009054906101000a900473ffffffffffffffffffffffffffffffffffffffff16600160009054906101000a900473ffffffffffffffffffffffffffffffffffffffff16600e54604051614f09939291906160e3565b60405180910390a1614f57565b808203614f56577f98fdd9eeb8c3cbdc66a415629f1510a33c2536b8353b50354fa399cbc9fb5d426001604051614f4d9190615009565b60405180910390a15b5b5b50505050565b600073ffffffffffffffffffffffffffffffffffffffff82169050919050565b6000614f8982614f5e565b9050919050565b614f9981614f7e565b82525050565b6000602082019050614fb46000830184614f90565b92915050565b6000819050919050565b614fcd81614fba565b82525050565b6000602082019050614fe86000830184614fc4565b92915050565b60008115159050919050565b61500381614fee565b82525050565b600060208201905061501e6000830184614ffa565b92915050565b600080fd5b61503281614fba565b811461503d57600080fd5b50565b60008135905061504f81615029565b92915050565b60006020828403121561506b5761506a615024565b5b600061507984828501615040565b91505092915050565b600061508d82614f5e565b9050919050565b61509d81615082565b82525050565b6000610100820190506150b9600083018b614fc4565b6150c6602083018a614fc4565b6150d36040830189615094565b6150e06060830188615094565b6150ed6080830187614fc4565b6150fa60a0830186614fc4565b61510760c0830185614fc4565b61511460e0830184614ffa565b9998505050505050505050565b61512a81614fee565b811461513557600080fd5b50565b60008135905061514781615121565b92915050565b60006020828403121561516357615162615024565b5b600061517184828501615138565b91505092915050565b600060408201905061518f6000830185614fc4565b61519c6020830184614fc4565b9392505050565b600082825260208201905092915050565b7f4f6e6c792074686520636f6e7472616374206f70706f6e656e742063616e206360008201527f616c6c20746869732066756e6374696f6e2e0000000000000000000000000000602082015250565b60006152106032836151a3565b915061521b826151b4565b604082019050919050565b6000602082019050818103600083015261523f81615203565b9050919050565b7f4e487b7100000000000000000000000000000000000000000000000000000000600052601160045260246000fd5b600061528082614fba565b915061528b83614fba565b92508282039050818111156152a3576152a2615246565b5b92915050565b7f4e487b7100000000000000000000000000000000000000000000000000000000600052603260045260246000fd5b7f63726561746f7220646f6573206e6f74206861766520656e6f7567682066756e60008201527f6473000000000000000000000000000000000000000000000000000000000000602082015250565b60006153346022836151a3565b915061533f826152d8565b604082019050919050565b6000602082019050818103600083015261536381615327565b9050919050565b600061537582614fba565b915061538083614fba565b925082820190508082111561539857615397615246565b5b92915050565b6000819050919050565b60006153c36153be6153b984614f5e565b61539e565b614f5e565b9050919050565b60006153d5826153a8565b9050919050565b60006153e7826153ca565b9050919050565b6153f7816153dc565b82525050565b600060808201905061541260008301876153ee565b61541f6020830186614ffa565b61542c6040830185614fc4565b6154396060830184614ffa565b95945050505050565b6000819050919050565b600061546761546261545d84615442565b61539e565b614fba565b9050919050565b6154778161544c565b82525050565b600060808201905061549260008301876153ee565b61549f6020830186614ffa565b6154ac604083018561546e565b6154b96060830184614ffa565b95945050505050565b7f4f6e6c792074686520636f6e74726163742063726561746f722063616e20636160008201527f6c6c20746869732066756e6374696f6e2e000000000000000000000000000000602082015250565b600061551e6031836151a3565b9150615529826154c2565b604082019050919050565b6000602082019050818103600083015261554d81615511565b9050919050565b600060608201905061556960008301866153ee565b6155766020830185614ffa565b6155836040830184614fc4565b949350505050565b600061559682614fba565b91506155a183614fba565b92508282026155af81614fba565b915082820484148315176155c6576155c5615246565b5b5092915050565b7f4e487b7100000000000000000000000000000000000000000000000000000000600052601260045260246000fd5b600061560782614fba565b915061561283614fba565b925082615622576156216155cd565b5b828204905092915050565b7f7265616368656420636170206f6e20616d6f756e74206f6620736f6674206f6660008201527f6665727300000000000000000000000000000000000000000000000000000000602082015250565b60006156896024836151a3565b91506156948261562d565b604082019050919050565b600060208201905081810360008301526156b88161567c565b9050919050565b7f796f7520646f206e6f74206861766520656e6f7567682066756e647320746f2060008201527f6d616b65207375636820616e206f666665720000000000000000000000000000602082015250565b600061571b6032836151a3565b9150615726826156bf565b604082019050919050565b6000602082019050818103600083015261574a8161570e565b9050919050565b600061575c82614fba565b91507fffffffffffffffffffffffffffffffffffffffffffffffffffffffffffffffff820361578e5761578d615246565b5b600182019050919050565b7f796f75206d757374207761697420756e74696c20746865206f70706f6e656e7460008201527f207075747320696e207468656972206f6666657220746f20696e69746174652060208201527f616e2061646469746f6e616c206f666665720000000000000000000000000000604082015250565b600061581b6052836151a3565b915061582682615799565b606082019050919050565b6000602082019050818103600083015261584a8161580e565b9050919050565b600060608201905061586660008301866153ee565b6158736020830185614fc4565b6158806040830184614ffa565b949350505050565b7f7265616368656420636170206f6e20616d6f756e74206f66206669726d206f6660008201527f6665727300000000000000000000000000000000000000000000000000000000602082015250565b60006158e46024836151a3565b91506158ef82615888565b604082019050919050565b60006020820190508181036000830152615913816158d7565b9050919050565b7f546865206d656469756d204e756d62657220686173206e6f74206265656e207360008201527f6574207965740000000000000000000000000000000000000000000000000000602082015250565b60006159766026836151a3565b91506159818261591a565b604082019050919050565b600060208201905081810360008301526159a581615969565b9050919050565b7f796f7520646f6e74206861766520656e6f75676820746f20706179207468652060008201527f70656e616c747920616e642072656d6f7665207468617420616d6f756e740000602082015250565b6000615a08603e836151a3565b9150615a13826159ac565b604082019050919050565b60006020820190508181036000830152615a37816159fb565b9050919050565b7f6e6f7420656e6f7567682066756e647300000000000000000000000000000000600082015250565b6000615a746010836151a3565b9150615a7f82615a3e565b602082019050919050565b60006020820190508181036000830152615aa381615a67565b9050919050565b7f54686520636f6e74726163742063726561746f72206861732072656d6f76656460008201527f206869732066756e647320616e642074686973206f66666572206973206e6f2060208201527f6c6f6e67657220617661696c6162656c00000000000000000000000000000000604082015250565b6000615b2c6050836151a3565b9150615b3782615aaa565b606082019050919050565b60006020820190508181036000830152615b5b81615b1f565b9050919050565b6000606082019050615b7760008301866153ee565b615b846020830185614ffa565b615b91604083018461546e565b949350505050565b7f796f7520646f6e74206861766520656e6f7567682066756e647320746f20707260008201527f6f636573732074686973206f6666657200000000000000000000000000000000602082015250565b6000615bf56030836151a3565b9150615c0082615b99565b604082019050919050565b60006020820190508181036000830152615c2481615be8565b9050919050565b7f796f75206d757374207761697420756e74696c207468652063726561746f722060008201527f7075747320696e207468656972206f6666657220746f20696e6974617465206160208201527f206e6577206f6666657200000000000000000000000000000000000000000000604082015250565b6000615cad604a836151a3565b9150615cb882615c2b565b606082019050919050565b60006020820190508181036000830152615cdc81615ca0565b9050919050565b7f796f75206d757374206465706f736974207468652070656e616c747920616d6f60008201527f756e7420746f2070726573656e742061206669726d206f666665720000000000602082015250565b6000615d3f603b836151a3565b9150615d4a82615ce3565b604082019050919050565b60006020820190508181036000830152615d6e81615d32565b9050919050565b7f796f7520617265206e6f74207468652063726561746f72206f72206f70706f6e60008201527f656e740000000000000000000000000000000000000000000000000000000000602082015250565b6000615dd16023836151a3565b9150615ddc82615d75565b604082019050919050565b60006020820190508181036000830152615e0081615dc4565b9050919050565b6000604082019050615e1c6000830185615094565b615e296020830184614ffa565b9392505050565b6000604082019050615e456000830185614ffa565b615e526020830184614ffa565b9392505050565b7f20546865206f70706f6e656e74206d7573742072656465706f7369742074686560008201527f2070656e616c747920616d6f756e7420666f722061206669726d206f6666657260208201527f20746f2070726f63657373000000000000000000000000000000000000000000604082015250565b6000615edb604b836151a3565b9150615ee682615e59565b606082019050919050565b60006020820190508181036000830152615f0a81615ece565b9050919050565b7f5468652063726561746f7220646f6573206e6f74206861766520656e6f75676860008201527f2066756e6473206e2074686520636f6e747261637420666f7220746865206f6660208201527f66657220746f2070726f63657373000000000000000000000000000000000000604082015250565b6000615f93604e836151a3565b9150615f9e82615f11565b606082019050919050565b60006020820190508181036000830152615fc281615f86565b9050919050565b600061012082019050615fdf600083018c614ffa565b615fec602083018b614fc4565b615ff9604083018a614fc4565b6160066060830189614fc4565b6160136080830188614fc4565b61602060a0830187614fc4565b61602d60c0830186614fc4565b61603a60e0830185614ffa565b616048610100830184614ffa565b9a9950505050505050505050565b60006101208201905061606c600083018c614ffa565b616079602083018b61546e565b616086604083018a61546e565b616093606083018961546e565b6160a0608083018861546e565b6160ad60a083018761546e565b6160ba60c083018661546e565b6160c760e0830185614ffa565b6160d5610100830184614ffa565b9a9950505050505050505050565b60006060820190506160f860008301866153ee565b61610560208301856153ee565b6161126040830184614fc4565b94935050505056fea2646970667358221220cb1bd0cc2e107d5b94a046155c58cbce82899be8a65f21455d29afc4751e981864736f6c63430008110033",
			"opcodes": "PUSH1 0x80 PUSH1 0x40 MSTORE PUSH1 0x1 PUSH1 0xF PUSH1 0x1 PUSH2 0x100 EXP DUP2 SLOAD DUP2 PUSH1 0xFF MUL NOT AND SWAP1 DUP4 ISZERO ISZERO MUL OR SWAP1 SSTORE POP CALLVALUE DUP1 ISZERO PUSH3 0x2C JUMPI PUSH1 0x0 DUP1 REVERT JUMPDEST POP PUSH1 0x40 MLOAD PUSH3 0x68E7 CODESIZE SUB DUP1 PUSH3 0x68E7 DUP4 CODECOPY DUP2 DUP2 ADD PUSH1 0x40 MSTORE DUP2 ADD SWAP1 PUSH3 0x52 SWAP2 SWAP1 PUSH3 0x671 JUMP JUMPDEST DUP1 PUSH1 0x0 DUP1 PUSH2 0x100 EXP DUP2 SLOAD DUP2 PUSH20 0xFFFFFFFFFFFFFFFFFFFFFFFFFFFFFFFFFFFFFFFF MUL NOT AND SWAP1 DUP4 PUSH20 0xFFFFFFFFFFFFFFFFFFFFFFFFFFFFFFFFFFFFFFFF AND MUL OR SWAP1 SSTORE POP PUSH1 0x0 DUP1 SLOAD SWAP1 PUSH2 0x100 EXP SWAP1 DIV PUSH20 0xFFFFFFFFFFFFFFFFFFFFFFFFFFFFFFFFFFFFFFFF AND PUSH20 0xFFFFFFFFFFFFFFFFFFFFFFFFFFFFFFFFFFFFFFFF AND PUSH4 0xEE2CB10 PUSH1 0x40 MLOAD DUP2 PUSH4 0xFFFFFFFF AND PUSH1 0xE0 SHL DUP2 MSTORE PUSH1 0x4 ADD PUSH1 0x20 PUSH1 0x40 MLOAD DUP1 DUP4 SUB DUP2 DUP7 GAS STATICCALL ISZERO DUP1 ISZERO PUSH3 0xFE JUMPI RETURNDATASIZE PUSH1 0x0 DUP1 RETURNDATACOPY RETURNDATASIZE PUSH1 0x0 REVERT JUMPDEST POP POP POP POP PUSH1 0x40 MLOAD RETURNDATASIZE PUSH1 0x1F NOT PUSH1 0x1F DUP3 ADD AND DUP3 ADD DUP1 PUSH1 0x40 MSTORE POP DUP2 ADD SWAP1 PUSH3 0x124 SWAP2 SWAP1 PUSH3 0x6E8 JUMP JUMPDEST PUSH1 0x1 PUSH1 0x0 PUSH2 0x100 EXP DUP2 SLOAD DUP2 PUSH20 0xFFFFFFFFFFFFFFFFFFFFFFFFFFFFFFFFFFFFFFFF MUL NOT AND SWAP1 DUP4 PUSH20 0xFFFFFFFFFFFFFFFFFFFFFFFFFFFFFFFFFFFFFFFF AND MUL OR SWAP1 SSTORE POP PUSH1 0x0 DUP1 SLOAD SWAP1 PUSH2 0x100 EXP SWAP1 DIV PUSH20 0xFFFFFFFFFFFFFFFFFFFFFFFFFFFFFFFFFFFFFFFF AND PUSH20 0xFFFFFFFFFFFFFFFFFFFFFFFFFFFFFFFFFFFFFFFF AND PUSH4 0x39580054 PUSH1 0x40 MLOAD DUP2 PUSH4 0xFFFFFFFF AND PUSH1 0xE0 SHL DUP2 MSTORE PUSH1 0x4 ADD PUSH1 0x20 PUSH1 0x40 MLOAD DUP1 DUP4 SUB DUP2 DUP7 GAS STATICCALL ISZERO DUP1 ISZERO PUSH3 0x1D0 JUMPI RETURNDATASIZE PUSH1 0x0 DUP1 RETURNDATACOPY RETURNDATASIZE PUSH1 0x0 REVERT JUMPDEST POP POP POP POP PUSH1 0x40 MLOAD RETURNDATASIZE PUSH1 0x1F NOT PUSH1 0x1F DUP3 ADD AND DUP3 ADD DUP1 PUSH1 0x40 MSTORE POP DUP2 ADD SWAP1 PUSH3 0x1F6 SWAP2 SWAP1 PUSH3 0x6E8 JUMP JUMPDEST PUSH1 0x2 PUSH1 0x0 PUSH2 0x100 EXP DUP2 SLOAD DUP2 PUSH20 0xFFFFFFFFFFFFFFFFFFFFFFFFFFFFFFFFFFFFFFFF MUL NOT AND SWAP1 DUP4 PUSH20 0xFFFFFFFFFFFFFFFFFFFFFFFFFFFFFFFFFFFFFFFF AND MUL OR SWAP1 SSTORE POP PUSH1 0x0 DUP1 SLOAD SWAP1 PUSH2 0x100 EXP SWAP1 DIV PUSH20 0xFFFFFFFFFFFFFFFFFFFFFFFFFFFFFFFFFFFFFFFF AND PUSH20 0xFFFFFFFFFFFFFFFFFFFFFFFFFFFFFFFFFFFFFFFF AND PUSH4 0x819E213D PUSH1 0x40 MLOAD DUP2 PUSH4 0xFFFFFFFF AND PUSH1 0xE0 SHL DUP2 MSTORE PUSH1 0x4 ADD PUSH1 0x20 PUSH1 0x40 MLOAD DUP1 DUP4 SUB DUP2 DUP7 GAS STATICCALL ISZERO DUP1 ISZERO PUSH3 0x2A2 JUMPI RETURNDATASIZE PUSH1 0x0 DUP1 RETURNDATACOPY RETURNDATASIZE PUSH1 0x0 REVERT JUMPDEST POP POP POP POP PUSH1 0x40 MLOAD RETURNDATASIZE PUSH1 0x1F NOT PUSH1 0x1F DUP3 ADD AND DUP3 ADD DUP1 PUSH1 0x40 MSTORE POP DUP2 ADD SWAP1 PUSH3 0x2C8 SWAP2 SWAP1 PUSH3 0x755 JUMP JUMPDEST PUSH1 0x5 DUP2 SWAP1 SSTORE POP PUSH1 0x0 DUP1 SLOAD SWAP1 PUSH2 0x100 EXP SWAP1 DIV PUSH20 0xFFFFFFFFFFFFFFFFFFFFFFFFFFFFFFFFFFFFFFFF AND PUSH20 0xFFFFFFFFFFFFFFFFFFFFFFFFFFFFFFFFFFFFFFFF AND PUSH4 0x5605C66D PUSH1 0x40 MLOAD DUP2 PUSH4 0xFFFFFFFF AND PUSH1 0xE0 SHL DUP2 MSTORE PUSH1 0x4 ADD PUSH1 0x20 PUSH1 0x40 MLOAD DUP1 DUP4 SUB DUP2 DUP7 GAS STATICCALL ISZERO DUP1 ISZERO PUSH3 0x33A JUMPI RETURNDATASIZE PUSH1 0x0 DUP1 RETURNDATACOPY RETURNDATASIZE PUSH1 0x0 REVERT JUMPDEST POP POP POP POP PUSH1 0x40 MLOAD RETURNDATASIZE PUSH1 0x1F NOT PUSH1 0x1F DUP3 ADD AND DUP3 ADD DUP1 PUSH1 0x40 MSTORE POP DUP2 ADD SWAP1 PUSH3 0x360 SWAP2 SWAP1 PUSH3 0x755 JUMP JUMPDEST PUSH1 0x6 DUP2 SWAP1 SSTORE POP PUSH1 0x0 DUP1 SLOAD SWAP1 PUSH2 0x100 EXP SWAP1 DIV PUSH20 0xFFFFFFFFFFFFFFFFFFFFFFFFFFFFFFFFFFFFFFFF AND PUSH20 0xFFFFFFFFFFFFFFFFFFFFFFFFFFFFFFFFFFFFFFFF AND PUSH4 0x502EF5FF PUSH1 0x40 MLOAD DUP2 PUSH4 0xFFFFFFFF AND PUSH1 0xE0 SHL DUP2 MSTORE PUSH1 0x4 ADD PUSH1 0x20 PUSH1 0x40 MLOAD DUP1 DUP4 SUB DUP2 DUP7 GAS STATICCALL ISZERO DUP1 ISZERO PUSH3 0x3D2 JUMPI RETURNDATASIZE PUSH1 0x0 DUP1 RETURNDATACOPY RETURNDATASIZE PUSH1 0x0 REVERT JUMPDEST POP POP POP POP PUSH1 0x40 MLOAD RETURNDATASIZE PUSH1 0x1F NOT PUSH1 0x1F DUP3 ADD AND DUP3 ADD DUP1 PUSH1 0x40 MSTORE POP DUP2 ADD SWAP1 PUSH3 0x3F8 SWAP2 SWAP1 PUSH3 0x755 JUMP JUMPDEST PUSH1 0x7 DUP2 SWAP1 SSTORE POP PUSH1 0x0 DUP1 SLOAD SWAP1 PUSH2 0x100 EXP SWAP1 DIV PUSH20 0xFFFFFFFFFFFFFFFFFFFFFFFFFFFFFFFFFFFFFFFF AND PUSH20 0xFFFFFFFFFFFFFFFFFFFFFFFFFFFFFFFFFFFFFFFF AND PUSH4 0x41D07D8C PUSH1 0x40 MLOAD DUP2 PUSH4 0xFFFFFFFF AND PUSH1 0xE0 SHL DUP2 MSTORE PUSH1 0x4 ADD PUSH1 0x20 PUSH1 0x40 MLOAD DUP1 DUP4 SUB DUP2 DUP7 GAS STATICCALL ISZERO DUP1 ISZERO PUSH3 0x46A JUMPI RETURNDATASIZE PUSH1 0x0 DUP1 RETURNDATACOPY RETURNDATASIZE PUSH1 0x0 REVERT JUMPDEST POP POP POP POP PUSH1 0x40 MLOAD RETURNDATASIZE PUSH1 0x1F NOT PUSH1 0x1F DUP3 ADD AND DUP3 ADD DUP1 PUSH1 0x40 MSTORE POP DUP2 ADD SWAP1 PUSH3 0x490 SWAP2 SWAP1 PUSH3 0x755 JUMP JUMPDEST PUSH1 0x8 DUP2 SWAP1 SSTORE POP PUSH1 0x0 DUP1 SLOAD SWAP1 PUSH2 0x100 EXP SWAP1 DIV PUSH20 0xFFFFFFFFFFFFFFFFFFFFFFFFFFFFFFFFFFFFFFFF AND PUSH20 0xFFFFFFFFFFFFFFFFFFFFFFFFFFFFFFFFFFFFFFFF AND PUSH4 0x161BA46A PUSH1 0x40 MLOAD DUP2 PUSH4 0xFFFFFFFF AND PUSH1 0xE0 SHL DUP2 MSTORE PUSH1 0x4 ADD PUSH1 0x20 PUSH1 0x40 MLOAD DUP1 DUP4 SUB DUP2 DUP7 GAS STATICCALL ISZERO DUP1 ISZERO PUSH3 0x502 JUMPI RETURNDATASIZE PUSH1 0x0 DUP1 RETURNDATACOPY RETURNDATASIZE PUSH1 0x0 REVERT JUMPDEST POP POP POP POP PUSH1 0x40 MLOAD RETURNDATASIZE PUSH1 0x1F NOT PUSH1 0x1F DUP3 ADD AND DUP3 ADD DUP1 PUSH1 0x40 MSTORE POP DUP2 ADD SWAP1 PUSH3 0x528 SWAP2 SWAP1 PUSH3 0x755 JUMP JUMPDEST PUSH1 0x9 DUP2 SWAP1 SSTORE POP PUSH1 0x0 DUP1 SLOAD SWAP1 PUSH2 0x100 EXP SWAP1 DIV PUSH20 0xFFFFFFFFFFFFFFFFFFFFFFFFFFFFFFFFFFFFFFFF AND PUSH20 0xFFFFFFFFFFFFFFFFFFFFFFFFFFFFFFFFFFFFFFFF AND PUSH4 0x332BDB5C PUSH1 0x40 MLOAD DUP2 PUSH4 0xFFFFFFFF AND PUSH1 0xE0 SHL DUP2 MSTORE PUSH1 0x4 ADD PUSH1 0x20 PUSH1 0x40 MLOAD DUP1 DUP4 SUB DUP2 DUP7 GAS STATICCALL ISZERO DUP1 ISZERO PUSH3 0x59A JUMPI RETURNDATASIZE PUSH1 0x0 DUP1 RETURNDATACOPY RETURNDATASIZE PUSH1 0x0 REVERT JUMPDEST POP POP POP POP PUSH1 0x40 MLOAD RETURNDATASIZE PUSH1 0x1F NOT PUSH1 0x1F DUP3 ADD AND DUP3 ADD DUP1 PUSH1 0x40 MSTORE POP DUP2 ADD SWAP1 PUSH3 0x5C0 SWAP2 SWAP1 PUSH3 0x6E8 JUMP JUMPDEST PUSH1 0x3 PUSH1 0x0 PUSH2 0x100 EXP DUP2 SLOAD DUP2 PUSH20 0xFFFFFFFFFFFFFFFFFFFFFFFFFFFFFFFFFFFFFFFF MUL NOT AND SWAP1 DUP4 PUSH20 0xFFFFFFFFFFFFFFFFFFFFFFFFFFFFFFFFFFFFFFFF AND MUL OR SWAP1 SSTORE POP POP PUSH3 0x787 JUMP JUMPDEST PUSH1 0x0 DUP1 REVERT JUMPDEST PUSH1 0x0 PUSH20 0xFFFFFFFFFFFFFFFFFFFFFFFFFFFFFFFFFFFFFFFF DUP3 AND SWAP1 POP SWAP2 SWAP1 POP JUMP JUMPDEST PUSH1 0x0 PUSH3 0x639 DUP3 PUSH3 0x60C JUMP JUMPDEST SWAP1 POP SWAP2 SWAP1 POP JUMP JUMPDEST PUSH3 0x64B DUP2 PUSH3 0x62C JUMP JUMPDEST DUP2 EQ PUSH3 0x657 JUMPI PUSH1 0x0 DUP1 REVERT JUMPDEST POP JUMP JUMPDEST PUSH1 0x0 DUP2 MLOAD SWAP1 POP PUSH3 0x66B DUP2 PUSH3 0x640 JUMP JUMPDEST SWAP3 SWAP2 POP POP JUMP JUMPDEST PUSH1 0x0 PUSH1 0x20 DUP3 DUP5 SUB SLT ISZERO PUSH3 0x68A JUMPI PUSH3 0x689 PUSH3 0x607 JUMP JUMPDEST JUMPDEST PUSH1 0x0 PUSH3 0x69A DUP5 DUP3 DUP6 ADD PUSH3 0x65A JUMP JUMPDEST SWAP2 POP POP SWAP3 SWAP2 POP POP JUMP JUMPDEST PUSH1 0x0 PUSH3 0x6B0 DUP3 PUSH3 0x60C JUMP JUMPDEST SWAP1 POP SWAP2 SWAP1 POP JUMP JUMPDEST PUSH3 0x6C2 DUP2 PUSH3 0x6A3 JUMP JUMPDEST DUP2 EQ PUSH3 0x6CE JUMPI PUSH1 0x0 DUP1 REVERT JUMPDEST POP JUMP JUMPDEST PUSH1 0x0 DUP2 MLOAD SWAP1 POP PUSH3 0x6E2 DUP2 PUSH3 0x6B7 JUMP JUMPDEST SWAP3 SWAP2 POP POP JUMP JUMPDEST PUSH1 0x0 PUSH1 0x20 DUP3 DUP5 SUB SLT ISZERO PUSH3 0x701 JUMPI PUSH3 0x700 PUSH3 0x607 JUMP JUMPDEST JUMPDEST PUSH1 0x0 PUSH3 0x711 DUP5 DUP3 DUP6 ADD PUSH3 0x6D1 JUMP JUMPDEST SWAP2 POP POP SWAP3 SWAP2 POP POP JUMP JUMPDEST PUSH1 0x0 DUP2 SWAP1 POP SWAP2 SWAP1 POP JUMP JUMPDEST PUSH3 0x72F DUP2 PUSH3 0x71A JUMP JUMPDEST DUP2 EQ PUSH3 0x73B JUMPI PUSH1 0x0 DUP1 REVERT JUMPDEST POP JUMP JUMPDEST PUSH1 0x0 DUP2 MLOAD SWAP1 POP PUSH3 0x74F DUP2 PUSH3 0x724 JUMP JUMPDEST SWAP3 SWAP2 POP POP JUMP JUMPDEST PUSH1 0x0 PUSH1 0x20 DUP3 DUP5 SUB SLT ISZERO PUSH3 0x76E JUMPI PUSH3 0x76D PUSH3 0x607 JUMP JUMPDEST JUMPDEST PUSH1 0x0 PUSH3 0x77E DUP5 DUP3 DUP6 ADD PUSH3 0x73E JUMP JUMPDEST SWAP2 POP POP SWAP3 SWAP2 POP POP JUMP JUMPDEST PUSH2 0x6150 DUP1 PUSH3 0x797 PUSH1 0x0 CODECOPY PUSH1 0x0 RETURN INVALID PUSH1 0x80 PUSH1 0x40 MSTORE PUSH1 0x4 CALLDATASIZE LT PUSH2 0x1B7 JUMPI PUSH1 0x0 CALLDATALOAD PUSH1 0xE0 SHR DUP1 PUSH4 0x7516DAA8 GT PUSH2 0xEC JUMPI DUP1 PUSH4 0x959EC2A3 GT PUSH2 0x8A JUMPI DUP1 PUSH4 0xCD6E939B GT PUSH2 0x64 JUMPI DUP1 PUSH4 0xCD6E939B EQ PUSH2 0x54F JUMPI DUP1 PUSH4 0xD0E30DB0 EQ PUSH2 0x57B JUMPI DUP1 PUSH4 0xD1914988 EQ PUSH2 0x585 JUMPI DUP1 PUSH4 0xFA8DC8C9 EQ PUSH2 0x5B0 JUMPI PUSH2 0x1B7 JUMP JUMPDEST DUP1 PUSH4 0x959EC2A3 EQ PUSH2 0x4E4 JUMPI DUP1 PUSH4 0xC71DACCB EQ PUSH2 0x50D JUMPI DUP1 PUSH4 0xCD323F37 EQ PUSH2 0x538 JUMPI PUSH2 0x1B7 JUMP JUMPDEST DUP1 PUSH4 0x7FEE0760 GT PUSH2 0xC6 JUMPI DUP1 PUSH4 0x7FEE0760 EQ PUSH2 0x43C JUMPI DUP1 PUSH4 0x81276F39 EQ PUSH2 0x465 JUMPI DUP1 PUSH4 0x819E213D EQ PUSH2 0x48E JUMPI DUP1 PUSH4 0x93694F67 EQ PUSH2 0x4B9 JUMPI PUSH2 0x1B7 JUMP JUMPDEST DUP1 PUSH4 0x7516DAA8 EQ PUSH2 0x3F2 JUMPI DUP1 PUSH4 0x7754114C EQ PUSH2 0x409 JUMPI DUP1 PUSH4 0x7D17C2CC EQ PUSH2 0x413 JUMPI PUSH2 0x1B7 JUMP JUMPDEST DUP1 PUSH4 0x41D07D8C GT PUSH2 0x159 JUMPI DUP1 PUSH4 0x6244DF83 GT PUSH2 0x133 JUMPI DUP1 PUSH4 0x6244DF83 EQ PUSH2 0x34E JUMPI DUP1 PUSH4 0x6821C00A EQ PUSH2 0x377 JUMPI DUP1 PUSH4 0x71D2EE6C EQ PUSH2 0x3A0 JUMPI DUP1 PUSH4 0x7466CD9E EQ PUSH2 0x3C9 JUMPI PUSH2 0x1B7 JUMP JUMPDEST DUP1 PUSH4 0x41D07D8C EQ PUSH2 0x2CD JUMPI DUP1 PUSH4 0x502EF5FF EQ PUSH2 0x2F8 JUMPI DUP1 PUSH4 0x5605C66D EQ PUSH2 0x323 JUMPI PUSH2 0x1B7 JUMP JUMPDEST DUP1 PUSH4 0x328BEB0F GT PUSH2 0x195 JUMPI DUP1 PUSH4 0x328BEB0F EQ PUSH2 0x21C JUMPI DUP1 PUSH4 0x3CC5FAE3 EQ PUSH2 0x247 JUMPI DUP1 PUSH4 0x3F6FA655 EQ PUSH2 0x270 JUMPI DUP1 PUSH4 0x4051DDAC EQ PUSH2 0x29B JUMPI PUSH2 0x1B7 JUMP JUMPDEST DUP1 PUSH4 0x17F19E1 EQ PUSH2 0x1BC JUMPI DUP1 PUSH4 0x2D05D3F EQ PUSH2 0x1C6 JUMPI DUP1 PUSH4 0x161BA46A EQ PUSH2 0x1F1 JUMPI JUMPDEST PUSH1 0x0 DUP1 REVERT JUMPDEST PUSH2 0x1C4 PUSH2 0x5DB JUMP JUMPDEST STOP JUMPDEST CALLVALUE DUP1 ISZERO PUSH2 0x1D2 JUMPI PUSH1 0x0 DUP1 REVERT JUMPDEST POP PUSH2 0x1DB PUSH2 0xB2A JUMP JUMPDEST PUSH1 0x40 MLOAD PUSH2 0x1E8 SWAP2 SWAP1 PUSH2 0x4F9F JUMP JUMPDEST PUSH1 0x40 MLOAD DUP1 SWAP2 SUB SWAP1 RETURN JUMPDEST CALLVALUE DUP1 ISZERO PUSH2 0x1FD JUMPI PUSH1 0x0 DUP1 REVERT JUMPDEST POP PUSH2 0x206 PUSH2 0xB50 JUMP JUMPDEST PUSH1 0x40 MLOAD PUSH2 0x213 SWAP2 SWAP1 PUSH2 0x4FD3 JUMP JUMPDEST PUSH1 0x40 MLOAD DUP1 SWAP2 SUB SWAP1 RETURN JUMPDEST CALLVALUE DUP1 ISZERO PUSH2 0x228 JUMPI PUSH1 0x0 DUP1 REVERT JUMPDEST POP PUSH2 0x231 PUSH2 0xB56 JUMP JUMPDEST PUSH1 0x40 MLOAD PUSH2 0x23E SWAP2 SWAP1 PUSH2 0x5009 JUMP JUMPDEST PUSH1 0x40 MLOAD DUP1 SWAP2 SUB SWAP1 RETURN JUMPDEST CALLVALUE DUP1 ISZERO PUSH2 0x253 JUMPI PUSH1 0x0 DUP1 REVERT JUMPDEST POP PUSH2 0x26E PUSH1 0x4 DUP1 CALLDATASIZE SUB DUP2 ADD SWAP1 PUSH2 0x269 SWAP2 SWAP1 PUSH2 0x5055 JUMP JUMPDEST PUSH2 0xB69 JUMP JUMPDEST STOP JUMPDEST CALLVALUE DUP1 ISZERO PUSH2 0x27C JUMPI PUSH1 0x0 DUP1 REVERT JUMPDEST POP PUSH2 0x285 PUSH2 0xD47 JUMP JUMPDEST PUSH1 0x40 MLOAD PUSH2 0x292 SWAP2 SWAP1 PUSH2 0x5009 JUMP JUMPDEST PUSH1 0x40 MLOAD DUP1 SWAP2 SUB SWAP1 RETURN JUMPDEST CALLVALUE DUP1 ISZERO PUSH2 0x2A7 JUMPI PUSH1 0x0 DUP1 REVERT JUMPDEST POP PUSH2 0x2B0 PUSH2 0xD5A JUMP JUMPDEST PUSH1 0x40 MLOAD PUSH2 0x2C4 SWAP9 SWAP8 SWAP7 SWAP6 SWAP5 SWAP4 SWAP3 SWAP2 SWAP1 PUSH2 0x50A3 JUMP JUMPDEST PUSH1 0x40 MLOAD DUP1 SWAP2 SUB SWAP1 RETURN JUMPDEST CALLVALUE DUP1 ISZERO PUSH2 0x2D9 JUMPI PUSH1 0x0 DUP1 REVERT JUMPDEST POP PUSH2 0x2E2 PUSH2 0xDE5 JUMP JUMPDEST PUSH1 0x40 MLOAD PUSH2 0x2EF SWAP2 SWAP1 PUSH2 0x4FD3 JUMP JUMPDEST PUSH1 0x40 MLOAD DUP1 SWAP2 SUB SWAP1 RETURN JUMPDEST CALLVALUE DUP1 ISZERO PUSH2 0x304 JUMPI PUSH1 0x0 DUP1 REVERT JUMPDEST POP PUSH2 0x30D PUSH2 0xDEB JUMP JUMPDEST PUSH1 0x40 MLOAD PUSH2 0x31A SWAP2 SWAP1 PUSH2 0x4FD3 JUMP JUMPDEST PUSH1 0x40 MLOAD DUP1 SWAP2 SUB SWAP1 RETURN JUMPDEST CALLVALUE DUP1 ISZERO PUSH2 0x32F JUMPI PUSH1 0x0 DUP1 REVERT JUMPDEST POP PUSH2 0x338 PUSH2 0xDF1 JUMP JUMPDEST PUSH1 0x40 MLOAD PUSH2 0x345 SWAP2 SWAP1 PUSH2 0x4FD3 JUMP JUMPDEST PUSH1 0x40 MLOAD DUP1 SWAP2 SUB SWAP1 RETURN JUMPDEST CALLVALUE DUP1 ISZERO PUSH2 0x35A JUMPI PUSH1 0x0 DUP1 REVERT JUMPDEST POP PUSH2 0x375 PUSH1 0x4 DUP1 CALLDATASIZE SUB DUP2 ADD SWAP1 PUSH2 0x370 SWAP2 SWAP1 PUSH2 0x5055 JUMP JUMPDEST PUSH2 0xDF7 JUMP JUMPDEST STOP JUMPDEST CALLVALUE DUP1 ISZERO PUSH2 0x383 JUMPI PUSH1 0x0 DUP1 REVERT JUMPDEST POP PUSH2 0x39E PUSH1 0x4 DUP1 CALLDATASIZE SUB DUP2 ADD SWAP1 PUSH2 0x399 SWAP2 SWAP1 PUSH2 0x5055 JUMP JUMPDEST PUSH2 0x1354 JUMP JUMPDEST STOP JUMPDEST CALLVALUE DUP1 ISZERO PUSH2 0x3AC JUMPI PUSH1 0x0 DUP1 REVERT JUMPDEST POP PUSH2 0x3C7 PUSH1 0x4 DUP1 CALLDATASIZE SUB DUP2 ADD SWAP1 PUSH2 0x3C2 SWAP2 SWAP1 PUSH2 0x5055 JUMP JUMPDEST PUSH2 0x176E JUMP JUMPDEST STOP JUMPDEST CALLVALUE DUP1 ISZERO PUSH2 0x3D5 JUMPI PUSH1 0x0 DUP1 REVERT JUMPDEST POP PUSH2 0x3F0 PUSH1 0x4 DUP1 CALLDATASIZE SUB DUP2 ADD SWAP1 PUSH2 0x3EB SWAP2 SWAP1 PUSH2 0x5055 JUMP JUMPDEST PUSH2 0x1E2C JUMP JUMPDEST STOP JUMPDEST CALLVALUE DUP1 ISZERO PUSH2 0x3FE JUMPI PUSH1 0x0 DUP1 REVERT JUMPDEST POP PUSH2 0x407 PUSH2 0x200C JUMP JUMPDEST STOP JUMPDEST PUSH2 0x411 PUSH2 0x2612 JUMP JUMPDEST STOP JUMPDEST CALLVALUE DUP1 ISZERO PUSH2 0x41F JUMPI PUSH1 0x0 DUP1 REVERT JUMPDEST POP PUSH2 0x43A PUSH1 0x4 DUP1 CALLDATASIZE SUB DUP2 ADD SWAP1 PUSH2 0x435 SWAP2 SWAP1 PUSH2 0x514D JUMP JUMPDEST PUSH2 0x2B61 JUMP JUMPDEST STOP JUMPDEST CALLVALUE DUP1 ISZERO PUSH2 0x448 JUMPI PUSH1 0x0 DUP1 REVERT JUMPDEST POP PUSH2 0x463 PUSH1 0x4 DUP1 CALLDATASIZE SUB DUP2 ADD SWAP1 PUSH2 0x45E SWAP2 SWAP1 PUSH2 0x514D JUMP JUMPDEST PUSH2 0x307D JUMP JUMPDEST STOP JUMPDEST CALLVALUE DUP1 ISZERO PUSH2 0x471 JUMPI PUSH1 0x0 DUP1 REVERT JUMPDEST POP PUSH2 0x48C PUSH1 0x4 DUP1 CALLDATASIZE SUB DUP2 ADD SWAP1 PUSH2 0x487 SWAP2 SWAP1 PUSH2 0x5055 JUMP JUMPDEST PUSH2 0x3599 JUMP JUMPDEST STOP JUMPDEST CALLVALUE DUP1 ISZERO PUSH2 0x49A JUMPI PUSH1 0x0 DUP1 REVERT JUMPDEST POP PUSH2 0x4A3 PUSH2 0x3A28 JUMP JUMPDEST PUSH1 0x40 MLOAD PUSH2 0x4B0 SWAP2 SWAP1 PUSH2 0x4FD3 JUMP JUMPDEST PUSH1 0x40 MLOAD DUP1 SWAP2 SUB SWAP1 RETURN JUMPDEST CALLVALUE DUP1 ISZERO PUSH2 0x4C5 JUMPI PUSH1 0x0 DUP1 REVERT JUMPDEST POP PUSH2 0x4CE PUSH2 0x3A2E JUMP JUMPDEST PUSH1 0x40 MLOAD PUSH2 0x4DB SWAP2 SWAP1 PUSH2 0x4F9F JUMP JUMPDEST PUSH1 0x40 MLOAD DUP1 SWAP2 SUB SWAP1 RETURN JUMPDEST CALLVALUE DUP1 ISZERO PUSH2 0x4F0 JUMPI PUSH1 0x0 DUP1 REVERT JUMPDEST POP PUSH2 0x50B PUSH1 0x4 DUP1 CALLDATASIZE SUB DUP2 ADD SWAP1 PUSH2 0x506 SWAP2 SWAP1 PUSH2 0x5055 JUMP JUMPDEST PUSH2 0x3A54 JUMP JUMPDEST STOP JUMPDEST CALLVALUE DUP1 ISZERO PUSH2 0x519 JUMPI PUSH1 0x0 DUP1 REVERT JUMPDEST POP PUSH2 0x522 PUSH2 0x3E54 JUMP JUMPDEST PUSH1 0x40 MLOAD PUSH2 0x52F SWAP2 SWAP1 PUSH2 0x4FD3 JUMP JUMPDEST PUSH1 0x40 MLOAD DUP1 SWAP2 SUB SWAP1 RETURN JUMPDEST CALLVALUE DUP1 ISZERO PUSH2 0x544 JUMPI PUSH1 0x0 DUP1 REVERT JUMPDEST POP PUSH2 0x54D PUSH2 0x3E9B JUMP JUMPDEST STOP JUMPDEST CALLVALUE DUP1 ISZERO PUSH2 0x55B JUMPI PUSH1 0x0 DUP1 REVERT JUMPDEST POP PUSH2 0x564 PUSH2 0x4112 JUMP JUMPDEST PUSH1 0x40 MLOAD PUSH2 0x572 SWAP3 SWAP2 SWAP1 PUSH2 0x517A JUMP JUMPDEST PUSH1 0x40 MLOAD DUP1 SWAP2 SUB SWAP1 RETURN JUMPDEST PUSH2 0x583 PUSH2 0x4151 JUMP JUMPDEST STOP JUMPDEST CALLVALUE DUP1 ISZERO PUSH2 0x591 JUMPI PUSH1 0x0 DUP1 REVERT JUMPDEST POP PUSH2 0x59A PUSH2 0x41A9 JUMP JUMPDEST PUSH1 0x40 MLOAD PUSH2 0x5A7 SWAP2 SWAP1 PUSH2 0x4FD3 JUMP JUMPDEST PUSH1 0x40 MLOAD DUP1 SWAP2 SUB SWAP1 RETURN JUMPDEST CALLVALUE DUP1 ISZERO PUSH2 0x5BC JUMPI PUSH1 0x0 DUP1 REVERT JUMPDEST POP PUSH2 0x5C5 PUSH2 0x41AF JUMP JUMPDEST PUSH1 0x40 MLOAD PUSH2 0x5D2 SWAP2 SWAP1 PUSH2 0x4FD3 JUMP JUMPDEST PUSH1 0x40 MLOAD DUP1 SWAP2 SUB SWAP1 RETURN JUMPDEST PUSH1 0x2 PUSH1 0x0 SWAP1 SLOAD SWAP1 PUSH2 0x100 EXP SWAP1 DIV PUSH20 0xFFFFFFFFFFFFFFFFFFFFFFFFFFFFFFFFFFFFFFFF AND PUSH20 0xFFFFFFFFFFFFFFFFFFFFFFFFFFFFFFFFFFFFFFFF AND CALLER PUSH20 0xFFFFFFFFFFFFFFFFFFFFFFFFFFFFFFFFFFFFFFFF AND EQ PUSH2 0x66B JUMPI PUSH1 0x40 MLOAD PUSH32 0x8C379A000000000000000000000000000000000000000000000000000000000 DUP2 MSTORE PUSH1 0x4 ADD PUSH2 0x662 SWAP1 PUSH2 0x5226 JUMP JUMPDEST PUSH1 0x40 MLOAD DUP1 SWAP2 SUB SWAP1 REVERT JUMPDEST PUSH1 0x11 SLOAD PUSH1 0x10 SLOAD EQ PUSH2 0x67B JUMPI PUSH1 0x0 DUP1 REVERT JUMPDEST PUSH1 0x1 ISZERO ISZERO PUSH1 0x1B PUSH1 0x1 PUSH1 0x11 SLOAD PUSH2 0x690 SWAP2 SWAP1 PUSH2 0x5275 JUMP JUMPDEST DUP2 SLOAD DUP2 LT PUSH2 0x6A1 JUMPI PUSH2 0x6A0 PUSH2 0x52A9 JUMP JUMPDEST JUMPDEST SWAP1 PUSH1 0x0 MSTORE PUSH1 0x20 PUSH1 0x0 KECCAK256 SWAP1 PUSH1 0x3 MUL ADD PUSH1 0x2 ADD PUSH1 0x0 SWAP1 SLOAD SWAP1 PUSH2 0x100 EXP SWAP1 DIV PUSH1 0xFF AND ISZERO ISZERO EQ DUP1 ISZERO PUSH2 0x713 JUMPI POP PUSH1 0x1 ISZERO ISZERO PUSH1 0x1C PUSH1 0x1 PUSH1 0x10 SLOAD PUSH2 0x6DF SWAP2 SWAP1 PUSH2 0x5275 JUMP JUMPDEST DUP2 SLOAD DUP2 LT PUSH2 0x6F0 JUMPI PUSH2 0x6EF PUSH2 0x52A9 JUMP JUMPDEST JUMPDEST SWAP1 PUSH1 0x0 MSTORE PUSH1 0x20 PUSH1 0x0 KECCAK256 SWAP1 PUSH1 0x3 MUL ADD PUSH1 0x2 ADD PUSH1 0x0 SWAP1 SLOAD SWAP1 PUSH2 0x100 EXP SWAP1 DIV PUSH1 0xFF AND ISZERO ISZERO EQ JUMPDEST PUSH2 0x71C JUMPI PUSH1 0x0 DUP1 REVERT JUMPDEST PUSH1 0x0 ISZERO ISZERO PUSH1 0xF PUSH1 0x0 SWAP1 SLOAD SWAP1 PUSH2 0x100 EXP SWAP1 DIV PUSH1 0xFF AND ISZERO ISZERO EQ PUSH2 0x73C JUMPI PUSH1 0x0 DUP1 REVERT JUMPDEST PUSH1 0x1 ISZERO ISZERO PUSH1 0xF PUSH1 0x1 SWAP1 SLOAD SWAP1 PUSH2 0x100 EXP SWAP1 DIV PUSH1 0xFF AND ISZERO ISZERO EQ PUSH2 0x75C JUMPI PUSH1 0x0 DUP1 REVERT JUMPDEST PUSH1 0x1 ISZERO ISZERO PUSH1 0x1C PUSH1 0x1 PUSH1 0x10 SLOAD PUSH2 0x771 SWAP2 SWAP1 PUSH2 0x5275 JUMP JUMPDEST DUP2 SLOAD DUP2 LT PUSH2 0x782 JUMPI PUSH2 0x781 PUSH2 0x52A9 JUMP JUMPDEST JUMPDEST SWAP1 PUSH1 0x0 MSTORE PUSH1 0x20 PUSH1 0x0 KECCAK256 SWAP1 PUSH1 0x3 MUL ADD PUSH1 0x2 ADD PUSH1 0x1 SWAP1 SLOAD SWAP1 PUSH2 0x100 EXP SWAP1 DIV PUSH1 0xFF AND ISZERO ISZERO SUB PUSH2 0xA1F JUMPI PUSH1 0x14 SLOAD PUSH1 0x4 PUSH1 0x0 PUSH1 0x1 PUSH1 0x0 SWAP1 SLOAD SWAP1 PUSH2 0x100 EXP SWAP1 DIV PUSH20 0xFFFFFFFFFFFFFFFFFFFFFFFFFFFFFFFFFFFFFFFF AND PUSH20 0xFFFFFFFFFFFFFFFFFFFFFFFFFFFFFFFFFFFFFFFF AND PUSH20 0xFFFFFFFFFFFFFFFFFFFFFFFFFFFFFFFFFFFFFFFF AND DUP2 MSTORE PUSH1 0x20 ADD SWAP1 DUP2 MSTORE PUSH1 0x20 ADD PUSH1 0x0 KECCAK256 SLOAD LT ISZERO PUSH2 0x84E JUMPI PUSH1 0x40 MLOAD PUSH32 0x8C379A000000000000000000000000000000000000000000000000000000000 DUP2 MSTORE PUSH1 0x4 ADD PUSH2 0x845 SWAP1 PUSH2 0x534A JUMP JUMPDEST PUSH1 0x40 MLOAD DUP1 SWAP2 SUB SWAP1 REVERT JUMPDEST PUSH1 0x1 PUSH1 0x1B PUSH1 0x1 PUSH1 0x11 SLOAD PUSH2 0x861 SWAP2 SWAP1 PUSH2 0x5275 JUMP JUMPDEST DUP2 SLOAD DUP2 LT PUSH2 0x872 JUMPI PUSH2 0x871 PUSH2 0x52A9 JUMP JUMPDEST JUMPDEST SWAP1 PUSH1 0x0 MSTORE PUSH1 0x20 PUSH1 0x0 KECCAK256 SWAP1 PUSH1 0x3 MUL ADD PUSH1 0x2 ADD PUSH1 0x1 PUSH2 0x100 EXP DUP2 SLOAD DUP2 PUSH1 0xFF MUL NOT AND SWAP1 DUP4 ISZERO ISZERO MUL OR SWAP1 SSTORE POP PUSH1 0x14 SLOAD PUSH1 0x4 PUSH1 0x0 PUSH1 0x1 PUSH1 0x0 SWAP1 SLOAD SWAP1 PUSH2 0x100 EXP SWAP1 DIV PUSH20 0xFFFFFFFFFFFFFFFFFFFFFFFFFFFFFFFFFFFFFFFF AND PUSH20 0xFFFFFFFFFFFFFFFFFFFFFFFFFFFFFFFFFFFFFFFF AND PUSH20 0xFFFFFFFFFFFFFFFFFFFFFFFFFFFFFFFFFFFFFFFF AND DUP2 MSTORE PUSH1 0x20 ADD SWAP1 DUP2 MSTORE PUSH1 0x20 ADD PUSH1 0x0 KECCAK256 PUSH1 0x0 DUP3 DUP3 SLOAD PUSH2 0x90D SWAP2 SWAP1 PUSH2 0x5275 JUMP JUMPDEST SWAP3 POP POP DUP2 SWAP1 SSTORE POP PUSH1 0x14 SLOAD PUSH1 0x4 PUSH1 0x0 PUSH1 0x2 PUSH1 0x0 SWAP1 SLOAD SWAP1 PUSH2 0x100 EXP SWAP1 DIV PUSH20 0xFFFFFFFFFFFFFFFFFFFFFFFFFFFFFFFFFFFFFFFF AND PUSH20 0xFFFFFFFFFFFFFFFFFFFFFFFFFFFFFFFFFFFFFFFF AND PUSH20 0xFFFFFFFFFFFFFFFFFFFFFFFFFFFFFFFFFFFFFFFF AND DUP2 MSTORE PUSH1 0x20 ADD SWAP1 DUP2 MSTORE PUSH1 0x20 ADD PUSH1 0x0 KECCAK256 PUSH1 0x0 DUP3 DUP3 SLOAD PUSH2 0x987 SWAP2 SWAP1 PUSH2 0x536A JUMP JUMPDEST SWAP3 POP POP DUP2 SWAP1 SSTORE POP PUSH1 0x1 PUSH1 0xF PUSH1 0x0 PUSH2 0x100 EXP DUP2 SLOAD DUP2 PUSH1 0xFF MUL NOT AND SWAP1 DUP4 ISZERO ISZERO MUL OR SWAP1 SSTORE POP PUSH32 0x8FECA716E5FEA360264E5A7EBBCFCB8E1C9D84CDA200174D4D35BD097DF46278 PUSH1 0x2 PUSH1 0x0 SWAP1 SLOAD SWAP1 PUSH2 0x100 EXP SWAP1 DIV PUSH20 0xFFFFFFFFFFFFFFFFFFFFFFFFFFFFFFFFFFFFFFFF AND PUSH1 0x1 PUSH1 0x14 SLOAD PUSH1 0xF PUSH1 0x0 SWAP1 SLOAD SWAP1 PUSH2 0x100 EXP SWAP1 DIV PUSH1 0xFF AND PUSH1 0x40 MLOAD PUSH2 0xA12 SWAP5 SWAP4 SWAP3 SWAP2 SWAP1 PUSH2 0x53FD JUMP JUMPDEST PUSH1 0x40 MLOAD DUP1 SWAP2 SUB SWAP1 LOG1 PUSH2 0xB28 JUMP JUMPDEST PUSH1 0x0 ISZERO ISZERO PUSH1 0x1C PUSH1 0x1 PUSH1 0x10 SLOAD PUSH2 0xA34 SWAP2 SWAP1 PUSH2 0x5275 JUMP JUMPDEST DUP2 SLOAD DUP2 LT PUSH2 0xA45 JUMPI PUSH2 0xA44 PUSH2 0x52A9 JUMP JUMPDEST JUMPDEST SWAP1 PUSH1 0x0 MSTORE PUSH1 0x20 PUSH1 0x0 KECCAK256 SWAP1 PUSH1 0x3 MUL ADD PUSH1 0x2 ADD PUSH1 0x1 SWAP1 SLOAD SWAP1 PUSH2 0x100 EXP SWAP1 DIV PUSH1 0xFF AND ISZERO ISZERO SUB PUSH2 0xB27 JUMPI PUSH1 0x1 PUSH1 0x1B PUSH1 0x1 PUSH1 0x11 SLOAD PUSH2 0xA7E SWAP2 SWAP1 PUSH2 0x5275 JUMP JUMPDEST DUP2 SLOAD DUP2 LT PUSH2 0xA8F JUMPI PUSH2 0xA8E PUSH2 0x52A9 JUMP JUMPDEST JUMPDEST SWAP1 PUSH1 0x0 MSTORE PUSH1 0x20 PUSH1 0x0 KECCAK256 SWAP1 PUSH1 0x3 MUL ADD PUSH1 0x2 ADD PUSH1 0x1 PUSH2 0x100 EXP DUP2 SLOAD DUP2 PUSH1 0xFF MUL NOT AND SWAP1 DUP4 ISZERO ISZERO MUL OR SWAP1 SSTORE POP PUSH32 0x8FECA716E5FEA360264E5A7EBBCFCB8E1C9D84CDA200174D4D35BD097DF46278 PUSH1 0x2 PUSH1 0x0 SWAP1 SLOAD SWAP1 PUSH2 0x100 EXP SWAP1 DIV PUSH20 0xFFFFFFFFFFFFFFFFFFFFFFFFFFFFFFFFFFFFFFFF AND PUSH1 0x0 DUP1 PUSH1 0xF PUSH1 0x0 SWAP1 SLOAD SWAP1 PUSH2 0x100 EXP SWAP1 DIV PUSH1 0xFF AND PUSH1 0x40 MLOAD PUSH2 0xB1E SWAP5 SWAP4 SWAP3 SWAP2 SWAP1 PUSH2 0x547D JUMP JUMPDEST PUSH1 0x40 MLOAD DUP1 SWAP2 SUB SWAP1 LOG1 JUMPDEST JUMPDEST JUMP JUMPDEST PUSH1 0x1 PUSH1 0x0 SWAP1 SLOAD SWAP1 PUSH2 0x100 EXP SWAP1 DIV PUSH20 0xFFFFFFFFFFFFFFFFFFFFFFFFFFFFFFFFFFFFFFFF AND DUP2 JUMP JUMPDEST PUSH1 0x9 SLOAD DUP2 JUMP JUMPDEST PUSH1 0xF PUSH1 0x1 SWAP1 SLOAD SWAP1 PUSH2 0x100 EXP SWAP1 DIV PUSH1 0xFF AND DUP2 JUMP JUMPDEST PUSH1 0x1 PUSH1 0x0 SWAP1 SLOAD SWAP1 PUSH2 0x100 EXP SWAP1 DIV PUSH20 0xFFFFFFFFFFFFFFFFFFFFFFFFFFFFFFFFFFFFFFFF AND PUSH20 0xFFFFFFFFFFFFFFFFFFFFFFFFFFFFFFFFFFFFFFFF AND CALLER PUSH20 0xFFFFFFFFFFFFFFFFFFFFFFFFFFFFFFFFFFFFFFFF AND EQ PUSH2 0xBF9 JUMPI PUSH1 0x40 MLOAD PUSH32 0x8C379A000000000000000000000000000000000000000000000000000000000 DUP2 MSTORE PUSH1 0x4 ADD PUSH2 0xBF0 SWAP1 PUSH2 0x5534 JUMP JUMPDEST PUSH1 0x40 MLOAD DUP1 SWAP2 SUB SWAP1 REVERT JUMPDEST PUSH1 0x0 ISZERO ISZERO PUSH1 0xF PUSH1 0x0 SWAP1 SLOAD SWAP1 PUSH2 0x100 EXP SWAP1 DIV PUSH1 0xFF AND ISZERO ISZERO EQ PUSH2 0xC19 JUMPI PUSH1 0x0 DUP1 REVERT JUMPDEST PUSH1 0x0 PUSH1 0x12 SLOAD GT DUP1 ISZERO PUSH2 0xC2D JUMPI POP PUSH1 0x0 PUSH1 0x13 SLOAD GT JUMPDEST PUSH2 0xC36 JUMPI PUSH1 0x0 DUP1 REVERT JUMPDEST PUSH1 0x0 ISZERO ISZERO PUSH1 0x16 PUSH1 0x0 SWAP1 SLOAD SWAP1 PUSH2 0x100 EXP SWAP1 DIV PUSH1 0xFF AND ISZERO ISZERO EQ PUSH2 0xC56 JUMPI PUSH1 0x0 DUP1 REVERT JUMPDEST DUP1 PUSH1 0x4 PUSH1 0x0 PUSH1 0x1 PUSH1 0x0 SWAP1 SLOAD SWAP1 PUSH2 0x100 EXP SWAP1 DIV PUSH20 0xFFFFFFFFFFFFFFFFFFFFFFFFFFFFFFFFFFFFFFFF AND PUSH20 0xFFFFFFFFFFFFFFFFFFFFFFFFFFFFFFFFFFFFFFFF AND PUSH20 0xFFFFFFFFFFFFFFFFFFFFFFFFFFFFFFFFFFFFFFFF AND DUP2 MSTORE PUSH1 0x20 ADD SWAP1 DUP2 MSTORE PUSH1 0x20 ADD PUSH1 0x0 KECCAK256 SLOAD LT ISZERO PUSH2 0xCC4 JUMPI PUSH1 0x0 DUP1 REVERT JUMPDEST DUP1 PUSH1 0x17 DUP2 SWAP1 SSTORE POP PUSH1 0x1 PUSH1 0x16 PUSH1 0x0 PUSH2 0x100 EXP DUP2 SLOAD DUP2 PUSH1 0xFF MUL NOT AND SWAP1 DUP4 ISZERO ISZERO MUL OR SWAP1 SSTORE POP PUSH32 0xD017961242243731F971165FC8B11C9FD116C66E304166AE93FA6C45AB88CF8A PUSH1 0x1 PUSH1 0x0 SWAP1 SLOAD SWAP1 PUSH2 0x100 EXP SWAP1 DIV PUSH20 0xFFFFFFFFFFFFFFFFFFFFFFFFFFFFFFFFFFFFFFFF AND PUSH1 0x1 DUP4 PUSH1 0x40 MLOAD PUSH2 0xD3C SWAP4 SWAP3 SWAP2 SWAP1 PUSH2 0x5554 JUMP JUMPDEST PUSH1 0x40 MLOAD DUP1 SWAP2 SUB SWAP1 LOG1 POP JUMP JUMPDEST PUSH1 0xF PUSH1 0x0 SWAP1 SLOAD SWAP1 PUSH2 0x100 EXP SWAP1 DIV PUSH1 0xFF AND DUP2 JUMP JUMPDEST PUSH1 0x0 DUP1 PUSH1 0x0 DUP1 PUSH1 0x0 DUP1 PUSH1 0x0 DUP1 PUSH1 0x5 SLOAD PUSH1 0x6 SLOAD PUSH1 0x1 PUSH1 0x0 SWAP1 SLOAD SWAP1 PUSH2 0x100 EXP SWAP1 DIV PUSH20 0xFFFFFFFFFFFFFFFFFFFFFFFFFFFFFFFFFFFFFFFF AND PUSH1 0x2 PUSH1 0x0 SWAP1 SLOAD SWAP1 PUSH2 0x100 EXP SWAP1 DIV PUSH20 0xFFFFFFFFFFFFFFFFFFFFFFFFFFFFFFFFFFFFFFFF AND PUSH1 0x7 SLOAD PUSH1 0x8 SLOAD PUSH1 0x9 SLOAD PUSH1 0xF PUSH1 0x0 SWAP1 SLOAD SWAP1 PUSH2 0x100 EXP SWAP1 DIV PUSH1 0xFF AND SWAP8 POP SWAP8 POP SWAP8 POP SWAP8 POP SWAP8 POP SWAP8 POP SWAP8 POP SWAP8 POP SWAP1 SWAP2 SWAP3 SWAP4 SWAP5 SWAP6 SWAP7 SWAP8 JUMP JUMPDEST PUSH1 0x8 SLOAD DUP2 JUMP JUMPDEST PUSH1 0x7 SLOAD DUP2 JUMP JUMPDEST PUSH1 0x6 SLOAD DUP2 JUMP JUMPDEST PUSH1 0x1 PUSH1 0x0 SWAP1 SLOAD SWAP1 PUSH2 0x100 EXP SWAP1 DIV PUSH20 0xFFFFFFFFFFFFFFFFFFFFFFFFFFFFFFFFFFFFFFFF AND PUSH20 0xFFFFFFFFFFFFFFFFFFFFFFFFFFFFFFFFFFFFFFFF AND CALLER PUSH20 0xFFFFFFFFFFFFFFFFFFFFFFFFFFFFFFFFFFFFFFFF AND EQ PUSH2 0xE87 JUMPI PUSH1 0x40 MLOAD PUSH32 0x8C379A000000000000000000000000000000000000000000000000000000000 DUP2 MSTORE PUSH1 0x4 ADD PUSH2 0xE7E SWAP1 PUSH2 0x5534 JUMP JUMPDEST PUSH1 0x40 MLOAD DUP1 SWAP2 SUB SWAP1 REVERT JUMPDEST PUSH1 0x1 ISZERO ISZERO PUSH1 0xF PUSH1 0x1 SWAP1 SLOAD SWAP1 PUSH2 0x100 EXP SWAP1 DIV PUSH1 0xFF AND ISZERO ISZERO EQ PUSH2 0xEA7 JUMPI PUSH1 0x0 DUP1 REVERT JUMPDEST PUSH1 0x0 PUSH1 0xC8 PUSH1 0x7 SLOAD DUP4 PUSH2 0xEB9 SWAP2 SWAP1 PUSH2 0x558B JUMP JUMPDEST PUSH2 0xEC3 SWAP2 SWAP1 PUSH2 0x55FC JUMP JUMPDEST SWAP1 POP PUSH1 0x5 SLOAD PUSH1 0x10 SLOAD LT PUSH2 0xF0B JUMPI PUSH1 0x40 MLOAD PUSH32 0x8C379A000000000000000000000000000000000000000000000000000000000 DUP2 MSTORE PUSH1 0x4 ADD PUSH2 0xF02 SWAP1 PUSH2 0x569F JUMP JUMPDEST PUSH1 0x40 MLOAD DUP1 SWAP2 SUB SWAP1 REVERT JUMPDEST DUP1 DUP3 PUSH2 0xF17 SWAP2 SWAP1 PUSH2 0x536A JUMP JUMPDEST PUSH1 0x4 PUSH1 0x0 PUSH1 0x1 PUSH1 0x0 SWAP1 SLOAD SWAP1 PUSH2 0x100 EXP SWAP1 DIV PUSH20 0xFFFFFFFFFFFFFFFFFFFFFFFFFFFFFFFFFFFFFFFF AND PUSH20 0xFFFFFFFFFFFFFFFFFFFFFFFFFFFFFFFFFFFFFFFF AND PUSH20 0xFFFFFFFFFFFFFFFFFFFFFFFFFFFFFFFFFFFFFFFF AND DUP2 MSTORE PUSH1 0x20 ADD SWAP1 DUP2 MSTORE PUSH1 0x20 ADD PUSH1 0x0 KECCAK256 SLOAD LT ISZERO PUSH2 0xFBA JUMPI PUSH1 0x40 MLOAD PUSH32 0x8C379A000000000000000000000000000000000000000000000000000000000 DUP2 MSTORE PUSH1 0x4 ADD PUSH2 0xFB1 SWAP1 PUSH2 0x5731 JUMP JUMPDEST PUSH1 0x40 MLOAD DUP1 SWAP2 SUB SWAP1 REVERT JUMPDEST PUSH1 0x0 DUP3 GT PUSH2 0xFC7 JUMPI PUSH1 0x0 DUP1 REVERT JUMPDEST PUSH1 0x10 PUSH1 0x0 DUP2 SLOAD DUP1 SWAP3 SWAP2 SWAP1 PUSH2 0xFDA SWAP1 PUSH2 0x5751 JUMP JUMPDEST SWAP2 SWAP1 POP SSTORE POP PUSH1 0x11 SLOAD PUSH1 0x10 SLOAD EQ DUP1 PUSH2 0x1000 JUMPI POP PUSH1 0x11 SLOAD PUSH1 0x1 PUSH1 0x10 SLOAD PUSH2 0xFFE SWAP2 SWAP1 PUSH2 0x5275 JUMP JUMPDEST EQ JUMPDEST PUSH2 0x103F JUMPI PUSH1 0x40 MLOAD PUSH32 0x8C379A000000000000000000000000000000000000000000000000000000000 DUP2 MSTORE PUSH1 0x4 ADD PUSH2 0x1036 SWAP1 PUSH2 0x5831 JUMP JUMPDEST PUSH1 0x40 MLOAD DUP1 SWAP2 SUB SWAP1 REVERT JUMPDEST PUSH1 0x0 PUSH1 0x40 MLOAD DUP1 PUSH1 0x80 ADD PUSH1 0x40 MSTORE DUP1 DUP5 DUP2 MSTORE PUSH1 0x20 ADD PUSH1 0x10 SLOAD DUP2 MSTORE PUSH1 0x20 ADD PUSH1 0x1 ISZERO ISZERO DUP2 MSTORE PUSH1 0x20 ADD PUSH1 0x0 ISZERO ISZERO DUP2 MSTORE POP SWAP1 POP PUSH1 0x1 PUSH1 0x5 SLOAD GT DUP1 ISZERO PUSH2 0x1080 JUMPI POP PUSH1 0x1 PUSH1 0x10 SLOAD EQ JUMPDEST ISZERO PUSH2 0x1127 JUMPI PUSH1 0x1C DUP2 SWAP1 DUP1 PUSH1 0x1 DUP2 SLOAD ADD DUP1 DUP3 SSTORE DUP1 SWAP2 POP POP PUSH1 0x1 SWAP1 SUB SWAP1 PUSH1 0x0 MSTORE PUSH1 0x20 PUSH1 0x0 KECCAK256 SWAP1 PUSH1 0x3 MUL ADD PUSH1 0x0 SWAP1 SWAP2 SWAP1 SWAP2 SWAP1 SWAP2 POP PUSH1 0x0 DUP3 ADD MLOAD DUP2 PUSH1 0x0 ADD SSTORE PUSH1 0x20 DUP3 ADD MLOAD DUP2 PUSH1 0x1 ADD SSTORE PUSH1 0x40 DUP3 ADD MLOAD DUP2 PUSH1 0x2 ADD PUSH1 0x0 PUSH2 0x100 EXP DUP2 SLOAD DUP2 PUSH1 0xFF MUL NOT AND SWAP1 DUP4 ISZERO ISZERO MUL OR SWAP1 SSTORE POP PUSH1 0x60 DUP3 ADD MLOAD DUP2 PUSH1 0x2 ADD PUSH1 0x1 PUSH2 0x100 EXP DUP2 SLOAD DUP2 PUSH1 0xFF MUL NOT AND SWAP1 DUP4 ISZERO ISZERO MUL OR SWAP1 SSTORE POP POP POP PUSH1 0x1 PUSH1 0xA PUSH1 0x0 PUSH2 0x100 EXP DUP2 SLOAD DUP2 PUSH1 0xFF MUL NOT AND SWAP1 DUP4 ISZERO ISZERO MUL OR SWAP1 SSTORE POP PUSH2 0x11C3 JUMP JUMPDEST DUP3 PUSH1 0xB PUSH1 0x0 DUP3 DUP3 SLOAD PUSH2 0x1139 SWAP2 SWAP1 PUSH2 0x536A JUMP JUMPDEST SWAP3 POP POP DUP2 SWAP1 SSTORE POP PUSH1 0x1C DUP2 SWAP1 DUP1 PUSH1 0x1 DUP2 SLOAD ADD DUP1 DUP3 SSTORE DUP1 SWAP2 POP POP PUSH1 0x1 SWAP1 SUB SWAP1 PUSH1 0x0 MSTORE PUSH1 0x20 PUSH1 0x0 KECCAK256 SWAP1 PUSH1 0x3 MUL ADD PUSH1 0x0 SWAP1 SWAP2 SWAP1 SWAP2 SWAP1 SWAP2 POP PUSH1 0x0 DUP3 ADD MLOAD DUP2 PUSH1 0x0 ADD SSTORE PUSH1 0x20 DUP3 ADD MLOAD DUP2 PUSH1 0x1 ADD SSTORE PUSH1 0x40 DUP3 ADD MLOAD DUP2 PUSH1 0x2 ADD PUSH1 0x0 PUSH2 0x100 EXP DUP2 SLOAD DUP2 PUSH1 0xFF MUL NOT AND SWAP1 DUP4 ISZERO ISZERO MUL OR SWAP1 SSTORE POP PUSH1 0x60 DUP3 ADD MLOAD DUP2 PUSH1 0x2 ADD PUSH1 0x1 PUSH2 0x100 EXP DUP2 SLOAD DUP2 PUSH1 0xFF MUL NOT AND SWAP1 DUP4 ISZERO ISZERO MUL OR SWAP1 SSTORE POP POP POP JUMPDEST PUSH1 0x5 SLOAD PUSH1 0x10 SLOAD EQ DUP1 ISZERO PUSH2 0x11D9 JUMPI POP PUSH1 0x5 SLOAD PUSH1 0x11 SLOAD EQ JUMPDEST ISZERO PUSH2 0x1225 JUMPI PUSH2 0x11EC PUSH1 0xB SLOAD PUSH1 0xC SLOAD PUSH2 0x41B5 JUMP JUMPDEST PUSH32 0xC1E80C6033B9A1CDB8B51042A43AF8AA76B052E2338CB9CD55B96FBD34DAB7EE PUSH1 0x1 PUSH1 0x40 MLOAD PUSH2 0x121C SWAP2 SWAP1 PUSH2 0x5009 JUMP JUMPDEST PUSH1 0x40 MLOAD DUP1 SWAP2 SUB SWAP1 LOG1 JUMPDEST PUSH1 0x11 SLOAD PUSH1 0x10 SLOAD EQ DUP1 ISZERO PUSH2 0x127C JUMPI POP PUSH1 0x1 ISZERO ISZERO PUSH1 0x1B PUSH1 0x1 PUSH1 0x11 SLOAD PUSH2 0x1248 SWAP2 SWAP1 PUSH2 0x5275 JUMP JUMPDEST DUP2 SLOAD DUP2 LT PUSH2 0x1259 JUMPI PUSH2 0x1258 PUSH2 0x52A9 JUMP JUMPDEST JUMPDEST SWAP1 PUSH1 0x0 MSTORE PUSH1 0x20 PUSH1 0x0 KECCAK256 SWAP1 PUSH1 0x3 MUL ADD PUSH1 0x2 ADD PUSH1 0x0 SWAP1 SLOAD SWAP1 PUSH2 0x100 EXP SWAP1 DIV PUSH1 0xFF AND ISZERO ISZERO EQ JUMPDEST ISZERO PUSH2 0x12EE JUMPI PUSH2 0x1289 PUSH2 0x4291 JUMP JUMPDEST PUSH32 0x11A479E5C2928166A4647520BABF75193C4E51630FB980FAD7D4A30E0CC1670 PUSH1 0x1 PUSH1 0x0 SWAP1 SLOAD SWAP1 PUSH2 0x100 EXP SWAP1 DIV PUSH20 0xFFFFFFFFFFFFFFFFFFFFFFFFFFFFFFFFFFFFFFFF AND PUSH1 0x10 SLOAD PUSH1 0x1 PUSH1 0x40 MLOAD PUSH2 0x12E1 SWAP4 SWAP3 SWAP2 SWAP1 PUSH2 0x5851 JUMP JUMPDEST PUSH1 0x40 MLOAD DUP1 SWAP2 SUB SWAP1 LOG1 PUSH2 0x134F JUMP JUMPDEST PUSH32 0x11A479E5C2928166A4647520BABF75193C4E51630FB980FAD7D4A30E0CC1670 PUSH1 0x1 PUSH1 0x0 SWAP1 SLOAD SWAP1 PUSH2 0x100 EXP SWAP1 DIV PUSH20 0xFFFFFFFFFFFFFFFFFFFFFFFFFFFFFFFFFFFFFFFF AND PUSH1 0x10 SLOAD PUSH1 0x0 PUSH1 0x40 MLOAD PUSH2 0x1346 SWAP4 SWAP3 SWAP2 SWAP1 PUSH2 0x5851 JUMP JUMPDEST PUSH1 0x40 MLOAD DUP1 SWAP2 SUB SWAP1 LOG1 JUMPDEST POP POP POP JUMP JUMPDEST PUSH1 0x1 PUSH1 0x0 SWAP1 SLOAD SWAP1 PUSH2 0x100 EXP SWAP1 DIV PUSH20 0xFFFFFFFFFFFFFFFFFFFFFFFFFFFFFFFFFFFFFFFF AND PUSH20 0xFFFFFFFFFFFFFFFFFFFFFFFFFFFFFFFFFFFFFFFF AND CALLER PUSH20 0xFFFFFFFFFFFFFFFFFFFFFFFFFFFFFFFFFFFFFFFF AND EQ PUSH2 0x13E4 JUMPI PUSH1 0x40 MLOAD PUSH32 0x8C379A000000000000000000000000000000000000000000000000000000000 DUP2 MSTORE PUSH1 0x4 ADD PUSH2 0x13DB SWAP1 PUSH2 0x5534 JUMP JUMPDEST PUSH1 0x40 MLOAD DUP1 SWAP2 SUB SWAP1 REVERT JUMPDEST PUSH1 0x0 ISZERO ISZERO PUSH1 0xF PUSH1 0x0 SWAP1 SLOAD SWAP1 PUSH2 0x100 EXP SWAP1 DIV PUSH1 0xFF AND ISZERO ISZERO EQ PUSH2 0x1404 JUMPI PUSH1 0x0 DUP1 REVERT JUMPDEST PUSH1 0x6 SLOAD PUSH1 0x12 SLOAD LT PUSH2 0x144A JUMPI PUSH1 0x40 MLOAD PUSH32 0x8C379A000000000000000000000000000000000000000000000000000000000 DUP2 MSTORE PUSH1 0x4 ADD PUSH2 0x1441 SWAP1 PUSH2 0x58FA JUMP JUMPDEST PUSH1 0x40 MLOAD DUP1 SWAP2 SUB SWAP1 REVERT JUMPDEST PUSH1 0x0 PUSH1 0xC8 PUSH1 0x8 SLOAD DUP4 PUSH2 0x145C SWAP2 SWAP1 PUSH2 0x558B JUMP JUMPDEST PUSH2 0x1466 SWAP2 SWAP1 PUSH2 0x55FC JUMP JUMPDEST SWAP1 POP PUSH1 0x0 DUP2 DUP4 PUSH2 0x1476 SWAP2 SWAP1 PUSH2 0x536A JUMP JUMPDEST SWAP1 POP DUP1 PUSH1 0x4 PUSH1 0x0 CALLER PUSH20 0xFFFFFFFFFFFFFFFFFFFFFFFFFFFFFFFFFFFFFFFF AND PUSH20 0xFFFFFFFFFFFFFFFFFFFFFFFFFFFFFFFFFFFFFFFF AND DUP2 MSTORE PUSH1 0x20 ADD SWAP1 DUP2 MSTORE PUSH1 0x20 ADD PUSH1 0x0 KECCAK256 SLOAD LT ISZERO PUSH2 0x14FA JUMPI PUSH1 0x40 MLOAD PUSH32 0x8C379A000000000000000000000000000000000000000000000000000000000 DUP2 MSTORE PUSH1 0x4 ADD PUSH2 0x14F1 SWAP1 PUSH2 0x5731 JUMP JUMPDEST PUSH1 0x40 MLOAD DUP1 SWAP2 SUB SWAP1 REVERT JUMPDEST PUSH1 0x0 PUSH1 0xD SLOAD GT PUSH2 0x153F JUMPI PUSH1 0x40 MLOAD PUSH32 0x8C379A000000000000000000000000000000000000000000000000000000000 DUP2 MSTORE PUSH1 0x4 ADD PUSH2 0x1536 SWAP1 PUSH2 0x598C JUMP JUMPDEST PUSH1 0x40 MLOAD DUP1 SWAP2 SUB SWAP1 REVERT JUMPDEST PUSH1 0x12 PUSH1 0x0 DUP2 SLOAD DUP1 SWAP3 SWAP2 SWAP1 PUSH2 0x1552 SWAP1 PUSH2 0x5751 JUMP JUMPDEST SWAP2 SWAP1 POP SSTORE POP PUSH1 0x13 SLOAD PUSH1 0x12 SLOAD EQ DUP1 PUSH2 0x1578 JUMPI POP PUSH1 0x13 SLOAD PUSH1 0x1 PUSH1 0x12 SLOAD PUSH2 0x1576 SWAP2 SWAP1 PUSH2 0x5275 JUMP JUMPDEST EQ JUMPDEST PUSH2 0x15B7 JUMPI PUSH1 0x40 MLOAD PUSH32 0x8C379A000000000000000000000000000000000000000000000000000000000 DUP2 MSTORE PUSH1 0x4 ADD PUSH2 0x15AE SWAP1 PUSH2 0x5831 JUMP JUMPDEST PUSH1 0x40 MLOAD DUP1 SWAP2 SUB SWAP1 REVERT JUMPDEST PUSH1 0x0 PUSH1 0x40 MLOAD DUP1 PUSH1 0x60 ADD PUSH1 0x40 MSTORE DUP1 DUP6 DUP2 MSTORE PUSH1 0x20 ADD PUSH1 0x12 SLOAD DUP2 MSTORE PUSH1 0x20 ADD PUSH1 0x1 ISZERO ISZERO DUP2 MSTORE POP SWAP1 POP PUSH1 0x1E DUP2 SWAP1 DUP1 PUSH1 0x1 DUP2 SLOAD ADD DUP1 DUP3 SSTORE DUP1 SWAP2 POP POP PUSH1 0x1 SWAP1 SUB SWAP1 PUSH1 0x0 MSTORE PUSH1 0x20 PUSH1 0x0 KECCAK256 SWAP1 PUSH1 0x3 MUL ADD PUSH1 0x0 SWAP1 SWAP2 SWAP1 SWAP2 SWAP1 SWAP2 POP PUSH1 0x0 DUP3 ADD MLOAD DUP2 PUSH1 0x0 ADD SSTORE PUSH1 0x20 DUP3 ADD MLOAD DUP2 PUSH1 0x1 ADD SSTORE PUSH1 0x40 DUP3 ADD MLOAD DUP2 PUSH1 0x2 ADD PUSH1 0x0 PUSH2 0x100 EXP DUP2 SLOAD DUP2 PUSH1 0xFF MUL NOT AND SWAP1 DUP4 ISZERO ISZERO MUL OR SWAP1 SSTORE POP POP POP PUSH1 0x13 SLOAD PUSH1 0x12 SLOAD EQ DUP1 ISZERO PUSH2 0x1694 JUMPI POP PUSH1 0x1 ISZERO ISZERO PUSH1 0x1D PUSH1 0x1 PUSH1 0x13 SLOAD PUSH2 0x1660 SWAP2 SWAP1 PUSH2 0x5275 JUMP JUMPDEST DUP2 SLOAD DUP2 LT PUSH2 0x1671 JUMPI PUSH2 0x1670 PUSH2 0x52A9 JUMP JUMPDEST JUMPDEST SWAP1 PUSH1 0x0 MSTORE PUSH1 0x20 PUSH1 0x0 KECCAK256 SWAP1 PUSH1 0x3 MUL ADD PUSH1 0x2 ADD PUSH1 0x0 SWAP1 SLOAD SWAP1 PUSH2 0x100 EXP SWAP1 DIV PUSH1 0xFF AND ISZERO ISZERO EQ JUMPDEST ISZERO PUSH2 0x1707 JUMPI PUSH2 0x16A2 DUP3 PUSH2 0x4555 JUMP JUMPDEST PUSH32 0xF9FB9A700F03EA52A997D8C4BCBF294FA6AE49C94181B559B1C14326093DACCB PUSH1 0x1 PUSH1 0x0 SWAP1 SLOAD SWAP1 PUSH2 0x100 EXP SWAP1 DIV PUSH20 0xFFFFFFFFFFFFFFFFFFFFFFFFFFFFFFFFFFFFFFFF AND PUSH1 0x12 SLOAD PUSH1 0x1 PUSH1 0x40 MLOAD PUSH2 0x16FA SWAP4 SWAP3 SWAP2 SWAP1 PUSH2 0x5851 JUMP JUMPDEST PUSH1 0x40 MLOAD DUP1 SWAP2 SUB SWAP1 LOG1 PUSH2 0x1768 JUMP JUMPDEST PUSH32 0xF9FB9A700F03EA52A997D8C4BCBF294FA6AE49C94181B559B1C14326093DACCB PUSH1 0x1 PUSH1 0x0 SWAP1 SLOAD SWAP1 PUSH2 0x100 EXP SWAP1 DIV PUSH20 0xFFFFFFFFFFFFFFFFFFFFFFFFFFFFFFFFFFFFFFFF AND PUSH1 0x12 SLOAD PUSH1 0x0 PUSH1 0x40 MLOAD PUSH2 0x175F SWAP4 SWAP3 SWAP2 SWAP1 PUSH2 0x5851 JUMP JUMPDEST PUSH1 0x40 MLOAD DUP1 SWAP2 SUB SWAP1 LOG1 JUMPDEST POP POP POP POP JUMP JUMPDEST PUSH1 0x1 PUSH1 0x0 SWAP1 SLOAD SWAP1 PUSH2 0x100 EXP SWAP1 DIV PUSH20 0xFFFFFFFFFFFFFFFFFFFFFFFFFFFFFFFFFFFFFFFF AND PUSH20 0xFFFFFFFFFFFFFFFFFFFFFFFFFFFFFFFFFFFFFFFF AND CALLER PUSH20 0xFFFFFFFFFFFFFFFFFFFFFFFFFFFFFFFFFFFFFFFF AND EQ DUP1 ISZERO PUSH2 0x17DE JUMPI POP PUSH1 0x1 ISZERO ISZERO PUSH1 0x16 PUSH1 0x0 SWAP1 SLOAD SWAP1 PUSH2 0x100 EXP SWAP1 DIV PUSH1 0xFF AND ISZERO ISZERO EQ JUMPDEST DUP1 ISZERO PUSH2 0x17FD JUMPI POP PUSH1 0x0 ISZERO ISZERO PUSH1 0x18 PUSH1 0x0 SWAP1 SLOAD SWAP1 PUSH2 0x100 EXP SWAP1 DIV PUSH1 0xFF AND ISZERO ISZERO EQ JUMPDEST ISZERO PUSH2 0x1A3B JUMPI PUSH1 0xE SLOAD DUP2 PUSH2 0x1810 SWAP2 SWAP1 PUSH2 0x536A JUMP JUMPDEST PUSH1 0x4 PUSH1 0x0 PUSH1 0x1 PUSH1 0x0 SWAP1 SLOAD SWAP1 PUSH2 0x100 EXP SWAP1 DIV PUSH20 0xFFFFFFFFFFFFFFFFFFFFFFFFFFFFFFFFFFFFFFFF AND PUSH20 0xFFFFFFFFFFFFFFFFFFFFFFFFFFFFFFFFFFFFFFFF AND PUSH20 0xFFFFFFFFFFFFFFFFFFFFFFFFFFFFFFFFFFFFFFFF AND DUP2 MSTORE PUSH1 0x20 ADD SWAP1 DUP2 MSTORE PUSH1 0x20 ADD PUSH1 0x0 KECCAK256 SLOAD LT ISZERO PUSH2 0x18B3 JUMPI PUSH1 0x40 MLOAD PUSH32 0x8C379A000000000000000000000000000000000000000000000000000000000 DUP2 MSTORE PUSH1 0x4 ADD PUSH2 0x18AA SWAP1 PUSH2 0x5A1E JUMP JUMPDEST PUSH1 0x40 MLOAD DUP1 SWAP2 SUB SWAP1 REVERT JUMPDEST PUSH1 0xE SLOAD DUP2 PUSH2 0x18C1 SWAP2 SWAP1 PUSH2 0x536A JUMP JUMPDEST PUSH1 0x4 PUSH1 0x0 PUSH1 0x1 PUSH1 0x0 SWAP1 SLOAD SWAP1 PUSH2 0x100 EXP SWAP1 DIV PUSH20 0xFFFFFFFFFFFFFFFFFFFFFFFFFFFFFFFFFFFFFFFF AND PUSH20 0xFFFFFFFFFFFFFFFFFFFFFFFFFFFFFFFFFFFFFFFF AND PUSH20 0xFFFFFFFFFFFFFFFFFFFFFFFFFFFFFFFFFFFFFFFF AND DUP2 MSTORE PUSH1 0x20 ADD SWAP1 DUP2 MSTORE PUSH1 0x20 ADD PUSH1 0x0 KECCAK256 PUSH1 0x0 DUP3 DUP3 SLOAD PUSH2 0x1931 SWAP2 SWAP1 PUSH2 0x5275 JUMP JUMPDEST SWAP3 POP POP DUP2 SWAP1 SSTORE POP PUSH1 0xE SLOAD PUSH1 0x4 PUSH1 0x0 PUSH1 0x3 PUSH1 0x0 SWAP1 SLOAD SWAP1 PUSH2 0x100 EXP SWAP1 DIV PUSH20 0xFFFFFFFFFFFFFFFFFFFFFFFFFFFFFFFFFFFFFFFF AND PUSH20 0xFFFFFFFFFFFFFFFFFFFFFFFFFFFFFFFFFFFFFFFF AND PUSH20 0xFFFFFFFFFFFFFFFFFFFFFFFFFFFFFFFFFFFFFFFF AND DUP2 MSTORE PUSH1 0x20 ADD SWAP1 DUP2 MSTORE PUSH1 0x20 ADD PUSH1 0x0 KECCAK256 PUSH1 0x0 DUP3 DUP3 SLOAD PUSH2 0x19AB SWAP2 SWAP1 PUSH2 0x536A JUMP JUMPDEST SWAP3 POP POP DUP2 SWAP1 SSTORE POP PUSH1 0x1 PUSH1 0x0 SWAP1 SLOAD SWAP1 PUSH2 0x100 EXP SWAP1 DIV PUSH20 0xFFFFFFFFFFFFFFFFFFFFFFFFFFFFFFFFFFFFFFFF AND PUSH20 0xFFFFFFFFFFFFFFFFFFFFFFFFFFFFFFFFFFFFFFFF AND PUSH2 0x8FC DUP3 SWAP1 DUP2 ISZERO MUL SWAP1 PUSH1 0x40 MLOAD PUSH1 0x0 PUSH1 0x40 MLOAD DUP1 DUP4 SUB DUP2 DUP6 DUP9 DUP9 CALL SWAP4 POP POP POP POP ISZERO DUP1 ISZERO PUSH2 0x1A1A JUMPI RETURNDATASIZE PUSH1 0x0 DUP1 RETURNDATACOPY RETURNDATASIZE PUSH1 0x0 REVERT JUMPDEST POP PUSH1 0x1 PUSH1 0x18 PUSH1 0x0 PUSH2 0x100 EXP DUP2 SLOAD DUP2 PUSH1 0xFF MUL NOT AND SWAP1 DUP4 ISZERO ISZERO MUL OR SWAP1 SSTORE POP PUSH2 0x1E29 JUMP JUMPDEST PUSH1 0x2 PUSH1 0x0 SWAP1 SLOAD SWAP1 PUSH2 0x100 EXP SWAP1 DIV PUSH20 0xFFFFFFFFFFFFFFFFFFFFFFFFFFFFFFFFFFFFFFFF AND PUSH20 0xFFFFFFFFFFFFFFFFFFFFFFFFFFFFFFFFFFFFFFFF AND CALLER PUSH20 0xFFFFFFFFFFFFFFFFFFFFFFFFFFFFFFFFFFFFFFFF AND EQ DUP1 ISZERO PUSH2 0x1AAB JUMPI POP PUSH1 0x1 ISZERO ISZERO PUSH1 0x18 PUSH1 0x1 SWAP1 SLOAD SWAP1 PUSH2 0x100 EXP SWAP1 DIV PUSH1 0xFF AND ISZERO ISZERO EQ JUMPDEST DUP1 ISZERO PUSH2 0x1ACA JUMPI POP PUSH1 0x0 ISZERO ISZERO PUSH1 0x1A PUSH1 0x0 SWAP1 SLOAD SWAP1 PUSH2 0x100 EXP SWAP1 DIV PUSH1 0xFF AND ISZERO ISZERO EQ JUMPDEST ISZERO PUSH2 0x1D08 JUMPI PUSH1 0xE SLOAD DUP2 PUSH2 0x1ADD SWAP2 SWAP1 PUSH2 0x536A JUMP JUMPDEST PUSH1 0x4 PUSH1 0x0 PUSH1 0x2 PUSH1 0x0 SWAP1 SLOAD SWAP1 PUSH2 0x100 EXP SWAP1 DIV PUSH20 0xFFFFFFFFFFFFFFFFFFFFFFFFFFFFFFFFFFFFFFFF AND PUSH20 0xFFFFFFFFFFFFFFFFFFFFFFFFFFFFFFFFFFFFFFFF AND PUSH20 0xFFFFFFFFFFFFFFFFFFFFFFFFFFFFFFFFFFFFFFFF AND DUP2 MSTORE PUSH1 0x20 ADD SWAP1 DUP2 MSTORE PUSH1 0x20 ADD PUSH1 0x0 KECCAK256 SLOAD LT ISZERO PUSH2 0x1B80 JUMPI PUSH1 0x40 MLOAD PUSH32 0x8C379A000000000000000000000000000000000000000000000000000000000 DUP2 MSTORE PUSH1 0x4 ADD PUSH2 0x1B77 SWAP1 PUSH2 0x5A1E JUMP JUMPDEST PUSH1 0x40 MLOAD DUP1 SWAP2 SUB SWAP1 REVERT JUMPDEST PUSH1 0xE SLOAD DUP2 PUSH2 0x1B8E SWAP2 SWAP1 PUSH2 0x536A JUMP JUMPDEST PUSH1 0x4 PUSH1 0x0 PUSH1 0x2 PUSH1 0x0 SWAP1 SLOAD SWAP1 PUSH2 0x100 EXP SWAP1 DIV PUSH20 0xFFFFFFFFFFFFFFFFFFFFFFFFFFFFFFFFFFFFFFFF AND PUSH20 0xFFFFFFFFFFFFFFFFFFFFFFFFFFFFFFFFFFFFFFFF AND PUSH20 0xFFFFFFFFFFFFFFFFFFFFFFFFFFFFFFFFFFFFFFFF AND DUP2 MSTORE PUSH1 0x20 ADD SWAP1 DUP2 MSTORE PUSH1 0x20 ADD PUSH1 0x0 KECCAK256 PUSH1 0x0 DUP3 DUP3 SLOAD PUSH2 0x1BFE SWAP2 SWAP1 PUSH2 0x5275 JUMP JUMPDEST SWAP3 POP POP DUP2 SWAP1 SSTORE POP PUSH1 0xE SLOAD PUSH1 0x4 PUSH1 0x0 PUSH1 0x3 PUSH1 0x0 SWAP1 SLOAD SWAP1 PUSH2 0x100 EXP SWAP1 DIV PUSH20 0xFFFFFFFFFFFFFFFFFFFFFFFFFFFFFFFFFFFFFFFF AND PUSH20 0xFFFFFFFFFFFFFFFFFFFFFFFFFFFFFFFFFFFFFFFF AND PUSH20 0xFFFFFFFFFFFFFFFFFFFFFFFFFFFFFFFFFFFFFFFF AND DUP2 MSTORE PUSH1 0x20 ADD SWAP1 DUP2 MSTORE PUSH1 0x20 ADD PUSH1 0x0 KECCAK256 PUSH1 0x0 DUP3 DUP3 SLOAD PUSH2 0x1C78 SWAP2 SWAP1 PUSH2 0x536A JUMP JUMPDEST SWAP3 POP POP DUP2 SWAP1 SSTORE POP PUSH1 0x2 PUSH1 0x0 SWAP1 SLOAD SWAP1 PUSH2 0x100 EXP SWAP1 DIV PUSH20 0xFFFFFFFFFFFFFFFFFFFFFFFFFFFFFFFFFFFFFFFF AND PUSH20 0xFFFFFFFFFFFFFFFFFFFFFFFFFFFFFFFFFFFFFFFF AND PUSH2 0x8FC DUP3 SWAP1 DUP2 ISZERO MUL SWAP1 PUSH1 0x40 MLOAD PUSH1 0x0 PUSH1 0x40 MLOAD DUP1 DUP4 SUB DUP2 DUP6 DUP9 DUP9 CALL SWAP4 POP POP POP POP ISZERO DUP1 ISZERO PUSH2 0x1CE7 JUMPI RETURNDATASIZE PUSH1 0x0 DUP1 RETURNDATACOPY RETURNDATASIZE PUSH1 0x0 REVERT JUMPDEST POP PUSH1 0x1 PUSH1 0x1A PUSH1 0x0 PUSH2 0x100 EXP DUP2 SLOAD DUP2 PUSH1 0xFF MUL NOT AND SWAP1 DUP4 ISZERO ISZERO MUL OR SWAP1 SSTORE POP PUSH2 0x1E28 JUMP JUMPDEST PUSH1 0x4 PUSH1 0x0 CALLER PUSH20 0xFFFFFFFFFFFFFFFFFFFFFFFFFFFFFFFFFFFFFFFF AND PUSH20 0xFFFFFFFFFFFFFFFFFFFFFFFFFFFFFFFFFFFFFFFF AND DUP2 MSTORE PUSH1 0x20 ADD SWAP1 DUP2 MSTORE PUSH1 0x20 ADD PUSH1 0x0 KECCAK256 SLOAD DUP2 GT ISZERO PUSH2 0x1D8A JUMPI PUSH1 0x40 MLOAD PUSH32 0x8C379A000000000000000000000000000000000000000000000000000000000 DUP2 MSTORE PUSH1 0x4 ADD PUSH2 0x1D81 SWAP1 PUSH2 0x5A8A JUMP JUMPDEST PUSH1 0x40 MLOAD DUP1 SWAP2 SUB SWAP1 REVERT JUMPDEST DUP1 PUSH1 0x4 PUSH1 0x0 CALLER PUSH20 0xFFFFFFFFFFFFFFFFFFFFFFFFFFFFFFFFFFFFFFFF AND PUSH20 0xFFFFFFFFFFFFFFFFFFFFFFFFFFFFFFFFFFFFFFFF AND DUP2 MSTORE PUSH1 0x20 ADD SWAP1 DUP2 MSTORE PUSH1 0x20 ADD PUSH1 0x0 KECCAK256 PUSH1 0x0 DUP3 DUP3 SLOAD PUSH2 0x1DD9 SWAP2 SWAP1 PUSH2 0x5275 JUMP JUMPDEST SWAP3 POP POP DUP2 SWAP1 SSTORE POP CALLER PUSH20 0xFFFFFFFFFFFFFFFFFFFFFFFFFFFFFFFFFFFFFFFF AND PUSH2 0x8FC DUP3 SWAP1 DUP2 ISZERO MUL SWAP1 PUSH1 0x40 MLOAD PUSH1 0x0 PUSH1 0x40 MLOAD DUP1 DUP4 SUB DUP2 DUP6 DUP9 DUP9 CALL SWAP4 POP POP POP POP ISZERO DUP1 ISZERO PUSH2 0x1E26 JUMPI RETURNDATASIZE PUSH1 0x0 DUP1 RETURNDATACOPY RETURNDATASIZE PUSH1 0x0 REVERT JUMPDEST POP JUMPDEST JUMPDEST POP JUMP JUMPDEST PUSH1 0x2 PUSH1 0x0 SWAP1 SLOAD SWAP1 PUSH2 0x100 EXP SWAP1 DIV PUSH20 0xFFFFFFFFFFFFFFFFFFFFFFFFFFFFFFFFFFFFFFFF AND PUSH20 0xFFFFFFFFFFFFFFFFFFFFFFFFFFFFFFFFFFFFFFFF AND CALLER PUSH20 0xFFFFFFFFFFFFFFFFFFFFFFFFFFFFFFFFFFFFFFFF AND EQ PUSH2 0x1EBC JUMPI PUSH1 0x40 MLOAD PUSH32 0x8C379A000000000000000000000000000000000000000000000000000000000 DUP2 MSTORE PUSH1 0x4 ADD PUSH2 0x1EB3 SWAP1 PUSH2 0x5226 JUMP JUMPDEST PUSH1 0x40 MLOAD DUP1 SWAP2 SUB SWAP1 REVERT JUMPDEST PUSH1 0x0 ISZERO ISZERO PUSH1 0xF PUSH1 0x0 SWAP1 SLOAD SWAP1 PUSH2 0x100 EXP SWAP1 DIV PUSH1 0xFF AND ISZERO ISZERO EQ PUSH2 0x1EDC JUMPI PUSH1 0x0 DUP1 REVERT JUMPDEST PUSH1 0x0 PUSH1 0x12 SLOAD GT DUP1 ISZERO PUSH2 0x1EF0 JUMPI POP PUSH1 0x0 PUSH1 0x13 SLOAD GT JUMPDEST PUSH2 0x1EF9 JUMPI PUSH1 0x0 DUP1 REVERT JUMPDEST PUSH1 0x0 ISZERO ISZERO PUSH1 0x18 PUSH1 0x1 SWAP1 SLOAD SWAP1 PUSH2 0x100 EXP SWAP1 DIV PUSH1 0xFF AND ISZERO ISZERO EQ PUSH2 0x1F19 JUMPI PUSH1 0x0 DUP1 REVERT JUMPDEST PUSH1 0xE SLOAD PUSH1 0x4 PUSH1 0x0 PUSH1 0x1 PUSH1 0x0 SWAP1 SLOAD SWAP1 PUSH2 0x100 EXP SWAP1 DIV PUSH20 0xFFFFFFFFFFFFFFFFFFFFFFFFFFFFFFFFFFFFFFFF AND PUSH20 0xFFFFFFFFFFFFFFFFFFFFFFFFFFFFFFFFFFFFFFFF AND PUSH20 0xFFFFFFFFFFFFFFFFFFFFFFFFFFFFFFFFFFFFFFFF AND DUP2 MSTORE PUSH1 0x20 ADD SWAP1 DUP2 MSTORE PUSH1 0x20 ADD PUSH1 0x0 KECCAK256 SLOAD LT ISZERO PUSH2 0x1F89 JUMPI PUSH1 0x0 DUP1 REVERT JUMPDEST DUP1 PUSH1 0x19 DUP2 SWAP1 SSTORE POP PUSH1 0x1 PUSH1 0x18 PUSH1 0x1 PUSH2 0x100 EXP DUP2 SLOAD DUP2 PUSH1 0xFF MUL NOT AND SWAP1 DUP4 ISZERO ISZERO MUL OR SWAP1 SSTORE POP PUSH32 0xD017961242243731F971165FC8B11C9FD116C66E304166AE93FA6C45AB88CF8A PUSH1 0x2 PUSH1 0x0 SWAP1 SLOAD SWAP1 PUSH2 0x100 EXP SWAP1 DIV PUSH20 0xFFFFFFFFFFFFFFFFFFFFFFFFFFFFFFFFFFFFFFFF AND PUSH1 0x1 DUP4 PUSH1 0x40 MLOAD PUSH2 0x2001 SWAP4 SWAP3 SWAP2 SWAP1 PUSH2 0x5554 JUMP JUMPDEST PUSH1 0x40 MLOAD DUP1 SWAP2 SUB SWAP1 LOG1 POP JUMP JUMPDEST PUSH1 0x1 PUSH1 0x0 SWAP1 SLOAD SWAP1 PUSH2 0x100 EXP SWAP1 DIV PUSH20 0xFFFFFFFFFFFFFFFFFFFFFFFFFFFFFFFFFFFFFFFF AND PUSH20 0xFFFFFFFFFFFFFFFFFFFFFFFFFFFFFFFFFFFFFFFF AND CALLER PUSH20 0xFFFFFFFFFFFFFFFFFFFFFFFFFFFFFFFFFFFFFFFF AND EQ DUP1 ISZERO PUSH2 0x207C JUMPI POP PUSH1 0x1 ISZERO ISZERO PUSH1 0x16 PUSH1 0x0 SWAP1 SLOAD SWAP1 PUSH2 0x100 EXP SWAP1 DIV PUSH1 0xFF AND ISZERO ISZERO EQ JUMPDEST DUP1 ISZERO PUSH2 0x209B JUMPI POP PUSH1 0x0 ISZERO ISZERO PUSH1 0x18 PUSH1 0x0 SWAP1 SLOAD SWAP1 PUSH2 0x100 EXP SWAP1 DIV PUSH1 0xFF AND ISZERO ISZERO EQ JUMPDEST ISZERO PUSH2 0x229C JUMPI PUSH1 0x0 PUSH1 0xE SLOAD PUSH1 0x4 PUSH1 0x0 PUSH1 0x1 PUSH1 0x0 SWAP1 SLOAD SWAP1 PUSH2 0x100 EXP SWAP1 DIV PUSH20 0xFFFFFFFFFFFFFFFFFFFFFFFFFFFFFFFFFFFFFFFF AND PUSH20 0xFFFFFFFFFFFFFFFFFFFFFFFFFFFFFFFFFFFFFFFF AND PUSH20 0xFFFFFFFFFFFFFFFFFFFFFFFFFFFFFFFFFFFFFFFF AND DUP2 MSTORE PUSH1 0x20 ADD SWAP1 DUP2 MSTORE PUSH1 0x20 ADD PUSH1 0x0 KECCAK256 SLOAD PUSH2 0x2111 SWAP2 SWAP1 PUSH2 0x5275 JUMP JUMPDEST SWAP1 POP PUSH1 0xE SLOAD DUP2 PUSH2 0x2121 SWAP2 SWAP1 PUSH2 0x536A JUMP JUMPDEST PUSH1 0x4 PUSH1 0x0 PUSH1 0x1 PUSH1 0x0 SWAP1 SLOAD SWAP1 PUSH2 0x100 EXP SWAP1 DIV PUSH20 0xFFFFFFFFFFFFFFFFFFFFFFFFFFFFFFFFFFFFFFFF AND PUSH20 0xFFFFFFFFFFFFFFFFFFFFFFFFFFFFFFFFFFFFFFFF AND PUSH20 0xFFFFFFFFFFFFFFFFFFFFFFFFFFFFFFFFFFFFFFFF AND DUP2 MSTORE PUSH1 0x20 ADD SWAP1 DUP2 MSTORE PUSH1 0x20 ADD PUSH1 0x0 KECCAK256 PUSH1 0x0 DUP3 DUP3 SLOAD PUSH2 0x2191 SWAP2 SWAP1 PUSH2 0x5275 JUMP JUMPDEST SWAP3 POP POP DUP2 SWAP1 SSTORE POP PUSH1 0xE SLOAD PUSH1 0x4 PUSH1 0x0 PUSH1 0x3 PUSH1 0x0 SWAP1 SLOAD SWAP1 PUSH2 0x100 EXP SWAP1 DIV PUSH20 0xFFFFFFFFFFFFFFFFFFFFFFFFFFFFFFFFFFFFFFFF AND PUSH20 0xFFFFFFFFFFFFFFFFFFFFFFFFFFFFFFFFFFFFFFFF AND PUSH20 0xFFFFFFFFFFFFFFFFFFFFFFFFFFFFFFFFFFFFFFFF AND DUP2 MSTORE PUSH1 0x20 ADD SWAP1 DUP2 MSTORE PUSH1 0x20 ADD PUSH1 0x0 KECCAK256 PUSH1 0x0 DUP3 DUP3 SLOAD PUSH2 0x220B SWAP2 SWAP1 PUSH2 0x536A JUMP JUMPDEST SWAP3 POP POP DUP2 SWAP1 SSTORE POP PUSH1 0x1 PUSH1 0x0 SWAP1 SLOAD SWAP1 PUSH2 0x100 EXP SWAP1 DIV PUSH20 0xFFFFFFFFFFFFFFFFFFFFFFFFFFFFFFFFFFFFFFFF AND PUSH20 0xFFFFFFFFFFFFFFFFFFFFFFFFFFFFFFFFFFFFFFFF AND PUSH2 0x8FC DUP3 SWAP1 DUP2 ISZERO MUL SWAP1 PUSH1 0x40 MLOAD PUSH1 0x0 PUSH1 0x40 MLOAD DUP1 DUP4 SUB DUP2 DUP6 DUP9 DUP9 CALL SWAP4 POP POP POP POP ISZERO DUP1 ISZERO PUSH2 0x227A JUMPI RETURNDATASIZE PUSH1 0x0 DUP1 RETURNDATACOPY RETURNDATASIZE PUSH1 0x0 REVERT JUMPDEST POP PUSH1 0x1 PUSH1 0x18 PUSH1 0x0 PUSH2 0x100 EXP DUP2 SLOAD DUP2 PUSH1 0xFF MUL NOT AND SWAP1 DUP4 ISZERO ISZERO MUL OR SWAP1 SSTORE POP POP PUSH2 0x2610 JUMP JUMPDEST PUSH1 0x2 PUSH1 0x0 SWAP1 SLOAD SWAP1 PUSH2 0x100 EXP SWAP1 DIV PUSH20 0xFFFFFFFFFFFFFFFFFFFFFFFFFFFFFFFFFFFFFFFF AND PUSH20 0xFFFFFFFFFFFFFFFFFFFFFFFFFFFFFFFFFFFFFFFF AND CALLER PUSH20 0xFFFFFFFFFFFFFFFFFFFFFFFFFFFFFFFFFFFFFFFF AND EQ DUP1 ISZERO PUSH2 0x230C JUMPI POP PUSH1 0x1 ISZERO ISZERO PUSH1 0x18 PUSH1 0x1 SWAP1 SLOAD SWAP1 PUSH2 0x100 EXP SWAP1 DIV PUSH1 0xFF AND ISZERO ISZERO EQ JUMPDEST DUP1 ISZERO PUSH2 0x232B JUMPI POP PUSH1 0x0 ISZERO ISZERO PUSH1 0x1A PUSH1 0x0 SWAP1 SLOAD SWAP1 PUSH2 0x100 EXP SWAP1 DIV PUSH1 0xFF AND ISZERO ISZERO EQ JUMPDEST ISZERO PUSH2 0x252C JUMPI PUSH1 0x0 PUSH1 0xE SLOAD PUSH1 0x4 PUSH1 0x0 PUSH1 0x2 PUSH1 0x0 SWAP1 SLOAD SWAP1 PUSH2 0x100 EXP SWAP1 DIV PUSH20 0xFFFFFFFFFFFFFFFFFFFFFFFFFFFFFFFFFFFFFFFF AND PUSH20 0xFFFFFFFFFFFFFFFFFFFFFFFFFFFFFFFFFFFFFFFF AND PUSH20 0xFFFFFFFFFFFFFFFFFFFFFFFFFFFFFFFFFFFFFFFF AND DUP2 MSTORE PUSH1 0x20 ADD SWAP1 DUP2 MSTORE PUSH1 0x20 ADD PUSH1 0x0 KECCAK256 SLOAD PUSH2 0x23A1 SWAP2 SWAP1 PUSH2 0x5275 JUMP JUMPDEST SWAP1 POP PUSH1 0xE SLOAD DUP2 PUSH2 0x23B1 SWAP2 SWAP1 PUSH2 0x536A JUMP JUMPDEST PUSH1 0x4 PUSH1 0x0 PUSH1 0x2 PUSH1 0x0 SWAP1 SLOAD SWAP1 PUSH2 0x100 EXP SWAP1 DIV PUSH20 0xFFFFFFFFFFFFFFFFFFFFFFFFFFFFFFFFFFFFFFFF AND PUSH20 0xFFFFFFFFFFFFFFFFFFFFFFFFFFFFFFFFFFFFFFFF AND PUSH20 0xFFFFFFFFFFFFFFFFFFFFFFFFFFFFFFFFFFFFFFFF AND DUP2 MSTORE PUSH1 0x20 ADD SWAP1 DUP2 MSTORE PUSH1 0x20 ADD PUSH1 0x0 KECCAK256 PUSH1 0x0 DUP3 DUP3 SLOAD PUSH2 0x2421 SWAP2 SWAP1 PUSH2 0x5275 JUMP JUMPDEST SWAP3 POP POP DUP2 SWAP1 SSTORE POP PUSH1 0xE SLOAD PUSH1 0x4 PUSH1 0x0 PUSH1 0x3 PUSH1 0x0 SWAP1 SLOAD SWAP1 PUSH2 0x100 EXP SWAP1 DIV PUSH20 0xFFFFFFFFFFFFFFFFFFFFFFFFFFFFFFFFFFFFFFFF AND PUSH20 0xFFFFFFFFFFFFFFFFFFFFFFFFFFFFFFFFFFFFFFFF AND PUSH20 0xFFFFFFFFFFFFFFFFFFFFFFFFFFFFFFFFFFFFFFFF AND DUP2 MSTORE PUSH1 0x20 ADD SWAP1 DUP2 MSTORE PUSH1 0x20 ADD PUSH1 0x0 KECCAK256 PUSH1 0x0 DUP3 DUP3 SLOAD PUSH2 0x249B SWAP2 SWAP1 PUSH2 0x536A JUMP JUMPDEST SWAP3 POP POP DUP2 SWAP1 SSTORE POP PUSH1 0x2 PUSH1 0x0 SWAP1 SLOAD SWAP1 PUSH2 0x100 EXP SWAP1 DIV PUSH20 0xFFFFFFFFFFFFFFFFFFFFFFFFFFFFFFFFFFFFFFFF AND PUSH20 0xFFFFFFFFFFFFFFFFFFFFFFFFFFFFFFFFFFFFFFFF AND PUSH2 0x8FC DUP3 SWAP1 DUP2 ISZERO MUL SWAP1 PUSH1 0x40 MLOAD PUSH1 0x0 PUSH1 0x40 MLOAD DUP1 DUP4 SUB DUP2 DUP6 DUP9 DUP9 CALL SWAP4 POP POP POP POP ISZERO DUP1 ISZERO PUSH2 0x250A JUMPI RETURNDATASIZE PUSH1 0x0 DUP1 RETURNDATACOPY RETURNDATASIZE PUSH1 0x0 REVERT JUMPDEST POP PUSH1 0x1 PUSH1 0x1A PUSH1 0x0 PUSH2 0x100 EXP DUP2 SLOAD DUP2 PUSH1 0xFF MUL NOT AND SWAP1 DUP4 ISZERO ISZERO MUL OR SWAP1 SSTORE POP POP PUSH2 0x260F JUMP JUMPDEST PUSH1 0x0 PUSH1 0x4 PUSH1 0x0 CALLER PUSH20 0xFFFFFFFFFFFFFFFFFFFFFFFFFFFFFFFFFFFFFFFF AND PUSH20 0xFFFFFFFFFFFFFFFFFFFFFFFFFFFFFFFFFFFFFFFF AND DUP2 MSTORE PUSH1 0x20 ADD SWAP1 DUP2 MSTORE PUSH1 0x20 ADD PUSH1 0x0 KECCAK256 SLOAD SWAP1 POP DUP1 PUSH1 0x4 PUSH1 0x0 CALLER PUSH20 0xFFFFFFFFFFFFFFFFFFFFFFFFFFFFFFFFFFFFFFFF AND PUSH20 0xFFFFFFFFFFFFFFFFFFFFFFFFFFFFFFFFFFFFFFFF AND DUP2 MSTORE PUSH1 0x20 ADD SWAP1 DUP2 MSTORE PUSH1 0x20 ADD PUSH1 0x0 KECCAK256 PUSH1 0x0 DUP3 DUP3 SLOAD PUSH2 0x25BF SWAP2 SWAP1 PUSH2 0x5275 JUMP JUMPDEST SWAP3 POP POP DUP2 SWAP1 SSTORE POP CALLER PUSH20 0xFFFFFFFFFFFFFFFFFFFFFFFFFFFFFFFFFFFFFFFF AND PUSH2 0x8FC DUP3 SWAP1 DUP2 ISZERO MUL SWAP1 PUSH1 0x40 MLOAD PUSH1 0x0 PUSH1 0x40 MLOAD DUP1 DUP4 SUB DUP2 DUP6 DUP9 DUP9 CALL SWAP4 POP POP POP POP ISZERO DUP1 ISZERO PUSH2 0x260C JUMPI RETURNDATASIZE PUSH1 0x0 DUP1 RETURNDATACOPY RETURNDATASIZE PUSH1 0x0 REVERT JUMPDEST POP POP JUMPDEST JUMPDEST JUMP JUMPDEST PUSH1 0x1 PUSH1 0x0 SWAP1 SLOAD SWAP1 PUSH2 0x100 EXP SWAP1 DIV PUSH20 0xFFFFFFFFFFFFFFFFFFFFFFFFFFFFFFFFFFFFFFFF AND PUSH20 0xFFFFFFFFFFFFFFFFFFFFFFFFFFFFFFFFFFFFFFFF AND CALLER PUSH20 0xFFFFFFFFFFFFFFFFFFFFFFFFFFFFFFFFFFFFFFFF AND EQ PUSH2 0x26A2 JUMPI PUSH1 0x40 MLOAD PUSH32 0x8C379A000000000000000000000000000000000000000000000000000000000 DUP2 MSTORE PUSH1 0x4 ADD PUSH2 0x2699 SWAP1 PUSH2 0x5534 JUMP JUMPDEST PUSH1 0x40 MLOAD DUP1 SWAP2 SUB SWAP1 REVERT JUMPDEST PUSH1 0x11 SLOAD PUSH1 0x10 SLOAD EQ PUSH2 0x26B2 JUMPI PUSH1 0x0 DUP1 REVERT JUMPDEST PUSH1 0x1 ISZERO ISZERO PUSH1 0x1B PUSH1 0x1 PUSH1 0x11 SLOAD PUSH2 0x26C7 SWAP2 SWAP1 PUSH2 0x5275 JUMP JUMPDEST DUP2 SLOAD DUP2 LT PUSH2 0x26D8 JUMPI PUSH2 0x26D7 PUSH2 0x52A9 JUMP JUMPDEST JUMPDEST SWAP1 PUSH1 0x0 MSTORE PUSH1 0x20 PUSH1 0x0 KECCAK256 SWAP1 PUSH1 0x3 MUL ADD PUSH1 0x2 ADD PUSH1 0x0 SWAP1 SLOAD SWAP1 PUSH2 0x100 EXP SWAP1 DIV PUSH1 0xFF AND ISZERO ISZERO EQ DUP1 ISZERO PUSH2 0x274A JUMPI POP PUSH1 0x1 ISZERO ISZERO PUSH1 0x1C PUSH1 0x1 PUSH1 0x10 SLOAD PUSH2 0x2716 SWAP2 SWAP1 PUSH2 0x5275 JUMP JUMPDEST DUP2 SLOAD DUP2 LT PUSH2 0x2727 JUMPI PUSH2 0x2726 PUSH2 0x52A9 JUMP JUMPDEST JUMPDEST SWAP1 PUSH1 0x0 MSTORE PUSH1 0x20 PUSH1 0x0 KECCAK256 SWAP1 PUSH1 0x3 MUL ADD PUSH1 0x2 ADD PUSH1 0x0 SWAP1 SLOAD SWAP1 PUSH2 0x100 EXP SWAP1 DIV PUSH1 0xFF AND ISZERO ISZERO EQ JUMPDEST PUSH2 0x2753 JUMPI PUSH1 0x0 DUP1 REVERT JUMPDEST PUSH1 0x0 ISZERO ISZERO PUSH1 0xF PUSH1 0x0 SWAP1 SLOAD SWAP1 PUSH2 0x100 EXP SWAP1 DIV PUSH1 0xFF AND ISZERO ISZERO EQ PUSH2 0x2773 JUMPI PUSH1 0x0 DUP1 REVERT JUMPDEST PUSH1 0x1 ISZERO ISZERO PUSH1 0xF PUSH1 0x1 SWAP1 SLOAD SWAP1 PUSH2 0x100 EXP SWAP1 DIV PUSH1 0xFF AND ISZERO ISZERO EQ PUSH2 0x2793 JUMPI PUSH1 0x0 DUP1 REVERT JUMPDEST PUSH1 0x1 ISZERO ISZERO PUSH1 0x1B PUSH1 0x1 PUSH1 0x11 SLOAD PUSH2 0x27A8 SWAP2 SWAP1 PUSH2 0x5275 JUMP JUMPDEST DUP2 SLOAD DUP2 LT PUSH2 0x27B9 JUMPI PUSH2 0x27B8 PUSH2 0x52A9 JUMP JUMPDEST JUMPDEST SWAP1 PUSH1 0x0 MSTORE PUSH1 0x20 PUSH1 0x0 KECCAK256 SWAP1 PUSH1 0x3 MUL ADD PUSH1 0x2 ADD PUSH1 0x1 SWAP1 SLOAD SWAP1 PUSH2 0x100 EXP SWAP1 DIV PUSH1 0xFF AND ISZERO ISZERO SUB PUSH2 0x2A56 JUMPI PUSH1 0x14 SLOAD PUSH1 0x4 PUSH1 0x0 PUSH1 0x1 PUSH1 0x0 SWAP1 SLOAD SWAP1 PUSH2 0x100 EXP SWAP1 DIV PUSH20 0xFFFFFFFFFFFFFFFFFFFFFFFFFFFFFFFFFFFFFFFF AND PUSH20 0xFFFFFFFFFFFFFFFFFFFFFFFFFFFFFFFFFFFFFFFF AND PUSH20 0xFFFFFFFFFFFFFFFFFFFFFFFFFFFFFFFFFFFFFFFF AND DUP2 MSTORE PUSH1 0x20 ADD SWAP1 DUP2 MSTORE PUSH1 0x20 ADD PUSH1 0x0 KECCAK256 SLOAD LT ISZERO PUSH2 0x2885 JUMPI PUSH1 0x40 MLOAD PUSH32 0x8C379A000000000000000000000000000000000000000000000000000000000 DUP2 MSTORE PUSH1 0x4 ADD PUSH2 0x287C SWAP1 PUSH2 0x5A8A JUMP JUMPDEST PUSH1 0x40 MLOAD DUP1 SWAP2 SUB SWAP1 REVERT JUMPDEST PUSH1 0x1 PUSH1 0x1C PUSH1 0x1 PUSH1 0x10 SLOAD PUSH2 0x2898 SWAP2 SWAP1 PUSH2 0x5275 JUMP JUMPDEST DUP2 SLOAD DUP2 LT PUSH2 0x28A9 JUMPI PUSH2 0x28A8 PUSH2 0x52A9 JUMP JUMPDEST JUMPDEST SWAP1 PUSH1 0x0 MSTORE PUSH1 0x20 PUSH1 0x0 KECCAK256 SWAP1 PUSH1 0x3 MUL ADD PUSH1 0x2 ADD PUSH1 0x1 PUSH2 0x100 EXP DUP2 SLOAD DUP2 PUSH1 0xFF MUL NOT AND SWAP1 DUP4 ISZERO ISZERO MUL OR SWAP1 SSTORE POP PUSH1 0x14 SLOAD PUSH1 0x4 PUSH1 0x0 PUSH1 0x1 PUSH1 0x0 SWAP1 SLOAD SWAP1 PUSH2 0x100 EXP SWAP1 DIV PUSH20 0xFFFFFFFFFFFFFFFFFFFFFFFFFFFFFFFFFFFFFFFF AND PUSH20 0xFFFFFFFFFFFFFFFFFFFFFFFFFFFFFFFFFFFFFFFF AND PUSH20 0xFFFFFFFFFFFFFFFFFFFFFFFFFFFFFFFFFFFFFFFF AND DUP2 MSTORE PUSH1 0x20 ADD SWAP1 DUP2 MSTORE PUSH1 0x20 ADD PUSH1 0x0 KECCAK256 PUSH1 0x0 DUP3 DUP3 SLOAD PUSH2 0x2944 SWAP2 SWAP1 PUSH2 0x5275 JUMP JUMPDEST SWAP3 POP POP DUP2 SWAP1 SSTORE POP PUSH1 0x14 SLOAD PUSH1 0x4 PUSH1 0x0 PUSH1 0x2 PUSH1 0x0 SWAP1 SLOAD SWAP1 PUSH2 0x100 EXP SWAP1 DIV PUSH20 0xFFFFFFFFFFFFFFFFFFFFFFFFFFFFFFFFFFFFFFFF AND PUSH20 0xFFFFFFFFFFFFFFFFFFFFFFFFFFFFFFFFFFFFFFFF AND PUSH20 0xFFFFFFFFFFFFFFFFFFFFFFFFFFFFFFFFFFFFFFFF AND DUP2 MSTORE PUSH1 0x20 ADD SWAP1 DUP2 MSTORE PUSH1 0x20 ADD PUSH1 0x0 KECCAK256 PUSH1 0x0 DUP3 DUP3 SLOAD PUSH2 0x29BE SWAP2 SWAP1 PUSH2 0x536A JUMP JUMPDEST SWAP3 POP POP DUP2 SWAP1 SSTORE POP PUSH1 0x1 PUSH1 0xF PUSH1 0x0 PUSH2 0x100 EXP DUP2 SLOAD DUP2 PUSH1 0xFF MUL NOT AND SWAP1 DUP4 ISZERO ISZERO MUL OR SWAP1 SSTORE POP PUSH32 0x8FECA716E5FEA360264E5A7EBBCFCB8E1C9D84CDA200174D4D35BD097DF46278 PUSH1 0x1 PUSH1 0x0 SWAP1 SLOAD SWAP1 PUSH2 0x100 EXP SWAP1 DIV PUSH20 0xFFFFFFFFFFFFFFFFFFFFFFFFFFFFFFFFFFFFFFFF AND PUSH1 0x1 PUSH1 0x14 SLOAD PUSH1 0xF PUSH1 0x0 SWAP1 SLOAD SWAP1 PUSH2 0x100 EXP SWAP1 DIV PUSH1 0xFF AND PUSH1 0x40 MLOAD PUSH2 0x2A49 SWAP5 SWAP4 SWAP3 SWAP2 SWAP1 PUSH2 0x53FD JUMP JUMPDEST PUSH1 0x40 MLOAD DUP1 SWAP2 SUB SWAP1 LOG1 PUSH2 0x2B5F JUMP JUMPDEST PUSH1 0x0 ISZERO ISZERO PUSH1 0x1B PUSH1 0x1 PUSH1 0x11 SLOAD PUSH2 0x2A6B SWAP2 SWAP1 PUSH2 0x5275 JUMP JUMPDEST DUP2 SLOAD DUP2 LT PUSH2 0x2A7C JUMPI PUSH2 0x2A7B PUSH2 0x52A9 JUMP JUMPDEST JUMPDEST SWAP1 PUSH1 0x0 MSTORE PUSH1 0x20 PUSH1 0x0 KECCAK256 SWAP1 PUSH1 0x3 MUL ADD PUSH1 0x2 ADD PUSH1 0x1 SWAP1 SLOAD SWAP1 PUSH2 0x100 EXP SWAP1 DIV PUSH1 0xFF AND ISZERO ISZERO SUB PUSH2 0x2B5E JUMPI PUSH1 0x1 PUSH1 0x1C PUSH1 0x1 PUSH1 0x10 SLOAD PUSH2 0x2AB5 SWAP2 SWAP1 PUSH2 0x5275 JUMP JUMPDEST DUP2 SLOAD DUP2 LT PUSH2 0x2AC6 JUMPI PUSH2 0x2AC5 PUSH2 0x52A9 JUMP JUMPDEST JUMPDEST SWAP1 PUSH1 0x0 MSTORE PUSH1 0x20 PUSH1 0x0 KECCAK256 SWAP1 PUSH1 0x3 MUL ADD PUSH1 0x2 ADD PUSH1 0x1 PUSH2 0x100 EXP DUP2 SLOAD DUP2 PUSH1 0xFF MUL NOT AND SWAP1 DUP4 ISZERO ISZERO MUL OR SWAP1 SSTORE POP PUSH32 0x8FECA716E5FEA360264E5A7EBBCFCB8E1C9D84CDA200174D4D35BD097DF46278 PUSH1 0x1 PUSH1 0x0 SWAP1 SLOAD SWAP1 PUSH2 0x100 EXP SWAP1 DIV PUSH20 0xFFFFFFFFFFFFFFFFFFFFFFFFFFFFFFFFFFFFFFFF AND PUSH1 0x0 DUP1 PUSH1 0xF PUSH1 0x0 SWAP1 SLOAD SWAP1 PUSH2 0x100 EXP SWAP1 DIV PUSH1 0xFF AND PUSH1 0x40 MLOAD PUSH2 0x2B55 SWAP5 SWAP4 SWAP3 SWAP2 SWAP1 PUSH2 0x547D JUMP JUMPDEST PUSH1 0x40 MLOAD DUP1 SWAP2 SUB SWAP1 LOG1 JUMPDEST JUMPDEST JUMP JUMPDEST PUSH1 0x2 PUSH1 0x0 SWAP1 SLOAD SWAP1 PUSH2 0x100 EXP SWAP1 DIV PUSH20 0xFFFFFFFFFFFFFFFFFFFFFFFFFFFFFFFFFFFFFFFF AND PUSH20 0xFFFFFFFFFFFFFFFFFFFFFFFFFFFFFFFFFFFFFFFF AND CALLER PUSH20 0xFFFFFFFFFFFFFFFFFFFFFFFFFFFFFFFFFFFFFFFF AND EQ PUSH2 0x2BF1 JUMPI PUSH1 0x40 MLOAD PUSH32 0x8C379A000000000000000000000000000000000000000000000000000000000 DUP2 MSTORE PUSH1 0x4 ADD PUSH2 0x2BE8 SWAP1 PUSH2 0x5226 JUMP JUMPDEST PUSH1 0x40 MLOAD DUP1 SWAP2 SUB SWAP1 REVERT JUMPDEST PUSH1 0x0 ISZERO ISZERO PUSH1 0xF PUSH1 0x0 SWAP1 SLOAD SWAP1 PUSH2 0x100 EXP SWAP1 DIV PUSH1 0xFF AND ISZERO ISZERO EQ PUSH2 0x2C11 JUMPI PUSH1 0x0 DUP1 REVERT JUMPDEST PUSH1 0x0 PUSH1 0x12 SLOAD GT DUP1 ISZERO PUSH2 0x2C25 JUMPI POP PUSH1 0x0 PUSH1 0x13 SLOAD GT JUMPDEST PUSH2 0x2C2E JUMPI PUSH1 0x0 DUP1 REVERT JUMPDEST PUSH1 0x1 ISZERO ISZERO PUSH1 0x16 PUSH1 0x0 SWAP1 SLOAD SWAP1 PUSH2 0x100 EXP SWAP1 DIV PUSH1 0xFF AND ISZERO ISZERO EQ PUSH2 0x2C4E JUMPI PUSH1 0x0 DUP1 REVERT JUMPDEST PUSH1 0x1 ISZERO ISZERO DUP2 ISZERO ISZERO SUB PUSH2 0x2E8F JUMPI PUSH1 0x17 SLOAD PUSH1 0x4 PUSH1 0x0 PUSH1 0x1 PUSH1 0x0 SWAP1 SLOAD SWAP1 PUSH2 0x100 EXP SWAP1 DIV PUSH20 0xFFFFFFFFFFFFFFFFFFFFFFFFFFFFFFFFFFFFFFFF AND PUSH20 0xFFFFFFFFFFFFFFFFFFFFFFFFFFFFFFFFFFFFFFFF AND PUSH20 0xFFFFFFFFFFFFFFFFFFFFFFFFFFFFFFFFFFFFFFFF AND DUP2 MSTORE PUSH1 0x20 ADD SWAP1 DUP2 MSTORE PUSH1 0x20 ADD PUSH1 0x0 KECCAK256 SLOAD LT ISZERO PUSH2 0x2D00 JUMPI PUSH1 0x40 MLOAD PUSH32 0x8C379A000000000000000000000000000000000000000000000000000000000 DUP2 MSTORE PUSH1 0x4 ADD PUSH2 0x2CF7 SWAP1 PUSH2 0x5B42 JUMP JUMPDEST PUSH1 0x40 MLOAD DUP1 SWAP2 SUB SWAP1 REVERT JUMPDEST PUSH1 0x17 SLOAD PUSH1 0x4 PUSH1 0x0 PUSH1 0x1 PUSH1 0x0 SWAP1 SLOAD SWAP1 PUSH2 0x100 EXP SWAP1 DIV PUSH20 0xFFFFFFFFFFFFFFFFFFFFFFFFFFFFFFFFFFFFFFFF AND PUSH20 0xFFFFFFFFFFFFFFFFFFFFFFFFFFFFFFFFFFFFFFFF AND PUSH20 0xFFFFFFFFFFFFFFFFFFFFFFFFFFFFFFFFFFFFFFFF AND DUP2 MSTORE PUSH1 0x20 ADD SWAP1 DUP2 MSTORE PUSH1 0x20 ADD PUSH1 0x0 KECCAK256 PUSH1 0x0 DUP3 DUP3 SLOAD PUSH2 0x2D73 SWAP2 SWAP1 PUSH2 0x5275 JUMP JUMPDEST SWAP3 POP POP DUP2 SWAP1 SSTORE POP PUSH1 0x17 SLOAD PUSH1 0x4 PUSH1 0x0 PUSH1 0x2 PUSH1 0x0 SWAP1 SLOAD SWAP1 PUSH2 0x100 EXP SWAP1 DIV PUSH20 0xFFFFFFFFFFFFFFFFFFFFFFFFFFFFFFFFFFFFFFFF AND PUSH20 0xFFFFFFFFFFFFFFFFFFFFFFFFFFFFFFFFFFFFFFFF AND PUSH20 0xFFFFFFFFFFFFFFFFFFFFFFFFFFFFFFFFFFFFFFFF AND DUP2 MSTORE PUSH1 0x20 ADD SWAP1 DUP2 MSTORE PUSH1 0x20 ADD PUSH1 0x0 KECCAK256 PUSH1 0x0 DUP3 DUP3 SLOAD PUSH2 0x2DED SWAP2 SWAP1 PUSH2 0x536A JUMP JUMPDEST SWAP3 POP POP DUP2 SWAP1 SSTORE POP PUSH1 0x1 PUSH1 0xF PUSH1 0x0 PUSH2 0x100 EXP DUP2 SLOAD DUP2 PUSH1 0xFF MUL NOT AND SWAP1 DUP4 ISZERO ISZERO MUL OR SWAP1 SSTORE POP PUSH1 0x1 PUSH1 0x18 PUSH1 0x0 PUSH2 0x100 EXP DUP2 SLOAD DUP2 PUSH1 0xFF MUL NOT AND SWAP1 DUP4 ISZERO ISZERO MUL OR SWAP1 SSTORE POP PUSH32 0x890481CD9DB95D3733900DAD3F3203FFE7F4D58AB29091CC1A5BB52C2AFFBCAF PUSH1 0x2 PUSH1 0x0 SWAP1 SLOAD SWAP1 PUSH2 0x100 EXP SWAP1 DIV PUSH20 0xFFFFFFFFFFFFFFFFFFFFFFFFFFFFFFFFFFFFFFFF AND PUSH1 0x1 PUSH1 0x17 SLOAD PUSH1 0x40 MLOAD PUSH2 0x2E82 SWAP4 SWAP3 SWAP2 SWAP1 PUSH2 0x5554 JUMP JUMPDEST PUSH1 0x40 MLOAD DUP1 SWAP2 SUB SWAP1 LOG1 PUSH2 0x307A JUMP JUMPDEST PUSH1 0x0 ISZERO ISZERO DUP2 ISZERO ISZERO SUB PUSH2 0x3079 JUMPI PUSH1 0xE SLOAD PUSH1 0x4 PUSH1 0x0 PUSH1 0x1 PUSH1 0x0 SWAP1 SLOAD SWAP1 PUSH2 0x100 EXP SWAP1 DIV PUSH20 0xFFFFFFFFFFFFFFFFFFFFFFFFFFFFFFFFFFFFFFFF AND PUSH20 0xFFFFFFFFFFFFFFFFFFFFFFFFFFFFFFFFFFFFFFFF AND PUSH20 0xFFFFFFFFFFFFFFFFFFFFFFFFFFFFFFFFFFFFFFFF AND DUP2 MSTORE PUSH1 0x20 ADD SWAP1 DUP2 MSTORE PUSH1 0x20 ADD PUSH1 0x0 KECCAK256 SLOAD LT ISZERO PUSH2 0x2F0B JUMPI PUSH1 0x0 DUP1 REVERT JUMPDEST PUSH1 0xE SLOAD PUSH1 0x4 PUSH1 0x0 PUSH1 0x1 PUSH1 0x0 SWAP1 SLOAD SWAP1 PUSH2 0x100 EXP SWAP1 DIV PUSH20 0xFFFFFFFFFFFFFFFFFFFFFFFFFFFFFFFFFFFFFFFF AND PUSH20 0xFFFFFFFFFFFFFFFFFFFFFFFFFFFFFFFFFFFFFFFF AND PUSH20 0xFFFFFFFFFFFFFFFFFFFFFFFFFFFFFFFFFFFFFFFF AND DUP2 MSTORE PUSH1 0x20 ADD SWAP1 DUP2 MSTORE PUSH1 0x20 ADD PUSH1 0x0 KECCAK256 PUSH1 0x0 DUP3 DUP3 SLOAD PUSH2 0x2F7E SWAP2 SWAP1 PUSH2 0x5275 JUMP JUMPDEST SWAP3 POP POP DUP2 SWAP1 SSTORE POP PUSH1 0xE SLOAD PUSH1 0x4 PUSH1 0x0 PUSH1 0x3 PUSH1 0x0 SWAP1 SLOAD SWAP1 PUSH2 0x100 EXP SWAP1 DIV PUSH20 0xFFFFFFFFFFFFFFFFFFFFFFFFFFFFFFFFFFFFFFFF AND PUSH20 0xFFFFFFFFFFFFFFFFFFFFFFFFFFFFFFFFFFFFFFFF AND PUSH20 0xFFFFFFFFFFFFFFFFFFFFFFFFFFFFFFFFFFFFFFFF AND DUP2 MSTORE PUSH1 0x20 ADD SWAP1 DUP2 MSTORE PUSH1 0x20 ADD PUSH1 0x0 KECCAK256 PUSH1 0x0 DUP3 DUP3 SLOAD PUSH2 0x2FF8 SWAP2 SWAP1 PUSH2 0x536A JUMP JUMPDEST SWAP3 POP POP DUP2 SWAP1 SSTORE POP PUSH1 0x1 PUSH1 0x18 PUSH1 0x0 PUSH2 0x100 EXP DUP2 SLOAD DUP2 PUSH1 0xFF MUL NOT AND SWAP1 DUP4 ISZERO ISZERO MUL OR SWAP1 SSTORE POP PUSH32 0x890481CD9DB95D3733900DAD3F3203FFE7F4D58AB29091CC1A5BB52C2AFFBCAF PUSH1 0x2 PUSH1 0x0 SWAP1 SLOAD SWAP1 PUSH2 0x100 EXP SWAP1 DIV PUSH20 0xFFFFFFFFFFFFFFFFFFFFFFFFFFFFFFFFFFFFFFFF AND PUSH1 0x0 DUP1 PUSH1 0x40 MLOAD PUSH2 0x3070 SWAP4 SWAP3 SWAP2 SWAP1 PUSH2 0x5B62 JUMP JUMPDEST PUSH1 0x40 MLOAD DUP1 SWAP2 SUB SWAP1 LOG1 JUMPDEST JUMPDEST POP JUMP JUMPDEST PUSH1 0x1 PUSH1 0x0 SWAP1 SLOAD SWAP1 PUSH2 0x100 EXP SWAP1 DIV PUSH20 0xFFFFFFFFFFFFFFFFFFFFFFFFFFFFFFFFFFFFFFFF AND PUSH20 0xFFFFFFFFFFFFFFFFFFFFFFFFFFFFFFFFFFFFFFFF AND CALLER PUSH20 0xFFFFFFFFFFFFFFFFFFFFFFFFFFFFFFFFFFFFFFFF AND EQ PUSH2 0x310D JUMPI PUSH1 0x40 MLOAD PUSH32 0x8C379A000000000000000000000000000000000000000000000000000000000 DUP2 MSTORE PUSH1 0x4 ADD PUSH2 0x3104 SWAP1 PUSH2 0x5534 JUMP JUMPDEST PUSH1 0x40 MLOAD DUP1 SWAP2 SUB SWAP1 REVERT JUMPDEST PUSH1 0x0 ISZERO ISZERO PUSH1 0xF PUSH1 0x0 SWAP1 SLOAD SWAP1 PUSH2 0x100 EXP SWAP1 DIV PUSH1 0xFF AND ISZERO ISZERO EQ PUSH2 0x312D JUMPI PUSH1 0x0 DUP1 REVERT JUMPDEST PUSH1 0x0 PUSH1 0x12 SLOAD GT DUP1 ISZERO PUSH2 0x3141 JUMPI POP PUSH1 0x0 PUSH1 0x13 SLOAD GT JUMPDEST PUSH2 0x314A JUMPI PUSH1 0x0 DUP1 REVERT JUMPDEST PUSH1 0x1 ISZERO ISZERO PUSH1 0x18 PUSH1 0x1 SWAP1 SLOAD SWAP1 PUSH2 0x100 EXP SWAP1 DIV PUSH1 0xFF AND ISZERO ISZERO EQ PUSH2 0x316A JUMPI PUSH1 0x0 DUP1 REVERT JUMPDEST PUSH1 0x1 ISZERO ISZERO DUP2 ISZERO ISZERO SUB PUSH2 0x33AB JUMPI PUSH1 0x19 SLOAD PUSH1 0x4 PUSH1 0x0 PUSH1 0x1 PUSH1 0x0 SWAP1 SLOAD SWAP1 PUSH2 0x100 EXP SWAP1 DIV PUSH20 0xFFFFFFFFFFFFFFFFFFFFFFFFFFFFFFFFFFFFFFFF AND PUSH20 0xFFFFFFFFFFFFFFFFFFFFFFFFFFFFFFFFFFFFFFFF AND PUSH20 0xFFFFFFFFFFFFFFFFFFFFFFFFFFFFFFFFFFFFFFFF AND DUP2 MSTORE PUSH1 0x20 ADD SWAP1 DUP2 MSTORE PUSH1 0x20 ADD PUSH1 0x0 KECCAK256 SLOAD LT ISZERO PUSH2 0x321C JUMPI PUSH1 0x40 MLOAD PUSH32 0x8C379A000000000000000000000000000000000000000000000000000000000 DUP2 MSTORE PUSH1 0x4 ADD PUSH2 0x3213 SWAP1 PUSH2 0x5C0B JUMP JUMPDEST PUSH1 0x40 MLOAD DUP1 SWAP2 SUB SWAP1 REVERT JUMPDEST PUSH1 0x19 SLOAD PUSH1 0x4 PUSH1 0x0 PUSH1 0x1 PUSH1 0x0 SWAP1 SLOAD SWAP1 PUSH2 0x100 EXP SWAP1 DIV PUSH20 0xFFFFFFFFFFFFFFFFFFFFFFFFFFFFFFFFFFFFFFFF AND PUSH20 0xFFFFFFFFFFFFFFFFFFFFFFFFFFFFFFFFFFFFFFFF AND PUSH20 0xFFFFFFFFFFFFFFFFFFFFFFFFFFFFFFFFFFFFFFFF AND DUP2 MSTORE PUSH1 0x20 ADD SWAP1 DUP2 MSTORE PUSH1 0x20 ADD PUSH1 0x0 KECCAK256 PUSH1 0x0 DUP3 DUP3 SLOAD PUSH2 0x328F SWAP2 SWAP1 PUSH2 0x5275 JUMP JUMPDEST SWAP3 POP POP DUP2 SWAP1 SSTORE POP PUSH1 0x19 SLOAD PUSH1 0x4 PUSH1 0x0 PUSH1 0x2 PUSH1 0x0 SWAP1 SLOAD SWAP1 PUSH2 0x100 EXP SWAP1 DIV PUSH20 0xFFFFFFFFFFFFFFFFFFFFFFFFFFFFFFFFFFFFFFFF AND PUSH20 0xFFFFFFFFFFFFFFFFFFFFFFFFFFFFFFFFFFFFFFFF AND PUSH20 0xFFFFFFFFFFFFFFFFFFFFFFFFFFFFFFFFFFFFFFFF AND DUP2 MSTORE PUSH1 0x20 ADD SWAP1 DUP2 MSTORE PUSH1 0x20 ADD PUSH1 0x0 KECCAK256 PUSH1 0x0 DUP3 DUP3 SLOAD PUSH2 0x3309 SWAP2 SWAP1 PUSH2 0x536A JUMP JUMPDEST SWAP3 POP POP DUP2 SWAP1 SSTORE POP PUSH1 0x1 PUSH1 0xF PUSH1 0x0 PUSH2 0x100 EXP DUP2 SLOAD DUP2 PUSH1 0xFF MUL NOT AND SWAP1 DUP4 ISZERO ISZERO MUL OR SWAP1 SSTORE POP PUSH1 0x1 PUSH1 0x1A PUSH1 0x0 PUSH2 0x100 EXP DUP2 SLOAD DUP2 PUSH1 0xFF MUL NOT AND SWAP1 DUP4 ISZERO ISZERO MUL OR SWAP1 SSTORE POP PUSH32 0x890481CD9DB95D3733900DAD3F3203FFE7F4D58AB29091CC1A5BB52C2AFFBCAF PUSH1 0x1 PUSH1 0x0 SWAP1 SLOAD SWAP1 PUSH2 0x100 EXP SWAP1 DIV PUSH20 0xFFFFFFFFFFFFFFFFFFFFFFFFFFFFFFFFFFFFFFFF AND PUSH1 0x1 PUSH1 0x19 SLOAD PUSH1 0x40 MLOAD PUSH2 0x339E SWAP4 SWAP3 SWAP2 SWAP1 PUSH2 0x5554 JUMP JUMPDEST PUSH1 0x40 MLOAD DUP1 SWAP2 SUB SWAP1 LOG1 PUSH2 0x3596 JUMP JUMPDEST PUSH1 0x0 ISZERO ISZERO DUP2 ISZERO ISZERO SUB PUSH2 0x3595 JUMPI PUSH1 0xE SLOAD PUSH1 0x4 PUSH1 0x0 PUSH1 0x2 PUSH1 0x0 SWAP1 SLOAD SWAP1 PUSH2 0x100 EXP SWAP1 DIV PUSH20 0xFFFFFFFFFFFFFFFFFFFFFFFFFFFFFFFFFFFFFFFF AND PUSH20 0xFFFFFFFFFFFFFFFFFFFFFFFFFFFFFFFFFFFFFFFF AND PUSH20 0xFFFFFFFFFFFFFFFFFFFFFFFFFFFFFFFFFFFFFFFF AND DUP2 MSTORE PUSH1 0x20 ADD SWAP1 DUP2 MSTORE PUSH1 0x20 ADD PUSH1 0x0 KECCAK256 SLOAD LT ISZERO PUSH2 0x3427 JUMPI PUSH1 0x0 DUP1 REVERT JUMPDEST PUSH1 0xE SLOAD PUSH1 0x4 PUSH1 0x0 PUSH1 0x2 PUSH1 0x0 SWAP1 SLOAD SWAP1 PUSH2 0x100 EXP SWAP1 DIV PUSH20 0xFFFFFFFFFFFFFFFFFFFFFFFFFFFFFFFFFFFFFFFF AND PUSH20 0xFFFFFFFFFFFFFFFFFFFFFFFFFFFFFFFFFFFFFFFF AND PUSH20 0xFFFFFFFFFFFFFFFFFFFFFFFFFFFFFFFFFFFFFFFF AND DUP2 MSTORE PUSH1 0x20 ADD SWAP1 DUP2 MSTORE PUSH1 0x20 ADD PUSH1 0x0 KECCAK256 PUSH1 0x0 DUP3 DUP3 SLOAD PUSH2 0x349A SWAP2 SWAP1 PUSH2 0x5275 JUMP JUMPDEST SWAP3 POP POP DUP2 SWAP1 SSTORE POP PUSH1 0xE SLOAD PUSH1 0x4 PUSH1 0x0 PUSH1 0x3 PUSH1 0x0 SWAP1 SLOAD SWAP1 PUSH2 0x100 EXP SWAP1 DIV PUSH20 0xFFFFFFFFFFFFFFFFFFFFFFFFFFFFFFFFFFFFFFFF AND PUSH20 0xFFFFFFFFFFFFFFFFFFFFFFFFFFFFFFFFFFFFFFFF AND PUSH20 0xFFFFFFFFFFFFFFFFFFFFFFFFFFFFFFFFFFFFFFFF AND DUP2 MSTORE PUSH1 0x20 ADD SWAP1 DUP2 MSTORE PUSH1 0x20 ADD PUSH1 0x0 KECCAK256 PUSH1 0x0 DUP3 DUP3 SLOAD PUSH2 0x3514 SWAP2 SWAP1 PUSH2 0x536A JUMP JUMPDEST SWAP3 POP POP DUP2 SWAP1 SSTORE POP PUSH1 0x1 PUSH1 0x1A PUSH1 0x0 PUSH2 0x100 EXP DUP2 SLOAD DUP2 PUSH1 0xFF MUL NOT AND SWAP1 DUP4 ISZERO ISZERO MUL OR SWAP1 SSTORE POP PUSH32 0x890481CD9DB95D3733900DAD3F3203FFE7F4D58AB29091CC1A5BB52C2AFFBCAF PUSH1 0x1 PUSH1 0x0 SWAP1 SLOAD SWAP1 PUSH2 0x100 EXP SWAP1 DIV PUSH20 0xFFFFFFFFFFFFFFFFFFFFFFFFFFFFFFFFFFFFFFFF AND PUSH1 0x0 DUP1 PUSH1 0x40 MLOAD PUSH2 0x358C SWAP4 SWAP3 SWAP2 SWAP1 PUSH2 0x5B62 JUMP JUMPDEST PUSH1 0x40 MLOAD DUP1 SWAP2 SUB SWAP1 LOG1 JUMPDEST JUMPDEST POP JUMP JUMPDEST PUSH1 0x2 PUSH1 0x0 SWAP1 SLOAD SWAP1 PUSH2 0x100 EXP SWAP1 DIV PUSH20 0xFFFFFFFFFFFFFFFFFFFFFFFFFFFFFFFFFFFFFFFF AND PUSH20 0xFFFFFFFFFFFFFFFFFFFFFFFFFFFFFFFFFFFFFFFF AND CALLER PUSH20 0xFFFFFFFFFFFFFFFFFFFFFFFFFFFFFFFFFFFFFFFF AND EQ PUSH2 0x3629 JUMPI PUSH1 0x40 MLOAD PUSH32 0x8C379A000000000000000000000000000000000000000000000000000000000 DUP2 MSTORE PUSH1 0x4 ADD PUSH2 0x3620 SWAP1 PUSH2 0x5226 JUMP JUMPDEST PUSH1 0x40 MLOAD DUP1 SWAP2 SUB SWAP1 REVERT JUMPDEST PUSH1 0x1 ISZERO ISZERO PUSH1 0xF PUSH1 0x1 SWAP1 SLOAD SWAP1 PUSH2 0x100 EXP SWAP1 DIV PUSH1 0xFF AND ISZERO ISZERO EQ PUSH2 0x3649 JUMPI PUSH1 0x0 DUP1 REVERT JUMPDEST PUSH1 0x0 DUP2 GT PUSH2 0x3656 JUMPI PUSH1 0x0 DUP1 REVERT JUMPDEST PUSH1 0x5 SLOAD PUSH1 0x11 SLOAD LT PUSH2 0x369C JUMPI PUSH1 0x40 MLOAD PUSH32 0x8C379A000000000000000000000000000000000000000000000000000000000 DUP2 MSTORE PUSH1 0x4 ADD PUSH2 0x3693 SWAP1 PUSH2 0x569F JUMP JUMPDEST PUSH1 0x40 MLOAD DUP1 SWAP2 SUB SWAP1 REVERT JUMPDEST PUSH1 0x11 PUSH1 0x0 DUP2 SLOAD DUP1 SWAP3 SWAP2 SWAP1 PUSH2 0x36AF SWAP1 PUSH2 0x5751 JUMP JUMPDEST SWAP2 SWAP1 POP SSTORE POP PUSH1 0x10 SLOAD PUSH1 0x11 SLOAD EQ DUP1 PUSH2 0x36D5 JUMPI POP PUSH1 0x10 SLOAD PUSH1 0x1 PUSH1 0x11 SLOAD PUSH2 0x36D3 SWAP2 SWAP1 PUSH2 0x5275 JUMP JUMPDEST EQ JUMPDEST PUSH2 0x3714 JUMPI PUSH1 0x40 MLOAD PUSH32 0x8C379A000000000000000000000000000000000000000000000000000000000 DUP2 MSTORE PUSH1 0x4 ADD PUSH2 0x370B SWAP1 PUSH2 0x5CC3 JUMP JUMPDEST PUSH1 0x40 MLOAD DUP1 SWAP2 SUB SWAP1 REVERT JUMPDEST PUSH1 0x0 PUSH1 0x40 MLOAD DUP1 PUSH1 0x80 ADD PUSH1 0x40 MSTORE DUP1 DUP4 DUP2 MSTORE PUSH1 0x20 ADD PUSH1 0x11 SLOAD DUP2 MSTORE PUSH1 0x20 ADD PUSH1 0x1 ISZERO ISZERO DUP2 MSTORE PUSH1 0x20 ADD PUSH1 0x0 ISZERO ISZERO DUP2 MSTORE POP SWAP1 POP PUSH1 0x1 PUSH1 0x5 SLOAD GT DUP1 ISZERO PUSH2 0x3755 JUMPI POP PUSH1 0x1 PUSH1 0x11 SLOAD EQ JUMPDEST ISZERO PUSH2 0x37FC JUMPI PUSH1 0x1B DUP2 SWAP1 DUP1 PUSH1 0x1 DUP2 SLOAD ADD DUP1 DUP3 SSTORE DUP1 SWAP2 POP POP PUSH1 0x1 SWAP1 SUB SWAP1 PUSH1 0x0 MSTORE PUSH1 0x20 PUSH1 0x0 KECCAK256 SWAP1 PUSH1 0x3 MUL ADD PUSH1 0x0 SWAP1 SWAP2 SWAP1 SWAP2 SWAP1 SWAP2 POP PUSH1 0x0 DUP3 ADD MLOAD DUP2 PUSH1 0x0 ADD SSTORE PUSH1 0x20 DUP3 ADD MLOAD DUP2 PUSH1 0x1 ADD SSTORE PUSH1 0x40 DUP3 ADD MLOAD DUP2 PUSH1 0x2 ADD PUSH1 0x0 PUSH2 0x100 EXP DUP2 SLOAD DUP2 PUSH1 0xFF MUL NOT AND SWAP1 DUP4 ISZERO ISZERO MUL OR SWAP1 SSTORE POP PUSH1 0x60 DUP3 ADD MLOAD DUP2 PUSH1 0x2 ADD PUSH1 0x1 PUSH2 0x100 EXP DUP2 SLOAD DUP2 PUSH1 0xFF MUL NOT AND SWAP1 DUP4 ISZERO ISZERO MUL OR SWAP1 SSTORE POP POP POP PUSH1 0x1 PUSH1 0xA PUSH1 0x0 PUSH2 0x100 EXP DUP2 SLOAD DUP2 PUSH1 0xFF MUL NOT AND SWAP1 DUP4 ISZERO ISZERO MUL OR SWAP1 SSTORE POP PUSH2 0x3898 JUMP JUMPDEST DUP2 PUSH1 0xC PUSH1 0x0 DUP3 DUP3 SLOAD PUSH2 0x380E SWAP2 SWAP1 PUSH2 0x536A JUMP JUMPDEST SWAP3 POP POP DUP2 SWAP1 SSTORE POP PUSH1 0x1B DUP2 SWAP1 DUP1 PUSH1 0x1 DUP2 SLOAD ADD DUP1 DUP3 SSTORE DUP1 SWAP2 POP POP PUSH1 0x1 SWAP1 SUB SWAP1 PUSH1 0x0 MSTORE PUSH1 0x20 PUSH1 0x0 KECCAK256 SWAP1 PUSH1 0x3 MUL ADD PUSH1 0x0 SWAP1 SWAP2 SWAP1 SWAP2 SWAP1 SWAP2 POP PUSH1 0x0 DUP3 ADD MLOAD DUP2 PUSH1 0x0 ADD SSTORE PUSH1 0x20 DUP3 ADD MLOAD DUP2 PUSH1 0x1 ADD SSTORE PUSH1 0x40 DUP3 ADD MLOAD DUP2 PUSH1 0x2 ADD PUSH1 0x0 PUSH2 0x100 EXP DUP2 SLOAD DUP2 PUSH1 0xFF MUL NOT AND SWAP1 DUP4 ISZERO ISZERO MUL OR SWAP1 SSTORE POP PUSH1 0x60 DUP3 ADD MLOAD DUP2 PUSH1 0x2 ADD PUSH1 0x1 PUSH2 0x100 EXP DUP2 SLOAD DUP2 PUSH1 0xFF MUL NOT AND SWAP1 DUP4 ISZERO ISZERO MUL OR SWAP1 SSTORE POP POP POP JUMPDEST PUSH1 0x5 SLOAD PUSH1 0x10 SLOAD EQ DUP1 ISZERO PUSH2 0x38AE JUMPI POP PUSH1 0x5 SLOAD PUSH1 0x11 SLOAD EQ JUMPDEST ISZERO PUSH2 0x38FA JUMPI PUSH2 0x38C1 PUSH1 0xB SLOAD PUSH1 0xC SLOAD PUSH2 0x41B5 JUMP JUMPDEST PUSH32 0xC1E80C6033B9A1CDB8B51042A43AF8AA76B052E2338CB9CD55B96FBD34DAB7EE PUSH1 0x1 PUSH1 0x40 MLOAD PUSH2 0x38F1 SWAP2 SWAP1 PUSH2 0x5009 JUMP JUMPDEST PUSH1 0x40 MLOAD DUP1 SWAP2 SUB SWAP1 LOG1 JUMPDEST PUSH1 0x11 SLOAD PUSH1 0x10 SLOAD EQ DUP1 ISZERO PUSH2 0x3951 JUMPI POP PUSH1 0x1 ISZERO ISZERO PUSH1 0x1C PUSH1 0x1 PUSH1 0x10 SLOAD PUSH2 0x391D SWAP2 SWAP1 PUSH2 0x5275 JUMP JUMPDEST DUP2 SLOAD DUP2 LT PUSH2 0x392E JUMPI PUSH2 0x392D PUSH2 0x52A9 JUMP JUMPDEST JUMPDEST SWAP1 PUSH1 0x0 MSTORE PUSH1 0x20 PUSH1 0x0 KECCAK256 SWAP1 PUSH1 0x3 MUL ADD PUSH1 0x2 ADD PUSH1 0x0 SWAP1 SLOAD SWAP1 PUSH2 0x100 EXP SWAP1 DIV PUSH1 0xFF AND ISZERO ISZERO EQ JUMPDEST ISZERO PUSH2 0x39C3 JUMPI PUSH2 0x395E PUSH2 0x4291 JUMP JUMPDEST PUSH32 0x11A479E5C2928166A4647520BABF75193C4E51630FB980FAD7D4A30E0CC1670 PUSH1 0x2 PUSH1 0x0 SWAP1 SLOAD SWAP1 PUSH2 0x100 EXP SWAP1 DIV PUSH20 0xFFFFFFFFFFFFFFFFFFFFFFFFFFFFFFFFFFFFFFFF AND PUSH1 0x11 SLOAD PUSH1 0x1 PUSH1 0x40 MLOAD PUSH2 0x39B6 SWAP4 SWAP3 SWAP2 SWAP1 PUSH2 0x5851 JUMP JUMPDEST PUSH1 0x40 MLOAD DUP1 SWAP2 SUB SWAP1 LOG1 PUSH2 0x3A24 JUMP JUMPDEST PUSH32 0x11A479E5C2928166A4647520BABF75193C4E51630FB980FAD7D4A30E0CC1670 PUSH1 0x2 PUSH1 0x0 SWAP1 SLOAD SWAP1 PUSH2 0x100 EXP SWAP1 DIV PUSH20 0xFFFFFFFFFFFFFFFFFFFFFFFFFFFFFFFFFFFFFFFF AND PUSH1 0x11 SLOAD PUSH1 0x0 PUSH1 0x40 MLOAD PUSH2 0x3A1B SWAP4 SWAP3 SWAP2 SWAP1 PUSH2 0x5851 JUMP JUMPDEST PUSH1 0x40 MLOAD DUP1 SWAP2 SUB SWAP1 LOG1 JUMPDEST POP POP JUMP JUMPDEST PUSH1 0x5 SLOAD DUP2 JUMP JUMPDEST PUSH1 0x2 PUSH1 0x0 SWAP1 SLOAD SWAP1 PUSH2 0x100 EXP SWAP1 DIV PUSH20 0xFFFFFFFFFFFFFFFFFFFFFFFFFFFFFFFFFFFFFFFF AND DUP2 JUMP JUMPDEST PUSH1 0x2 PUSH1 0x0 SWAP1 SLOAD SWAP1 PUSH2 0x100 EXP SWAP1 DIV PUSH20 0xFFFFFFFFFFFFFFFFFFFFFFFFFFFFFFFFFFFFFFFF AND PUSH20 0xFFFFFFFFFFFFFFFFFFFFFFFFFFFFFFFFFFFFFFFF AND CALLER PUSH20 0xFFFFFFFFFFFFFFFFFFFFFFFFFFFFFFFFFFFFFFFF AND EQ PUSH2 0x3AE4 JUMPI PUSH1 0x40 MLOAD PUSH32 0x8C379A000000000000000000000000000000000000000000000000000000000 DUP2 MSTORE PUSH1 0x4 ADD PUSH2 0x3ADB SWAP1 PUSH2 0x5226 JUMP JUMPDEST PUSH1 0x40 MLOAD DUP1 SWAP2 SUB SWAP1 REVERT JUMPDEST PUSH1 0x0 ISZERO ISZERO PUSH1 0xF PUSH1 0x0 SWAP1 SLOAD SWAP1 PUSH2 0x100 EXP SWAP1 DIV PUSH1 0xFF AND ISZERO ISZERO EQ PUSH2 0x3B04 JUMPI PUSH1 0x0 DUP1 REVERT JUMPDEST PUSH1 0x6 SLOAD PUSH1 0x13 SLOAD GT ISZERO PUSH2 0x3B15 JUMPI PUSH1 0x0 DUP1 REVERT JUMPDEST PUSH1 0xE SLOAD PUSH1 0x4 PUSH1 0x0 CALLER PUSH20 0xFFFFFFFFFFFFFFFFFFFFFFFFFFFFFFFFFFFFFFFF AND PUSH20 0xFFFFFFFFFFFFFFFFFFFFFFFFFFFFFFFFFFFFFFFF AND DUP2 MSTORE PUSH1 0x20 ADD SWAP1 DUP2 MSTORE PUSH1 0x20 ADD PUSH1 0x0 KECCAK256 SLOAD LT ISZERO PUSH2 0x3B99 JUMPI PUSH1 0x40 MLOAD PUSH32 0x8C379A000000000000000000000000000000000000000000000000000000000 DUP2 MSTORE PUSH1 0x4 ADD PUSH2 0x3B90 SWAP1 PUSH2 0x5D55 JUMP JUMPDEST PUSH1 0x40 MLOAD DUP1 SWAP2 SUB SWAP1 REVERT JUMPDEST PUSH1 0x0 PUSH1 0xD SLOAD GT PUSH2 0x3BDE JUMPI PUSH1 0x40 MLOAD PUSH32 0x8C379A000000000000000000000000000000000000000000000000000000000 DUP2 MSTORE PUSH1 0x4 ADD PUSH2 0x3BD5 SWAP1 PUSH2 0x598C JUMP JUMPDEST PUSH1 0x40 MLOAD DUP1 SWAP2 SUB SWAP1 REVERT JUMPDEST PUSH1 0x6 SLOAD PUSH1 0x13 SLOAD GT ISZERO PUSH2 0x3C25 JUMPI PUSH1 0x40 MLOAD PUSH32 0x8C379A000000000000000000000000000000000000000000000000000000000 DUP2 MSTORE PUSH1 0x4 ADD PUSH2 0x3C1C SWAP1 PUSH2 0x58FA JUMP JUMPDEST PUSH1 0x40 MLOAD DUP1 SWAP2 SUB SWAP1 REVERT JUMPDEST PUSH1 0x13 PUSH1 0x0 DUP2 SLOAD DUP1 SWAP3 SWAP2 SWAP1 PUSH2 0x3C38 SWAP1 PUSH2 0x5751 JUMP JUMPDEST SWAP2 SWAP1 POP SSTORE POP PUSH1 0x12 SLOAD PUSH1 0x13 SLOAD EQ DUP1 PUSH2 0x3C5E JUMPI POP PUSH1 0x12 SLOAD PUSH1 0x1 PUSH1 0x13 SLOAD PUSH2 0x3C5C SWAP2 SWAP1 PUSH2 0x5275 JUMP JUMPDEST EQ JUMPDEST PUSH2 0x3C9D JUMPI PUSH1 0x40 MLOAD PUSH32 0x8C379A000000000000000000000000000000000000000000000000000000000 DUP2 MSTORE PUSH1 0x4 ADD PUSH2 0x3C94 SWAP1 PUSH2 0x5831 JUMP JUMPDEST PUSH1 0x40 MLOAD DUP1 SWAP2 SUB SWAP1 REVERT JUMPDEST PUSH1 0x0 PUSH1 0x40 MLOAD DUP1 PUSH1 0x60 ADD PUSH1 0x40 MSTORE DUP1 DUP4 DUP2 MSTORE PUSH1 0x20 ADD PUSH1 0x13 SLOAD DUP2 MSTORE PUSH1 0x20 ADD PUSH1 0x1 ISZERO ISZERO DUP2 MSTORE POP SWAP1 POP PUSH1 0x1D DUP2 SWAP1 DUP1 PUSH1 0x1 DUP2 SLOAD ADD DUP1 DUP3 SSTORE DUP1 SWAP2 POP POP PUSH1 0x1 SWAP1 SUB SWAP1 PUSH1 0x0 MSTORE PUSH1 0x20 PUSH1 0x0 KECCAK256 SWAP1 PUSH1 0x3 MUL ADD PUSH1 0x0 SWAP1 SWAP2 SWAP1 SWAP2 SWAP1 SWAP2 POP PUSH1 0x0 DUP3 ADD MLOAD DUP2 PUSH1 0x0 ADD SSTORE PUSH1 0x20 DUP3 ADD MLOAD DUP2 PUSH1 0x1 ADD SSTORE PUSH1 0x40 DUP3 ADD MLOAD DUP2 PUSH1 0x2 ADD PUSH1 0x0 PUSH2 0x100 EXP DUP2 SLOAD DUP2 PUSH1 0xFF MUL NOT AND SWAP1 DUP4 ISZERO ISZERO MUL OR SWAP1 SSTORE POP POP POP PUSH1 0x12 SLOAD PUSH1 0x13 SLOAD EQ DUP1 ISZERO PUSH2 0x3D7A JUMPI POP PUSH1 0x1 ISZERO ISZERO PUSH1 0x1D PUSH1 0x1 PUSH1 0x12 SLOAD PUSH2 0x3D46 SWAP2 SWAP1 PUSH2 0x5275 JUMP JUMPDEST DUP2 SLOAD DUP2 LT PUSH2 0x3D57 JUMPI PUSH2 0x3D56 PUSH2 0x52A9 JUMP JUMPDEST JUMPDEST SWAP1 PUSH1 0x0 MSTORE PUSH1 0x20 PUSH1 0x0 KECCAK256 SWAP1 PUSH1 0x3 MUL ADD PUSH1 0x2 ADD PUSH1 0x0 SWAP1 SLOAD SWAP1 PUSH2 0x100 EXP SWAP1 DIV PUSH1 0xFF AND ISZERO ISZERO EQ JUMPDEST ISZERO PUSH2 0x3DEF JUMPI PUSH2 0x3D8A PUSH1 0xE SLOAD PUSH2 0x4555 JUMP JUMPDEST PUSH32 0xF9FB9A700F03EA52A997D8C4BCBF294FA6AE49C94181B559B1C14326093DACCB PUSH1 0x2 PUSH1 0x0 SWAP1 SLOAD SWAP1 PUSH2 0x100 EXP SWAP1 DIV PUSH20 0xFFFFFFFFFFFFFFFFFFFFFFFFFFFFFFFFFFFFFFFF AND PUSH1 0x13 SLOAD PUSH1 0x1 PUSH1 0x40 MLOAD PUSH2 0x3DE2 SWAP4 SWAP3 SWAP2 SWAP1 PUSH2 0x5851 JUMP JUMPDEST PUSH1 0x40 MLOAD DUP1 SWAP2 SUB SWAP1 LOG1 PUSH2 0x3E50 JUMP JUMPDEST PUSH32 0xF9FB9A700F03EA52A997D8C4BCBF294FA6AE49C94181B559B1C14326093DACCB PUSH1 0x2 PUSH1 0x0 SWAP1 SLOAD SWAP1 PUSH2 0x100 EXP SWAP1 DIV PUSH20 0xFFFFFFFFFFFFFFFFFFFFFFFFFFFFFFFFFFFFFFFF AND PUSH1 0x13 SLOAD PUSH1 0x0 PUSH1 0x40 MLOAD PUSH2 0x3E47 SWAP4 SWAP3 SWAP2 SWAP1 PUSH2 0x5851 JUMP JUMPDEST PUSH1 0x40 MLOAD DUP1 SWAP2 SUB SWAP1 LOG1 JUMPDEST POP POP JUMP JUMPDEST PUSH1 0x0 PUSH1 0x4 PUSH1 0x0 CALLER PUSH20 0xFFFFFFFFFFFFFFFFFFFFFFFFFFFFFFFFFFFFFFFF AND PUSH20 0xFFFFFFFFFFFFFFFFFFFFFFFFFFFFFFFFFFFFFFFF AND DUP2 MSTORE PUSH1 0x20 ADD SWAP1 DUP2 MSTORE PUSH1 0x20 ADD PUSH1 0x0 KECCAK256 SLOAD SWAP1 POP SWAP1 JUMP JUMPDEST PUSH1 0x11 SLOAD PUSH1 0x10 SLOAD EQ PUSH2 0x3EAB JUMPI PUSH1 0x0 DUP1 REVERT JUMPDEST PUSH1 0x1 ISZERO ISZERO PUSH1 0x1B PUSH1 0x1 PUSH1 0x11 SLOAD PUSH2 0x3EC0 SWAP2 SWAP1 PUSH2 0x5275 JUMP JUMPDEST DUP2 SLOAD DUP2 LT PUSH2 0x3ED1 JUMPI PUSH2 0x3ED0 PUSH2 0x52A9 JUMP JUMPDEST JUMPDEST SWAP1 PUSH1 0x0 MSTORE PUSH1 0x20 PUSH1 0x0 KECCAK256 SWAP1 PUSH1 0x3 MUL ADD PUSH1 0x2 ADD PUSH1 0x0 SWAP1 SLOAD SWAP1 PUSH2 0x100 EXP SWAP1 DIV PUSH1 0xFF AND ISZERO ISZERO EQ DUP1 ISZERO PUSH2 0x3F43 JUMPI POP PUSH1 0x1 ISZERO ISZERO PUSH1 0x1C PUSH1 0x1 PUSH1 0x10 SLOAD PUSH2 0x3F0F SWAP2 SWAP1 PUSH2 0x5275 JUMP JUMPDEST DUP2 SLOAD DUP2 LT PUSH2 0x3F20 JUMPI PUSH2 0x3F1F PUSH2 0x52A9 JUMP JUMPDEST JUMPDEST SWAP1 PUSH1 0x0 MSTORE PUSH1 0x20 PUSH1 0x0 KECCAK256 SWAP1 PUSH1 0x3 MUL ADD PUSH1 0x2 ADD PUSH1 0x0 SWAP1 SLOAD SWAP1 PUSH2 0x100 EXP SWAP1 DIV PUSH1 0xFF AND ISZERO ISZERO EQ JUMPDEST PUSH2 0x3F4C JUMPI PUSH1 0x0 DUP1 REVERT JUMPDEST PUSH1 0x0 ISZERO ISZERO PUSH1 0xF PUSH1 0x0 SWAP1 SLOAD SWAP1 PUSH2 0x100 EXP SWAP1 DIV PUSH1 0xFF AND ISZERO ISZERO EQ PUSH2 0x3F6C JUMPI PUSH1 0x0 DUP1 REVERT JUMPDEST PUSH1 0x1 PUSH1 0x0 SWAP1 SLOAD SWAP1 PUSH2 0x100 EXP SWAP1 DIV PUSH20 0xFFFFFFFFFFFFFFFFFFFFFFFFFFFFFFFFFFFFFFFF AND PUSH20 0xFFFFFFFFFFFFFFFFFFFFFFFFFFFFFFFFFFFFFFFF AND CALLER PUSH20 0xFFFFFFFFFFFFFFFFFFFFFFFFFFFFFFFFFFFFFFFF AND EQ DUP1 PUSH2 0x4015 JUMPI POP PUSH1 0x2 PUSH1 0x0 SWAP1 SLOAD SWAP1 PUSH2 0x100 EXP SWAP1 DIV PUSH20 0xFFFFFFFFFFFFFFFFFFFFFFFFFFFFFFFFFFFFFFFF AND PUSH20 0xFFFFFFFFFFFFFFFFFFFFFFFFFFFFFFFFFFFFFFFF AND CALLER PUSH20 0xFFFFFFFFFFFFFFFFFFFFFFFFFFFFFFFFFFFFFFFF AND EQ JUMPDEST PUSH2 0x4054 JUMPI PUSH1 0x40 MLOAD PUSH32 0x8C379A000000000000000000000000000000000000000000000000000000000 DUP2 MSTORE PUSH1 0x4 ADD PUSH2 0x404B SWAP1 PUSH2 0x5DE7 JUMP JUMPDEST PUSH1 0x40 MLOAD DUP1 SWAP2 SUB SWAP1 REVERT JUMPDEST PUSH1 0x5 SLOAD PUSH1 0x10 SLOAD SUB PUSH2 0x40C7 JUMPI PUSH1 0x0 PUSH1 0xF PUSH1 0x1 PUSH2 0x100 EXP DUP2 SLOAD DUP2 PUSH1 0xFF MUL NOT AND SWAP1 DUP4 ISZERO ISZERO MUL OR SWAP1 SSTORE POP PUSH32 0x8981DB450960C259DDC1FCF29707FB8154817DFF48A6F761A30FDD79CB929774 CALLER PUSH1 0xF PUSH1 0x1 SWAP1 SLOAD SWAP1 PUSH2 0x100 EXP SWAP1 DIV PUSH1 0xFF AND PUSH1 0x40 MLOAD PUSH2 0x40BA SWAP3 SWAP2 SWAP1 PUSH2 0x5E07 JUMP JUMPDEST PUSH1 0x40 MLOAD DUP1 SWAP2 SUB SWAP1 LOG1 PUSH2 0x4110 JUMP JUMPDEST PUSH32 0x8981DB450960C259DDC1FCF29707FB8154817DFF48A6F761A30FDD79CB929774 CALLER PUSH1 0xF PUSH1 0x1 SWAP1 SLOAD SWAP1 PUSH2 0x100 EXP SWAP1 DIV PUSH1 0xFF AND PUSH1 0x40 MLOAD PUSH2 0x4107 SWAP3 SWAP2 SWAP1 PUSH2 0x5E07 JUMP JUMPDEST PUSH1 0x40 MLOAD DUP1 SWAP2 SUB SWAP1 LOG1 JUMPDEST JUMP JUMPDEST PUSH1 0x0 DUP1 PUSH1 0x0 PUSH1 0xD SLOAD GT DUP1 ISZERO PUSH2 0x413A JUMPI POP PUSH1 0x0 ISZERO ISZERO PUSH1 0xF PUSH1 0x1 SWAP1 SLOAD SWAP1 PUSH2 0x100 EXP SWAP1 DIV PUSH1 0xFF AND ISZERO ISZERO EQ JUMPDEST PUSH2 0x4143 JUMPI PUSH1 0x0 DUP1 REVERT JUMPDEST PUSH1 0xD SLOAD PUSH1 0xE SLOAD SWAP2 POP SWAP2 POP SWAP1 SWAP2 JUMP JUMPDEST CALLVALUE PUSH1 0x4 PUSH1 0x0 CALLER PUSH20 0xFFFFFFFFFFFFFFFFFFFFFFFFFFFFFFFFFFFFFFFF AND PUSH20 0xFFFFFFFFFFFFFFFFFFFFFFFFFFFFFFFFFFFFFFFF AND DUP2 MSTORE PUSH1 0x20 ADD SWAP1 DUP2 MSTORE PUSH1 0x20 ADD PUSH1 0x0 KECCAK256 PUSH1 0x0 DUP3 DUP3 SLOAD PUSH2 0x41A0 SWAP2 SWAP1 PUSH2 0x536A JUMP JUMPDEST SWAP3 POP POP DUP2 SWAP1 SSTORE POP JUMP JUMPDEST PUSH1 0x17 SLOAD DUP2 JUMP JUMPDEST PUSH1 0x19 SLOAD DUP2 JUMP JUMPDEST PUSH1 0x1 PUSH1 0xA PUSH1 0x0 PUSH2 0x100 EXP DUP2 SLOAD DUP2 PUSH1 0xFF MUL NOT AND SWAP1 DUP4 ISZERO ISZERO MUL OR SWAP1 SSTORE ISZERO PUSH2 0x423F JUMPI PUSH1 0x1 PUSH1 0x11 SLOAD PUSH2 0x41E3 SWAP2 SWAP1 PUSH2 0x5275 JUMP JUMPDEST PUSH1 0x1 PUSH1 0x10 SLOAD PUSH2 0x41F2 SWAP2 SWAP1 PUSH2 0x5275 JUMP JUMPDEST PUSH2 0x41FC SWAP2 SWAP1 PUSH2 0x536A JUMP JUMPDEST DUP2 DUP4 PUSH2 0x4208 SWAP2 SWAP1 PUSH2 0x536A JUMP JUMPDEST PUSH2 0x4212 SWAP2 SWAP1 PUSH2 0x55FC JUMP JUMPDEST PUSH1 0xD DUP2 SWAP1 SSTORE POP PUSH1 0x64 PUSH1 0x9 SLOAD PUSH1 0xD SLOAD PUSH2 0x422A SWAP2 SWAP1 PUSH2 0x558B JUMP JUMPDEST PUSH2 0x4234 SWAP2 SWAP1 PUSH2 0x55FC JUMP JUMPDEST PUSH1 0xE DUP2 SWAP1 SSTORE POP PUSH2 0x428D JUMP JUMPDEST PUSH1 0x2 PUSH1 0x10 SLOAD PUSH2 0x424E SWAP2 SWAP1 PUSH2 0x558B JUMP JUMPDEST DUP2 DUP4 PUSH2 0x425A SWAP2 SWAP1 PUSH2 0x536A JUMP JUMPDEST PUSH2 0x4264 SWAP2 SWAP1 PUSH2 0x55FC JUMP JUMPDEST PUSH1 0xD DUP2 SWAP1 SSTORE POP PUSH1 0x64 PUSH1 0x9 SLOAD PUSH1 0xD SLOAD PUSH2 0x427C SWAP2 SWAP1 PUSH2 0x558B JUMP JUMPDEST PUSH2 0x4286 SWAP2 SWAP1 PUSH2 0x55FC JUMP JUMPDEST PUSH1 0xE DUP2 SWAP1 SSTORE POP JUMPDEST POP POP JUMP JUMPDEST PUSH1 0x0 PUSH1 0x1C PUSH1 0x1 PUSH1 0x10 SLOAD PUSH2 0x42A4 SWAP2 SWAP1 PUSH2 0x5275 JUMP JUMPDEST DUP2 SLOAD DUP2 LT PUSH2 0x42B5 JUMPI PUSH2 0x42B4 PUSH2 0x52A9 JUMP JUMPDEST JUMPDEST SWAP1 PUSH1 0x0 MSTORE PUSH1 0x20 PUSH1 0x0 KECCAK256 SWAP1 PUSH1 0x3 MUL ADD PUSH1 0x0 ADD SLOAD SWAP1 POP PUSH1 0x0 PUSH1 0x1B PUSH1 0x1 PUSH1 0x11 SLOAD PUSH2 0x42DC SWAP2 SWAP1 PUSH2 0x5275 JUMP JUMPDEST DUP2 SLOAD DUP2 LT PUSH2 0x42ED JUMPI PUSH2 0x42EC PUSH2 0x52A9 JUMP JUMPDEST JUMPDEST SWAP1 PUSH1 0x0 MSTORE PUSH1 0x20 PUSH1 0x0 KECCAK256 SWAP1 PUSH1 0x3 MUL ADD PUSH1 0x0 ADD SLOAD SWAP1 POP PUSH1 0x0 DUP3 DUP3 GT PUSH2 0x4332 JUMPI DUP3 PUSH1 0x64 DUP4 DUP6 PUSH2 0x4319 SWAP2 SWAP1 PUSH2 0x5275 JUMP JUMPDEST PUSH2 0x4323 SWAP2 SWAP1 PUSH2 0x558B JUMP JUMPDEST PUSH2 0x432D SWAP2 SWAP1 PUSH2 0x55FC JUMP JUMPDEST PUSH2 0x4356 JUMP JUMPDEST DUP2 PUSH1 0x64 DUP5 DUP5 PUSH2 0x4341 SWAP2 SWAP1 PUSH2 0x5275 JUMP JUMPDEST PUSH2 0x434B SWAP2 SWAP1 PUSH2 0x558B JUMP JUMPDEST PUSH2 0x4355 SWAP2 SWAP1 PUSH2 0x55FC JUMP JUMPDEST JUMPDEST SWAP1 POP PUSH1 0x0 DUP4 DUP4 GT PUSH2 0x4372 JUMPI DUP3 DUP5 PUSH2 0x436D SWAP2 SWAP1 PUSH2 0x5275 JUMP JUMPDEST PUSH2 0x437F JUMP JUMPDEST DUP4 DUP4 PUSH2 0x437E SWAP2 SWAP1 PUSH2 0x5275 JUMP JUMPDEST JUMPDEST SWAP1 POP PUSH1 0x0 PUSH1 0x2 DUP3 PUSH2 0x4390 SWAP2 SWAP1 PUSH2 0x55FC JUMP JUMPDEST SWAP1 POP PUSH1 0x7 SLOAD DUP4 GT ISZERO DUP1 ISZERO PUSH2 0x43A3 JUMPI POP DUP5 DUP5 GT JUMPDEST ISZERO PUSH2 0x4408 JUMPI DUP1 DUP6 PUSH2 0x43B4 SWAP2 SWAP1 PUSH2 0x536A JUMP JUMPDEST PUSH1 0x14 DUP2 SWAP1 SSTORE POP PUSH32 0xC4061A08319FF98ACFEAC7FF6F40488FB0743BEBA7CB4746C9522AE46BE44B51 PUSH1 0x1 PUSH1 0xF PUSH1 0x1 SWAP1 SLOAD SWAP1 PUSH2 0x100 EXP SWAP1 DIV PUSH1 0xFF AND PUSH1 0x40 MLOAD PUSH2 0x43FB SWAP3 SWAP2 SWAP1 PUSH2 0x5E30 JUMP JUMPDEST PUSH1 0x40 MLOAD DUP1 SWAP2 SUB SWAP1 LOG1 PUSH2 0x454E JUMP JUMPDEST PUSH1 0x7 SLOAD DUP4 GT ISZERO DUP1 ISZERO PUSH2 0x4419 JUMPI POP DUP4 DUP6 GT JUMPDEST ISZERO PUSH2 0x447E JUMPI DUP1 DUP5 PUSH2 0x442A SWAP2 SWAP1 PUSH2 0x536A JUMP JUMPDEST PUSH1 0x14 DUP2 SWAP1 SSTORE POP PUSH32 0xC4061A08319FF98ACFEAC7FF6F40488FB0743BEBA7CB4746C9522AE46BE44B51 PUSH1 0x1 PUSH1 0xF PUSH1 0x1 SWAP1 SLOAD SWAP1 PUSH2 0x100 EXP SWAP1 DIV PUSH1 0xFF AND PUSH1 0x40 MLOAD PUSH2 0x4471 SWAP3 SWAP2 SWAP1 PUSH2 0x5E30 JUMP JUMPDEST PUSH1 0x40 MLOAD DUP1 SWAP2 SUB SWAP1 LOG1 PUSH2 0x454D JUMP JUMPDEST PUSH1 0x5 SLOAD PUSH1 0x10 SLOAD EQ DUP1 ISZERO PUSH2 0x4494 JUMPI POP PUSH1 0x5 SLOAD PUSH1 0x11 SLOAD EQ JUMPDEST ISZERO PUSH2 0x4502 JUMPI PUSH1 0x0 PUSH1 0xF PUSH1 0x1 PUSH2 0x100 EXP DUP2 SLOAD DUP2 PUSH1 0xFF MUL NOT AND SWAP1 DUP4 ISZERO ISZERO MUL OR SWAP1 SSTORE POP PUSH32 0xC4061A08319FF98ACFEAC7FF6F40488FB0743BEBA7CB4746C9522AE46BE44B51 PUSH1 0x0 PUSH1 0xF PUSH1 0x1 SWAP1 SLOAD SWAP1 PUSH2 0x100 EXP SWAP1 DIV PUSH1 0xFF AND PUSH1 0x40 MLOAD PUSH2 0x44F5 SWAP3 SWAP2 SWAP1 PUSH2 0x5E30 JUMP JUMPDEST PUSH1 0x40 MLOAD DUP1 SWAP2 SUB SWAP1 LOG1 PUSH2 0x454C JUMP JUMPDEST PUSH32 0xC4061A08319FF98ACFEAC7FF6F40488FB0743BEBA7CB4746C9522AE46BE44B51 PUSH1 0x0 PUSH1 0xF PUSH1 0x1 SWAP1 SLOAD SWAP1 PUSH2 0x100 EXP SWAP1 DIV PUSH1 0xFF AND PUSH1 0x40 MLOAD PUSH2 0x4543 SWAP3 SWAP2 SWAP1 PUSH2 0x5E30 JUMP JUMPDEST PUSH1 0x40 MLOAD DUP1 SWAP2 SUB SWAP1 LOG1 JUMPDEST JUMPDEST JUMPDEST POP POP POP POP POP JUMP JUMPDEST PUSH1 0xE SLOAD PUSH1 0x4 PUSH1 0x0 PUSH1 0x2 PUSH1 0x0 SWAP1 SLOAD SWAP1 PUSH2 0x100 EXP SWAP1 DIV PUSH20 0xFFFFFFFFFFFFFFFFFFFFFFFFFFFFFFFFFFFFFFFF AND PUSH20 0xFFFFFFFFFFFFFFFFFFFFFFFFFFFFFFFFFFFFFFFF AND PUSH20 0xFFFFFFFFFFFFFFFFFFFFFFFFFFFFFFFFFFFFFFFF AND DUP2 MSTORE PUSH1 0x20 ADD SWAP1 DUP2 MSTORE PUSH1 0x20 ADD PUSH1 0x0 KECCAK256 SLOAD LT ISZERO PUSH2 0x45FB JUMPI PUSH1 0x40 MLOAD PUSH32 0x8C379A000000000000000000000000000000000000000000000000000000000 DUP2 MSTORE PUSH1 0x4 ADD PUSH2 0x45F2 SWAP1 PUSH2 0x5EF1 JUMP JUMPDEST PUSH1 0x40 MLOAD DUP1 SWAP2 SUB SWAP1 REVERT JUMPDEST DUP1 PUSH1 0x4 PUSH1 0x0 PUSH1 0x1 PUSH1 0x0 SWAP1 SLOAD SWAP1 PUSH2 0x100 EXP SWAP1 DIV PUSH20 0xFFFFFFFFFFFFFFFFFFFFFFFFFFFFFFFFFFFFFFFF AND PUSH20 0xFFFFFFFFFFFFFFFFFFFFFFFFFFFFFFFFFFFFFFFF AND PUSH20 0xFFFFFFFFFFFFFFFFFFFFFFFFFFFFFFFFFFFFFFFF AND DUP2 MSTORE PUSH1 0x20 ADD SWAP1 DUP2 MSTORE PUSH1 0x20 ADD PUSH1 0x0 KECCAK256 SLOAD LT ISZERO PUSH2 0x469F JUMPI PUSH1 0x40 MLOAD PUSH32 0x8C379A000000000000000000000000000000000000000000000000000000000 DUP2 MSTORE PUSH1 0x4 ADD PUSH2 0x4696 SWAP1 PUSH2 0x5FA9 JUMP JUMPDEST PUSH1 0x40 MLOAD DUP1 SWAP2 SUB SWAP1 REVERT JUMPDEST PUSH1 0x0 PUSH1 0x1E PUSH1 0x1 PUSH1 0x12 SLOAD PUSH2 0x46B2 SWAP2 SWAP1 PUSH2 0x5275 JUMP JUMPDEST DUP2 SLOAD DUP2 LT PUSH2 0x46C3 JUMPI PUSH2 0x46C2 PUSH2 0x52A9 JUMP JUMPDEST JUMPDEST SWAP1 PUSH1 0x0 MSTORE PUSH1 0x20 PUSH1 0x0 KECCAK256 SWAP1 PUSH1 0x3 MUL ADD PUSH1 0x0 ADD SLOAD SWAP1 POP PUSH1 0x0 PUSH1 0x1D PUSH1 0x1 PUSH1 0x13 SLOAD PUSH2 0x46EA SWAP2 SWAP1 PUSH2 0x5275 JUMP JUMPDEST DUP2 SLOAD DUP2 LT PUSH2 0x46FB JUMPI PUSH2 0x46FA PUSH2 0x52A9 JUMP JUMPDEST JUMPDEST SWAP1 PUSH1 0x0 MSTORE PUSH1 0x20 PUSH1 0x0 KECCAK256 SWAP1 PUSH1 0x3 MUL ADD PUSH1 0x0 ADD SLOAD SWAP1 POP PUSH1 0x0 DUP3 DUP3 GT PUSH2 0x4740 JUMPI DUP3 PUSH1 0x64 DUP4 DUP6 PUSH2 0x4727 SWAP2 SWAP1 PUSH2 0x5275 JUMP JUMPDEST PUSH2 0x4731 SWAP2 SWAP1 PUSH2 0x558B JUMP JUMPDEST PUSH2 0x473B SWAP2 SWAP1 PUSH2 0x55FC JUMP JUMPDEST PUSH2 0x4764 JUMP JUMPDEST DUP2 PUSH1 0x64 DUP5 DUP5 PUSH2 0x474F SWAP2 SWAP1 PUSH2 0x5275 JUMP JUMPDEST PUSH2 0x4759 SWAP2 SWAP1 PUSH2 0x558B JUMP JUMPDEST PUSH2 0x4763 SWAP2 SWAP1 PUSH2 0x55FC JUMP JUMPDEST JUMPDEST SWAP1 POP PUSH1 0x0 DUP4 DUP4 GT PUSH2 0x4780 JUMPI DUP3 DUP5 PUSH2 0x477B SWAP2 SWAP1 PUSH2 0x5275 JUMP JUMPDEST PUSH2 0x478D JUMP JUMPDEST DUP4 DUP4 PUSH2 0x478C SWAP2 SWAP1 PUSH2 0x5275 JUMP JUMPDEST JUMPDEST SWAP1 POP PUSH1 0x0 PUSH1 0x2 DUP3 PUSH2 0x479E SWAP2 SWAP1 PUSH2 0x55FC JUMP JUMPDEST SWAP1 POP PUSH1 0x8 SLOAD DUP4 GT ISZERO DUP1 ISZERO PUSH2 0x47B1 JUMPI POP DUP5 DUP5 GT JUMPDEST ISZERO PUSH2 0x4936 JUMPI DUP1 DUP6 PUSH2 0x47C2 SWAP2 SWAP1 PUSH2 0x536A JUMP JUMPDEST PUSH1 0x15 DUP2 SWAP1 SSTORE POP PUSH1 0x15 SLOAD PUSH1 0x4 PUSH1 0x0 PUSH1 0x1 PUSH1 0x0 SWAP1 SLOAD SWAP1 PUSH2 0x100 EXP SWAP1 DIV PUSH20 0xFFFFFFFFFFFFFFFFFFFFFFFFFFFFFFFFFFFFFFFF AND PUSH20 0xFFFFFFFFFFFFFFFFFFFFFFFFFFFFFFFFFFFFFFFF AND PUSH20 0xFFFFFFFFFFFFFFFFFFFFFFFFFFFFFFFFFFFFFFFF AND DUP2 MSTORE PUSH1 0x20 ADD SWAP1 DUP2 MSTORE PUSH1 0x20 ADD PUSH1 0x0 KECCAK256 PUSH1 0x0 DUP3 DUP3 SLOAD PUSH2 0x483B SWAP2 SWAP1 PUSH2 0x5275 JUMP JUMPDEST SWAP3 POP POP DUP2 SWAP1 SSTORE POP PUSH1 0x15 SLOAD PUSH1 0x4 PUSH1 0x0 PUSH1 0x2 PUSH1 0x0 SWAP1 SLOAD SWAP1 PUSH2 0x100 EXP SWAP1 DIV PUSH20 0xFFFFFFFFFFFFFFFFFFFFFFFFFFFFFFFFFFFFFFFF AND PUSH20 0xFFFFFFFFFFFFFFFFFFFFFFFFFFFFFFFFFFFFFFFF AND PUSH20 0xFFFFFFFFFFFFFFFFFFFFFFFFFFFFFFFFFFFFFFFF AND DUP2 MSTORE PUSH1 0x20 ADD SWAP1 DUP2 MSTORE PUSH1 0x20 ADD PUSH1 0x0 KECCAK256 PUSH1 0x0 DUP3 DUP3 SLOAD PUSH2 0x48B5 SWAP2 SWAP1 PUSH2 0x536A JUMP JUMPDEST SWAP3 POP POP DUP2 SWAP1 SSTORE POP PUSH1 0x1 PUSH1 0xF PUSH1 0x0 PUSH2 0x100 EXP DUP2 SLOAD DUP2 PUSH1 0xFF MUL NOT AND SWAP1 DUP4 ISZERO ISZERO MUL OR SWAP1 SSTORE POP PUSH32 0x39E40560384534993C2281DC4D9876FBEE20BCBB306D5C352FE514A11ED0068C PUSH1 0x1 DUP7 DUP7 DUP7 DUP7 DUP7 PUSH1 0x15 SLOAD PUSH1 0xF PUSH1 0x0 SWAP1 SLOAD SWAP1 PUSH2 0x100 EXP SWAP1 DIV PUSH1 0xFF AND PUSH1 0x0 PUSH1 0x40 MLOAD PUSH2 0x4929 SWAP10 SWAP9 SWAP8 SWAP7 SWAP6 SWAP5 SWAP4 SWAP3 SWAP2 SWAP1 PUSH2 0x5FC9 JUMP JUMPDEST PUSH1 0x40 MLOAD DUP1 SWAP2 SUB SWAP1 LOG1 PUSH2 0x4B3C JUMP JUMPDEST PUSH1 0x8 SLOAD DUP4 GT ISZERO DUP1 ISZERO PUSH2 0x4947 JUMPI POP DUP4 DUP6 GT JUMPDEST ISZERO PUSH2 0x4ACC JUMPI DUP1 DUP5 PUSH2 0x4958 SWAP2 SWAP1 PUSH2 0x536A JUMP JUMPDEST PUSH1 0x15 DUP2 SWAP1 SSTORE POP PUSH1 0x15 SLOAD PUSH1 0x4 PUSH1 0x0 PUSH1 0x1 PUSH1 0x0 SWAP1 SLOAD SWAP1 PUSH2 0x100 EXP SWAP1 DIV PUSH20 0xFFFFFFFFFFFFFFFFFFFFFFFFFFFFFFFFFFFFFFFF AND PUSH20 0xFFFFFFFFFFFFFFFFFFFFFFFFFFFFFFFFFFFFFFFF AND PUSH20 0xFFFFFFFFFFFFFFFFFFFFFFFFFFFFFFFFFFFFFFFF AND DUP2 MSTORE PUSH1 0x20 ADD SWAP1 DUP2 MSTORE PUSH1 0x20 ADD PUSH1 0x0 KECCAK256 PUSH1 0x0 DUP3 DUP3 SLOAD PUSH2 0x49D1 SWAP2 SWAP1 PUSH2 0x5275 JUMP JUMPDEST SWAP3 POP POP DUP2 SWAP1 SSTORE POP PUSH1 0x15 SLOAD PUSH1 0x4 PUSH1 0x0 PUSH1 0x2 PUSH1 0x0 SWAP1 SLOAD SWAP1 PUSH2 0x100 EXP SWAP1 DIV PUSH20 0xFFFFFFFFFFFFFFFFFFFFFFFFFFFFFFFFFFFFFFFF AND PUSH20 0xFFFFFFFFFFFFFFFFFFFFFFFFFFFFFFFFFFFFFFFF AND PUSH20 0xFFFFFFFFFFFFFFFFFFFFFFFFFFFFFFFFFFFFFFFF AND DUP2 MSTORE PUSH1 0x20 ADD SWAP1 DUP2 MSTORE PUSH1 0x20 ADD PUSH1 0x0 KECCAK256 PUSH1 0x0 DUP3 DUP3 SLOAD PUSH2 0x4A4B SWAP2 SWAP1 PUSH2 0x536A JUMP JUMPDEST SWAP3 POP POP DUP2 SWAP1 SSTORE POP PUSH1 0x1 PUSH1 0xF PUSH1 0x0 PUSH2 0x100 EXP DUP2 SLOAD DUP2 PUSH1 0xFF MUL NOT AND SWAP1 DUP4 ISZERO ISZERO MUL OR SWAP1 SSTORE POP PUSH32 0x39E40560384534993C2281DC4D9876FBEE20BCBB306D5C352FE514A11ED0068C PUSH1 0x1 DUP7 DUP7 DUP7 DUP7 DUP7 PUSH1 0x15 SLOAD PUSH1 0xF PUSH1 0x0 SWAP1 SLOAD SWAP1 PUSH2 0x100 EXP SWAP1 DIV PUSH1 0xFF AND PUSH1 0x0 PUSH1 0x40 MLOAD PUSH2 0x4ABF SWAP10 SWAP9 SWAP8 SWAP7 SWAP6 SWAP5 SWAP4 SWAP3 SWAP2 SWAP1 PUSH2 0x5FC9 JUMP JUMPDEST PUSH1 0x40 MLOAD DUP1 SWAP2 SUB SWAP1 LOG1 PUSH2 0x4B3B JUMP JUMPDEST PUSH1 0x8 SLOAD DUP4 GT ISZERO PUSH2 0x4B3A JUMPI PUSH2 0x4ADE PUSH2 0x4B44 JUMP JUMPDEST PUSH32 0x39E40560384534993C2281DC4D9876FBEE20BCBB306D5C352FE514A11ED0068C PUSH1 0x0 DUP1 PUSH1 0x0 DUP1 PUSH1 0x0 DUP1 PUSH1 0x0 PUSH1 0xF PUSH1 0x0 SWAP1 SLOAD SWAP1 PUSH2 0x100 EXP SWAP1 DIV PUSH1 0xFF AND PUSH1 0x1 PUSH1 0x40 MLOAD PUSH2 0x4B31 SWAP10 SWAP9 SWAP8 SWAP7 SWAP6 SWAP5 SWAP4 SWAP3 SWAP2 SWAP1 PUSH2 0x6056 JUMP JUMPDEST PUSH1 0x40 MLOAD DUP1 SWAP2 SUB SWAP1 LOG1 JUMPDEST JUMPDEST JUMPDEST POP POP POP POP POP POP JUMP JUMPDEST PUSH1 0x0 PUSH1 0x1E PUSH1 0x1 PUSH1 0x12 SLOAD PUSH2 0x4B57 SWAP2 SWAP1 PUSH2 0x5275 JUMP JUMPDEST DUP2 SLOAD DUP2 LT PUSH2 0x4B68 JUMPI PUSH2 0x4B67 PUSH2 0x52A9 JUMP JUMPDEST JUMPDEST SWAP1 PUSH1 0x0 MSTORE PUSH1 0x20 PUSH1 0x0 KECCAK256 SWAP1 PUSH1 0x3 MUL ADD PUSH1 0x0 ADD SLOAD SWAP1 POP PUSH1 0x0 PUSH1 0x1D PUSH1 0x1 PUSH1 0x13 SLOAD PUSH2 0x4B8F SWAP2 SWAP1 PUSH2 0x5275 JUMP JUMPDEST DUP2 SLOAD DUP2 LT PUSH2 0x4BA0 JUMPI PUSH2 0x4B9F PUSH2 0x52A9 JUMP JUMPDEST JUMPDEST SWAP1 PUSH1 0x0 MSTORE PUSH1 0x20 PUSH1 0x0 KECCAK256 SWAP1 PUSH1 0x3 MUL ADD PUSH1 0x0 ADD SLOAD SWAP1 POP PUSH1 0x0 PUSH1 0xD SLOAD DUP4 GT PUSH2 0x4BD2 JUMPI DUP3 PUSH1 0xD SLOAD PUSH2 0x4BCD SWAP2 SWAP1 PUSH2 0x5275 JUMP JUMPDEST PUSH2 0x4BE1 JUMP JUMPDEST PUSH1 0xD SLOAD DUP4 PUSH2 0x4BE0 SWAP2 SWAP1 PUSH2 0x5275 JUMP JUMPDEST JUMPDEST SWAP1 POP PUSH1 0x0 PUSH1 0xD SLOAD DUP4 GT PUSH2 0x4C01 JUMPI DUP3 PUSH1 0xD SLOAD PUSH2 0x4BFC SWAP2 SWAP1 PUSH2 0x5275 JUMP JUMPDEST PUSH2 0x4C10 JUMP JUMPDEST PUSH1 0xD SLOAD DUP4 PUSH2 0x4C0F SWAP2 SWAP1 PUSH2 0x5275 JUMP JUMPDEST JUMPDEST SWAP1 POP DUP1 DUP3 GT ISZERO PUSH2 0x4D94 JUMPI PUSH1 0xE SLOAD PUSH1 0x4 PUSH1 0x0 PUSH1 0x1 PUSH1 0x0 SWAP1 SLOAD SWAP1 PUSH2 0x100 EXP SWAP1 DIV PUSH20 0xFFFFFFFFFFFFFFFFFFFFFFFFFFFFFFFFFFFFFFFF AND PUSH20 0xFFFFFFFFFFFFFFFFFFFFFFFFFFFFFFFFFFFFFFFF AND PUSH20 0xFFFFFFFFFFFFFFFFFFFFFFFFFFFFFFFFFFFFFFFF AND DUP2 MSTORE PUSH1 0x20 ADD SWAP1 DUP2 MSTORE PUSH1 0x20 ADD PUSH1 0x0 KECCAK256 PUSH1 0x0 DUP3 DUP3 SLOAD PUSH2 0x4C8D SWAP2 SWAP1 PUSH2 0x5275 JUMP JUMPDEST SWAP3 POP POP DUP2 SWAP1 SSTORE POP PUSH1 0xE SLOAD PUSH1 0x4 PUSH1 0x0 PUSH1 0x2 PUSH1 0x0 SWAP1 SLOAD SWAP1 PUSH2 0x100 EXP SWAP1 DIV PUSH20 0xFFFFFFFFFFFFFFFFFFFFFFFFFFFFFFFFFFFFFFFF AND PUSH20 0xFFFFFFFFFFFFFFFFFFFFFFFFFFFFFFFFFFFFFFFF AND PUSH20 0xFFFFFFFFFFFFFFFFFFFFFFFFFFFFFFFFFFFFFFFF AND DUP2 MSTORE PUSH1 0x20 ADD SWAP1 DUP2 MSTORE PUSH1 0x20 ADD PUSH1 0x0 KECCAK256 PUSH1 0x0 DUP3 DUP3 SLOAD PUSH2 0x4D07 SWAP2 SWAP1 PUSH2 0x536A JUMP JUMPDEST SWAP3 POP POP DUP2 SWAP1 SSTORE POP PUSH32 0x483DCC5F25E12D404BC8B4C072B870001C543D3DAEC5C241CD3ACEE232195FCA PUSH1 0x1 PUSH1 0x0 SWAP1 SLOAD SWAP1 PUSH2 0x100 EXP SWAP1 DIV PUSH20 0xFFFFFFFFFFFFFFFFFFFFFFFFFFFFFFFFFFFFFFFF AND PUSH1 0x2 PUSH1 0x0 SWAP1 SLOAD SWAP1 PUSH2 0x100 EXP SWAP1 DIV PUSH20 0xFFFFFFFFFFFFFFFFFFFFFFFFFFFFFFFFFFFFFFFF AND PUSH1 0xE SLOAD PUSH1 0x40 MLOAD PUSH2 0x4D87 SWAP4 SWAP3 SWAP2 SWAP1 PUSH2 0x60E3 JUMP JUMPDEST PUSH1 0x40 MLOAD DUP1 SWAP2 SUB SWAP1 LOG1 PUSH2 0x4F58 JUMP JUMPDEST DUP2 DUP2 GT ISZERO PUSH2 0x4F16 JUMPI PUSH1 0xE SLOAD PUSH1 0x4 PUSH1 0x0 PUSH1 0x2 PUSH1 0x0 SWAP1 SLOAD SWAP1 PUSH2 0x100 EXP SWAP1 DIV PUSH20 0xFFFFFFFFFFFFFFFFFFFFFFFFFFFFFFFFFFFFFFFF AND PUSH20 0xFFFFFFFFFFFFFFFFFFFFFFFFFFFFFFFFFFFFFFFF AND PUSH20 0xFFFFFFFFFFFFFFFFFFFFFFFFFFFFFFFFFFFFFFFF AND DUP2 MSTORE PUSH1 0x20 ADD SWAP1 DUP2 MSTORE PUSH1 0x20 ADD PUSH1 0x0 KECCAK256 PUSH1 0x0 DUP3 DUP3 SLOAD PUSH2 0x4E0F SWAP2 SWAP1 PUSH2 0x5275 JUMP JUMPDEST SWAP3 POP POP DUP2 SWAP1 SSTORE POP PUSH1 0xE SLOAD PUSH1 0x4 PUSH1 0x0 PUSH1 0x1 PUSH1 0x0 SWAP1 SLOAD SWAP1 PUSH2 0x100 EXP SWAP1 DIV PUSH20 0xFFFFFFFFFFFFFFFFFFFFFFFFFFFFFFFFFFFFFFFF AND PUSH20 0xFFFFFFFFFFFFFFFFFFFFFFFFFFFFFFFFFFFFFFFF AND PUSH20 0xFFFFFFFFFFFFFFFFFFFFFFFFFFFFFFFFFFFFFFFF AND DUP2 MSTORE PUSH1 0x20 ADD SWAP1 DUP2 MSTORE PUSH1 0x20 ADD PUSH1 0x0 KECCAK256 PUSH1 0x0 DUP3 DUP3 SLOAD PUSH2 0x4E89 SWAP2 SWAP1 PUSH2 0x536A JUMP JUMPDEST SWAP3 POP POP DUP2 SWAP1 SSTORE POP PUSH32 0x483DCC5F25E12D404BC8B4C072B870001C543D3DAEC5C241CD3ACEE232195FCA PUSH1 0x2 PUSH1 0x0 SWAP1 SLOAD SWAP1 PUSH2 0x100 EXP SWAP1 DIV PUSH20 0xFFFFFFFFFFFFFFFFFFFFFFFFFFFFFFFFFFFFFFFF AND PUSH1 0x1 PUSH1 0x0 SWAP1 SLOAD SWAP1 PUSH2 0x100 EXP SWAP1 DIV PUSH20 0xFFFFFFFFFFFFFFFFFFFFFFFFFFFFFFFFFFFFFFFF AND PUSH1 0xE SLOAD PUSH1 0x40 MLOAD PUSH2 0x4F09 SWAP4 SWAP3 SWAP2 SWAP1 PUSH2 0x60E3 JUMP JUMPDEST PUSH1 0x40 MLOAD DUP1 SWAP2 SUB SWAP1 LOG1 PUSH2 0x4F57 JUMP JUMPDEST DUP1 DUP3 SUB PUSH2 0x4F56 JUMPI PUSH32 0x98FDD9EEB8C3CBDC66A415629F1510A33C2536B8353B50354FA399CBC9FB5D42 PUSH1 0x1 PUSH1 0x40 MLOAD PUSH2 0x4F4D SWAP2 SWAP1 PUSH2 0x5009 JUMP JUMPDEST PUSH1 0x40 MLOAD DUP1 SWAP2 SUB SWAP1 LOG1 JUMPDEST JUMPDEST JUMPDEST POP POP POP POP JUMP JUMPDEST PUSH1 0x0 PUSH20 0xFFFFFFFFFFFFFFFFFFFFFFFFFFFFFFFFFFFFFFFF DUP3 AND SWAP1 POP SWAP2 SWAP1 POP JUMP JUMPDEST PUSH1 0x0 PUSH2 0x4F89 DUP3 PUSH2 0x4F5E JUMP JUMPDEST SWAP1 POP SWAP2 SWAP1 POP JUMP JUMPDEST PUSH2 0x4F99 DUP2 PUSH2 0x4F7E JUMP JUMPDEST DUP3 MSTORE POP POP JUMP JUMPDEST PUSH1 0x0 PUSH1 0x20 DUP3 ADD SWAP1 POP PUSH2 0x4FB4 PUSH1 0x0 DUP4 ADD DUP5 PUSH2 0x4F90 JUMP JUMPDEST SWAP3 SWAP2 POP POP JUMP JUMPDEST PUSH1 0x0 DUP2 SWAP1 POP SWAP2 SWAP1 POP JUMP JUMPDEST PUSH2 0x4FCD DUP2 PUSH2 0x4FBA JUMP JUMPDEST DUP3 MSTORE POP POP JUMP JUMPDEST PUSH1 0x0 PUSH1 0x20 DUP3 ADD SWAP1 POP PUSH2 0x4FE8 PUSH1 0x0 DUP4 ADD DUP5 PUSH2 0x4FC4 JUMP JUMPDEST SWAP3 SWAP2 POP POP JUMP JUMPDEST PUSH1 0x0 DUP2 ISZERO ISZERO SWAP1 POP SWAP2 SWAP1 POP JUMP JUMPDEST PUSH2 0x5003 DUP2 PUSH2 0x4FEE JUMP JUMPDEST DUP3 MSTORE POP POP JUMP JUMPDEST PUSH1 0x0 PUSH1 0x20 DUP3 ADD SWAP1 POP PUSH2 0x501E PUSH1 0x0 DUP4 ADD DUP5 PUSH2 0x4FFA JUMP JUMPDEST SWAP3 SWAP2 POP POP JUMP JUMPDEST PUSH1 0x0 DUP1 REVERT JUMPDEST PUSH2 0x5032 DUP2 PUSH2 0x4FBA JUMP JUMPDEST DUP2 EQ PUSH2 0x503D JUMPI PUSH1 0x0 DUP1 REVERT JUMPDEST POP JUMP JUMPDEST PUSH1 0x0 DUP2 CALLDATALOAD SWAP1 POP PUSH2 0x504F DUP2 PUSH2 0x5029 JUMP JUMPDEST SWAP3 SWAP2 POP POP JUMP JUMPDEST PUSH1 0x0 PUSH1 0x20 DUP3 DUP5 SUB SLT ISZERO PUSH2 0x506B JUMPI PUSH2 0x506A PUSH2 0x5024 JUMP JUMPDEST JUMPDEST PUSH1 0x0 PUSH2 0x5079 DUP5 DUP3 DUP6 ADD PUSH2 0x5040 JUMP JUMPDEST SWAP2 POP POP SWAP3 SWAP2 POP POP JUMP JUMPDEST PUSH1 0x0 PUSH2 0x508D DUP3 PUSH2 0x4F5E JUMP JUMPDEST SWAP1 POP SWAP2 SWAP1 POP JUMP JUMPDEST PUSH2 0x509D DUP2 PUSH2 0x5082 JUMP JUMPDEST DUP3 MSTORE POP POP JUMP JUMPDEST PUSH1 0x0 PUSH2 0x100 DUP3 ADD SWAP1 POP PUSH2 0x50B9 PUSH1 0x0 DUP4 ADD DUP12 PUSH2 0x4FC4 JUMP JUMPDEST PUSH2 0x50C6 PUSH1 0x20 DUP4 ADD DUP11 PUSH2 0x4FC4 JUMP JUMPDEST PUSH2 0x50D3 PUSH1 0x40 DUP4 ADD DUP10 PUSH2 0x5094 JUMP JUMPDEST PUSH2 0x50E0 PUSH1 0x60 DUP4 ADD DUP9 PUSH2 0x5094 JUMP JUMPDEST PUSH2 0x50ED PUSH1 0x80 DUP4 ADD DUP8 PUSH2 0x4FC4 JUMP JUMPDEST PUSH2 0x50FA PUSH1 0xA0 DUP4 ADD DUP7 PUSH2 0x4FC4 JUMP JUMPDEST PUSH2 0x5107 PUSH1 0xC0 DUP4 ADD DUP6 PUSH2 0x4FC4 JUMP JUMPDEST PUSH2 0x5114 PUSH1 0xE0 DUP4 ADD DUP5 PUSH2 0x4FFA JUMP JUMPDEST SWAP10 SWAP9 POP POP POP POP POP POP POP POP POP JUMP JUMPDEST PUSH2 0x512A DUP2 PUSH2 0x4FEE JUMP JUMPDEST DUP2 EQ PUSH2 0x5135 JUMPI PUSH1 0x0 DUP1 REVERT JUMPDEST POP JUMP JUMPDEST PUSH1 0x0 DUP2 CALLDATALOAD SWAP1 POP PUSH2 0x5147 DUP2 PUSH2 0x5121 JUMP JUMPDEST SWAP3 SWAP2 POP POP JUMP JUMPDEST PUSH1 0x0 PUSH1 0x20 DUP3 DUP5 SUB SLT ISZERO PUSH2 0x5163 JUMPI PUSH2 0x5162 PUSH2 0x5024 JUMP JUMPDEST JUMPDEST PUSH1 0x0 PUSH2 0x5171 DUP5 DUP3 DUP6 ADD PUSH2 0x5138 JUMP JUMPDEST SWAP2 POP POP SWAP3 SWAP2 POP POP JUMP JUMPDEST PUSH1 0x0 PUSH1 0x40 DUP3 ADD SWAP1 POP PUSH2 0x518F PUSH1 0x0 DUP4 ADD DUP6 PUSH2 0x4FC4 JUMP JUMPDEST PUSH2 0x519C PUSH1 0x20 DUP4 ADD DUP5 PUSH2 0x4FC4 JUMP JUMPDEST SWAP4 SWAP3 POP POP POP JUMP JUMPDEST PUSH1 0x0 DUP3 DUP3 MSTORE PUSH1 0x20 DUP3 ADD SWAP1 POP SWAP3 SWAP2 POP POP JUMP JUMPDEST PUSH32 0x4F6E6C792074686520636F6E7472616374206F70706F6E656E742063616E2063 PUSH1 0x0 DUP3 ADD MSTORE PUSH32 0x616C6C20746869732066756E6374696F6E2E0000000000000000000000000000 PUSH1 0x20 DUP3 ADD MSTORE POP JUMP JUMPDEST PUSH1 0x0 PUSH2 0x5210 PUSH1 0x32 DUP4 PUSH2 0x51A3 JUMP JUMPDEST SWAP2 POP PUSH2 0x521B DUP3 PUSH2 0x51B4 JUMP JUMPDEST PUSH1 0x40 DUP3 ADD SWAP1 POP SWAP2 SWAP1 POP JUMP JUMPDEST PUSH1 0x0 PUSH1 0x20 DUP3 ADD SWAP1 POP DUP2 DUP2 SUB PUSH1 0x0 DUP4 ADD MSTORE PUSH2 0x523F DUP2 PUSH2 0x5203 JUMP JUMPDEST SWAP1 POP SWAP2 SWAP1 POP JUMP JUMPDEST PUSH32 0x4E487B7100000000000000000000000000000000000000000000000000000000 PUSH1 0x0 MSTORE PUSH1 0x11 PUSH1 0x4 MSTORE PUSH1 0x24 PUSH1 0x0 REVERT JUMPDEST PUSH1 0x0 PUSH2 0x5280 DUP3 PUSH2 0x4FBA JUMP JUMPDEST SWAP2 POP PUSH2 0x528B DUP4 PUSH2 0x4FBA JUMP JUMPDEST SWAP3 POP DUP3 DUP3 SUB SWAP1 POP DUP2 DUP2 GT ISZERO PUSH2 0x52A3 JUMPI PUSH2 0x52A2 PUSH2 0x5246 JUMP JUMPDEST JUMPDEST SWAP3 SWAP2 POP POP JUMP JUMPDEST PUSH32 0x4E487B7100000000000000000000000000000000000000000000000000000000 PUSH1 0x0 MSTORE PUSH1 0x32 PUSH1 0x4 MSTORE PUSH1 0x24 PUSH1 0x0 REVERT JUMPDEST PUSH32 0x63726561746F7220646F6573206E6F74206861766520656E6F7567682066756E PUSH1 0x0 DUP3 ADD MSTORE PUSH32 0x6473000000000000000000000000000000000000000000000000000000000000 PUSH1 0x20 DUP3 ADD MSTORE POP JUMP JUMPDEST PUSH1 0x0 PUSH2 0x5334 PUSH1 0x22 DUP4 PUSH2 0x51A3 JUMP JUMPDEST SWAP2 POP PUSH2 0x533F DUP3 PUSH2 0x52D8 JUMP JUMPDEST PUSH1 0x40 DUP3 ADD SWAP1 POP SWAP2 SWAP1 POP JUMP JUMPDEST PUSH1 0x0 PUSH1 0x20 DUP3 ADD SWAP1 POP DUP2 DUP2 SUB PUSH1 0x0 DUP4 ADD MSTORE PUSH2 0x5363 DUP2 PUSH2 0x5327 JUMP JUMPDEST SWAP1 POP SWAP2 SWAP1 POP JUMP JUMPDEST PUSH1 0x0 PUSH2 0x5375 DUP3 PUSH2 0x4FBA JUMP JUMPDEST SWAP2 POP PUSH2 0x5380 DUP4 PUSH2 0x4FBA JUMP JUMPDEST SWAP3 POP DUP3 DUP3 ADD SWAP1 POP DUP1 DUP3 GT ISZERO PUSH2 0x5398 JUMPI PUSH2 0x5397 PUSH2 0x5246 JUMP JUMPDEST JUMPDEST SWAP3 SWAP2 POP POP JUMP JUMPDEST PUSH1 0x0 DUP2 SWAP1 POP SWAP2 SWAP1 POP JUMP JUMPDEST PUSH1 0x0 PUSH2 0x53C3 PUSH2 0x53BE PUSH2 0x53B9 DUP5 PUSH2 0x4F5E JUMP JUMPDEST PUSH2 0x539E JUMP JUMPDEST PUSH2 0x4F5E JUMP JUMPDEST SWAP1 POP SWAP2 SWAP1 POP JUMP JUMPDEST PUSH1 0x0 PUSH2 0x53D5 DUP3 PUSH2 0x53A8 JUMP JUMPDEST SWAP1 POP SWAP2 SWAP1 POP JUMP JUMPDEST PUSH1 0x0 PUSH2 0x53E7 DUP3 PUSH2 0x53CA JUMP JUMPDEST SWAP1 POP SWAP2 SWAP1 POP JUMP JUMPDEST PUSH2 0x53F7 DUP2 PUSH2 0x53DC JUMP JUMPDEST DUP3 MSTORE POP POP JUMP JUMPDEST PUSH1 0x0 PUSH1 0x80 DUP3 ADD SWAP1 POP PUSH2 0x5412 PUSH1 0x0 DUP4 ADD DUP8 PUSH2 0x53EE JUMP JUMPDEST PUSH2 0x541F PUSH1 0x20 DUP4 ADD DUP7 PUSH2 0x4FFA JUMP JUMPDEST PUSH2 0x542C PUSH1 0x40 DUP4 ADD DUP6 PUSH2 0x4FC4 JUMP JUMPDEST PUSH2 0x5439 PUSH1 0x60 DUP4 ADD DUP5 PUSH2 0x4FFA JUMP JUMPDEST SWAP6 SWAP5 POP POP POP POP POP JUMP JUMPDEST PUSH1 0x0 DUP2 SWAP1 POP SWAP2 SWAP1 POP JUMP JUMPDEST PUSH1 0x0 PUSH2 0x5467 PUSH2 0x5462 PUSH2 0x545D DUP5 PUSH2 0x5442 JUMP JUMPDEST PUSH2 0x539E JUMP JUMPDEST PUSH2 0x4FBA JUMP JUMPDEST SWAP1 POP SWAP2 SWAP1 POP JUMP JUMPDEST PUSH2 0x5477 DUP2 PUSH2 0x544C JUMP JUMPDEST DUP3 MSTORE POP POP JUMP JUMPDEST PUSH1 0x0 PUSH1 0x80 DUP3 ADD SWAP1 POP PUSH2 0x5492 PUSH1 0x0 DUP4 ADD DUP8 PUSH2 0x53EE JUMP JUMPDEST PUSH2 0x549F PUSH1 0x20 DUP4 ADD DUP7 PUSH2 0x4FFA JUMP JUMPDEST PUSH2 0x54AC PUSH1 0x40 DUP4 ADD DUP6 PUSH2 0x546E JUMP JUMPDEST PUSH2 0x54B9 PUSH1 0x60 DUP4 ADD DUP5 PUSH2 0x4FFA JUMP JUMPDEST SWAP6 SWAP5 POP POP POP POP POP JUMP JUMPDEST PUSH32 0x4F6E6C792074686520636F6E74726163742063726561746F722063616E206361 PUSH1 0x0 DUP3 ADD MSTORE PUSH32 0x6C6C20746869732066756E6374696F6E2E000000000000000000000000000000 PUSH1 0x20 DUP3 ADD MSTORE POP JUMP JUMPDEST PUSH1 0x0 PUSH2 0x551E PUSH1 0x31 DUP4 PUSH2 0x51A3 JUMP JUMPDEST SWAP2 POP PUSH2 0x5529 DUP3 PUSH2 0x54C2 JUMP JUMPDEST PUSH1 0x40 DUP3 ADD SWAP1 POP SWAP2 SWAP1 POP JUMP JUMPDEST PUSH1 0x0 PUSH1 0x20 DUP3 ADD SWAP1 POP DUP2 DUP2 SUB PUSH1 0x0 DUP4 ADD MSTORE PUSH2 0x554D DUP2 PUSH2 0x5511 JUMP JUMPDEST SWAP1 POP SWAP2 SWAP1 POP JUMP JUMPDEST PUSH1 0x0 PUSH1 0x60 DUP3 ADD SWAP1 POP PUSH2 0x5569 PUSH1 0x0 DUP4 ADD DUP7 PUSH2 0x53EE JUMP JUMPDEST PUSH2 0x5576 PUSH1 0x20 DUP4 ADD DUP6 PUSH2 0x4FFA JUMP JUMPDEST PUSH2 0x5583 PUSH1 0x40 DUP4 ADD DUP5 PUSH2 0x4FC4 JUMP JUMPDEST SWAP5 SWAP4 POP POP POP POP JUMP JUMPDEST PUSH1 0x0 PUSH2 0x5596 DUP3 PUSH2 0x4FBA JUMP JUMPDEST SWAP2 POP PUSH2 0x55A1 DUP4 PUSH2 0x4FBA JUMP JUMPDEST SWAP3 POP DUP3 DUP3 MUL PUSH2 0x55AF DUP2 PUSH2 0x4FBA JUMP JUMPDEST SWAP2 POP DUP3 DUP3 DIV DUP5 EQ DUP4 ISZERO OR PUSH2 0x55C6 JUMPI PUSH2 0x55C5 PUSH2 0x5246 JUMP JUMPDEST JUMPDEST POP SWAP3 SWAP2 POP POP JUMP JUMPDEST PUSH32 0x4E487B7100000000000000000000000000000000000000000000000000000000 PUSH1 0x0 MSTORE PUSH1 0x12 PUSH1 0x4 MSTORE PUSH1 0x24 PUSH1 0x0 REVERT JUMPDEST PUSH1 0x0 PUSH2 0x5607 DUP3 PUSH2 0x4FBA JUMP JUMPDEST SWAP2 POP PUSH2 0x5612 DUP4 PUSH2 0x4FBA JUMP JUMPDEST SWAP3 POP DUP3 PUSH2 0x5622 JUMPI PUSH2 0x5621 PUSH2 0x55CD JUMP JUMPDEST JUMPDEST DUP3 DUP3 DIV SWAP1 POP SWAP3 SWAP2 POP POP JUMP JUMPDEST PUSH32 0x7265616368656420636170206F6E20616D6F756E74206F6620736F6674206F66 PUSH1 0x0 DUP3 ADD MSTORE PUSH32 0x6665727300000000000000000000000000000000000000000000000000000000 PUSH1 0x20 DUP3 ADD MSTORE POP JUMP JUMPDEST PUSH1 0x0 PUSH2 0x5689 PUSH1 0x24 DUP4 PUSH2 0x51A3 JUMP JUMPDEST SWAP2 POP PUSH2 0x5694 DUP3 PUSH2 0x562D JUMP JUMPDEST PUSH1 0x40 DUP3 ADD SWAP1 POP SWAP2 SWAP1 POP JUMP JUMPDEST PUSH1 0x0 PUSH1 0x20 DUP3 ADD SWAP1 POP DUP2 DUP2 SUB PUSH1 0x0 DUP4 ADD MSTORE PUSH2 0x56B8 DUP2 PUSH2 0x567C JUMP JUMPDEST SWAP1 POP SWAP2 SWAP1 POP JUMP JUMPDEST PUSH32 0x796F7520646F206E6F74206861766520656E6F7567682066756E647320746F20 PUSH1 0x0 DUP3 ADD MSTORE PUSH32 0x6D616B65207375636820616E206F666665720000000000000000000000000000 PUSH1 0x20 DUP3 ADD MSTORE POP JUMP JUMPDEST PUSH1 0x0 PUSH2 0x571B PUSH1 0x32 DUP4 PUSH2 0x51A3 JUMP JUMPDEST SWAP2 POP PUSH2 0x5726 DUP3 PUSH2 0x56BF JUMP JUMPDEST PUSH1 0x40 DUP3 ADD SWAP1 POP SWAP2 SWAP1 POP JUMP JUMPDEST PUSH1 0x0 PUSH1 0x20 DUP3 ADD SWAP1 POP DUP2 DUP2 SUB PUSH1 0x0 DUP4 ADD MSTORE PUSH2 0x574A DUP2 PUSH2 0x570E JUMP JUMPDEST SWAP1 POP SWAP2 SWAP1 POP JUMP JUMPDEST PUSH1 0x0 PUSH2 0x575C DUP3 PUSH2 0x4FBA JUMP JUMPDEST SWAP2 POP PUSH32 0xFFFFFFFFFFFFFFFFFFFFFFFFFFFFFFFFFFFFFFFFFFFFFFFFFFFFFFFFFFFFFFFF DUP3 SUB PUSH2 0x578E JUMPI PUSH2 0x578D PUSH2 0x5246 JUMP JUMPDEST JUMPDEST PUSH1 0x1 DUP3 ADD SWAP1 POP SWAP2 SWAP1 POP JUMP JUMPDEST PUSH32 0x796F75206D757374207761697420756E74696C20746865206F70706F6E656E74 PUSH1 0x0 DUP3 ADD MSTORE PUSH32 0x207075747320696E207468656972206F6666657220746F20696E697461746520 PUSH1 0x20 DUP3 ADD MSTORE PUSH32 0x616E2061646469746F6E616C206F666665720000000000000000000000000000 PUSH1 0x40 DUP3 ADD MSTORE POP JUMP JUMPDEST PUSH1 0x0 PUSH2 0x581B PUSH1 0x52 DUP4 PUSH2 0x51A3 JUMP JUMPDEST SWAP2 POP PUSH2 0x5826 DUP3 PUSH2 0x5799 JUMP JUMPDEST PUSH1 0x60 DUP3 ADD SWAP1 POP SWAP2 SWAP1 POP JUMP JUMPDEST PUSH1 0x0 PUSH1 0x20 DUP3 ADD SWAP1 POP DUP2 DUP2 SUB PUSH1 0x0 DUP4 ADD MSTORE PUSH2 0x584A DUP2 PUSH2 0x580E JUMP JUMPDEST SWAP1 POP SWAP2 SWAP1 POP JUMP JUMPDEST PUSH1 0x0 PUSH1 0x60 DUP3 ADD SWAP1 POP PUSH2 0x5866 PUSH1 0x0 DUP4 ADD DUP7 PUSH2 0x53EE JUMP JUMPDEST PUSH2 0x5873 PUSH1 0x20 DUP4 ADD DUP6 PUSH2 0x4FC4 JUMP JUMPDEST PUSH2 0x5880 PUSH1 0x40 DUP4 ADD DUP5 PUSH2 0x4FFA JUMP JUMPDEST SWAP5 SWAP4 POP POP POP POP JUMP JUMPDEST PUSH32 0x7265616368656420636170206F6E20616D6F756E74206F66206669726D206F66 PUSH1 0x0 DUP3 ADD MSTORE PUSH32 0x6665727300000000000000000000000000000000000000000000000000000000 PUSH1 0x20 DUP3 ADD MSTORE POP JUMP JUMPDEST PUSH1 0x0 PUSH2 0x58E4 PUSH1 0x24 DUP4 PUSH2 0x51A3 JUMP JUMPDEST SWAP2 POP PUSH2 0x58EF DUP3 PUSH2 0x5888 JUMP JUMPDEST PUSH1 0x40 DUP3 ADD SWAP1 POP SWAP2 SWAP1 POP JUMP JUMPDEST PUSH1 0x0 PUSH1 0x20 DUP3 ADD SWAP1 POP DUP2 DUP2 SUB PUSH1 0x0 DUP4 ADD MSTORE PUSH2 0x5913 DUP2 PUSH2 0x58D7 JUMP JUMPDEST SWAP1 POP SWAP2 SWAP1 POP JUMP JUMPDEST PUSH32 0x546865206D656469756D204E756D62657220686173206E6F74206265656E2073 PUSH1 0x0 DUP3 ADD MSTORE PUSH32 0x6574207965740000000000000000000000000000000000000000000000000000 PUSH1 0x20 DUP3 ADD MSTORE POP JUMP JUMPDEST PUSH1 0x0 PUSH2 0x5976 PUSH1 0x26 DUP4 PUSH2 0x51A3 JUMP JUMPDEST SWAP2 POP PUSH2 0x5981 DUP3 PUSH2 0x591A JUMP JUMPDEST PUSH1 0x40 DUP3 ADD SWAP1 POP SWAP2 SWAP1 POP JUMP JUMPDEST PUSH1 0x0 PUSH1 0x20 DUP3 ADD SWAP1 POP DUP2 DUP2 SUB PUSH1 0x0 DUP4 ADD MSTORE PUSH2 0x59A5 DUP2 PUSH2 0x5969 JUMP JUMPDEST SWAP1 POP SWAP2 SWAP1 POP JUMP JUMPDEST PUSH32 0x796F7520646F6E74206861766520656E6F75676820746F207061792074686520 PUSH1 0x0 DUP3 ADD MSTORE PUSH32 0x70656E616C747920616E642072656D6F7665207468617420616D6F756E740000 PUSH1 0x20 DUP3 ADD MSTORE POP JUMP JUMPDEST PUSH1 0x0 PUSH2 0x5A08 PUSH1 0x3E DUP4 PUSH2 0x51A3 JUMP JUMPDEST SWAP2 POP PUSH2 0x5A13 DUP3 PUSH2 0x59AC JUMP JUMPDEST PUSH1 0x40 DUP3 ADD SWAP1 POP SWAP2 SWAP1 POP JUMP JUMPDEST PUSH1 0x0 PUSH1 0x20 DUP3 ADD SWAP1 POP DUP2 DUP2 SUB PUSH1 0x0 DUP4 ADD MSTORE PUSH2 0x5A37 DUP2 PUSH2 0x59FB JUMP JUMPDEST SWAP1 POP SWAP2 SWAP1 POP JUMP JUMPDEST PUSH32 0x6E6F7420656E6F7567682066756E647300000000000000000000000000000000 PUSH1 0x0 DUP3 ADD MSTORE POP JUMP JUMPDEST PUSH1 0x0 PUSH2 0x5A74 PUSH1 0x10 DUP4 PUSH2 0x51A3 JUMP JUMPDEST SWAP2 POP PUSH2 0x5A7F DUP3 PUSH2 0x5A3E JUMP JUMPDEST PUSH1 0x20 DUP3 ADD SWAP1 POP SWAP2 SWAP1 POP JUMP JUMPDEST PUSH1 0x0 PUSH1 0x20 DUP3 ADD SWAP1 POP DUP2 DUP2 SUB PUSH1 0x0 DUP4 ADD MSTORE PUSH2 0x5AA3 DUP2 PUSH2 0x5A67 JUMP JUMPDEST SWAP1 POP SWAP2 SWAP1 POP JUMP JUMPDEST PUSH32 0x54686520636F6E74726163742063726561746F72206861732072656D6F766564 PUSH1 0x0 DUP3 ADD MSTORE PUSH32 0x206869732066756E647320616E642074686973206F66666572206973206E6F20 PUSH1 0x20 DUP3 ADD MSTORE PUSH32 0x6C6F6E67657220617661696C6162656C00000000000000000000000000000000 PUSH1 0x40 DUP3 ADD MSTORE POP JUMP JUMPDEST PUSH1 0x0 PUSH2 0x5B2C PUSH1 0x50 DUP4 PUSH2 0x51A3 JUMP JUMPDEST SWAP2 POP PUSH2 0x5B37 DUP3 PUSH2 0x5AAA JUMP JUMPDEST PUSH1 0x60 DUP3 ADD SWAP1 POP SWAP2 SWAP1 POP JUMP JUMPDEST PUSH1 0x0 PUSH1 0x20 DUP3 ADD SWAP1 POP DUP2 DUP2 SUB PUSH1 0x0 DUP4 ADD MSTORE PUSH2 0x5B5B DUP2 PUSH2 0x5B1F JUMP JUMPDEST SWAP1 POP SWAP2 SWAP1 POP JUMP JUMPDEST PUSH1 0x0 PUSH1 0x60 DUP3 ADD SWAP1 POP PUSH2 0x5B77 PUSH1 0x0 DUP4 ADD DUP7 PUSH2 0x53EE JUMP JUMPDEST PUSH2 0x5B84 PUSH1 0x20 DUP4 ADD DUP6 PUSH2 0x4FFA JUMP JUMPDEST PUSH2 0x5B91 PUSH1 0x40 DUP4 ADD DUP5 PUSH2 0x546E JUMP JUMPDEST SWAP5 SWAP4 POP POP POP POP JUMP JUMPDEST PUSH32 0x796F7520646F6E74206861766520656E6F7567682066756E647320746F207072 PUSH1 0x0 DUP3 ADD MSTORE PUSH32 0x6F636573732074686973206F6666657200000000000000000000000000000000 PUSH1 0x20 DUP3 ADD MSTORE POP JUMP JUMPDEST PUSH1 0x0 PUSH2 0x5BF5 PUSH1 0x30 DUP4 PUSH2 0x51A3 JUMP JUMPDEST SWAP2 POP PUSH2 0x5C00 DUP3 PUSH2 0x5B99 JUMP JUMPDEST PUSH1 0x40 DUP3 ADD SWAP1 POP SWAP2 SWAP1 POP JUMP JUMPDEST PUSH1 0x0 PUSH1 0x20 DUP3 ADD SWAP1 POP DUP2 DUP2 SUB PUSH1 0x0 DUP4 ADD MSTORE PUSH2 0x5C24 DUP2 PUSH2 0x5BE8 JUMP JUMPDEST SWAP1 POP SWAP2 SWAP1 POP JUMP JUMPDEST PUSH32 0x796F75206D757374207761697420756E74696C207468652063726561746F7220 PUSH1 0x0 DUP3 ADD MSTORE PUSH32 0x7075747320696E207468656972206F6666657220746F20696E69746174652061 PUSH1 0x20 DUP3 ADD MSTORE PUSH32 0x206E6577206F6666657200000000000000000000000000000000000000000000 PUSH1 0x40 DUP3 ADD MSTORE POP JUMP JUMPDEST PUSH1 0x0 PUSH2 0x5CAD PUSH1 0x4A DUP4 PUSH2 0x51A3 JUMP JUMPDEST SWAP2 POP PUSH2 0x5CB8 DUP3 PUSH2 0x5C2B JUMP JUMPDEST PUSH1 0x60 DUP3 ADD SWAP1 POP SWAP2 SWAP1 POP JUMP JUMPDEST PUSH1 0x0 PUSH1 0x20 DUP3 ADD SWAP1 POP DUP2 DUP2 SUB PUSH1 0x0 DUP4 ADD MSTORE PUSH2 0x5CDC DUP2 PUSH2 0x5CA0 JUMP JUMPDEST SWAP1 POP SWAP2 SWAP1 POP JUMP JUMPDEST PUSH32 0x796F75206D757374206465706F736974207468652070656E616C747920616D6F PUSH1 0x0 DUP3 ADD MSTORE PUSH32 0x756E7420746F2070726573656E742061206669726D206F666665720000000000 PUSH1 0x20 DUP3 ADD MSTORE POP JUMP JUMPDEST PUSH1 0x0 PUSH2 0x5D3F PUSH1 0x3B DUP4 PUSH2 0x51A3 JUMP JUMPDEST SWAP2 POP PUSH2 0x5D4A DUP3 PUSH2 0x5CE3 JUMP JUMPDEST PUSH1 0x40 DUP3 ADD SWAP1 POP SWAP2 SWAP1 POP JUMP JUMPDEST PUSH1 0x0 PUSH1 0x20 DUP3 ADD SWAP1 POP DUP2 DUP2 SUB PUSH1 0x0 DUP4 ADD MSTORE PUSH2 0x5D6E DUP2 PUSH2 0x5D32 JUMP JUMPDEST SWAP1 POP SWAP2 SWAP1 POP JUMP JUMPDEST PUSH32 0x796F7520617265206E6F74207468652063726561746F72206F72206F70706F6E PUSH1 0x0 DUP3 ADD MSTORE PUSH32 0x656E740000000000000000000000000000000000000000000000000000000000 PUSH1 0x20 DUP3 ADD MSTORE POP JUMP JUMPDEST PUSH1 0x0 PUSH2 0x5DD1 PUSH1 0x23 DUP4 PUSH2 0x51A3 JUMP JUMPDEST SWAP2 POP PUSH2 0x5DDC DUP3 PUSH2 0x5D75 JUMP JUMPDEST PUSH1 0x40 DUP3 ADD SWAP1 POP SWAP2 SWAP1 POP JUMP JUMPDEST PUSH1 0x0 PUSH1 0x20 DUP3 ADD SWAP1 POP DUP2 DUP2 SUB PUSH1 0x0 DUP4 ADD MSTORE PUSH2 0x5E00 DUP2 PUSH2 0x5DC4 JUMP JUMPDEST SWAP1 POP SWAP2 SWAP1 POP JUMP JUMPDEST PUSH1 0x0 PUSH1 0x40 DUP3 ADD SWAP1 POP PUSH2 0x5E1C PUSH1 0x0 DUP4 ADD DUP6 PUSH2 0x5094 JUMP JUMPDEST PUSH2 0x5E29 PUSH1 0x20 DUP4 ADD DUP5 PUSH2 0x4FFA JUMP JUMPDEST SWAP4 SWAP3 POP POP POP JUMP JUMPDEST PUSH1 0x0 PUSH1 0x40 DUP3 ADD SWAP1 POP PUSH2 0x5E45 PUSH1 0x0 DUP4 ADD DUP6 PUSH2 0x4FFA JUMP JUMPDEST PUSH2 0x5E52 PUSH1 0x20 DUP4 ADD DUP5 PUSH2 0x4FFA JUMP JUMPDEST SWAP4 SWAP3 POP POP POP JUMP JUMPDEST PUSH32 0x20546865206F70706F6E656E74206D7573742072656465706F73697420746865 PUSH1 0x0 DUP3 ADD MSTORE PUSH32 0x2070656E616C747920616D6F756E7420666F722061206669726D206F66666572 PUSH1 0x20 DUP3 ADD MSTORE PUSH32 0x20746F2070726F63657373000000000000000000000000000000000000000000 PUSH1 0x40 DUP3 ADD MSTORE POP JUMP JUMPDEST PUSH1 0x0 PUSH2 0x5EDB PUSH1 0x4B DUP4 PUSH2 0x51A3 JUMP JUMPDEST SWAP2 POP PUSH2 0x5EE6 DUP3 PUSH2 0x5E59 JUMP JUMPDEST PUSH1 0x60 DUP3 ADD SWAP1 POP SWAP2 SWAP1 POP JUMP JUMPDEST PUSH1 0x0 PUSH1 0x20 DUP3 ADD SWAP1 POP DUP2 DUP2 SUB PUSH1 0x0 DUP4 ADD MSTORE PUSH2 0x5F0A DUP2 PUSH2 0x5ECE JUMP JUMPDEST SWAP1 POP SWAP2 SWAP1 POP JUMP JUMPDEST PUSH32 0x5468652063726561746F7220646F6573206E6F74206861766520656E6F756768 PUSH1 0x0 DUP3 ADD MSTORE PUSH32 0x2066756E6473206E2074686520636F6E747261637420666F7220746865206F66 PUSH1 0x20 DUP3 ADD MSTORE PUSH32 0x66657220746F2070726F63657373000000000000000000000000000000000000 PUSH1 0x40 DUP3 ADD MSTORE POP JUMP JUMPDEST PUSH1 0x0 PUSH2 0x5F93 PUSH1 0x4E DUP4 PUSH2 0x51A3 JUMP JUMPDEST SWAP2 POP PUSH2 0x5F9E DUP3 PUSH2 0x5F11 JUMP JUMPDEST PUSH1 0x60 DUP3 ADD SWAP1 POP SWAP2 SWAP1 POP JUMP JUMPDEST PUSH1 0x0 PUSH1 0x20 DUP3 ADD SWAP1 POP DUP2 DUP2 SUB PUSH1 0x0 DUP4 ADD MSTORE PUSH2 0x5FC2 DUP2 PUSH2 0x5F86 JUMP JUMPDEST SWAP1 POP SWAP2 SWAP1 POP JUMP JUMPDEST PUSH1 0x0 PUSH2 0x120 DUP3 ADD SWAP1 POP PUSH2 0x5FDF PUSH1 0x0 DUP4 ADD DUP13 PUSH2 0x4FFA JUMP JUMPDEST PUSH2 0x5FEC PUSH1 0x20 DUP4 ADD DUP12 PUSH2 0x4FC4 JUMP JUMPDEST PUSH2 0x5FF9 PUSH1 0x40 DUP4 ADD DUP11 PUSH2 0x4FC4 JUMP JUMPDEST PUSH2 0x6006 PUSH1 0x60 DUP4 ADD DUP10 PUSH2 0x4FC4 JUMP JUMPDEST PUSH2 0x6013 PUSH1 0x80 DUP4 ADD DUP9 PUSH2 0x4FC4 JUMP JUMPDEST PUSH2 0x6020 PUSH1 0xA0 DUP4 ADD DUP8 PUSH2 0x4FC4 JUMP JUMPDEST PUSH2 0x602D PUSH1 0xC0 DUP4 ADD DUP7 PUSH2 0x4FC4 JUMP JUMPDEST PUSH2 0x603A PUSH1 0xE0 DUP4 ADD DUP6 PUSH2 0x4FFA JUMP JUMPDEST PUSH2 0x6048 PUSH2 0x100 DUP4 ADD DUP5 PUSH2 0x4FFA JUMP JUMPDEST SWAP11 SWAP10 POP POP POP POP POP POP POP POP POP POP JUMP JUMPDEST PUSH1 0x0 PUSH2 0x120 DUP3 ADD SWAP1 POP PUSH2 0x606C PUSH1 0x0 DUP4 ADD DUP13 PUSH2 0x4FFA JUMP JUMPDEST PUSH2 0x6079 PUSH1 0x20 DUP4 ADD DUP12 PUSH2 0x546E JUMP JUMPDEST PUSH2 0x6086 PUSH1 0x40 DUP4 ADD DUP11 PUSH2 0x546E JUMP JUMPDEST PUSH2 0x6093 PUSH1 0x60 DUP4 ADD DUP10 PUSH2 0x546E JUMP JUMPDEST PUSH2 0x60A0 PUSH1 0x80 DUP4 ADD DUP9 PUSH2 0x546E JUMP JUMPDEST PUSH2 0x60AD PUSH1 0xA0 DUP4 ADD DUP8 PUSH2 0x546E JUMP JUMPDEST PUSH2 0x60BA PUSH1 0xC0 DUP4 ADD DUP7 PUSH2 0x546E JUMP JUMPDEST PUSH2 0x60C7 PUSH1 0xE0 DUP4 ADD DUP6 PUSH2 0x4FFA JUMP JUMPDEST PUSH2 0x60D5 PUSH2 0x100 DUP4 ADD DUP5 PUSH2 0x4FFA JUMP JUMPDEST SWAP11 SWAP10 POP POP POP POP POP POP POP POP POP POP JUMP JUMPDEST PUSH1 0x0 PUSH1 0x60 DUP3 ADD SWAP1 POP PUSH2 0x60F8 PUSH1 0x0 DUP4 ADD DUP7 PUSH2 0x53EE JUMP JUMPDEST PUSH2 0x6105 PUSH1 0x20 DUP4 ADD DUP6 PUSH2 0x53EE JUMP JUMPDEST PUSH2 0x6112 PUSH1 0x40 DUP4 ADD DUP5 PUSH2 0x4FC4 JUMP JUMPDEST SWAP5 SWAP4 POP POP POP POP JUMP INVALID LOG2 PUSH5 0x6970667358 0x22 SLT KECCAK256 0xCB SHL 0xD0 0xCC 0x2E LT PUSH30 0x5B94A046155C58CBCE82899BE8A65F21455D29AFC4751E981864736F6C63 NUMBER STOP ADDMOD GT STOP CALLER "
		},
		"gasEstimates": {
			"creation": {
				"codeDepositCost": "4982400",
				"executionCost": "infinite",
				"totalCost": "infinite"
			},
			"external": {
				"checkBalance()": "2593",
				"creator()": "2583",
				"creatorAcceptSoftOffer()": "infinite",
				"creatorTakeItOrLeaveIt(uint256)": "infinite",
				"creatorTakeOrLeaveResponse(bool)": "infinite",
				"declineSoftOffer()": "infinite",
				"deposit()": "infinite",
				"finalTakeItOrLeaveItAmount()": "2517",
				"finalTakeOrLeaveRequestAmount()": "2539",
				"firmRange()": "2475",
				"fullWithdrawl()": "infinite",
				"getSummary()": "infinite",
				"initiateFirmGiverOffer(uint256)": "infinite",
				"initiateFirmReceiverOffer(uint256)": "infinite",
				"initiateSoftGiverOffer(uint256)": "infinite",
				"initiateSoftReceiverOffer(uint256)": "infinite",
				"opponent()": "2625",
				"opponentAcceptSoftOffer()": "infinite",
				"partialWithdraw(uint256)": "infinite",
				"penaltyPercent()": "2520",
				"receiverTakeItOrLeaveItResponse(bool)": "infinite",
				"receiverTakeOrLeave(uint256)": "infinite",
				"resolved()": "2561",
				"revealMediumNumberAndPenalty()": "infinite",
				"softRange()": "2497",
				"softRoundActive()": "2567",
				"totalFirmOffersCap()": "2519",
				"totalSoftOffersCap()": "2518"
			},
			"internal": {
				"determineMediumNumberAndPenalty(uint256,uint256)": "infinite",
				"processFirmOffer(uint256)": "infinite",
				"processFirmPenalties()": "infinite",
				"processSoftOffer()": "infinite"
			}
		},
		"methodIdentifiers": {
			"checkBalance()": "c71daccb",
			"creator()": "02d05d3f",
			"creatorAcceptSoftOffer()": "7754114c",
			"creatorTakeItOrLeaveIt(uint256)": "3cc5fae3",
			"creatorTakeOrLeaveResponse(bool)": "7fee0760",
			"declineSoftOffer()": "cd323f37",
			"deposit()": "d0e30db0",
			"finalTakeItOrLeaveItAmount()": "d1914988",
			"finalTakeOrLeaveRequestAmount()": "fa8dc8c9",
			"firmRange()": "41d07d8c",
			"fullWithdrawl()": "7516daa8",
			"getSummary()": "4051ddac",
			"initiateFirmGiverOffer(uint256)": "6821c00a",
			"initiateFirmReceiverOffer(uint256)": "959ec2a3",
			"initiateSoftGiverOffer(uint256)": "6244df83",
			"initiateSoftReceiverOffer(uint256)": "81276f39",
			"opponent()": "93694f67",
			"opponentAcceptSoftOffer()": "017f19e1",
			"partialWithdraw(uint256)": "71d2ee6c",
			"penaltyPercent()": "161ba46a",
			"receiverTakeItOrLeaveItResponse(bool)": "7d17c2cc",
			"receiverTakeOrLeave(uint256)": "7466cd9e",
			"resolved()": "3f6fa655",
			"revealMediumNumberAndPenalty()": "cd6e939b",
			"softRange()": "502ef5ff",
			"softRoundActive()": "328beb0f",
			"totalFirmOffersCap()": "5605c66d",
			"totalSoftOffersCap()": "819e213d"
		}
	},
	"abi": [
		{
			"inputs": [
				{
					"internalType": "address",
					"name": "_summTermsAddress",
					"type": "address"
				}
			],
			"stateMutability": "nonpayable",
			"type": "constructor"
		},
		{
			"anonymous": false,
			"inputs": [
				{
					"indexed": false,
					"internalType": "bool",
					"name": "_tie",
					"type": "bool"
				}
			],
			"name": "AmountDistanceTie",
			"type": "event"
		},
		{
			"anonymous": false,
			"inputs": [
				{
					"indexed": false,
					"internalType": "address",
					"name": "_who",
					"type": "address"
				},
				{
					"indexed": false,
					"internalType": "uint256",
					"name": "_number",
					"type": "uint256"
				},
				{
					"indexed": false,
					"internalType": "bool",
					"name": "_bothGivenAndProcessed",
					"type": "bool"
				}
			],
			"name": "FirmOfferGiven",
			"type": "event"
		},
		{
			"anonymous": false,
			"inputs": [
				{
					"indexed": false,
					"internalType": "bool",
					"name": "_withinRange",
					"type": "bool"
				},
				{
					"indexed": false,
					"internalType": "uint256",
					"name": "_giverOffer",
					"type": "uint256"
				},
				{
					"indexed": false,
					"internalType": "uint256",
					"name": "_receiverOffer",
					"type": "uint256"
				},
				{
					"indexed": false,
					"internalType": "uint256",
					"name": "_percentageDiff",
					"type": "uint256"
				},
				{
					"indexed": false,
					"internalType": "uint256",
					"name": "amountDiff",
					"type": "uint256"
				},
				{
					"indexed": false,
					"internalType": "uint256",
					"name": "_compromiseAmount",
					"type": "uint256"
				},
				{
					"indexed": false,
					"internalType": "uint256",
					"name": "_finalFirmAmount",
					"type": "uint256"
				},
				{
					"indexed": false,
					"internalType": "bool",
					"name": "_resolved",
					"type": "bool"
				},
				{
					"indexed": false,
					"internalType": "bool",
					"name": "_penalties",
					"type": "bool"
				}
			],
			"name": "FirmOfferStatus",
			"type": "event"
		},
		{
			"anonymous": false,
			"inputs": [
				{
					"indexed": false,
					"internalType": "bool",
					"name": "_readyToAccept",
					"type": "bool"
				},
				{
					"indexed": false,
					"internalType": "bool",
					"name": "_softRoundActive",
					"type": "bool"
				}
			],
			"name": "InRange",
			"type": "event"
		},
		{
			"anonymous": false,
			"inputs": [
				{
					"indexed": false,
					"internalType": "bool",
					"name": "_set",
					"type": "bool"
				}
			],
			"name": "MediumNumberAndPenaltyVariablesSet",
			"type": "event"
		},
		{
			"anonymous": false,
			"inputs": [
				{
					"indexed": false,
					"internalType": "address",
					"name": "_who",
					"type": "address"
				},
				{
					"indexed": false,
					"internalType": "bool",
					"name": "_bothPartiesAccept",
					"type": "bool"
				},
				{
					"indexed": false,
					"internalType": "uint256",
					"name": "_finalCompromisedAmount",
					"type": "uint256"
				},
				{
					"indexed": false,
					"internalType": "bool",
					"name": "_resolved",
					"type": "bool"
				}
			],
			"name": "OfferAccepted",
			"type": "event"
		},
		{
			"anonymous": false,
			"inputs": [
				{
					"indexed": false,
					"internalType": "address",
					"name": "_who",
					"type": "address"
				},
				{
					"indexed": false,
					"internalType": "bool",
					"name": "_softOfferRoundsActive",
					"type": "bool"
				}
			],
			"name": "OfferDeclined",
			"type": "event"
		},
		{
			"anonymous": false,
			"inputs": [
				{
					"indexed": false,
					"internalType": "address",
					"name": "_whoPaid",
					"type": "address"
				},
				{
					"indexed": false,
					"internalType": "address",
					"name": "_whoReceived",
					"type": "address"
				},
				{
					"indexed": false,
					"internalType": "uint256",
					"name": "_penaltyAmount",
					"type": "uint256"
				}
			],
			"name": "PenaltyGiven",
			"type": "event"
		},
		{
			"anonymous": false,
			"inputs": [
				{
					"indexed": false,
					"internalType": "address",
					"name": "_who",
					"type": "address"
				},
				{
					"indexed": false,
					"internalType": "uint256",
					"name": "_number",
					"type": "uint256"
				},
				{
					"indexed": false,
					"internalType": "bool",
					"name": "_bothGivenAndProcessed",
					"type": "bool"
				}
			],
			"name": "SoftOfferGiven",
			"type": "event"
		},
		{
			"anonymous": false,
			"inputs": [
				{
					"indexed": false,
					"internalType": "address",
					"name": "_who",
					"type": "address"
				},
				{
					"indexed": false,
					"internalType": "bool",
					"name": "_given",
					"type": "bool"
				},
				{
					"indexed": false,
					"internalType": "uint256",
					"name": "_amount",
					"type": "uint256"
				}
			],
			"name": "TakeItOrLeaveItOfferGiven",
			"type": "event"
		},
		{
			"anonymous": false,
			"inputs": [
				{
					"indexed": false,
					"internalType": "address",
					"name": "_whoResponded",
					"type": "address"
				},
				{
					"indexed": false,
					"internalType": "bool",
					"name": "_accepted",
					"type": "bool"
				},
				{
					"indexed": false,
					"internalType": "uint256",
					"name": "_amount",
					"type": "uint256"
				}
			],
			"name": "TakeItOrLeaveItResponse",
			"type": "event"
		},
		{
			"inputs": [],
			"name": "checkBalance",
			"outputs": [
				{
					"internalType": "uint256",
					"name": "",
					"type": "uint256"
				}
			],
			"stateMutability": "view",
			"type": "function"
		},
		{
			"inputs": [],
			"name": "creator",
			"outputs": [
				{
					"internalType": "address payable",
					"name": "",
					"type": "address"
				}
			],
			"stateMutability": "view",
			"type": "function"
		},
		{
			"inputs": [],
			"name": "creatorAcceptSoftOffer",
			"outputs": [],
			"stateMutability": "payable",
			"type": "function"
		},
		{
			"inputs": [
				{
					"internalType": "uint256",
					"name": "_amount",
					"type": "uint256"
				}
			],
			"name": "creatorTakeItOrLeaveIt",
			"outputs": [],
			"stateMutability": "nonpayable",
			"type": "function"
		},
		{
			"inputs": [
				{
					"internalType": "bool",
					"name": "_accept",
					"type": "bool"
				}
			],
			"name": "creatorTakeOrLeaveResponse",
			"outputs": [],
			"stateMutability": "nonpayable",
			"type": "function"
		},
		{
			"inputs": [],
			"name": "declineSoftOffer",
			"outputs": [],
			"stateMutability": "nonpayable",
			"type": "function"
		},
		{
			"inputs": [],
			"name": "deposit",
			"outputs": [],
			"stateMutability": "payable",
			"type": "function"
		},
		{
			"inputs": [],
			"name": "finalTakeItOrLeaveItAmount",
			"outputs": [
				{
					"internalType": "uint256",
					"name": "",
					"type": "uint256"
				}
			],
			"stateMutability": "view",
			"type": "function"
		},
		{
			"inputs": [],
			"name": "finalTakeOrLeaveRequestAmount",
			"outputs": [
				{
					"internalType": "uint256",
					"name": "",
					"type": "uint256"
				}
			],
			"stateMutability": "view",
			"type": "function"
		},
		{
			"inputs": [],
			"name": "firmRange",
			"outputs": [
				{
					"internalType": "uint256",
					"name": "",
					"type": "uint256"
				}
			],
			"stateMutability": "view",
			"type": "function"
		},
		{
			"inputs": [],
			"name": "fullWithdrawl",
			"outputs": [],
			"stateMutability": "nonpayable",
			"type": "function"
		},
		{
			"inputs": [],
			"name": "getSummary",
			"outputs": [
				{
					"internalType": "uint256",
					"name": "",
					"type": "uint256"
				},
				{
					"internalType": "uint256",
					"name": "",
					"type": "uint256"
				},
				{
					"internalType": "address",
					"name": "",
					"type": "address"
				},
				{
					"internalType": "address",
					"name": "",
					"type": "address"
				},
				{
					"internalType": "uint256",
					"name": "",
					"type": "uint256"
				},
				{
					"internalType": "uint256",
					"name": "",
					"type": "uint256"
				},
				{
					"internalType": "uint256",
					"name": "",
					"type": "uint256"
				},
				{
					"internalType": "bool",
					"name": "",
					"type": "bool"
				}
			],
			"stateMutability": "view",
			"type": "function"
		},
		{
			"inputs": [
				{
					"internalType": "uint256",
					"name": "_amount",
					"type": "uint256"
				}
			],
			"name": "initiateFirmGiverOffer",
			"outputs": [],
			"stateMutability": "nonpayable",
			"type": "function"
		},
		{
			"inputs": [
				{
					"internalType": "uint256",
					"name": "_amount",
					"type": "uint256"
				}
			],
			"name": "initiateFirmReceiverOffer",
			"outputs": [],
			"stateMutability": "nonpayable",
			"type": "function"
		},
		{
			"inputs": [
				{
					"internalType": "uint256",
					"name": "_amount",
					"type": "uint256"
				}
			],
			"name": "initiateSoftGiverOffer",
			"outputs": [],
			"stateMutability": "nonpayable",
			"type": "function"
		},
		{
			"inputs": [
				{
					"internalType": "uint256",
					"name": "_amount",
					"type": "uint256"
				}
			],
			"name": "initiateSoftReceiverOffer",
			"outputs": [],
			"stateMutability": "nonpayable",
			"type": "function"
		},
		{
			"inputs": [],
			"name": "opponent",
			"outputs": [
				{
					"internalType": "address payable",
					"name": "",
					"type": "address"
				}
			],
			"stateMutability": "view",
			"type": "function"
		},
		{
			"inputs": [],
			"name": "opponentAcceptSoftOffer",
			"outputs": [],
			"stateMutability": "payable",
			"type": "function"
		},
		{
			"inputs": [
				{
					"internalType": "uint256",
					"name": "_amount",
					"type": "uint256"
				}
			],
			"name": "partialWithdraw",
			"outputs": [],
			"stateMutability": "nonpayable",
			"type": "function"
		},
		{
			"inputs": [],
			"name": "penaltyPercent",
			"outputs": [
				{
					"internalType": "uint256",
					"name": "",
					"type": "uint256"
				}
			],
			"stateMutability": "view",
			"type": "function"
		},
		{
			"inputs": [
				{
					"internalType": "bool",
					"name": "_accept",
					"type": "bool"
				}
			],
			"name": "receiverTakeItOrLeaveItResponse",
			"outputs": [],
			"stateMutability": "nonpayable",
			"type": "function"
		},
		{
			"inputs": [
				{
					"internalType": "uint256",
					"name": "_amount",
					"type": "uint256"
				}
			],
			"name": "receiverTakeOrLeave",
			"outputs": [],
			"stateMutability": "nonpayable",
			"type": "function"
		},
		{
			"inputs": [],
			"name": "resolved",
			"outputs": [
				{
					"internalType": "bool",
					"name": "",
					"type": "bool"
				}
			],
			"stateMutability": "view",
			"type": "function"
		},
		{
			"inputs": [],
			"name": "revealMediumNumberAndPenalty",
			"outputs": [
				{
					"internalType": "uint256",
					"name": "",
					"type": "uint256"
				},
				{
					"internalType": "uint256",
					"name": "",
					"type": "uint256"
				}
			],
			"stateMutability": "view",
			"type": "function"
		},
		{
			"inputs": [],
			"name": "softRange",
			"outputs": [
				{
					"internalType": "uint256",
					"name": "",
					"type": "uint256"
				}
			],
			"stateMutability": "view",
			"type": "function"
		},
		{
			"inputs": [],
			"name": "softRoundActive",
			"outputs": [
				{
					"internalType": "bool",
					"name": "",
					"type": "bool"
				}
			],
			"stateMutability": "view",
			"type": "function"
		},
		{
			"inputs": [],
			"name": "totalFirmOffersCap",
			"outputs": [
				{
					"internalType": "uint256",
					"name": "",
					"type": "uint256"
				}
			],
			"stateMutability": "view",
			"type": "function"
		},
		{
			"inputs": [],
			"name": "totalSoftOffersCap",
			"outputs": [
				{
					"internalType": "uint256",
					"name": "",
					"type": "uint256"
				}
			],
			"stateMutability": "view",
			"type": "function"
		}
	]
}