{
	"data": {
		"bytecode": {
			"linkReferences": {},
			"object": "60e060405234801561001057600080fd5b5060405161069738038061069783398101604081905261002f9161028a565b600a8610801561003f5750600086115b6100b65760405162461bcd60e51b815260206004820152603460248201527f616d6f756e74206f6620736f6674206f66666572732063616e6e6f742065786360448201527f656564203130206f722062652062656c6f77203000000000000000000000000060648201526084015b60405180910390fd5b600a85106101155760405162461bcd60e51b815260206004820152602660248201527f616d6f756e74206f66206669726d206f66666572732063616e6e6f742065786360448201526506565642031360d41b60648201526084016100ad565b876001600160a01b0316876001600160a01b03160361019c5760405162461bcd60e51b815260206004820152603a60248201527f4f70706f6e656e7420616464726573732063616e6e6f7420626520746865207360448201527f616d65206173207468652063726561746f72206164647265737300000000000060648201526084016100ad565b6000841180156101ac5750602884105b6101b557600080fd5b6000831180156101c55750602883105b6101ce57600080fd5b6000821180156101de5750601482105b61023c5760405162461bcd60e51b815260206004820152602960248201527f70656e616c74792070657263656e74206d75737420626520696e2072616e6765604482015268206f6620302d31392560b81b60648201526084016100ad565b6001600160a01b0397881660805295871660a0526000949094556001929092556002556003556004551660c0526102fe565b80516001600160a01b038116811461028557600080fd5b919050565b600080600080600080600080610100898b0312156102a757600080fd5b6102b08961026e565b97506102be60208a0161026e565b965060408901519550606089015194506080890151935060a0890151925060c089015191506102ef60e08a0161026e565b90509295985092959890939650565b60805160a05160c051610365610332600039600060f0015260008181610116015261017e01526000609a01526103656000f3fe608060405234801561001057600080fd5b50600436106100935760003560e01c806341d07d8c1161006657806341d07d8c1461013a578063502ef5ff146101435780635605c66d1461014c5780635ddee3af14610155578063819e213d1461016a57600080fd5b80630ee2cb1014610098578063161ba46a146100d7578063332bdb5c146100ee5780633958005414610114575b600080fd5b7f00000000000000000000000000000000000000000000000000000000000000005b6040516001600160a01b0390911681526020015b60405180910390f35b6100e060045481565b6040519081526020016100ce565b7f00000000000000000000000000000000000000000000000000000000000000006100ba565b7f00000000000000000000000000000000000000000000000000000000000000006100ba565b6100e060035481565b6100e060025481565b6100e060015481565b610168610163366004610297565b610173565b005b6100e060005481565b336001600160a01b037f0000000000000000000000000000000000000000000000000000000000000000161461020a5760405162461bcd60e51b815260206004820152603260248201527f4f6e6c792074686520636f6e7472616374206f70706f6e656e742063616e206360448201527130b636103a3434b990333ab731ba34b7b71760711b606482015260840160405180910390fd5b8015156001036102355761023560405180606001604052806021815260200161030f60219139610238565b50565b6102358160405160240161024c91906102c0565b60408051601f198184030181529190526020810180516001600160e01b031663104c13eb60e21b17905280516a636f6e736f6c652e6c6f67602083016000808483855afa5050505050565b6000602082840312156102a957600080fd5b813580151581146102b957600080fd5b9392505050565b600060208083528351808285015260005b818110156102ed578581018301518582016040015282016102d1565b506000604082860101526040601f19601f830116850101925050509291505056fe6c657473206d616b652061206e65772073756d6d206e65676f74696174696f6e21a26469706673582212207bd73e6bb6b4ac0e8cbb1f19c01e0c773d47875f7b97b71e5969bc83808fbd9364736f6c63430008110033",
			"opcodes": "PUSH1 0xE0 PUSH1 0x40 MSTORE CALLVALUE DUP1 ISZERO PUSH2 0x10 JUMPI PUSH1 0x0 DUP1 REVERT JUMPDEST POP PUSH1 0x40 MLOAD PUSH2 0x697 CODESIZE SUB DUP1 PUSH2 0x697 DUP4 CODECOPY DUP2 ADD PUSH1 0x40 DUP2 SWAP1 MSTORE PUSH2 0x2F SWAP2 PUSH2 0x28A JUMP JUMPDEST PUSH1 0xA DUP7 LT DUP1 ISZERO PUSH2 0x3F JUMPI POP PUSH1 0x0 DUP7 GT JUMPDEST PUSH2 0xB6 JUMPI PUSH1 0x40 MLOAD PUSH3 0x461BCD PUSH1 0xE5 SHL DUP2 MSTORE PUSH1 0x20 PUSH1 0x4 DUP3 ADD MSTORE PUSH1 0x34 PUSH1 0x24 DUP3 ADD MSTORE PUSH32 0x616D6F756E74206F6620736F6674206F66666572732063616E6E6F7420657863 PUSH1 0x44 DUP3 ADD MSTORE PUSH32 0x656564203130206F722062652062656C6F772030000000000000000000000000 PUSH1 0x64 DUP3 ADD MSTORE PUSH1 0x84 ADD JUMPDEST PUSH1 0x40 MLOAD DUP1 SWAP2 SUB SWAP1 REVERT JUMPDEST PUSH1 0xA DUP6 LT PUSH2 0x115 JUMPI PUSH1 0x40 MLOAD PUSH3 0x461BCD PUSH1 0xE5 SHL DUP2 MSTORE PUSH1 0x20 PUSH1 0x4 DUP3 ADD MSTORE PUSH1 0x26 PUSH1 0x24 DUP3 ADD MSTORE PUSH32 0x616D6F756E74206F66206669726D206F66666572732063616E6E6F7420657863 PUSH1 0x44 DUP3 ADD MSTORE PUSH6 0x65656420313 PUSH1 0xD4 SHL PUSH1 0x64 DUP3 ADD MSTORE PUSH1 0x84 ADD PUSH2 0xAD JUMP JUMPDEST DUP8 PUSH1 0x1 PUSH1 0x1 PUSH1 0xA0 SHL SUB AND DUP8 PUSH1 0x1 PUSH1 0x1 PUSH1 0xA0 SHL SUB AND SUB PUSH2 0x19C JUMPI PUSH1 0x40 MLOAD PUSH3 0x461BCD PUSH1 0xE5 SHL DUP2 MSTORE PUSH1 0x20 PUSH1 0x4 DUP3 ADD MSTORE PUSH1 0x3A PUSH1 0x24 DUP3 ADD MSTORE PUSH32 0x4F70706F6E656E7420616464726573732063616E6E6F74206265207468652073 PUSH1 0x44 DUP3 ADD MSTORE PUSH32 0x616D65206173207468652063726561746F722061646472657373000000000000 PUSH1 0x64 DUP3 ADD MSTORE PUSH1 0x84 ADD PUSH2 0xAD JUMP JUMPDEST PUSH1 0x0 DUP5 GT DUP1 ISZERO PUSH2 0x1AC JUMPI POP PUSH1 0x28 DUP5 LT JUMPDEST PUSH2 0x1B5 JUMPI PUSH1 0x0 DUP1 REVERT JUMPDEST PUSH1 0x0 DUP4 GT DUP1 ISZERO PUSH2 0x1C5 JUMPI POP PUSH1 0x28 DUP4 LT JUMPDEST PUSH2 0x1CE JUMPI PUSH1 0x0 DUP1 REVERT JUMPDEST PUSH1 0x0 DUP3 GT DUP1 ISZERO PUSH2 0x1DE JUMPI POP PUSH1 0x14 DUP3 LT JUMPDEST PUSH2 0x23C JUMPI PUSH1 0x40 MLOAD PUSH3 0x461BCD PUSH1 0xE5 SHL DUP2 MSTORE PUSH1 0x20 PUSH1 0x4 DUP3 ADD MSTORE PUSH1 0x29 PUSH1 0x24 DUP3 ADD MSTORE PUSH32 0x70656E616C74792070657263656E74206D75737420626520696E2072616E6765 PUSH1 0x44 DUP3 ADD MSTORE PUSH9 0x206F6620302D313925 PUSH1 0xB8 SHL PUSH1 0x64 DUP3 ADD MSTORE PUSH1 0x84 ADD PUSH2 0xAD JUMP JUMPDEST PUSH1 0x1 PUSH1 0x1 PUSH1 0xA0 SHL SUB SWAP8 DUP9 AND PUSH1 0x80 MSTORE SWAP6 DUP8 AND PUSH1 0xA0 MSTORE PUSH1 0x0 SWAP5 SWAP1 SWAP5 SSTORE PUSH1 0x1 SWAP3 SWAP1 SWAP3 SSTORE PUSH1 0x2 SSTORE PUSH1 0x3 SSTORE PUSH1 0x4 SSTORE AND PUSH1 0xC0 MSTORE PUSH2 0x2FE JUMP JUMPDEST DUP1 MLOAD PUSH1 0x1 PUSH1 0x1 PUSH1 0xA0 SHL SUB DUP2 AND DUP2 EQ PUSH2 0x285 JUMPI PUSH1 0x0 DUP1 REVERT JUMPDEST SWAP2 SWAP1 POP JUMP JUMPDEST PUSH1 0x0 DUP1 PUSH1 0x0 DUP1 PUSH1 0x0 DUP1 PUSH1 0x0 DUP1 PUSH2 0x100 DUP10 DUP12 SUB SLT ISZERO PUSH2 0x2A7 JUMPI PUSH1 0x0 DUP1 REVERT JUMPDEST PUSH2 0x2B0 DUP10 PUSH2 0x26E JUMP JUMPDEST SWAP8 POP PUSH2 0x2BE PUSH1 0x20 DUP11 ADD PUSH2 0x26E JUMP JUMPDEST SWAP7 POP PUSH1 0x40 DUP10 ADD MLOAD SWAP6 POP PUSH1 0x60 DUP10 ADD MLOAD SWAP5 POP PUSH1 0x80 DUP10 ADD MLOAD SWAP4 POP PUSH1 0xA0 DUP10 ADD MLOAD SWAP3 POP PUSH1 0xC0 DUP10 ADD MLOAD SWAP2 POP PUSH2 0x2EF PUSH1 0xE0 DUP11 ADD PUSH2 0x26E JUMP JUMPDEST SWAP1 POP SWAP3 SWAP6 SWAP9 POP SWAP3 SWAP6 SWAP9 SWAP1 SWAP4 SWAP7 POP JUMP JUMPDEST PUSH1 0x80 MLOAD PUSH1 0xA0 MLOAD PUSH1 0xC0 MLOAD PUSH2 0x365 PUSH2 0x332 PUSH1 0x0 CODECOPY PUSH1 0x0 PUSH1 0xF0 ADD MSTORE PUSH1 0x0 DUP2 DUP2 PUSH2 0x116 ADD MSTORE PUSH2 0x17E ADD MSTORE PUSH1 0x0 PUSH1 0x9A ADD MSTORE PUSH2 0x365 PUSH1 0x0 RETURN INVALID PUSH1 0x80 PUSH1 0x40 MSTORE CALLVALUE DUP1 ISZERO PUSH2 0x10 JUMPI PUSH1 0x0 DUP1 REVERT JUMPDEST POP PUSH1 0x4 CALLDATASIZE LT PUSH2 0x93 JUMPI PUSH1 0x0 CALLDATALOAD PUSH1 0xE0 SHR DUP1 PUSH4 0x41D07D8C GT PUSH2 0x66 JUMPI DUP1 PUSH4 0x41D07D8C EQ PUSH2 0x13A JUMPI DUP1 PUSH4 0x502EF5FF EQ PUSH2 0x143 JUMPI DUP1 PUSH4 0x5605C66D EQ PUSH2 0x14C JUMPI DUP1 PUSH4 0x5DDEE3AF EQ PUSH2 0x155 JUMPI DUP1 PUSH4 0x819E213D EQ PUSH2 0x16A JUMPI PUSH1 0x0 DUP1 REVERT JUMPDEST DUP1 PUSH4 0xEE2CB10 EQ PUSH2 0x98 JUMPI DUP1 PUSH4 0x161BA46A EQ PUSH2 0xD7 JUMPI DUP1 PUSH4 0x332BDB5C EQ PUSH2 0xEE JUMPI DUP1 PUSH4 0x39580054 EQ PUSH2 0x114 JUMPI JUMPDEST PUSH1 0x0 DUP1 REVERT JUMPDEST PUSH32 0x0 JUMPDEST PUSH1 0x40 MLOAD PUSH1 0x1 PUSH1 0x1 PUSH1 0xA0 SHL SUB SWAP1 SWAP2 AND DUP2 MSTORE PUSH1 0x20 ADD JUMPDEST PUSH1 0x40 MLOAD DUP1 SWAP2 SUB SWAP1 RETURN JUMPDEST PUSH2 0xE0 PUSH1 0x4 SLOAD DUP2 JUMP JUMPDEST PUSH1 0x40 MLOAD SWAP1 DUP2 MSTORE PUSH1 0x20 ADD PUSH2 0xCE JUMP JUMPDEST PUSH32 0x0 PUSH2 0xBA JUMP JUMPDEST PUSH32 0x0 PUSH2 0xBA JUMP JUMPDEST PUSH2 0xE0 PUSH1 0x3 SLOAD DUP2 JUMP JUMPDEST PUSH2 0xE0 PUSH1 0x2 SLOAD DUP2 JUMP JUMPDEST PUSH2 0xE0 PUSH1 0x1 SLOAD DUP2 JUMP JUMPDEST PUSH2 0x168 PUSH2 0x163 CALLDATASIZE PUSH1 0x4 PUSH2 0x297 JUMP JUMPDEST PUSH2 0x173 JUMP JUMPDEST STOP JUMPDEST PUSH2 0xE0 PUSH1 0x0 SLOAD DUP2 JUMP JUMPDEST CALLER PUSH1 0x1 PUSH1 0x1 PUSH1 0xA0 SHL SUB PUSH32 0x0 AND EQ PUSH2 0x20A JUMPI PUSH1 0x40 MLOAD PUSH3 0x461BCD PUSH1 0xE5 SHL DUP2 MSTORE PUSH1 0x20 PUSH1 0x4 DUP3 ADD MSTORE PUSH1 0x32 PUSH1 0x24 DUP3 ADD MSTORE PUSH32 0x4F6E6C792074686520636F6E7472616374206F70706F6E656E742063616E2063 PUSH1 0x44 DUP3 ADD MSTORE PUSH18 0x30B636103A3434B990333AB731BA34B7B717 PUSH1 0x71 SHL PUSH1 0x64 DUP3 ADD MSTORE PUSH1 0x84 ADD PUSH1 0x40 MLOAD DUP1 SWAP2 SUB SWAP1 REVERT JUMPDEST DUP1 ISZERO ISZERO PUSH1 0x1 SUB PUSH2 0x235 JUMPI PUSH2 0x235 PUSH1 0x40 MLOAD DUP1 PUSH1 0x60 ADD PUSH1 0x40 MSTORE DUP1 PUSH1 0x21 DUP2 MSTORE PUSH1 0x20 ADD PUSH2 0x30F PUSH1 0x21 SWAP2 CODECOPY PUSH2 0x238 JUMP JUMPDEST POP JUMP JUMPDEST PUSH2 0x235 DUP2 PUSH1 0x40 MLOAD PUSH1 0x24 ADD PUSH2 0x24C SWAP2 SWAP1 PUSH2 0x2C0 JUMP JUMPDEST PUSH1 0x40 DUP1 MLOAD PUSH1 0x1F NOT DUP2 DUP5 SUB ADD DUP2 MSTORE SWAP2 SWAP1 MSTORE PUSH1 0x20 DUP2 ADD DUP1 MLOAD PUSH1 0x1 PUSH1 0x1 PUSH1 0xE0 SHL SUB AND PUSH4 0x104C13EB PUSH1 0xE2 SHL OR SWAP1 MSTORE DUP1 MLOAD PUSH11 0x636F6E736F6C652E6C6F67 PUSH1 0x20 DUP4 ADD PUSH1 0x0 DUP1 DUP5 DUP4 DUP6 GAS STATICCALL POP POP POP POP POP JUMP JUMPDEST PUSH1 0x0 PUSH1 0x20 DUP3 DUP5 SUB SLT ISZERO PUSH2 0x2A9 JUMPI PUSH1 0x0 DUP1 REVERT JUMPDEST DUP2 CALLDATALOAD DUP1 ISZERO ISZERO DUP2 EQ PUSH2 0x2B9 JUMPI PUSH1 0x0 DUP1 REVERT JUMPDEST SWAP4 SWAP3 POP POP POP JUMP JUMPDEST PUSH1 0x0 PUSH1 0x20 DUP1 DUP4 MSTORE DUP4 MLOAD DUP1 DUP3 DUP6 ADD MSTORE PUSH1 0x0 JUMPDEST DUP2 DUP2 LT ISZERO PUSH2 0x2ED JUMPI DUP6 DUP2 ADD DUP4 ADD MLOAD DUP6 DUP3 ADD PUSH1 0x40 ADD MSTORE DUP3 ADD PUSH2 0x2D1 JUMP JUMPDEST POP PUSH1 0x0 PUSH1 0x40 DUP3 DUP7 ADD ADD MSTORE PUSH1 0x40 PUSH1 0x1F NOT PUSH1 0x1F DUP4 ADD AND DUP6 ADD ADD SWAP3 POP POP POP SWAP3 SWAP2 POP POP JUMP INVALID PUSH13 0x657473206D616B652061206E65 PUSH24 0x2073756D6D206E65676F74696174696F6E21A26469706673 PC 0x22 SLT KECCAK256 PUSH28 0xD73E6BB6B4AC0E8CBB1F19C01E0C773D47875F7B97B71E5969BC8380 DUP16 0xBD SWAP4 PUSH5 0x736F6C6343 STOP ADDMOD GT STOP CALLER "
		},
		"gasEstimates": {
			"creation": {
				"codeDepositCost": "173800",
				"executionCost": "infinite",
				"totalCost": "infinite"
			},
			"external": {
				"firmRange()": "2295",
				"getCreator()": "infinite",
				"getOpponent()": "infinite",
				"getSummFoundation()": "infinite",
				"penaltyPercent()": "2318",
				"respondToTerms(bool)": "infinite",
				"softRange()": "2317",
				"totalFirmOffersCap()": "2339",
				"totalSoftOffersCap()": "2383"
			}
		},
		"methodIdentifiers": {
			"firmRange()": "41d07d8c",
			"getCreator()": "0ee2cb10",
			"getOpponent()": "39580054",
			"getSummFoundation()": "332bdb5c",
			"penaltyPercent()": "161ba46a",
			"respondToTerms(bool)": "5ddee3af",
			"softRange()": "502ef5ff",
			"totalFirmOffersCap()": "5605c66d",
			"totalSoftOffersCap()": "819e213d"
		}
	},
	"abi": [
		{
			"inputs": [
				{
					"internalType": "address payable",
					"name": "_creator",
					"type": "address"
				},
				{
					"internalType": "address payable",
					"name": "_opponent",
					"type": "address"
				},
				{
					"internalType": "uint256",
					"name": "_totalSoftOffersCap",
					"type": "uint256"
				},
				{
					"internalType": "uint256",
					"name": "_totalFirmOffersCap",
					"type": "uint256"
				},
				{
					"internalType": "uint256",
					"name": "_softRange",
					"type": "uint256"
				},
				{
					"internalType": "uint256",
					"name": "_firmRange",
					"type": "uint256"
				},
				{
					"internalType": "uint256",
					"name": "_penaltyPercent",
					"type": "uint256"
				},
				{
					"internalType": "address payable",
					"name": "_summFoundation",
					"type": "address"
				}
			],
			"stateMutability": "nonpayable",
			"type": "constructor"
		},
		{
			"inputs": [],
			"name": "firmRange",
			"outputs": [
				{
					"internalType": "uint256",
					"name": "",
					"type": "uint256"
				}
			],
			"stateMutability": "view",
			"type": "function"
		},
		{
			"inputs": [],
			"name": "getCreator",
			"outputs": [
				{
					"internalType": "address payable",
					"name": "",
					"type": "address"
				}
			],
			"stateMutability": "view",
			"type": "function"
		},
		{
			"inputs": [],
			"name": "getOpponent",
			"outputs": [
				{
					"internalType": "address payable",
					"name": "",
					"type": "address"
				}
			],
			"stateMutability": "view",
			"type": "function"
		},
		{
			"inputs": [],
			"name": "getSummFoundation",
			"outputs": [
				{
					"internalType": "address payable",
					"name": "",
					"type": "address"
				}
			],
			"stateMutability": "view",
			"type": "function"
		},
		{
			"inputs": [],
			"name": "penaltyPercent",
			"outputs": [
				{
					"internalType": "uint256",
					"name": "",
					"type": "uint256"
				}
			],
			"stateMutability": "view",
			"type": "function"
		},
		{
			"inputs": [
				{
					"internalType": "bool",
					"name": "_response",
					"type": "bool"
				}
			],
			"name": "respondToTerms",
			"outputs": [],
			"stateMutability": "view",
			"type": "function"
		},
		{
			"inputs": [],
			"name": "softRange",
			"outputs": [
				{
					"internalType": "uint256",
					"name": "",
					"type": "uint256"
				}
			],
			"stateMutability": "view",
			"type": "function"
		},
		{
			"inputs": [],
			"name": "totalFirmOffersCap",
			"outputs": [
				{
					"internalType": "uint256",
					"name": "",
					"type": "uint256"
				}
			],
			"stateMutability": "view",
			"type": "function"
		},
		{
			"inputs": [],
			"name": "totalSoftOffersCap",
			"outputs": [
				{
					"internalType": "uint256",
					"name": "",
					"type": "uint256"
				}
			],
			"stateMutability": "view",
			"type": "function"
		}
	]
}